{
  "_format": "hh-sol-artifact-1",
  "contractName": "Master",
  "sourceName": "contracts/Master.sol",
  "abi": [
    {
      "inputs": [],
      "stateMutability": "nonpayable",
      "type": "constructor"
    },
    {
      "inputs": [
        {
          "internalType": "address",
          "name": "target",
          "type": "address"
        }
      ],
      "name": "AddressEmptyCode",
      "type": "error"
    },
    {
      "inputs": [
        {
          "internalType": "address",
          "name": "account",
          "type": "address"
        }
      ],
      "name": "AddressInsufficientBalance",
      "type": "error"
    },
    {
      "inputs": [],
      "name": "FailedInnerCall",
      "type": "error"
    },
    {
      "inputs": [
        {
          "internalType": "address",
          "name": "owner",
          "type": "address"
        },
        {
          "internalType": "address",
          "name": "target",
          "type": "address"
        },
        {
          "internalType": "uint256",
          "name": "value",
          "type": "uint256"
        }
      ],
      "name": "FailedToWithdrawEth",
      "type": "error"
    },
    {
      "inputs": [
        {
          "internalType": "address",
          "name": "router",
          "type": "address"
        }
      ],
      "name": "InvalidRouter",
      "type": "error"
    },
    {
      "inputs": [
        {
          "internalType": "address",
          "name": "owner",
          "type": "address"
        }
      ],
      "name": "OwnableInvalidOwner",
      "type": "error"
    },
    {
      "inputs": [
        {
          "internalType": "address",
          "name": "account",
          "type": "address"
        }
      ],
      "name": "OwnableUnauthorizedAccount",
      "type": "error"
    },
    {
      "inputs": [
        {
          "internalType": "address",
          "name": "token",
          "type": "address"
        }
      ],
      "name": "SafeERC20FailedOperation",
      "type": "error"
    },
    {
      "anonymous": false,
      "inputs": [
        {
          "indexed": true,
          "internalType": "address",
          "name": "previousOwner",
          "type": "address"
        },
        {
          "indexed": true,
          "internalType": "address",
          "name": "newOwner",
          "type": "address"
        }
      ],
      "name": "OwnershipTransferred",
      "type": "event"
    },
    {
      "inputs": [
        {
          "internalType": "address",
          "name": "",
          "type": "address"
        },
        {
          "internalType": "address",
          "name": "",
          "type": "address"
        }
      ],
      "name": "balance",
      "outputs": [
        {
          "internalType": "uint256",
          "name": "",
          "type": "uint256"
        }
      ],
      "stateMutability": "view",
      "type": "function"
    },
    {
      "inputs": [
        {
          "components": [
            {
              "internalType": "bytes32",
              "name": "messageId",
              "type": "bytes32"
            },
            {
              "internalType": "uint64",
              "name": "sourceChainSelector",
              "type": "uint64"
            },
            {
              "internalType": "bytes",
              "name": "sender",
              "type": "bytes"
            },
            {
              "internalType": "bytes",
              "name": "data",
              "type": "bytes"
            },
            {
              "components": [
                {
                  "internalType": "address",
                  "name": "token",
                  "type": "address"
                },
                {
                  "internalType": "uint256",
                  "name": "amount",
                  "type": "uint256"
                }
              ],
              "internalType": "struct Client.EVMTokenAmount[]",
              "name": "destTokenAmounts",
              "type": "tuple[]"
            }
          ],
          "internalType": "struct Client.Any2EVMMessage",
          "name": "message",
          "type": "tuple"
        }
      ],
      "name": "ccipReceive",
      "outputs": [],
      "stateMutability": "nonpayable",
      "type": "function"
    },
    {
      "inputs": [
        {
          "internalType": "address",
          "name": "user",
          "type": "address"
        }
      ],
      "name": "getLength",
      "outputs": [
        {
          "internalType": "uint256",
          "name": "",
          "type": "uint256"
        }
      ],
      "stateMutability": "view",
      "type": "function"
    },
    {
      "inputs": [],
      "name": "getRouter",
      "outputs": [
        {
          "internalType": "address",
          "name": "",
          "type": "address"
        }
      ],
      "stateMutability": "view",
      "type": "function"
    },
    {
      "inputs": [
        {
          "internalType": "address",
          "name": "",
          "type": "address"
        },
        {
          "internalType": "uint256",
          "name": "",
          "type": "uint256"
        }
      ],
      "name": "myCrossChainTokens",
      "outputs": [
        {
          "internalType": "address",
          "name": "",
          "type": "address"
        }
      ],
      "stateMutability": "view",
      "type": "function"
    },
    {
      "inputs": [],
      "name": "owner",
      "outputs": [
        {
          "internalType": "address",
          "name": "",
          "type": "address"
        }
      ],
      "stateMutability": "view",
      "type": "function"
    },
    {
      "inputs": [],
      "name": "renounceOwnership",
      "outputs": [],
      "stateMutability": "nonpayable",
      "type": "function"
    },
    {
      "inputs": [
        {
          "internalType": "address",
          "name": "to",
          "type": "address"
        },
        {
          "internalType": "address",
          "name": "token",
          "type": "address"
        },
        {
          "internalType": "uint256",
          "name": "amount",
          "type": "uint256"
        }
      ],
      "name": "sendTokensOut",
      "outputs": [],
      "stateMutability": "nonpayable",
      "type": "function"
    },
    {
      "inputs": [
        {
          "internalType": "address",
          "name": "newVault",
          "type": "address"
        }
      ],
      "name": "setVault",
      "outputs": [],
      "stateMutability": "nonpayable",
      "type": "function"
    },
    {
      "inputs": [
        {
          "internalType": "bytes4",
          "name": "interfaceId",
          "type": "bytes4"
        }
      ],
      "name": "supportsInterface",
      "outputs": [
        {
          "internalType": "bool",
          "name": "",
          "type": "bool"
        }
      ],
      "stateMutability": "pure",
      "type": "function"
    },
    {
      "inputs": [
        {
          "internalType": "address",
          "name": "",
          "type": "address"
        },
        {
          "internalType": "address",
          "name": "",
          "type": "address"
        }
      ],
      "name": "tokenExist",
      "outputs": [
        {
          "internalType": "bool",
          "name": "",
          "type": "bool"
        }
      ],
      "stateMutability": "view",
      "type": "function"
    },
    {
      "inputs": [
        {
          "internalType": "address",
          "name": "newOwner",
          "type": "address"
        }
      ],
      "name": "transferOwnership",
      "outputs": [],
      "stateMutability": "nonpayable",
      "type": "function"
    },
    {
      "inputs": [
        {
          "internalType": "address",
          "name": "beneficiary",
          "type": "address"
        }
      ],
      "name": "withdrawNative",
      "outputs": [],
      "stateMutability": "nonpayable",
      "type": "function"
    },
    {
      "inputs": [
        {
          "internalType": "address",
          "name": "beneficiary",
          "type": "address"
        },
        {
          "internalType": "address",
          "name": "token",
          "type": "address"
        }
      ],
      "name": "withdrawToken",
      "outputs": [],
      "stateMutability": "nonpayable",
      "type": "function"
    },
    {
      "stateMutability": "payable",
      "type": "receive"
    }
  ],
  "bytecode": "0x60c060405267594862ae1802b3d560a052600280546001600160a01b0319167334b03cb9086d7d758ac55af71584f81a598759fe17905534801561004257600080fd5b5060025433906001600160a01b031680610077576040516335fdcccd60e21b8152600060048201526024015b60405180910390fd5b6001600160a01b0390811660805281166100a757604051631e4fbdf760e01b81526000600482015260240161006e565b6100b0816100b6565b50610106565b600080546001600160a01b038381166001600160a01b0319831681178455604051919092169283917f8be0079c531659141344cd1fd0a4f28419497f9722a3daafe3b4186f6b6457e09190a35050565b60805160a0516115fc610139600039600081816105e001526106a6015260008181610279015261076501526115fc6000f3fe6080604052600436106100e15760003560e01c806385572ffb1161007f578063b0f479a111610059578063b0f479a11461026a578063b203bb991461029d578063f2fde38b146102e3578063fe611a071461030357600080fd5b806385572ffb146101f15780638cc23ed7146102115780638da5cb5b1461024c57600080fd5b80633aeac4e1116100bb5780633aeac4e11461017c5780635812eed91461019c5780636817031b146101bc578063715018a6146101dc57600080fd5b806301ffc9a7146100ed5780630b18a060146101225780632f622e6b1461015a57600080fd5b366100e857005b600080fd5b3480156100f957600080fd5b5061010d610108366004610f7d565b610339565b60405190151581526020015b60405180910390f35b34801561012e57600080fd5b5061014261013d366004610fbc565b610370565b6040516001600160a01b039091168152602001610119565b34801561016657600080fd5b5061017a610175366004610fe8565b6103a8565b005b34801561018857600080fd5b5061017a610197366004611005565b610446565b3480156101a857600080fd5b5061017a6101b736600461103e565b6104cf565b3480156101c857600080fd5b5061017a6101d7366004610fe8565b61071c565b3480156101e857600080fd5b5061017a610746565b3480156101fd57600080fd5b5061017a61020c36600461107f565b61075a565b34801561021d57600080fd5b5061010d61022c366004611005565b600560209081526000928352604080842090915290825290205460ff1681565b34801561025857600080fd5b506000546001600160a01b0316610142565b34801561027657600080fd5b507f0000000000000000000000000000000000000000000000000000000000000000610142565b3480156102a957600080fd5b506102d56102b8366004611005565b600460209081526000928352604080842090915290825290205481565b604051908152602001610119565b3480156102ef57600080fd5b5061017a6102fe366004610fe8565b6107b9565b34801561030f57600080fd5b506102d561031e366004610fe8565b6001600160a01b031660009081526003602052604090205490565b60006001600160e01b031982166385572ffb60e01b148061036a57506001600160e01b031982166301ffc9a760e01b145b92915050565b6003602052816000526040600020818154811061038c57600080fd5b6000918252602090912001546001600160a01b03169150829050565b6103b06107f4565b60405147906000906001600160a01b0384169083908381818185875af1925050503d80600081146103fd576040519150601f19603f3d011682016040523d82523d6000602084013e610402565b606091505b505090508061044157604051639d11f56360e01b81523360048201526001600160a01b0384166024820152604481018390526064015b60405180910390fd5b505050565b61044e6107f4565b6040516370a0823160e01b81523060048201526000906001600160a01b038316906370a0823190602401602060405180830381865afa158015610495573d6000803e3d6000fd5b505050506040513d601f19601f820116820180604052508101906104b991906110ba565b90506104416001600160a01b0383168483610821565b3360009081526004602090815260408083206001600160a01b03861684529091529020548111156105125760405162461bcd60e51b8152600401610438906110d3565b3360009081526004602090815260408083206001600160a01b038616845290915281208054839290610545908490611116565b9091555061055590503383610873565b6000610565338585856000610a21565b90506000306001600160a01b031663b0f479a16040518163ffffffff1660e01b8152600401602060405180830381865afa1580156105a7573d6000803e3d6000fd5b505050506040513d601f19601f820116820180604052508101906105cb9190611129565b90506000816001600160a01b03166320487ded7f0000000000000000000000000000000000000000000000000000000000000000856040518363ffffffff1660e01b815260040161061d929190611196565b602060405180830381865afa15801561063a573d6000803e3d6000fd5b505050506040513d601f19601f8201168201806040525081019061065e91906110ba565b9050478111156106805760405162461bcd60e51b8152600401610438906110d3565b6040516396f4e9f960e01b81526001600160a01b038316906396f4e9f99083906106d0907f0000000000000000000000000000000000000000000000000000000000000000908890600401611196565b60206040518083038185885af11580156106ee573d6000803e3d6000fd5b50505050506040513d601f19601f8201168201806040525081019061071391906110ba565b50505050505050565b6107246107f4565b600180546001600160a01b0319166001600160a01b0392909216919091179055565b61074e6107f4565b6107586000610b7b565b565b336001600160a01b037f000000000000000000000000000000000000000000000000000000000000000016146107a5576040516335fdcccd60e21b8152336004820152602401610438565b6107b66107b182611440565b610bcb565b50565b6107c16107f4565b6001600160a01b0381166107eb57604051631e4fbdf760e01b815260006004820152602401610438565b6107b681610b7b565b6000546001600160a01b031633146107585760405163118cdaa760e01b8152336004820152602401610438565b604080516001600160a01b038416602482015260448082018490528251808303909101815260649091019091526020810180516001600160e01b031663a9059cbb60e01b179052610441908490610c89565b6001600160a01b0380831660009081526004602090815260408083209385168352929052908120549003610a1d576001600160a01b0380831660009081526005602090815260408083209385168352929052908120805460ff191690555b6001600160a01b038316600090815260036020526040902054811015610441576001600160a01b03838116600090815260036020526040902080549184169183908110610920576109206114ed565b6000918252602090912001546001600160a01b031603610a15576001600160a01b0383166000908152600360205260409020805461096090600190611116565b81548110610970576109706114ed565b60009182526020808320909101546001600160a01b038681168452600390925260409092208054919092169190839081106109ad576109ad6114ed565b600091825260208083209190910180546001600160a01b0319166001600160a01b0394851617905591851681526003909152604090208054806109f2576109f2611503565b600082815260209020810160001990810180546001600160a01b03191690550190555b6001016108d1565b5050565b610a5c6040518060a0016040528060608152602001606081526020016060815260200160006001600160a01b03168152602001606081525090565b6040805160a080820183526001546001600160a01b0390811660c0808501919091528451808503909101815260e084018552835283518a82166020808301919091528a83168287015291891660608201526080808201899052855180830390910181529201845280830191909152825160008082529181018452919283019190610b08565b6040805180820190915260008082526020820152815260200190600190039081610ae15790505b508152602001836001600160a01b03168152602001610b6f604051806020016040528062030d4081525060408051915160248084019190915281518084039091018152604490920190526020810180516001600160e01b03166397a657c960e01b17905290565b90529695505050505050565b600080546001600160a01b038381166001600160a01b0319831681178455604051919092169283917f8be0079c531659141344cd1fd0a4f28419497f9722a3daafe3b4186f6b6457e09190a35050565b600154604082015180516001600160a01b0390921691610bf391602091810182019101611129565b6001600160a01b031614610c3b5760405162461bcd60e51b815260206004820152600f60248201526e496e76616c69642073656e6465722160881b6044820152606401610438565b6000806000808460600151806020019051810190610c599190611529565b93509350935093508015610c7757610c72848484610cec565b610c82565b610c82848484610dba565b5050505050565b6000610c9e6001600160a01b03841683610e46565b90508051600014158015610cc3575080806020019051810190610cc1919061157c565b155b1561044157604051635274afe760e01b81526001600160a01b0384166004820152602401610438565b6001600160a01b0380841660009081526005602090815260408083209386168352929052205460ff16610d79576001600160a01b0383811660008181526003602090815260408083208054600180820183559185528385200180546001600160a01b03191696891696871790559383526005825280832094835293905291909120805460ff191690911790555b6001600160a01b03808416600090815260046020908152604080832093861683529290529081208054839290610db0908490611597565b9091555050505050565b6001600160a01b03808416600090815260046020908152604080832093861683529290522054811115610dff5760405162461bcd60e51b8152600401610438906110d3565b6001600160a01b03808416600090815260046020908152604080832093861683529290529081208054839290610e36908490611116565b9091555061044190508383610873565b6060610e5483836000610e5b565b9392505050565b606081471015610e805760405163cd78605960e01b8152306004820152602401610438565b600080856001600160a01b03168486604051610e9c91906115aa565b60006040518083038185875af1925050503d8060008114610ed9576040519150601f19603f3d011682016040523d82523d6000602084013e610ede565b606091505b5091509150610eee868383610ef8565b9695505050505050565b606082610f0d57610f0882610f54565b610e54565b8151158015610f2457506001600160a01b0384163b155b15610f4d57604051639996b31560e01b81526001600160a01b0385166004820152602401610438565b5080610e54565b805115610f645780518082602001fd5b604051630a12f52160e11b815260040160405180910390fd5b600060208284031215610f8f57600080fd5b81356001600160e01b031981168114610e5457600080fd5b6001600160a01b03811681146107b657600080fd5b60008060408385031215610fcf57600080fd5b8235610fda81610fa7565b946020939093013593505050565b600060208284031215610ffa57600080fd5b8135610e5481610fa7565b6000806040838503121561101857600080fd5b823561102381610fa7565b9150602083013561103381610fa7565b809150509250929050565b60008060006060848603121561105357600080fd5b833561105e81610fa7565b9250602084013561106e81610fa7565b929592945050506040919091013590565b60006020828403121561109157600080fd5b813567ffffffffffffffff8111156110a857600080fd5b820160a08185031215610e5457600080fd5b6000602082840312156110cc57600080fd5b5051919050565b6020808252601390820152724e6f7420656e6f7567682062616c616e63652160681b604082015260600190565b634e487b7160e01b600052601160045260246000fd5b8181038181111561036a5761036a611100565b60006020828403121561113b57600080fd5b8151610e5481610fa7565b60005b83811015611161578181015183820152602001611149565b50506000910152565b60008151808452611182816020860160208601611146565b601f01601f19169290920160200192915050565b6000604067ffffffffffffffff851683526020604081850152845160a060408601526111c560e086018261116a565b905081860151603f19808784030160608801526111e2838361116a565b6040890151888203830160808a01528051808352908601945060009350908501905b8084101561123657845180516001600160a01b0316835286015186830152938501936001939093019290860190611204565b5060608901516001600160a01b031660a08901526080890151888203830160c08a01529550611265818761116a565b9a9950505050505050505050565b634e487b7160e01b600052604160045260246000fd5b6040805190810167ffffffffffffffff811182821017156112ac576112ac611273565b60405290565b60405160a0810167ffffffffffffffff811182821017156112ac576112ac611273565b604051601f8201601f1916810167ffffffffffffffff811182821017156112fe576112fe611273565b604052919050565b803567ffffffffffffffff8116811461131e57600080fd5b919050565b600082601f83011261133457600080fd5b813567ffffffffffffffff81111561134e5761134e611273565b611361601f8201601f19166020016112d5565b81815284602083860101111561137657600080fd5b816020850160208301376000918101602001919091529392505050565b600082601f8301126113a457600080fd5b8135602067ffffffffffffffff8211156113c0576113c0611273565b6113ce818360051b016112d5565b82815260069290921b840181019181810190868411156113ed57600080fd5b8286015b84811015611435576040818903121561140a5760008081fd5b611412611289565b813561141d81610fa7565b815281850135858201528352918301916040016113f1565b509695505050505050565b600060a0823603121561145257600080fd5b61145a6112b2565b8235815261146a60208401611306565b6020820152604083013567ffffffffffffffff8082111561148a57600080fd5b61149636838701611323565b604084015260608501359150808211156114af57600080fd5b6114bb36838701611323565b606084015260808501359150808211156114d457600080fd5b506114e136828601611393565b60808301525092915050565b634e487b7160e01b600052603260045260246000fd5b634e487b7160e01b600052603160045260246000fd5b8051801515811461131e57600080fd5b6000806000806080858703121561153f57600080fd5b845161154a81610fa7565b602086015190945061155b81610fa7565b6040860151909350915061157160608601611519565b905092959194509250565b60006020828403121561158e57600080fd5b610e5482611519565b8082018082111561036a5761036a611100565b600082516115bc818460208701611146565b919091019291505056fea26469706673582212205765d3c486851cc231bb51ac524031bc26467ac857b2d6942569ab8138b158da64736f6c63430008180033",
  "linkReferences": {},
  "deployedLinkReferences": {}
}