{
  "_format": "hh-sol-artifact-1",
  "contractName": "NftCollection",
  "sourceName": "contracts/NftCollection.sol",
  "abi": [
    {
      "inputs": [
        {
          "internalType": "string",
          "name": "name",
          "type": "string"
        },
        {
          "internalType": "string",
          "name": "symbol",
          "type": "string"
        },
        {
          "internalType": "string",
          "name": "generalUri",
          "type": "string"
        },
        {
          "internalType": "address",
          "name": "initialOwner",
          "type": "address"
        },
        {
          "internalType": "address",
          "name": "royaltyReceiver",
          "type": "address"
        },
        {
          "internalType": "uint96",
          "name": "royaltyFraction",
          "type": "uint96"
        },
        {
          "internalType": "uint256",
          "name": "maxSupply",
          "type": "uint256"
        }
      ],
      "stateMutability": "nonpayable",
      "type": "constructor"
    },
    {
      "inputs": [
        {
          "internalType": "uint256",
          "name": "numerator",
          "type": "uint256"
        },
        {
          "internalType": "uint256",
          "name": "denominator",
          "type": "uint256"
        }
      ],
      "name": "ERC2981InvalidDefaultRoyalty",
      "type": "error"
    },
    {
      "inputs": [
        {
          "internalType": "address",
          "name": "receiver",
          "type": "address"
        }
      ],
      "name": "ERC2981InvalidDefaultRoyaltyReceiver",
      "type": "error"
    },
    {
      "inputs": [
        {
          "internalType": "uint256",
          "name": "tokenId",
          "type": "uint256"
        },
        {
          "internalType": "uint256",
          "name": "numerator",
          "type": "uint256"
        },
        {
          "internalType": "uint256",
          "name": "denominator",
          "type": "uint256"
        }
      ],
      "name": "ERC2981InvalidTokenRoyalty",
      "type": "error"
    },
    {
      "inputs": [
        {
          "internalType": "uint256",
          "name": "tokenId",
          "type": "uint256"
        },
        {
          "internalType": "address",
          "name": "receiver",
          "type": "address"
        }
      ],
      "name": "ERC2981InvalidTokenRoyaltyReceiver",
      "type": "error"
    },
    {
      "inputs": [
        {
          "internalType": "address",
          "name": "sender",
          "type": "address"
        },
        {
          "internalType": "uint256",
          "name": "tokenId",
          "type": "uint256"
        },
        {
          "internalType": "address",
          "name": "owner",
          "type": "address"
        }
      ],
      "name": "ERC721IncorrectOwner",
      "type": "error"
    },
    {
      "inputs": [
        {
          "internalType": "address",
          "name": "operator",
          "type": "address"
        },
        {
          "internalType": "uint256",
          "name": "tokenId",
          "type": "uint256"
        }
      ],
      "name": "ERC721InsufficientApproval",
      "type": "error"
    },
    {
      "inputs": [
        {
          "internalType": "address",
          "name": "approver",
          "type": "address"
        }
      ],
      "name": "ERC721InvalidApprover",
      "type": "error"
    },
    {
      "inputs": [
        {
          "internalType": "address",
          "name": "operator",
          "type": "address"
        }
      ],
      "name": "ERC721InvalidOperator",
      "type": "error"
    },
    {
      "inputs": [
        {
          "internalType": "address",
          "name": "owner",
          "type": "address"
        }
      ],
      "name": "ERC721InvalidOwner",
      "type": "error"
    },
    {
      "inputs": [
        {
          "internalType": "address",
          "name": "receiver",
          "type": "address"
        }
      ],
      "name": "ERC721InvalidReceiver",
      "type": "error"
    },
    {
      "inputs": [
        {
          "internalType": "address",
          "name": "sender",
          "type": "address"
        }
      ],
      "name": "ERC721InvalidSender",
      "type": "error"
    },
    {
      "inputs": [
        {
          "internalType": "uint256",
          "name": "tokenId",
          "type": "uint256"
        }
      ],
      "name": "ERC721NonexistentToken",
      "type": "error"
    },
    {
      "inputs": [
        {
          "internalType": "address",
          "name": "owner",
          "type": "address"
        }
      ],
      "name": "OwnableInvalidOwner",
      "type": "error"
    },
    {
      "inputs": [
        {
          "internalType": "address",
          "name": "account",
          "type": "address"
        }
      ],
      "name": "OwnableUnauthorizedAccount",
      "type": "error"
    },
    {
      "anonymous": false,
      "inputs": [
        {
          "indexed": true,
          "internalType": "address",
          "name": "owner",
          "type": "address"
        },
        {
          "indexed": true,
          "internalType": "address",
          "name": "approved",
          "type": "address"
        },
        {
          "indexed": true,
          "internalType": "uint256",
          "name": "tokenId",
          "type": "uint256"
        }
      ],
      "name": "Approval",
      "type": "event"
    },
    {
      "anonymous": false,
      "inputs": [
        {
          "indexed": true,
          "internalType": "address",
          "name": "owner",
          "type": "address"
        },
        {
          "indexed": true,
          "internalType": "address",
          "name": "operator",
          "type": "address"
        },
        {
          "indexed": false,
          "internalType": "bool",
          "name": "approved",
          "type": "bool"
        }
      ],
      "name": "ApprovalForAll",
      "type": "event"
    },
    {
      "anonymous": false,
      "inputs": [
        {
          "indexed": false,
          "internalType": "uint256",
          "name": "_fromTokenId",
          "type": "uint256"
        },
        {
          "indexed": false,
          "internalType": "uint256",
          "name": "_toTokenId",
          "type": "uint256"
        }
      ],
      "name": "BatchMetadataUpdate",
      "type": "event"
    },
    {
      "anonymous": false,
      "inputs": [
        {
          "indexed": false,
          "internalType": "uint256",
          "name": "_tokenId",
          "type": "uint256"
        }
      ],
      "name": "MetadataUpdate",
      "type": "event"
    },
    {
      "anonymous": false,
      "inputs": [
        {
          "indexed": true,
          "internalType": "address",
          "name": "previousOwner",
          "type": "address"
        },
        {
          "indexed": true,
          "internalType": "address",
          "name": "newOwner",
          "type": "address"
        }
      ],
      "name": "OwnershipTransferred",
      "type": "event"
    },
    {
      "anonymous": false,
      "inputs": [
        {
          "indexed": true,
          "internalType": "address",
          "name": "from",
          "type": "address"
        },
        {
          "indexed": true,
          "internalType": "address",
          "name": "to",
          "type": "address"
        },
        {
          "indexed": true,
          "internalType": "uint256",
          "name": "tokenId",
          "type": "uint256"
        }
      ],
      "name": "Transfer",
      "type": "event"
    },
    {
      "inputs": [],
      "name": "_maxSupply",
      "outputs": [
        {
          "internalType": "uint256",
          "name": "",
          "type": "uint256"
        }
      ],
      "stateMutability": "view",
      "type": "function"
    },
    {
      "inputs": [],
      "name": "_totalMinted",
      "outputs": [
        {
          "internalType": "uint256",
          "name": "",
          "type": "uint256"
        }
      ],
      "stateMutability": "view",
      "type": "function"
    },
    {
      "inputs": [
        {
          "internalType": "address",
          "name": "to",
          "type": "address"
        },
        {
          "internalType": "uint256",
          "name": "tokenId",
          "type": "uint256"
        }
      ],
      "name": "approve",
      "outputs": [],
      "stateMutability": "nonpayable",
      "type": "function"
    },
    {
      "inputs": [
        {
          "internalType": "address",
          "name": "owner",
          "type": "address"
        }
      ],
      "name": "balanceOf",
      "outputs": [
        {
          "internalType": "uint256",
          "name": "",
          "type": "uint256"
        }
      ],
      "stateMutability": "view",
      "type": "function"
    },
    {
      "inputs": [
        {
          "internalType": "uint256",
          "name": "tokenId",
          "type": "uint256"
        }
      ],
      "name": "getApproved",
      "outputs": [
        {
          "internalType": "address",
          "name": "",
          "type": "address"
        }
      ],
      "stateMutability": "view",
      "type": "function"
    },
    {
      "inputs": [
        {
          "internalType": "address",
          "name": "owner",
          "type": "address"
        },
        {
          "internalType": "address",
          "name": "operator",
          "type": "address"
        }
      ],
      "name": "isApprovedForAll",
      "outputs": [
        {
          "internalType": "bool",
          "name": "",
          "type": "bool"
        }
      ],
      "stateMutability": "view",
      "type": "function"
    },
    {
      "inputs": [
        {
          "internalType": "address",
          "name": "_receiver",
          "type": "address"
        },
        {
          "internalType": "uint256[]",
          "name": "_ids",
          "type": "uint256[]"
        }
      ],
      "name": "mintIds",
      "outputs": [],
      "stateMutability": "nonpayable",
      "type": "function"
    },
    {
      "inputs": [],
      "name": "name",
      "outputs": [
        {
          "internalType": "string",
          "name": "",
          "type": "string"
        }
      ],
      "stateMutability": "view",
      "type": "function"
    },
    {
      "inputs": [],
      "name": "owner",
      "outputs": [
        {
          "internalType": "address",
          "name": "",
          "type": "address"
        }
      ],
      "stateMutability": "view",
      "type": "function"
    },
    {
      "inputs": [
        {
          "internalType": "uint256",
          "name": "tokenId",
          "type": "uint256"
        }
      ],
      "name": "ownerOf",
      "outputs": [
        {
          "internalType": "address",
          "name": "",
          "type": "address"
        }
      ],
      "stateMutability": "view",
      "type": "function"
    },
    {
      "inputs": [],
      "name": "renounceOwnership",
      "outputs": [],
      "stateMutability": "nonpayable",
      "type": "function"
    },
    {
      "inputs": [
        {
          "internalType": "uint256",
          "name": "tokenId",
          "type": "uint256"
        },
        {
          "internalType": "uint256",
          "name": "salePrice",
          "type": "uint256"
        }
      ],
      "name": "royaltyInfo",
      "outputs": [
        {
          "internalType": "address",
          "name": "",
          "type": "address"
        },
        {
          "internalType": "uint256",
          "name": "",
          "type": "uint256"
        }
      ],
      "stateMutability": "view",
      "type": "function"
    },
    {
      "inputs": [
        {
          "internalType": "address",
          "name": "from",
          "type": "address"
        },
        {
          "internalType": "address",
          "name": "to",
          "type": "address"
        },
        {
          "internalType": "uint256",
          "name": "tokenId",
          "type": "uint256"
        }
      ],
      "name": "safeTransferFrom",
      "outputs": [],
      "stateMutability": "nonpayable",
      "type": "function"
    },
    {
      "inputs": [
        {
          "internalType": "address",
          "name": "from",
          "type": "address"
        },
        {
          "internalType": "address",
          "name": "to",
          "type": "address"
        },
        {
          "internalType": "uint256",
          "name": "tokenId",
          "type": "uint256"
        },
        {
          "internalType": "bytes",
          "name": "data",
          "type": "bytes"
        }
      ],
      "name": "safeTransferFrom",
      "outputs": [],
      "stateMutability": "nonpayable",
      "type": "function"
    },
    {
      "inputs": [
        {
          "internalType": "address",
          "name": "operator",
          "type": "address"
        },
        {
          "internalType": "bool",
          "name": "approved",
          "type": "bool"
        }
      ],
      "name": "setApprovalForAll",
      "outputs": [],
      "stateMutability": "nonpayable",
      "type": "function"
    },
    {
      "inputs": [
        {
          "internalType": "bytes4",
          "name": "interfaceId",
          "type": "bytes4"
        }
      ],
      "name": "supportsInterface",
      "outputs": [
        {
          "internalType": "bool",
          "name": "",
          "type": "bool"
        }
      ],
      "stateMutability": "view",
      "type": "function"
    },
    {
      "inputs": [],
      "name": "symbol",
      "outputs": [
        {
          "internalType": "string",
          "name": "",
          "type": "string"
        }
      ],
      "stateMutability": "view",
      "type": "function"
    },
    {
      "inputs": [
        {
          "internalType": "uint256",
          "name": "tokenId",
          "type": "uint256"
        }
      ],
      "name": "tokenURI",
      "outputs": [
        {
          "internalType": "string",
          "name": "",
          "type": "string"
        }
      ],
      "stateMutability": "view",
      "type": "function"
    },
    {
      "inputs": [
        {
          "internalType": "address",
          "name": "from",
          "type": "address"
        },
        {
          "internalType": "address",
          "name": "to",
          "type": "address"
        },
        {
          "internalType": "uint256",
          "name": "tokenId",
          "type": "uint256"
        }
      ],
      "name": "transferFrom",
      "outputs": [],
      "stateMutability": "nonpayable",
      "type": "function"
    },
    {
      "inputs": [
        {
          "internalType": "address",
          "name": "newOwner",
          "type": "address"
        }
      ],
      "name": "transferOwnership",
      "outputs": [],
      "stateMutability": "nonpayable",
      "type": "function"
    }
  ],
  "bytecode": "0x60806040523480156200001157600080fd5b5060405162001a0e38038062001a0e8339810160408190526200003491620002c6565b83878760026200004583826200043a565b5060036200005482826200043a565b5050506001600160a01b0381166200008757604051631e4fbdf760e01b8152600060048201526024015b60405180910390fd5b6200009281620000e8565b50600c620000a186826200043a565b50600a8190556001600160a01b03831615801590620000c957506000826001600160601b0316115b15620000db57620000db83836200013a565b5050505050505062000506565b600980546001600160a01b038381166001600160a01b0319831681179093556040519116919082907f8be0079c531659141344cd1fd0a4f28419497f9722a3daafe3b4186f6b6457e090600090a35050565b6127106001600160601b0382168110156200017b57604051636f483d0960e01b81526001600160601b0383166004820152602481018290526044016200007e565b6001600160a01b038316620001a757604051635b6cc80560e11b8152600060048201526024016200007e565b50604080518082019091526001600160a01b039092168083526001600160601b039091166020909201829052600160a01b90910217600055565b634e487b7160e01b600052604160045260246000fd5b600082601f8301126200020957600080fd5b81516001600160401b0380821115620002265762000226620001e1565b604051601f8301601f19908116603f01168101908282118183101715620002515762000251620001e1565b81604052838152602092508660208588010111156200026f57600080fd5b600091505b8382101562000293578582018301518183018401529082019062000274565b6000602085830101528094505050505092915050565b80516001600160a01b0381168114620002c157600080fd5b919050565b600080600080600080600060e0888a031215620002e257600080fd5b87516001600160401b0380821115620002fa57600080fd5b620003088b838c01620001f7565b985060208a01519150808211156200031f57600080fd5b6200032d8b838c01620001f7565b975060408a01519150808211156200034457600080fd5b50620003538a828b01620001f7565b9550506200036460608901620002a9565b93506200037460808901620002a9565b60a08901519093506001600160601b03811681146200039257600080fd5b8092505060c0880151905092959891949750929550565b600181811c90821680620003be57607f821691505b602082108103620003df57634e487b7160e01b600052602260045260246000fd5b50919050565b601f82111562000435576000816000526020600020601f850160051c81016020861015620004105750805b601f850160051c820191505b8181101562000431578281556001016200041c565b5050505b505050565b81516001600160401b03811115620004565762000456620001e1565b6200046e81620004678454620003a9565b84620003e5565b602080601f831160018114620004a657600084156200048d5750858301515b600019600386901b1c1916600185901b17855562000431565b600085815260208120601f198616915b82811015620004d757888601518255948401946001909101908401620004b6565b5085821015620004f65787850151600019600388901b60f8161c191681555b5050505050600190811b01905550565b6114f880620005166000396000f3fe608060405234801561001057600080fd5b506004361061012c5760003560e01c806370a08231116100ad578063a22cb46511610071578063a22cb46514610280578063b88d4fde14610293578063c87b56dd146102a6578063e985e9c5146102b9578063f2fde38b146102cc57600080fd5b806370a0823114610243578063715018a614610256578063736bf5911461025e5780638da5cb5b1461026757806395d89b411461027857600080fd5b806323b872dd116100f457806323b872dd146101c55780632a55205a146101d857806342842e0e1461020a578063428f3a501461021d5780636352211e1461023057600080fd5b806301ffc9a71461013157806306fdde0314610159578063081812fc1461016e578063095ea7b31461019957806322f4596f146101ae575b600080fd5b61014461013f366004610fa8565b6102df565b60405190151581526020015b60405180910390f35b6101616102f0565b604051610150919061101c565b61018161017c36600461102f565b610382565b6040516001600160a01b039091168152602001610150565b6101ac6101a7366004611064565b6103ab565b005b6101b7600a5481565b604051908152602001610150565b6101ac6101d336600461108e565b6103ba565b6101eb6101e63660046110ca565b61044a565b604080516001600160a01b039093168352602083019190915201610150565b6101ac61021836600461108e565b6104f6565b6101ac61022b3660046110ec565b610516565b61018161023e36600461102f565b61065f565b6101b7610251366004611172565b61066a565b6101ac6106b2565b6101b7600b5481565b6009546001600160a01b0316610181565b6101616106c6565b6101ac61028e36600461118d565b6106d5565b6101ac6102a13660046111df565b6106e0565b6101616102b436600461102f565b6106f7565b6101446102c73660046112bb565b61075b565b6101ac6102da366004611172565b610789565b60006102ea826107c7565b92915050565b6060600280546102ff906112ee565b80601f016020809104026020016040519081016040528092919081815260200182805461032b906112ee565b80156103785780601f1061034d57610100808354040283529160200191610378565b820191906000526020600020905b81548152906001019060200180831161035b57829003601f168201915b5050505050905090565b600061038d826107d2565b506000828152600660205260409020546001600160a01b03166102ea565b6103b682823361080b565b5050565b6001600160a01b0382166103e957604051633250574960e11b8152600060048201526024015b60405180910390fd5b60006103f6838333610818565b9050836001600160a01b0316816001600160a01b031614610444576040516364283d7b60e01b81526001600160a01b03808616600483015260248201849052821660448201526064016103e0565b50505050565b60008281526001602090815260408083208151808301909252546001600160a01b038116808352600160a01b9091046001600160601b03169282019290925282916104bf5750604080518082019091526000546001600160a01b0381168252600160a01b90046001600160601b031660208201525b6020810151600090612710906104de906001600160601b03168761133e565b6104e89190611355565b915196919550909350505050565b610511838383604051806020016040528060008152506106e0565b505050565b61051e610911565b6001600160a01b0383166105665760405162461bcd60e51b815260206004820152600f60248201526e496e76616c696420706172616d732160881b60448201526064016103e0565b600b548190600090610579908390611377565b9050600a548111156105c35760405162461bcd60e51b815260206004820152601360248201527243616e2774206d696e7420616e796d6f72652160681b60448201526064016103e0565b60005b8281101561065757600a548585838181106105e3576105e361138a565b905060200201351061062d5760405162461bcd60e51b815260206004820152601360248201527243616e2774206d696e7420616e796d6f72652160681b60448201526064016103e0565b61064f868686848181106106435761064361138a565b9050602002013561093e565b6001016105c6565b505050505050565b60006102ea826107d2565b60006001600160a01b038216610696576040516322718ad960e21b8152600060048201526024016103e0565b506001600160a01b031660009081526005602052604090205490565b6106ba610911565b6106c460006109a3565b565b6060600380546102ff906112ee565b6103b63383836109f5565b6106eb8484846103ba565b61044484848484610a94565b6060600b54821061072957505060408051808201909152600b81526a496e76616c69642049642160a81b602082015290565b600c61073483610bbd565b6040516020016107459291906113bc565b6040516020818303038152906040529050919050565b6001600160a01b03918216600090815260076020908152604080832093909416825291909152205460ff1690565b610791610911565b6001600160a01b0381166107bb57604051631e4fbdf760e01b8152600060048201526024016103e0565b6107c4816109a3565b50565b60006102ea82610c50565b6000818152600460205260408120546001600160a01b0316806102ea57604051637e27328960e01b8152600481018490526024016103e0565b6105118383836001610c75565b6000828152600460205260408120546001600160a01b039081169083161561084557610845818486610d7b565b6001600160a01b0381161561088357610862600085600080610c75565b6001600160a01b038116600090815260056020526040902080546000190190555b6001600160a01b038516156108b2576001600160a01b0385166000908152600560205260409020805460010190555b60008481526004602052604080822080546001600160a01b0319166001600160a01b0389811691821790925591518793918516917fddf252ad1be2c89b69c2b068fc378daa952ba7f163c4a11628f55a4df523b3ef91a4949350505050565b6009546001600160a01b031633146106c45760405163118cdaa760e01b81523360048201526024016103e0565b6001600160a01b03821661096857604051633250574960e11b8152600060048201526024016103e0565b600061097683836000610818565b90506001600160a01b03811615610511576040516339e3563760e11b8152600060048201526024016103e0565b600980546001600160a01b038381166001600160a01b0319831681179093556040519116919082907f8be0079c531659141344cd1fd0a4f28419497f9722a3daafe3b4186f6b6457e090600090a35050565b6001600160a01b038216610a2757604051630b61174360e31b81526001600160a01b03831660048201526024016103e0565b6001600160a01b03838116600081815260076020908152604080832094871680845294825291829020805460ff191686151590811790915591519182527f17307eab39ab6107e8899845ad3d59bd9653f200f220920489ca2b5937696c31910160405180910390a3505050565b6001600160a01b0383163b1561044457604051630a85bd0160e11b81526001600160a01b0384169063150b7a0290610ad6903390889087908790600401611468565b6020604051808303816000875af1925050508015610b11575060408051601f3d908101601f19168201909252610b0e918101906114a5565b60015b610b7a573d808015610b3f576040519150601f19603f3d011682016040523d82523d6000602084013e610b44565b606091505b508051600003610b7257604051633250574960e11b81526001600160a01b03851660048201526024016103e0565b805181602001fd5b6001600160e01b03198116630a85bd0160e11b14610bb657604051633250574960e11b81526001600160a01b03851660048201526024016103e0565b5050505050565b60606000610bca83610ddf565b600101905060008167ffffffffffffffff811115610bea57610bea6111c9565b6040519080825280601f01601f191660200182016040528015610c14576020820181803683370190505b5090508181016020015b600019016f181899199a1a9b1b9c1cb0b131b232b360811b600a86061a8153600a8504945084610c1e57509392505050565b60006001600160e01b03198216632483248360e11b14806102ea57506102ea82610eb7565b8080610c8957506001600160a01b03821615155b15610d4b576000610c99846107d2565b90506001600160a01b03831615801590610cc55750826001600160a01b0316816001600160a01b031614155b8015610cd85750610cd6818461075b565b155b15610d015760405163a9fbf51f60e01b81526001600160a01b03841660048201526024016103e0565b8115610d495783856001600160a01b0316826001600160a01b03167f8c5be1e5ebec7d5bd14f71427d1e84f3dd0314c0f7b2291e5b200ac8c7c3b92560405160405180910390a45b505b5050600090815260066020526040902080546001600160a01b0319166001600160a01b0392909216919091179055565b610d86838383610ef7565b610511576001600160a01b038316610db457604051637e27328960e01b8152600481018290526024016103e0565b60405163177e802f60e01b81526001600160a01b0383166004820152602481018290526044016103e0565b60008072184f03e93ff9f4daa797ed6e38ed64bf6a1f0160401b8310610e1e5772184f03e93ff9f4daa797ed6e38ed64bf6a1f0160401b830492506040015b6d04ee2d6d415b85acef81000000008310610e4a576d04ee2d6d415b85acef8100000000830492506020015b662386f26fc100008310610e6857662386f26fc10000830492506010015b6305f5e1008310610e80576305f5e100830492506008015b6127108310610e9457612710830492506004015b60648310610ea6576064830492506002015b600a83106102ea5760010192915050565b60006001600160e01b031982166380ac58cd60e01b1480610ee857506001600160e01b03198216635b5e139f60e01b145b806102ea57506102ea82610f5d565b60006001600160a01b03831615801590610f555750826001600160a01b0316846001600160a01b03161480610f315750610f31848461075b565b80610f5557506000828152600660205260409020546001600160a01b038481169116145b949350505050565b60006001600160e01b0319821663152a902d60e11b14806102ea57506301ffc9a760e01b6001600160e01b03198316146102ea565b6001600160e01b0319811681146107c457600080fd5b600060208284031215610fba57600080fd5b8135610fc581610f92565b9392505050565b60005b83811015610fe7578181015183820152602001610fcf565b50506000910152565b60008151808452611008816020860160208601610fcc565b601f01601f19169290920160200192915050565b602081526000610fc56020830184610ff0565b60006020828403121561104157600080fd5b5035919050565b80356001600160a01b038116811461105f57600080fd5b919050565b6000806040838503121561107757600080fd5b61108083611048565b946020939093013593505050565b6000806000606084860312156110a357600080fd5b6110ac84611048565b92506110ba60208501611048565b9150604084013590509250925092565b600080604083850312156110dd57600080fd5b50508035926020909101359150565b60008060006040848603121561110157600080fd5b61110a84611048565b9250602084013567ffffffffffffffff8082111561112757600080fd5b818601915086601f83011261113b57600080fd5b81358181111561114a57600080fd5b8760208260051b850101111561115f57600080fd5b6020830194508093505050509250925092565b60006020828403121561118457600080fd5b610fc582611048565b600080604083850312156111a057600080fd5b6111a983611048565b9150602083013580151581146111be57600080fd5b809150509250929050565b634e487b7160e01b600052604160045260246000fd5b600080600080608085870312156111f557600080fd5b6111fe85611048565b935061120c60208601611048565b925060408501359150606085013567ffffffffffffffff8082111561123057600080fd5b818701915087601f83011261124457600080fd5b813581811115611256576112566111c9565b604051601f8201601f19908116603f0116810190838211818310171561127e5761127e6111c9565b816040528281528a602084870101111561129757600080fd5b82602086016020830137600060208483010152809550505050505092959194509250565b600080604083850312156112ce57600080fd5b6112d783611048565b91506112e560208401611048565b90509250929050565b600181811c9082168061130257607f821691505b60208210810361132257634e487b7160e01b600052602260045260246000fd5b50919050565b634e487b7160e01b600052601160045260246000fd5b80820281158282048414176102ea576102ea611328565b60008261137257634e487b7160e01b600052601260045260246000fd5b500490565b808201808211156102ea576102ea611328565b634e487b7160e01b600052603260045260246000fd5b600081516113b2818560208601610fcc565b9290920192915050565b60008084548160018260011c915060018316806113da57607f831692505b602080841082036113f957634e487b7160e01b86526022600452602486fd5b81801561140d57600181146114225761144f565b60ff198616895284151585028901965061144f565b60008b81526020902060005b868110156114475781548b82015290850190830161142e565b505084890196505b50505050505061145f81856113a0565b95945050505050565b6001600160a01b038581168252841660208201526040810183905260806060820181905260009061149b90830184610ff0565b9695505050505050565b6000602082840312156114b757600080fd5b8151610fc581610f9256fea2646970667358221220e375f98c19213b0d8bb5cf86455bca6b412167ba34808a0fa8810588bf718b6c64736f6c63430008180033",
  "linkReferences": {},
  "deployedLinkReferences": {}
}