{
  "_format": "hh-sol-artifact-1",
  "contractName": "SingleNft",
  "sourceName": "contracts/SingleNft.sol",
  "abi": [
    {
      "inputs": [
        {
          "internalType": "string",
          "name": "name",
          "type": "string"
        },
        {
          "internalType": "string",
          "name": "symbol",
          "type": "string"
        },
        {
          "internalType": "string",
          "name": "generalUri",
          "type": "string"
        },
        {
          "internalType": "address",
          "name": "initialOwner",
          "type": "address"
        },
        {
          "internalType": "address",
          "name": "royaltyReceiver",
          "type": "address"
        },
        {
          "internalType": "uint96",
          "name": "royaltyFraction",
          "type": "uint96"
        }
      ],
      "stateMutability": "nonpayable",
      "type": "constructor"
    },
    {
      "inputs": [
        {
          "internalType": "uint256",
          "name": "numerator",
          "type": "uint256"
        },
        {
          "internalType": "uint256",
          "name": "denominator",
          "type": "uint256"
        }
      ],
      "name": "ERC2981InvalidDefaultRoyalty",
      "type": "error"
    },
    {
      "inputs": [
        {
          "internalType": "address",
          "name": "receiver",
          "type": "address"
        }
      ],
      "name": "ERC2981InvalidDefaultRoyaltyReceiver",
      "type": "error"
    },
    {
      "inputs": [
        {
          "internalType": "uint256",
          "name": "tokenId",
          "type": "uint256"
        },
        {
          "internalType": "uint256",
          "name": "numerator",
          "type": "uint256"
        },
        {
          "internalType": "uint256",
          "name": "denominator",
          "type": "uint256"
        }
      ],
      "name": "ERC2981InvalidTokenRoyalty",
      "type": "error"
    },
    {
      "inputs": [
        {
          "internalType": "uint256",
          "name": "tokenId",
          "type": "uint256"
        },
        {
          "internalType": "address",
          "name": "receiver",
          "type": "address"
        }
      ],
      "name": "ERC2981InvalidTokenRoyaltyReceiver",
      "type": "error"
    },
    {
      "inputs": [
        {
          "internalType": "address",
          "name": "sender",
          "type": "address"
        },
        {
          "internalType": "uint256",
          "name": "tokenId",
          "type": "uint256"
        },
        {
          "internalType": "address",
          "name": "owner",
          "type": "address"
        }
      ],
      "name": "ERC721IncorrectOwner",
      "type": "error"
    },
    {
      "inputs": [
        {
          "internalType": "address",
          "name": "operator",
          "type": "address"
        },
        {
          "internalType": "uint256",
          "name": "tokenId",
          "type": "uint256"
        }
      ],
      "name": "ERC721InsufficientApproval",
      "type": "error"
    },
    {
      "inputs": [
        {
          "internalType": "address",
          "name": "approver",
          "type": "address"
        }
      ],
      "name": "ERC721InvalidApprover",
      "type": "error"
    },
    {
      "inputs": [
        {
          "internalType": "address",
          "name": "operator",
          "type": "address"
        }
      ],
      "name": "ERC721InvalidOperator",
      "type": "error"
    },
    {
      "inputs": [
        {
          "internalType": "address",
          "name": "owner",
          "type": "address"
        }
      ],
      "name": "ERC721InvalidOwner",
      "type": "error"
    },
    {
      "inputs": [
        {
          "internalType": "address",
          "name": "receiver",
          "type": "address"
        }
      ],
      "name": "ERC721InvalidReceiver",
      "type": "error"
    },
    {
      "inputs": [
        {
          "internalType": "address",
          "name": "sender",
          "type": "address"
        }
      ],
      "name": "ERC721InvalidSender",
      "type": "error"
    },
    {
      "inputs": [
        {
          "internalType": "uint256",
          "name": "tokenId",
          "type": "uint256"
        }
      ],
      "name": "ERC721NonexistentToken",
      "type": "error"
    },
    {
      "inputs": [
        {
          "internalType": "address",
          "name": "owner",
          "type": "address"
        }
      ],
      "name": "OwnableInvalidOwner",
      "type": "error"
    },
    {
      "inputs": [
        {
          "internalType": "address",
          "name": "account",
          "type": "address"
        }
      ],
      "name": "OwnableUnauthorizedAccount",
      "type": "error"
    },
    {
      "anonymous": false,
      "inputs": [
        {
          "indexed": true,
          "internalType": "address",
          "name": "owner",
          "type": "address"
        },
        {
          "indexed": true,
          "internalType": "address",
          "name": "approved",
          "type": "address"
        },
        {
          "indexed": true,
          "internalType": "uint256",
          "name": "tokenId",
          "type": "uint256"
        }
      ],
      "name": "Approval",
      "type": "event"
    },
    {
      "anonymous": false,
      "inputs": [
        {
          "indexed": true,
          "internalType": "address",
          "name": "owner",
          "type": "address"
        },
        {
          "indexed": true,
          "internalType": "address",
          "name": "operator",
          "type": "address"
        },
        {
          "indexed": false,
          "internalType": "bool",
          "name": "approved",
          "type": "bool"
        }
      ],
      "name": "ApprovalForAll",
      "type": "event"
    },
    {
      "anonymous": false,
      "inputs": [
        {
          "indexed": false,
          "internalType": "uint256",
          "name": "_fromTokenId",
          "type": "uint256"
        },
        {
          "indexed": false,
          "internalType": "uint256",
          "name": "_toTokenId",
          "type": "uint256"
        }
      ],
      "name": "BatchMetadataUpdate",
      "type": "event"
    },
    {
      "anonymous": false,
      "inputs": [
        {
          "indexed": false,
          "internalType": "uint256",
          "name": "_tokenId",
          "type": "uint256"
        }
      ],
      "name": "MetadataUpdate",
      "type": "event"
    },
    {
      "anonymous": false,
      "inputs": [
        {
          "indexed": true,
          "internalType": "address",
          "name": "previousOwner",
          "type": "address"
        },
        {
          "indexed": true,
          "internalType": "address",
          "name": "newOwner",
          "type": "address"
        }
      ],
      "name": "OwnershipTransferred",
      "type": "event"
    },
    {
      "anonymous": false,
      "inputs": [
        {
          "indexed": true,
          "internalType": "address",
          "name": "from",
          "type": "address"
        },
        {
          "indexed": true,
          "internalType": "address",
          "name": "to",
          "type": "address"
        },
        {
          "indexed": true,
          "internalType": "uint256",
          "name": "tokenId",
          "type": "uint256"
        }
      ],
      "name": "Transfer",
      "type": "event"
    },
    {
      "inputs": [
        {
          "internalType": "address",
          "name": "to",
          "type": "address"
        },
        {
          "internalType": "uint256",
          "name": "tokenId",
          "type": "uint256"
        }
      ],
      "name": "approve",
      "outputs": [],
      "stateMutability": "nonpayable",
      "type": "function"
    },
    {
      "inputs": [
        {
          "internalType": "address",
          "name": "owner",
          "type": "address"
        }
      ],
      "name": "balanceOf",
      "outputs": [
        {
          "internalType": "uint256",
          "name": "",
          "type": "uint256"
        }
      ],
      "stateMutability": "view",
      "type": "function"
    },
    {
      "inputs": [
        {
          "internalType": "uint256",
          "name": "tokenId",
          "type": "uint256"
        }
      ],
      "name": "getApproved",
      "outputs": [
        {
          "internalType": "address",
          "name": "",
          "type": "address"
        }
      ],
      "stateMutability": "view",
      "type": "function"
    },
    {
      "inputs": [
        {
          "internalType": "address",
          "name": "owner",
          "type": "address"
        },
        {
          "internalType": "address",
          "name": "operator",
          "type": "address"
        }
      ],
      "name": "isApprovedForAll",
      "outputs": [
        {
          "internalType": "bool",
          "name": "",
          "type": "bool"
        }
      ],
      "stateMutability": "view",
      "type": "function"
    },
    {
      "inputs": [],
      "name": "name",
      "outputs": [
        {
          "internalType": "string",
          "name": "",
          "type": "string"
        }
      ],
      "stateMutability": "view",
      "type": "function"
    },
    {
      "inputs": [],
      "name": "owner",
      "outputs": [
        {
          "internalType": "address",
          "name": "",
          "type": "address"
        }
      ],
      "stateMutability": "view",
      "type": "function"
    },
    {
      "inputs": [
        {
          "internalType": "uint256",
          "name": "tokenId",
          "type": "uint256"
        }
      ],
      "name": "ownerOf",
      "outputs": [
        {
          "internalType": "address",
          "name": "",
          "type": "address"
        }
      ],
      "stateMutability": "view",
      "type": "function"
    },
    {
      "inputs": [],
      "name": "renounceOwnership",
      "outputs": [],
      "stateMutability": "nonpayable",
      "type": "function"
    },
    {
      "inputs": [
        {
          "internalType": "uint256",
          "name": "tokenId",
          "type": "uint256"
        },
        {
          "internalType": "uint256",
          "name": "salePrice",
          "type": "uint256"
        }
      ],
      "name": "royaltyInfo",
      "outputs": [
        {
          "internalType": "address",
          "name": "",
          "type": "address"
        },
        {
          "internalType": "uint256",
          "name": "",
          "type": "uint256"
        }
      ],
      "stateMutability": "view",
      "type": "function"
    },
    {
      "inputs": [
        {
          "internalType": "address",
          "name": "from",
          "type": "address"
        },
        {
          "internalType": "address",
          "name": "to",
          "type": "address"
        },
        {
          "internalType": "uint256",
          "name": "tokenId",
          "type": "uint256"
        }
      ],
      "name": "safeTransferFrom",
      "outputs": [],
      "stateMutability": "nonpayable",
      "type": "function"
    },
    {
      "inputs": [
        {
          "internalType": "address",
          "name": "from",
          "type": "address"
        },
        {
          "internalType": "address",
          "name": "to",
          "type": "address"
        },
        {
          "internalType": "uint256",
          "name": "tokenId",
          "type": "uint256"
        },
        {
          "internalType": "bytes",
          "name": "data",
          "type": "bytes"
        }
      ],
      "name": "safeTransferFrom",
      "outputs": [],
      "stateMutability": "nonpayable",
      "type": "function"
    },
    {
      "inputs": [
        {
          "internalType": "address",
          "name": "operator",
          "type": "address"
        },
        {
          "internalType": "bool",
          "name": "approved",
          "type": "bool"
        }
      ],
      "name": "setApprovalForAll",
      "outputs": [],
      "stateMutability": "nonpayable",
      "type": "function"
    },
    {
      "inputs": [
        {
          "internalType": "bytes4",
          "name": "interfaceId",
          "type": "bytes4"
        }
      ],
      "name": "supportsInterface",
      "outputs": [
        {
          "internalType": "bool",
          "name": "",
          "type": "bool"
        }
      ],
      "stateMutability": "view",
      "type": "function"
    },
    {
      "inputs": [],
      "name": "symbol",
      "outputs": [
        {
          "internalType": "string",
          "name": "",
          "type": "string"
        }
      ],
      "stateMutability": "view",
      "type": "function"
    },
    {
      "inputs": [
        {
          "internalType": "uint256",
          "name": "tokenId",
          "type": "uint256"
        }
      ],
      "name": "tokenURI",
      "outputs": [
        {
          "internalType": "string",
          "name": "",
          "type": "string"
        }
      ],
      "stateMutability": "view",
      "type": "function"
    },
    {
      "inputs": [
        {
          "internalType": "address",
          "name": "from",
          "type": "address"
        },
        {
          "internalType": "address",
          "name": "to",
          "type": "address"
        },
        {
          "internalType": "uint256",
          "name": "tokenId",
          "type": "uint256"
        }
      ],
      "name": "transferFrom",
      "outputs": [],
      "stateMutability": "nonpayable",
      "type": "function"
    },
    {
      "inputs": [
        {
          "internalType": "address",
          "name": "newOwner",
          "type": "address"
        }
      ],
      "name": "transferOwnership",
      "outputs": [],
      "stateMutability": "nonpayable",
      "type": "function"
    }
  ],
  "bytecode": "0x60806040523480156200001157600080fd5b50604051620018cc380380620018cc83398101604081905262000034916200069d565b828686600262000045838262000805565b50600362000054828262000805565b5050506001600160a01b0381166200008757604051631e4fbdf760e01b8152600060048201526024015b60405180910390fd5b6200009281620000ef565b50600a620000a1858262000805565b50620000af83600062000141565b6001600160a01b03821615801590620000d157506000816001600160601b0316115b15620000e357620000e38282620001b0565b505050505050620008d1565b600980546001600160a01b038381166001600160a01b0319831681179093556040519116919082907f8be0079c531659141344cd1fd0a4f28419497f9722a3daafe3b4186f6b6457e090600090a35050565b6001600160a01b0382166200016d57604051633250574960e11b8152600060048201526024016200007e565b60006200017c83838362000257565b90506001600160a01b03811615620001ab576040516339e3563760e11b8152600060048201526024016200007e565b505050565b6127106001600160601b038216811015620001f157604051636f483d0960e01b81526001600160601b0383166004820152602481018290526044016200007e565b6001600160a01b0383166200021d57604051635b6cc80560e11b8152600060048201526024016200007e565b50604080518082019091526001600160a01b039092168083526001600160601b039091166020909201829052600160a01b90910217600055565b6000828152600460205260408120546001600160a01b039081169083161562000287576200028781848662000356565b6001600160a01b03811615620002c757620002a66000858180620003c0565b6001600160a01b038116600090815260056020526040902080546000190190555b6001600160a01b03851615620002f7576001600160a01b0385166000908152600560205260409020805460010190555b60008481526004602052604080822080546001600160a01b0319166001600160a01b0389811691821790925591518793918516917fddf252ad1be2c89b69c2b068fc378daa952ba7f163c4a11628f55a4df523b3ef91a4949350505050565b62000363838383620004ee565b620001ab576001600160a01b0383166200039457604051637e27328960e01b8152600481018290526024016200007e565b60405163177e802f60e01b81526001600160a01b0383166004820152602481018290526044016200007e565b8080620003d557506001600160a01b03821615155b15620004be576000620003e88462000577565b90506001600160a01b03831615801590620004155750826001600160a01b0316816001600160a01b031614155b80156200044857506001600160a01b0380821660009081526007602090815260408083209387168352929052205460ff16155b15620004735760405163a9fbf51f60e01b81526001600160a01b03841660048201526024016200007e565b8115620004bc5783856001600160a01b0316826001600160a01b03167f8c5be1e5ebec7d5bd14f71427d1e84f3dd0314c0f7b2291e5b200ac8c7c3b92560405160405180910390a45b505b5050600090815260066020526040902080546001600160a01b0319166001600160a01b0392909216919091179055565b60006001600160a01b038316158015906200056f5750826001600160a01b0316846001600160a01b031614806200054a57506001600160a01b0380851660009081526007602090815260408083209387168352929052205460ff165b806200056f57506000828152600660205260409020546001600160a01b038481169116145b949350505050565b6000818152600460205260408120546001600160a01b031680620005b257604051637e27328960e01b8152600481018490526024016200007e565b92915050565b634e487b7160e01b600052604160045260246000fd5b600082601f830112620005e057600080fd5b81516001600160401b0380821115620005fd57620005fd620005b8565b604051601f8301601f19908116603f01168101908282118183101715620006285762000628620005b8565b81604052838152602092508660208588010111156200064657600080fd5b600091505b838210156200066a57858201830151818301840152908201906200064b565b6000602085830101528094505050505092915050565b80516001600160a01b03811681146200069857600080fd5b919050565b60008060008060008060c08789031215620006b757600080fd5b86516001600160401b0380821115620006cf57600080fd5b620006dd8a838b01620005ce565b97506020890151915080821115620006f457600080fd5b620007028a838b01620005ce565b965060408901519150808211156200071957600080fd5b506200072889828a01620005ce565b945050620007396060880162000680565b9250620007496080880162000680565b60a08801519092506001600160601b03811681146200076757600080fd5b809150509295509295509295565b600181811c908216806200078a57607f821691505b602082108103620007ab57634e487b7160e01b600052602260045260246000fd5b50919050565b601f821115620001ab576000816000526020600020601f850160051c81016020861015620007dc5750805b601f850160051c820191505b81811015620007fd57828155600101620007e8565b505050505050565b81516001600160401b03811115620008215762000821620005b8565b620008398162000832845462000775565b84620007b1565b602080601f831160018114620008715760008415620008585750858301515b600019600386901b1c1916600185901b178555620007fd565b600085815260208120601f198616915b82811015620008a25788860151825594840194600190910190840162000881565b5085821015620008c15787850151600019600388901b60f8161c191681555b5050505050600190811b01905550565b610feb80620008e16000396000f3fe608060405234801561001057600080fd5b506004361061010b5760003560e01c806370a08231116100a2578063a22cb46511610071578063a22cb4651461023a578063b88d4fde1461024d578063c87b56dd14610260578063e985e9c514610273578063f2fde38b1461028657600080fd5b806370a08231146101f8578063715018a6146102195780638da5cb5b1461022157806395d89b411461023257600080fd5b806323b872dd116100de57806323b872dd1461018d5780632a55205a146101a057806342842e0e146101d25780636352211e146101e557600080fd5b806301ffc9a71461011057806306fdde0314610138578063081812fc1461014d578063095ea7b314610178575b600080fd5b61012361011e366004610c24565b610299565b60405190151581526020015b60405180910390f35b6101406102aa565b60405161012f9190610c8e565b61016061015b366004610ca1565b61033c565b6040516001600160a01b03909116815260200161012f565b61018b610186366004610cd6565b610365565b005b61018b61019b366004610d00565b610374565b6101b36101ae366004610d3c565b610404565b604080516001600160a01b03909316835260208301919091520161012f565b61018b6101e0366004610d00565b6104b0565b6101606101f3366004610ca1565b6104d0565b61020b610206366004610d5e565b6104db565b60405190815260200161012f565b61018b610523565b6009546001600160a01b0316610160565b610140610537565b61018b610248366004610d79565b610546565b61018b61025b366004610dcb565b610551565b61014061026e366004610ca1565b610568565b610123610281366004610ea7565b6105a7565b61018b610294366004610d5e565b6105d5565b60006102a482610613565b92915050565b6060600280546102b990610eda565b80601f01602080910402602001604051908101604052809291908181526020018280546102e590610eda565b80156103325780601f1061030757610100808354040283529160200191610332565b820191906000526020600020905b81548152906001019060200180831161031557829003601f168201915b5050505050905090565b60006103478261061e565b506000828152600660205260409020546001600160a01b03166102a4565b610370828233610657565b5050565b6001600160a01b0382166103a357604051633250574960e11b8152600060048201526024015b60405180910390fd5b60006103b0838333610664565b9050836001600160a01b0316816001600160a01b0316146103fe576040516364283d7b60e01b81526001600160a01b038086166004830152602482018490528216604482015260640161039a565b50505050565b60008281526001602090815260408083208151808301909252546001600160a01b038116808352600160a01b9091046001600160601b03169282019290925282916104795750604080518082019091526000546001600160a01b0381168252600160a01b90046001600160601b031660208201525b602081015160009061271090610498906001600160601b031687610f14565b6104a29190610f39565b915196919550909350505050565b6104cb83838360405180602001604052806000815250610551565b505050565b60006102a48261061e565b60006001600160a01b038216610507576040516322718ad960e21b81526000600482015260240161039a565b506001600160a01b031660009081526005602052604090205490565b61052b61075d565b610535600061078a565b565b6060600380546102b990610eda565b6103703383836107dc565b61055c848484610374565b6103fe8484848461087b565b606081156105935750506040805180820190915260078152664e6f205552492160c81b602082015290565b6040805160208101909152600081526102a4565b6001600160a01b03918216600090815260076020908152604080832093909416825291909152205460ff1690565b6105dd61075d565b6001600160a01b03811661060757604051631e4fbdf760e01b81526000600482015260240161039a565b6106108161078a565b50565b60006102a4826109a4565b6000818152600460205260408120546001600160a01b0316806102a457604051637e27328960e01b81526004810184905260240161039a565b6104cb83838360016109c9565b6000828152600460205260408120546001600160a01b039081169083161561069157610691818486610acf565b6001600160a01b038116156106cf576106ae6000856000806109c9565b6001600160a01b038116600090815260056020526040902080546000190190555b6001600160a01b038516156106fe576001600160a01b0385166000908152600560205260409020805460010190555b60008481526004602052604080822080546001600160a01b0319166001600160a01b0389811691821790925591518793918516917fddf252ad1be2c89b69c2b068fc378daa952ba7f163c4a11628f55a4df523b3ef91a4949350505050565b6009546001600160a01b031633146105355760405163118cdaa760e01b815233600482015260240161039a565b600980546001600160a01b038381166001600160a01b0319831681179093556040519116919082907f8be0079c531659141344cd1fd0a4f28419497f9722a3daafe3b4186f6b6457e090600090a35050565b6001600160a01b03821661080e57604051630b61174360e31b81526001600160a01b038316600482015260240161039a565b6001600160a01b03838116600081815260076020908152604080832094871680845294825291829020805460ff191686151590811790915591519182527f17307eab39ab6107e8899845ad3d59bd9653f200f220920489ca2b5937696c31910160405180910390a3505050565b6001600160a01b0383163b156103fe57604051630a85bd0160e11b81526001600160a01b0384169063150b7a02906108bd903390889087908790600401610f5b565b6020604051808303816000875af19250505080156108f8575060408051601f3d908101601f191682019092526108f591810190610f98565b60015b610961573d808015610926576040519150601f19603f3d011682016040523d82523d6000602084013e61092b565b606091505b50805160000361095957604051633250574960e11b81526001600160a01b038516600482015260240161039a565b805181602001fd5b6001600160e01b03198116630a85bd0160e11b1461099d57604051633250574960e11b81526001600160a01b038516600482015260240161039a565b5050505050565b60006001600160e01b03198216632483248360e11b14806102a457506102a482610b33565b80806109dd57506001600160a01b03821615155b15610a9f5760006109ed8461061e565b90506001600160a01b03831615801590610a195750826001600160a01b0316816001600160a01b031614155b8015610a2c5750610a2a81846105a7565b155b15610a555760405163a9fbf51f60e01b81526001600160a01b038416600482015260240161039a565b8115610a9d5783856001600160a01b0316826001600160a01b03167f8c5be1e5ebec7d5bd14f71427d1e84f3dd0314c0f7b2291e5b200ac8c7c3b92560405160405180910390a45b505b5050600090815260066020526040902080546001600160a01b0319166001600160a01b0392909216919091179055565b610ada838383610b73565b6104cb576001600160a01b038316610b0857604051637e27328960e01b81526004810182905260240161039a565b60405163177e802f60e01b81526001600160a01b03831660048201526024810182905260440161039a565b60006001600160e01b031982166380ac58cd60e01b1480610b6457506001600160e01b03198216635b5e139f60e01b145b806102a457506102a482610bd9565b60006001600160a01b03831615801590610bd15750826001600160a01b0316846001600160a01b03161480610bad5750610bad84846105a7565b80610bd157506000828152600660205260409020546001600160a01b038481169116145b949350505050565b60006001600160e01b0319821663152a902d60e11b14806102a457506301ffc9a760e01b6001600160e01b03198316146102a4565b6001600160e01b03198116811461061057600080fd5b600060208284031215610c3657600080fd5b8135610c4181610c0e565b9392505050565b6000815180845260005b81811015610c6e57602081850181015186830182015201610c52565b506000602082860101526020601f19601f83011685010191505092915050565b602081526000610c416020830184610c48565b600060208284031215610cb357600080fd5b5035919050565b80356001600160a01b0381168114610cd157600080fd5b919050565b60008060408385031215610ce957600080fd5b610cf283610cba565b946020939093013593505050565b600080600060608486031215610d1557600080fd5b610d1e84610cba565b9250610d2c60208501610cba565b9150604084013590509250925092565b60008060408385031215610d4f57600080fd5b50508035926020909101359150565b600060208284031215610d7057600080fd5b610c4182610cba565b60008060408385031215610d8c57600080fd5b610d9583610cba565b915060208301358015158114610daa57600080fd5b809150509250929050565b634e487b7160e01b600052604160045260246000fd5b60008060008060808587031215610de157600080fd5b610dea85610cba565b9350610df860208601610cba565b925060408501359150606085013567ffffffffffffffff80821115610e1c57600080fd5b818701915087601f830112610e3057600080fd5b813581811115610e4257610e42610db5565b604051601f8201601f19908116603f01168101908382118183101715610e6a57610e6a610db5565b816040528281528a6020848701011115610e8357600080fd5b82602086016020830137600060208483010152809550505050505092959194509250565b60008060408385031215610eba57600080fd5b610ec383610cba565b9150610ed160208401610cba565b90509250929050565b600181811c90821680610eee57607f821691505b602082108103610f0e57634e487b7160e01b600052602260045260246000fd5b50919050565b80820281158282048414176102a457634e487b7160e01b600052601160045260246000fd5b600082610f5657634e487b7160e01b600052601260045260246000fd5b500490565b6001600160a01b0385811682528416602082015260408101839052608060608201819052600090610f8e90830184610c48565b9695505050505050565b600060208284031215610faa57600080fd5b8151610c4181610c0e56fea2646970667358221220af91a799394c4bbb3421d0d1e8f3b1008c4d277d7847e086569f4bf21156933e64736f6c63430008180033",
  "linkReferences": {},
  "deployedLinkReferences": {}
}