{
  "_format": "hh-sol-artifact-1",
  "contractName": "Base_Master",
  "sourceName": "contracts/Master.sol",
  "abi": [
    {
      "inputs": [
        {
          "internalType": "address",
          "name": "user",
          "type": "address"
        }
      ],
      "name": "getLength",
      "outputs": [
        {
          "internalType": "uint256",
          "name": "",
          "type": "uint256"
        }
      ],
      "stateMutability": "view",
      "type": "function"
    },
    {
      "inputs": [
        {
          "internalType": "address",
          "name": "to",
          "type": "address"
        },
        {
          "internalType": "address",
          "name": "token",
          "type": "address"
        },
        {
          "internalType": "uint256",
          "name": "amount",
          "type": "uint256"
        }
      ],
      "name": "sendTokensOut",
      "outputs": [],
      "stateMutability": "nonpayable",
      "type": "function"
    }
  ],
  "bytecode": "0x608060405234801561001057600080fd5b50610113806100206000396000f3fe6080604052348015600f57600080fd5b506004361060325760003560e01c80635812eed9146037578063fe611a07146049575b600080fd5b604760423660046087565b505050565b005b605a605436600460be565b50600090565b60405190815260200160405180910390f35b80356001600160a01b0381168114608257600080fd5b919050565b600080600060608486031215609b57600080fd5b60a284606c565b925060ae60208501606c565b9150604084013590509250925092565b60006020828403121560cf57600080fd5b60d682606c565b939250505056fea2646970667358221220e99c53ff9b9c2f4358a57e50c7f87e61728b961acf431c0d59e319d9efb2ee4164736f6c63430008180033",
  "linkReferences": {},
  "deployedLinkReferences": {}
}