{
  "_format": "hh-sol-artifact-1",
  "contractName": "Master",
  "sourceName": "contracts/Master.sol",
  "abi": [
    {
      "inputs": [],
      "stateMutability": "nonpayable",
      "type": "constructor"
    },
    {
      "inputs": [
        {
          "internalType": "address",
          "name": "target",
          "type": "address"
        }
      ],
      "name": "AddressEmptyCode",
      "type": "error"
    },
    {
      "inputs": [
        {
          "internalType": "address",
          "name": "account",
          "type": "address"
        }
      ],
      "name": "AddressInsufficientBalance",
      "type": "error"
    },
    {
      "inputs": [],
      "name": "FailedInnerCall",
      "type": "error"
    },
    {
      "inputs": [
        {
          "internalType": "address",
          "name": "owner",
          "type": "address"
        },
        {
          "internalType": "address",
          "name": "target",
          "type": "address"
        },
        {
          "internalType": "uint256",
          "name": "value",
          "type": "uint256"
        }
      ],
      "name": "FailedToWithdrawEth",
      "type": "error"
    },
    {
      "inputs": [
        {
          "internalType": "address",
          "name": "router",
          "type": "address"
        }
      ],
      "name": "InvalidRouter",
      "type": "error"
    },
    {
      "inputs": [
        {
          "internalType": "address",
          "name": "owner",
          "type": "address"
        }
      ],
      "name": "OwnableInvalidOwner",
      "type": "error"
    },
    {
      "inputs": [
        {
          "internalType": "address",
          "name": "account",
          "type": "address"
        }
      ],
      "name": "OwnableUnauthorizedAccount",
      "type": "error"
    },
    {
      "inputs": [
        {
          "internalType": "address",
          "name": "token",
          "type": "address"
        }
      ],
      "name": "SafeERC20FailedOperation",
      "type": "error"
    },
    {
      "anonymous": false,
      "inputs": [
        {
          "indexed": true,
          "internalType": "address",
          "name": "previousOwner",
          "type": "address"
        },
        {
          "indexed": true,
          "internalType": "address",
          "name": "newOwner",
          "type": "address"
        }
      ],
      "name": "OwnershipTransferred",
      "type": "event"
    },
    {
      "inputs": [
        {
          "internalType": "address",
          "name": "",
          "type": "address"
        },
        {
          "internalType": "address",
          "name": "",
          "type": "address"
        }
      ],
      "name": "balance",
      "outputs": [
        {
          "internalType": "uint256",
          "name": "",
          "type": "uint256"
        }
      ],
      "stateMutability": "view",
      "type": "function"
    },
    {
      "inputs": [
        {
          "components": [
            {
              "internalType": "bytes32",
              "name": "messageId",
              "type": "bytes32"
            },
            {
              "internalType": "uint64",
              "name": "sourceChainSelector",
              "type": "uint64"
            },
            {
              "internalType": "bytes",
              "name": "sender",
              "type": "bytes"
            },
            {
              "internalType": "bytes",
              "name": "data",
              "type": "bytes"
            },
            {
              "components": [
                {
                  "internalType": "address",
                  "name": "token",
                  "type": "address"
                },
                {
                  "internalType": "uint256",
                  "name": "amount",
                  "type": "uint256"
                }
              ],
              "internalType": "struct Client.EVMTokenAmount[]",
              "name": "destTokenAmounts",
              "type": "tuple[]"
            }
          ],
          "internalType": "struct Client.Any2EVMMessage",
          "name": "message",
          "type": "tuple"
        }
      ],
      "name": "ccipReceive",
      "outputs": [],
      "stateMutability": "nonpayable",
      "type": "function"
    },
    {
      "inputs": [
        {
          "internalType": "address",
          "name": "user",
          "type": "address"
        }
      ],
      "name": "getLength",
      "outputs": [
        {
          "internalType": "uint256",
          "name": "",
          "type": "uint256"
        }
      ],
      "stateMutability": "view",
      "type": "function"
    },
    {
      "inputs": [],
      "name": "getRouter",
      "outputs": [
        {
          "internalType": "address",
          "name": "",
          "type": "address"
        }
      ],
      "stateMutability": "view",
      "type": "function"
    },
    {
      "inputs": [
        {
          "internalType": "address",
          "name": "",
          "type": "address"
        },
        {
          "internalType": "uint256",
          "name": "",
          "type": "uint256"
        }
      ],
      "name": "myCrossChainTokens",
      "outputs": [
        {
          "internalType": "address",
          "name": "",
          "type": "address"
        }
      ],
      "stateMutability": "view",
      "type": "function"
    },
    {
      "inputs": [],
      "name": "owner",
      "outputs": [
        {
          "internalType": "address",
          "name": "",
          "type": "address"
        }
      ],
      "stateMutability": "view",
      "type": "function"
    },
    {
      "inputs": [],
      "name": "renounceOwnership",
      "outputs": [],
      "stateMutability": "nonpayable",
      "type": "function"
    },
    {
      "inputs": [
        {
          "internalType": "address",
          "name": "to",
          "type": "address"
        },
        {
          "internalType": "address",
          "name": "token",
          "type": "address"
        },
        {
          "internalType": "uint256",
          "name": "amount",
          "type": "uint256"
        }
      ],
      "name": "sendTokensOut",
      "outputs": [],
      "stateMutability": "payable",
      "type": "function"
    },
    {
      "inputs": [
        {
          "internalType": "uint256",
          "name": "newFee",
          "type": "uint256"
        }
      ],
      "name": "setFee",
      "outputs": [],
      "stateMutability": "nonpayable",
      "type": "function"
    },
    {
      "inputs": [
        {
          "internalType": "address",
          "name": "newVault",
          "type": "address"
        }
      ],
      "name": "setVault",
      "outputs": [],
      "stateMutability": "nonpayable",
      "type": "function"
    },
    {
      "inputs": [
        {
          "internalType": "bytes4",
          "name": "interfaceId",
          "type": "bytes4"
        }
      ],
      "name": "supportsInterface",
      "outputs": [
        {
          "internalType": "bool",
          "name": "",
          "type": "bool"
        }
      ],
      "stateMutability": "pure",
      "type": "function"
    },
    {
      "inputs": [
        {
          "internalType": "address",
          "name": "",
          "type": "address"
        },
        {
          "internalType": "address",
          "name": "",
          "type": "address"
        }
      ],
      "name": "tokenExist",
      "outputs": [
        {
          "internalType": "bool",
          "name": "",
          "type": "bool"
        }
      ],
      "stateMutability": "view",
      "type": "function"
    },
    {
      "inputs": [
        {
          "internalType": "address",
          "name": "newOwner",
          "type": "address"
        }
      ],
      "name": "transferOwnership",
      "outputs": [],
      "stateMutability": "nonpayable",
      "type": "function"
    },
    {
      "inputs": [
        {
          "internalType": "address",
          "name": "beneficiary",
          "type": "address"
        }
      ],
      "name": "withdrawNative",
      "outputs": [],
      "stateMutability": "nonpayable",
      "type": "function"
    },
    {
      "inputs": [
        {
          "internalType": "address",
          "name": "beneficiary",
          "type": "address"
        },
        {
          "internalType": "address",
          "name": "token",
          "type": "address"
        }
      ],
      "name": "withdrawToken",
      "outputs": [],
      "stateMutability": "nonpayable",
      "type": "function"
    },
    {
      "stateMutability": "payable",
      "type": "receive"
    }
  ],
  "bytecode": "0x60c0604052679d70576d8e253bcf60a052600380546001600160a01b03191673881e3a65b4d4a04dd529061dd0071cf975f58bcd17905534801561004257600080fd5b5060035433906001600160a01b031680610077576040516335fdcccd60e21b8152600060048201526024015b60405180910390fd5b6001600160a01b0390811660805281166100a757604051631e4fbdf760e01b81526000600482015260240161006e565b6100b0816100b6565b50610106565b600080546001600160a01b038381166001600160a01b0319831681178455604051919092169283917f8be0079c531659141344cd1fd0a4f28419497f9722a3daafe3b4186f6b6457e09190a35050565b60805160a05161168961013960003960008181610647015261070d01526000818161029701526107d901526116896000f3fe6080604052600436106100ec5760003560e01c8063715018a61161008a578063b0f479a111610059578063b0f479a114610288578063b203bb99146102bb578063f2fde38b14610301578063fe611a071461032157600080fd5b8063715018a6146101fa57806385572ffb1461020f5780638cc23ed71461022f5780638da5cb5b1461026a57600080fd5b80633aeac4e1116100c65780633aeac4e1146101875780635812eed9146101a75780636817031b146101ba57806369fe0e2d146101da57600080fd5b806301ffc9a7146100f85780630b18a0601461012d5780632f622e6b1461016557600080fd5b366100f357005b600080fd5b34801561010457600080fd5b50610118610113366004610ff1565b610357565b60405190151581526020015b60405180910390f35b34801561013957600080fd5b5061014d610148366004611030565b61038e565b6040516001600160a01b039091168152602001610124565b34801561017157600080fd5b5061018561018036600461105c565b6103c6565b005b34801561019357600080fd5b506101856101a2366004611079565b610464565b6101856101b53660046110b2565b6104ed565b3480156101c657600080fd5b506101856101d536600461105c565b610783565b3480156101e657600080fd5b506101856101f53660046110f3565b6107ad565b34801561020657600080fd5b506101856107ba565b34801561021b57600080fd5b5061018561022a36600461110c565b6107ce565b34801561023b57600080fd5b5061011861024a366004611079565b600660209081526000928352604080842090915290825290205460ff1681565b34801561027657600080fd5b506000546001600160a01b031661014d565b34801561029457600080fd5b507f000000000000000000000000000000000000000000000000000000000000000061014d565b3480156102c757600080fd5b506102f36102d6366004611079565b600560209081526000928352604080842090915290825290205481565b604051908152602001610124565b34801561030d57600080fd5b5061018561031c36600461105c565b61082d565b34801561032d57600080fd5b506102f361033c36600461105c565b6001600160a01b031660009081526004602052604090205490565b60006001600160e01b031982166385572ffb60e01b148061038857506001600160e01b031982166301ffc9a760e01b145b92915050565b600460205281600052604060002081815481106103aa57600080fd5b6000918252602090912001546001600160a01b03169150829050565b6103ce610868565b60405147906000906001600160a01b0384169083908381818185875af1925050503d806000811461041b576040519150601f19603f3d011682016040523d82523d6000602084013e610420565b606091505b505090508061045f57604051639d11f56360e01b81523360048201526001600160a01b0384166024820152604481018390526064015b60405180910390fd5b505050565b61046c610868565b6040516370a0823160e01b81523060048201526000906001600160a01b038316906370a0823190602401602060405180830381865afa1580156104b3573d6000803e3d6000fd5b505050506040513d601f19601f820116820180604052508101906104d79190611147565b905061045f6001600160a01b0383168483610895565b3360009081526005602090815260408083206001600160a01b03861684529091529020548111156105305760405162461bcd60e51b815260040161045690611160565b60015415610579576001543410156105795760405162461bcd60e51b815260206004820152600c60248201526b50617920746865206665652160a01b6044820152606401610456565b3360009081526005602090815260408083206001600160a01b0386168452909152812080548392906105ac9084906111a3565b909155506105bc905033836108e7565b60006105cc338585856000610a95565b90506000306001600160a01b031663b0f479a16040518163ffffffff1660e01b8152600401602060405180830381865afa15801561060e573d6000803e3d6000fd5b505050506040513d601f19601f8201168201806040525081019061063291906111b6565b90506000816001600160a01b03166320487ded7f0000000000000000000000000000000000000000000000000000000000000000856040518363ffffffff1660e01b8152600401610684929190611223565b602060405180830381865afa1580156106a1573d6000803e3d6000fd5b505050506040513d601f19601f820116820180604052508101906106c59190611147565b9050478111156106e75760405162461bcd60e51b815260040161045690611160565b6040516396f4e9f960e01b81526001600160a01b038316906396f4e9f9908390610737907f0000000000000000000000000000000000000000000000000000000000000000908890600401611223565b60206040518083038185885af1158015610755573d6000803e3d6000fd5b50505050506040513d601f19601f8201168201806040525081019061077a9190611147565b50505050505050565b61078b610868565b600280546001600160a01b0319166001600160a01b0392909216919091179055565b6107b5610868565b600155565b6107c2610868565b6107cc6000610bef565b565b336001600160a01b037f00000000000000000000000000000000000000000000000000000000000000001614610819576040516335fdcccd60e21b8152336004820152602401610456565b61082a610825826114cd565b610c3f565b50565b610835610868565b6001600160a01b03811661085f57604051631e4fbdf760e01b815260006004820152602401610456565b61082a81610bef565b6000546001600160a01b031633146107cc5760405163118cdaa760e01b8152336004820152602401610456565b604080516001600160a01b038416602482015260448082018490528251808303909101815260649091019091526020810180516001600160e01b031663a9059cbb60e01b17905261045f908490610cfd565b6001600160a01b0380831660009081526005602090815260408083209385168352929052908120549003610a91576001600160a01b0380831660009081526006602090815260408083209385168352929052908120805460ff191690555b6001600160a01b03831660009081526004602052604090205481101561045f576001600160a01b038381166000908152600460205260409020805491841691839081106109945761099461157a565b6000918252602090912001546001600160a01b031603610a89576001600160a01b038316600090815260046020526040902080546109d4906001906111a3565b815481106109e4576109e461157a565b60009182526020808320909101546001600160a01b03868116845260049092526040909220805491909216919083908110610a2157610a2161157a565b600091825260208083209190910180546001600160a01b0319166001600160a01b039485161790559185168152600490915260409020805480610a6657610a66611590565b600082815260209020810160001990810180546001600160a01b03191690550190555b600101610945565b5050565b610ad06040518060a0016040528060608152602001606081526020016060815260200160006001600160a01b03168152602001606081525090565b6040805160a080820183526002546001600160a01b0390811660c0808501919091528451808503909101815260e084018552835283518a82166020808301919091528a83168287015291891660608201526080808201899052855180830390910181529201845280830191909152825160008082529181018452919283019190610b7c565b6040805180820190915260008082526020820152815260200190600190039081610b555790505b508152602001836001600160a01b03168152602001610be3604051806020016040528062030d4081525060408051915160248084019190915281518084039091018152604490920190526020810180516001600160e01b03166397a657c960e01b17905290565b90529695505050505050565b600080546001600160a01b038381166001600160a01b0319831681178455604051919092169283917f8be0079c531659141344cd1fd0a4f28419497f9722a3daafe3b4186f6b6457e09190a35050565b600254604082015180516001600160a01b0390921691610c67916020918101820191016111b6565b6001600160a01b031614610caf5760405162461bcd60e51b815260206004820152600f60248201526e496e76616c69642073656e6465722160881b6044820152606401610456565b6000806000808460600151806020019051810190610ccd91906115b6565b93509350935093508015610ceb57610ce6848484610d60565b610cf6565b610cf6848484610e2e565b5050505050565b6000610d126001600160a01b03841683610eba565b90508051600014158015610d37575080806020019051810190610d359190611609565b155b1561045f57604051635274afe760e01b81526001600160a01b0384166004820152602401610456565b6001600160a01b0380841660009081526006602090815260408083209386168352929052205460ff16610ded576001600160a01b0383811660008181526004602090815260408083208054600180820183559185528385200180546001600160a01b03191696891696871790559383526006825280832094835293905291909120805460ff191690911790555b6001600160a01b03808416600090815260056020908152604080832093861683529290529081208054839290610e24908490611624565b9091555050505050565b6001600160a01b03808416600090815260056020908152604080832093861683529290522054811115610e735760405162461bcd60e51b815260040161045690611160565b6001600160a01b03808416600090815260056020908152604080832093861683529290529081208054839290610eaa9084906111a3565b9091555061045f905083836108e7565b6060610ec883836000610ecf565b9392505050565b606081471015610ef45760405163cd78605960e01b8152306004820152602401610456565b600080856001600160a01b03168486604051610f109190611637565b60006040518083038185875af1925050503d8060008114610f4d576040519150601f19603f3d011682016040523d82523d6000602084013e610f52565b606091505b5091509150610f62868383610f6c565b9695505050505050565b606082610f8157610f7c82610fc8565b610ec8565b8151158015610f9857506001600160a01b0384163b155b15610fc157604051639996b31560e01b81526001600160a01b0385166004820152602401610456565b5080610ec8565b805115610fd85780518082602001fd5b604051630a12f52160e11b815260040160405180910390fd5b60006020828403121561100357600080fd5b81356001600160e01b031981168114610ec857600080fd5b6001600160a01b038116811461082a57600080fd5b6000806040838503121561104357600080fd5b823561104e8161101b565b946020939093013593505050565b60006020828403121561106e57600080fd5b8135610ec88161101b565b6000806040838503121561108c57600080fd5b82356110978161101b565b915060208301356110a78161101b565b809150509250929050565b6000806000606084860312156110c757600080fd5b83356110d28161101b565b925060208401356110e28161101b565b929592945050506040919091013590565b60006020828403121561110557600080fd5b5035919050565b60006020828403121561111e57600080fd5b813567ffffffffffffffff81111561113557600080fd5b820160a08185031215610ec857600080fd5b60006020828403121561115957600080fd5b5051919050565b6020808252601390820152724e6f7420656e6f7567682062616c616e63652160681b604082015260600190565b634e487b7160e01b600052601160045260246000fd5b818103818111156103885761038861118d565b6000602082840312156111c857600080fd5b8151610ec88161101b565b60005b838110156111ee5781810151838201526020016111d6565b50506000910152565b6000815180845261120f8160208601602086016111d3565b601f01601f19169290920160200192915050565b6000604067ffffffffffffffff851683526020604081850152845160a0604086015261125260e08601826111f7565b905081860151603f198087840301606088015261126f83836111f7565b6040890151888203830160808a01528051808352908601945060009350908501905b808410156112c357845180516001600160a01b0316835286015186830152938501936001939093019290860190611291565b5060608901516001600160a01b031660a08901526080890151888203830160c08a015295506112f281876111f7565b9a9950505050505050505050565b634e487b7160e01b600052604160045260246000fd5b6040805190810167ffffffffffffffff8111828210171561133957611339611300565b60405290565b60405160a0810167ffffffffffffffff8111828210171561133957611339611300565b604051601f8201601f1916810167ffffffffffffffff8111828210171561138b5761138b611300565b604052919050565b803567ffffffffffffffff811681146113ab57600080fd5b919050565b600082601f8301126113c157600080fd5b813567ffffffffffffffff8111156113db576113db611300565b6113ee601f8201601f1916602001611362565b81815284602083860101111561140357600080fd5b816020850160208301376000918101602001919091529392505050565b600082601f83011261143157600080fd5b8135602067ffffffffffffffff82111561144d5761144d611300565b61145b818360051b01611362565b82815260069290921b8401810191818101908684111561147a57600080fd5b8286015b848110156114c257604081890312156114975760008081fd5b61149f611316565b81356114aa8161101b565b8152818501358582015283529183019160400161147e565b509695505050505050565b600060a082360312156114df57600080fd5b6114e761133f565b823581526114f760208401611393565b6020820152604083013567ffffffffffffffff8082111561151757600080fd5b611523368387016113b0565b6040840152606085013591508082111561153c57600080fd5b611548368387016113b0565b6060840152608085013591508082111561156157600080fd5b5061156e36828601611420565b60808301525092915050565b634e487b7160e01b600052603260045260246000fd5b634e487b7160e01b600052603160045260246000fd5b805180151581146113ab57600080fd5b600080600080608085870312156115cc57600080fd5b84516115d78161101b565b60208601519094506115e88161101b565b604086015190935091506115fe606086016115a6565b905092959194509250565b60006020828403121561161b57600080fd5b610ec8826115a6565b808201808211156103885761038861118d565b600082516116498184602087016111d3565b919091019291505056fea264697066735822122074681d08a9625c00042225aae8dff121c7de479df7a6096fe0a0db9af75b3f7964736f6c63430008180033",
  "linkReferences": {},
  "deployedLinkReferences": {}
}