{
  "_format": "hh-sol-artifact-1",
  "contractName": "TokenLauncher",
  "sourceName": "contracts/TokenLauncher.sol",
  "abi": [
    {
      "inputs": [],
      "stateMutability": "nonpayable",
      "type": "constructor"
    },
    {
      "inputs": [
        {
          "internalType": "address",
          "name": "owner",
          "type": "address"
        }
      ],
      "name": "OwnableInvalidOwner",
      "type": "error"
    },
    {
      "inputs": [
        {
          "internalType": "address",
          "name": "account",
          "type": "address"
        }
      ],
      "name": "OwnableUnauthorizedAccount",
      "type": "error"
    },
    {
      "anonymous": false,
      "inputs": [
        {
          "indexed": true,
          "internalType": "address",
          "name": "previousOwner",
          "type": "address"
        },
        {
          "indexed": true,
          "internalType": "address",
          "name": "newOwner",
          "type": "address"
        }
      ],
      "name": "OwnershipTransferred",
      "type": "event"
    },
    {
      "inputs": [
        {
          "internalType": "address",
          "name": "_who",
          "type": "address"
        }
      ],
      "name": "getTokensLength",
      "outputs": [
        {
          "internalType": "uint256",
          "name": "",
          "type": "uint256"
        }
      ],
      "stateMutability": "view",
      "type": "function"
    },
    {
      "inputs": [
        {
          "internalType": "string",
          "name": "_name",
          "type": "string"
        },
        {
          "internalType": "string",
          "name": "_symbol",
          "type": "string"
        },
        {
          "internalType": "uint256",
          "name": "_supply",
          "type": "uint256"
        },
        {
          "internalType": "address",
          "name": "_owner",
          "type": "address"
        }
      ],
      "name": "launchToken",
      "outputs": [],
      "stateMutability": "payable",
      "type": "function"
    },
    {
      "inputs": [
        {
          "internalType": "address",
          "name": "",
          "type": "address"
        },
        {
          "internalType": "uint256",
          "name": "",
          "type": "uint256"
        }
      ],
      "name": "myTokens",
      "outputs": [
        {
          "internalType": "string",
          "name": "_name",
          "type": "string"
        },
        {
          "internalType": "string",
          "name": "_symbol",
          "type": "string"
        },
        {
          "internalType": "uint256",
          "name": "_supply",
          "type": "uint256"
        },
        {
          "internalType": "address",
          "name": "_ca",
          "type": "address"
        },
        {
          "internalType": "string",
          "name": "_chain",
          "type": "string"
        }
      ],
      "stateMutability": "view",
      "type": "function"
    },
    {
      "inputs": [],
      "name": "owner",
      "outputs": [
        {
          "internalType": "address",
          "name": "",
          "type": "address"
        }
      ],
      "stateMutability": "view",
      "type": "function"
    },
    {
      "inputs": [],
      "name": "renounceOwnership",
      "outputs": [],
      "stateMutability": "nonpayable",
      "type": "function"
    },
    {
      "inputs": [
        {
          "internalType": "address",
          "name": "newOwner",
          "type": "address"
        }
      ],
      "name": "transferOwnership",
      "outputs": [],
      "stateMutability": "nonpayable",
      "type": "function"
    }
  ],
  "bytecode": "0x608060405234801561001057600080fd5b50338061003757604051631e4fbdf760e01b81526000600482015260240160405180910390fd5b61004081610046565b50610096565b600080546001600160a01b038381166001600160a01b0319831681178455604051919092169283917f8be0079c531659141344cd1fd0a4f28419497f9722a3daafe3b4186f6b6457e09190a35050565b6117e0806100a56000396000f3fe6080604052600436106200005c5760003560e01c80630e4dbc411462000061578063715018a614620000ae5780638da5cb5b14620000c85780638ff0bb9914620000f2578063ea172d171462000109578063f2fde38b1462000141575b600080fd5b3480156200006e57600080fd5b506200009b62000080366004620005f4565b6001600160a01b031660009081526001602052604090205490565b6040519081526020015b60405180910390f35b348015620000bb57600080fd5b50620000c662000166565b005b348015620000d557600080fd5b506000546040516001600160a01b039091168152602001620000a5565b620000c662000103366004620006c4565b6200017e565b3480156200011657600080fd5b506200012e620001283660046200074b565b620002f4565b604051620000a5959493929190620007c0565b3480156200014e57600080fd5b50620000c662000160366004620005f4565b62000506565b620001706200054a565b6200017c600062000579565b565b6000848484846040516200019290620005c9565b620001a1949392919062000821565b604051809103906000f080158015620001be573d6000803e3d6000fd5b509050806001600160a01b0381166200020e5760405162461bcd60e51b815260206004820152600d60248201526c4e6f206e657720746f6b656e2160981b60448201526064015b60405180910390fd5b6040805160a08101825287815260208082018890528183018790526001600160a01b03808516606084015283518085018552600381526242534360e81b8184015260808401528616600090815260018083529381208054948501815581522081519192839260059091029091019081906200028a9082620008fd565b5060208201516001820190620002a19082620008fd565b506040820151600282015560608201516003820180546001600160a01b0319166001600160a01b0390921691909117905560808201516004820190620002e89082620008fd565b50505050505050505050565b600160205281600052604060002081815481106200031157600080fd5b90600052602060002090600502016000915091505080600001805462000337906200086c565b80601f016020809104026020016040519081016040528092919081815260200182805462000365906200086c565b8015620003b65780601f106200038a57610100808354040283529160200191620003b6565b820191906000526020600020905b8154815290600101906020018083116200039857829003601f168201915b505050505090806001018054620003cd906200086c565b80601f0160208091040260200160405190810160405280929190818152602001828054620003fb906200086c565b80156200044c5780601f1062000420576101008083540402835291602001916200044c565b820191906000526020600020905b8154815290600101906020018083116200042e57829003601f168201915b5050505060028301546003840154600485018054949592946001600160a01b039092169350906200047d906200086c565b80601f0160208091040260200160405190810160405280929190818152602001828054620004ab906200086c565b8015620004fc5780601f10620004d057610100808354040283529160200191620004fc565b820191906000526020600020905b815481529060010190602001808311620004de57829003601f168201915b5050505050905085565b620005106200054a565b6001600160a01b0381166200053c57604051631e4fbdf760e01b81526000600482015260240162000205565b620005478162000579565b50565b6000546001600160a01b031633146200017c5760405163118cdaa760e01b815233600482015260240162000205565b600080546001600160a01b038381166001600160a01b0319831681178455604051919092169283917f8be0079c531659141344cd1fd0a4f28419497f9722a3daafe3b4186f6b6457e09190a35050565b610de080620009cb83390190565b80356001600160a01b0381168114620005ef57600080fd5b919050565b6000602082840312156200060757600080fd5b6200061282620005d7565b9392505050565b634e487b7160e01b600052604160045260246000fd5b600082601f8301126200064157600080fd5b813567ffffffffffffffff808211156200065f576200065f62000619565b604051601f8301601f19908116603f011681019082821181831017156200068a576200068a62000619565b81604052838152866020858801011115620006a457600080fd5b836020870160208301376000602085830101528094505050505092915050565b60008060008060808587031215620006db57600080fd5b843567ffffffffffffffff80821115620006f457600080fd5b62000702888389016200062f565b955060208701359150808211156200071957600080fd5b5062000728878288016200062f565b935050604085013591506200074060608601620005d7565b905092959194509250565b600080604083850312156200075f57600080fd5b6200076a83620005d7565b946020939093013593505050565b6000815180845260005b81811015620007a05760208185018101518683018201520162000782565b506000602082860101526020601f19601f83011685010191505092915050565b60a081526000620007d560a083018862000778565b8281036020840152620007e9818862000778565b604084018790526001600160a01b03861660608501528381036080850152905062000815818562000778565b98975050505050505050565b60808152600062000836608083018762000778565b82810360208401526200084a818762000778565b604084019590955250506001600160a01b039190911660609091015292915050565b600181811c908216806200088157607f821691505b602082108103620008a257634e487b7160e01b600052602260045260246000fd5b50919050565b601f821115620008f8576000816000526020600020601f850160051c81016020861015620008d35750805b601f850160051c820191505b81811015620008f457828155600101620008df565b5050505b505050565b815167ffffffffffffffff8111156200091a576200091a62000619565b62000932816200092b84546200086c565b84620008a8565b602080601f8311600181146200096a5760008415620009515750858301515b600019600386901b1c1916600185901b178555620008f4565b600085815260208120601f198616915b828110156200099b578886015182559484019460019091019084016200097a565b5085821015620009ba5787850151600019600388901b60f8161c191681555b5050505050600190811b0190555056fe60806040523480156200001157600080fd5b5060405162000de038038062000de0833981016040819052620000349162000347565b80848460036200004583826200046d565b5060046200005482826200046d565b5050506001600160a01b0381166200008757604051631e4fbdf760e01b8152600060048201526024015b60405180910390fd5b6200009281620000bc565b50620000b281620000ac84670de0b6b3a76400006200054f565b6200010e565b5050505062000585565b600580546001600160a01b038381166001600160a01b0319831681179093556040519116919082907f8be0079c531659141344cd1fd0a4f28419497f9722a3daafe3b4186f6b6457e090600090a35050565b6001600160a01b0382166200013a5760405163ec442f0560e01b8152600060048201526024016200007e565b62000148600083836200014c565b5050565b6001600160a01b0383166200017b5780600260008282546200016f91906200056f565b90915550620001ef9050565b6001600160a01b03831660009081526020819052604090205481811015620001d05760405163391434e360e21b81526001600160a01b038516600482015260248101829052604481018390526064016200007e565b6001600160a01b03841660009081526020819052604090209082900390555b6001600160a01b0382166200020d576002805482900390556200022c565b6001600160a01b03821660009081526020819052604090208054820190555b816001600160a01b0316836001600160a01b03167fddf252ad1be2c89b69c2b068fc378daa952ba7f163c4a11628f55a4df523b3ef836040516200027291815260200190565b60405180910390a3505050565b634e487b7160e01b600052604160045260246000fd5b600082601f830112620002a757600080fd5b81516001600160401b0380821115620002c457620002c46200027f565b604051601f8301601f19908116603f01168101908282118183101715620002ef57620002ef6200027f565b81604052838152602092508660208588010111156200030d57600080fd5b600091505b8382101562000331578582018301518183018401529082019062000312565b6000602085830101528094505050505092915050565b600080600080608085870312156200035e57600080fd5b84516001600160401b03808211156200037657600080fd5b620003848883890162000295565b955060208701519150808211156200039b57600080fd5b50620003aa8782880162000295565b60408701516060880151919550935090506001600160a01b0381168114620003d157600080fd5b939692955090935050565b600181811c90821680620003f157607f821691505b6020821081036200041257634e487b7160e01b600052602260045260246000fd5b50919050565b601f82111562000468576000816000526020600020601f850160051c81016020861015620004435750805b601f850160051c820191505b8181101562000464578281556001016200044f565b5050505b505050565b81516001600160401b038111156200048957620004896200027f565b620004a1816200049a8454620003dc565b8462000418565b602080601f831160018114620004d95760008415620004c05750858301515b600019600386901b1c1916600185901b17855562000464565b600085815260208120601f198616915b828110156200050a57888601518255948401946001909101908401620004e9565b5085821015620005295787850151600019600388901b60f8161c191681555b5050505050600190811b01905550565b634e487b7160e01b600052601160045260246000fd5b808202811582820484141762000569576200056962000539565b92915050565b8082018082111562000569576200056962000539565b61084b80620005956000396000f3fe608060405234801561001057600080fd5b50600436106100b45760003560e01c8063715018a611610071578063715018a6146101575780638da5cb5b1461016157806395d89b411461017c578063a9059cbb14610184578063dd62ed3e14610197578063f2fde38b146101d057600080fd5b806306fdde03146100b9578063095ea7b3146100d757806318160ddd146100fa57806323b872dd1461010c578063313ce5671461011f57806370a082311461012e575b600080fd5b6100c16101e3565b6040516100ce9190610694565b60405180910390f35b6100ea6100e53660046106ff565b610275565b60405190151581526020016100ce565b6002545b6040519081526020016100ce565b6100ea61011a366004610729565b61028f565b604051601281526020016100ce565b6100fe61013c366004610765565b6001600160a01b031660009081526020819052604090205490565b61015f6102b3565b005b6005546040516001600160a01b0390911681526020016100ce565b6100c16102c7565b6100ea6101923660046106ff565b6102d6565b6100fe6101a5366004610787565b6001600160a01b03918216600090815260016020908152604080832093909416825291909152205490565b61015f6101de366004610765565b6102e4565b6060600380546101f2906107ba565b80601f016020809104026020016040519081016040528092919081815260200182805461021e906107ba565b801561026b5780601f106102405761010080835404028352916020019161026b565b820191906000526020600020905b81548152906001019060200180831161024e57829003601f168201915b5050505050905090565b600033610283818585610327565b60019150505b92915050565b60003361029d858285610339565b6102a88585856103b7565b506001949350505050565b6102bb610416565b6102c56000610443565b565b6060600480546101f2906107ba565b6000336102838185856103b7565b6102ec610416565b6001600160a01b03811661031b57604051631e4fbdf760e01b8152600060048201526024015b60405180910390fd5b61032481610443565b50565b6103348383836001610495565b505050565b6001600160a01b0383811660009081526001602090815260408083209386168352929052205460001981146103b157818110156103a257604051637dc7a0d960e11b81526001600160a01b03841660048201526024810182905260448101839052606401610312565b6103b184848484036000610495565b50505050565b6001600160a01b0383166103e157604051634b637e8f60e11b815260006004820152602401610312565b6001600160a01b03821661040b5760405163ec442f0560e01b815260006004820152602401610312565b61033483838361056a565b6005546001600160a01b031633146102c55760405163118cdaa760e01b8152336004820152602401610312565b600580546001600160a01b038381166001600160a01b0319831681179093556040519116919082907f8be0079c531659141344cd1fd0a4f28419497f9722a3daafe3b4186f6b6457e090600090a35050565b6001600160a01b0384166104bf5760405163e602df0560e01b815260006004820152602401610312565b6001600160a01b0383166104e957604051634a1406b160e11b815260006004820152602401610312565b6001600160a01b03808516600090815260016020908152604080832093871683529290522082905580156103b157826001600160a01b0316846001600160a01b03167f8c5be1e5ebec7d5bd14f71427d1e84f3dd0314c0f7b2291e5b200ac8c7c3b9258460405161055c91815260200190565b60405180910390a350505050565b6001600160a01b03831661059557806002600082825461058a91906107f4565b909155506106079050565b6001600160a01b038316600090815260208190526040902054818110156105e85760405163391434e360e21b81526001600160a01b03851660048201526024810182905260448101839052606401610312565b6001600160a01b03841660009081526020819052604090209082900390555b6001600160a01b03821661062357600280548290039055610642565b6001600160a01b03821660009081526020819052604090208054820190555b816001600160a01b0316836001600160a01b03167fddf252ad1be2c89b69c2b068fc378daa952ba7f163c4a11628f55a4df523b3ef8360405161068791815260200190565b60405180910390a3505050565b60006020808352835180602085015260005b818110156106c2578581018301518582016040015282016106a6565b506000604082860101526040601f19601f8301168501019250505092915050565b80356001600160a01b03811681146106fa57600080fd5b919050565b6000806040838503121561071257600080fd5b61071b836106e3565b946020939093013593505050565b60008060006060848603121561073e57600080fd5b610747846106e3565b9250610755602085016106e3565b9150604084013590509250925092565b60006020828403121561077757600080fd5b610780826106e3565b9392505050565b6000806040838503121561079a57600080fd5b6107a3836106e3565b91506107b1602084016106e3565b90509250929050565b600181811c908216806107ce57607f821691505b6020821081036107ee57634e487b7160e01b600052602260045260246000fd5b50919050565b8082018082111561028957634e487b7160e01b600052601160045260246000fdfea2646970667358221220629ea7416797980133445da78fae6d3ce030f8dbf92a816aa4d41f07eadc815d64736f6c63430008180033a26469706673582212206fe89106245e101ff26cabb58c23e76d21137121576a635e0f63116a27eee5bc64736f6c63430008180033",
  "linkReferences": {},
  "deployedLinkReferences": {}
}