{
  "_format": "hh-sol-artifact-1",
  "contractName": "Base_Vault",
  "sourceName": "contracts/Vault.sol",
  "abi": [
    {
      "inputs": [
        {
          "internalType": "address",
          "name": "user",
          "type": "address"
        },
        {
          "internalType": "address",
          "name": "token",
          "type": "address"
        },
        {
          "internalType": "uint256",
          "name": "amount",
          "type": "uint256"
        }
      ],
      "name": "depositToken",
      "outputs": [],
      "stateMutability": "nonpayable",
      "type": "function"
    },
    {
      "inputs": [
        {
          "internalType": "address",
          "name": "user",
          "type": "address"
        }
      ],
      "name": "getLength",
      "outputs": [
        {
          "internalType": "uint256",
          "name": "",
          "type": "uint256"
        }
      ],
      "stateMutability": "view",
      "type": "function"
    },
    {
      "inputs": [
        {
          "internalType": "address",
          "name": "token",
          "type": "address"
        },
        {
          "internalType": "uint256",
          "name": "amount",
          "type": "uint256"
        }
      ],
      "name": "withdrawTokens",
      "outputs": [],
      "stateMutability": "nonpayable",
      "type": "function"
    }
  ],
  "bytecode": "0x608060405234801561001057600080fd5b5061016d806100206000396000f3fe608060405234801561001057600080fd5b50600436106100415760003560e01c806306b091f914610046578063fb0f97a81461005a578063fe611a071461006d575b600080fd5b6100586100543660046100af565b5050565b005b6100586100683660046100d9565b505050565b61008161007b366004610115565b50600090565b60405190815260200160405180910390f35b80356001600160a01b03811681146100aa57600080fd5b919050565b600080604083850312156100c257600080fd5b6100cb83610093565b946020939093013593505050565b6000806000606084860312156100ee57600080fd5b6100f784610093565b925061010560208501610093565b9150604084013590509250925092565b60006020828403121561012757600080fd5b61013082610093565b939250505056fea2646970667358221220b467a7799cc79fa448ef505b6d5846a4f72fd8fe4926629d40954e84eec4058264736f6c63430008180033",
  "linkReferences": {},
  "deployedLinkReferences": {}
}