{
  "_format": "hh-sol-artifact-1",
  "contractName": "Vault_CCIP",
  "sourceName": "contracts/Vault.sol",
  "abi": [
    {
      "inputs": [],
      "stateMutability": "nonpayable",
      "type": "constructor"
    },
    {
      "inputs": [
        {
          "internalType": "address",
          "name": "target",
          "type": "address"
        }
      ],
      "name": "AddressEmptyCode",
      "type": "error"
    },
    {
      "inputs": [
        {
          "internalType": "address",
          "name": "account",
          "type": "address"
        }
      ],
      "name": "AddressInsufficientBalance",
      "type": "error"
    },
    {
      "inputs": [],
      "name": "FailedInnerCall",
      "type": "error"
    },
    {
      "inputs": [
        {
          "internalType": "address",
          "name": "owner",
          "type": "address"
        },
        {
          "internalType": "address",
          "name": "target",
          "type": "address"
        },
        {
          "internalType": "uint256",
          "name": "value",
          "type": "uint256"
        }
      ],
      "name": "FailedToWithdrawEth",
      "type": "error"
    },
    {
      "inputs": [
        {
          "internalType": "address",
          "name": "router",
          "type": "address"
        }
      ],
      "name": "InvalidRouter",
      "type": "error"
    },
    {
      "inputs": [
        {
          "internalType": "address",
          "name": "owner",
          "type": "address"
        }
      ],
      "name": "OwnableInvalidOwner",
      "type": "error"
    },
    {
      "inputs": [
        {
          "internalType": "address",
          "name": "account",
          "type": "address"
        }
      ],
      "name": "OwnableUnauthorizedAccount",
      "type": "error"
    },
    {
      "inputs": [
        {
          "internalType": "address",
          "name": "token",
          "type": "address"
        }
      ],
      "name": "SafeERC20FailedOperation",
      "type": "error"
    },
    {
      "anonymous": false,
      "inputs": [
        {
          "indexed": true,
          "internalType": "address",
          "name": "previousOwner",
          "type": "address"
        },
        {
          "indexed": true,
          "internalType": "address",
          "name": "newOwner",
          "type": "address"
        }
      ],
      "name": "OwnershipTransferred",
      "type": "event"
    },
    {
      "inputs": [
        {
          "internalType": "address",
          "name": "",
          "type": "address"
        },
        {
          "internalType": "address",
          "name": "",
          "type": "address"
        }
      ],
      "name": "balance",
      "outputs": [
        {
          "internalType": "uint256",
          "name": "",
          "type": "uint256"
        }
      ],
      "stateMutability": "view",
      "type": "function"
    },
    {
      "inputs": [
        {
          "components": [
            {
              "internalType": "bytes32",
              "name": "messageId",
              "type": "bytes32"
            },
            {
              "internalType": "uint64",
              "name": "sourceChainSelector",
              "type": "uint64"
            },
            {
              "internalType": "bytes",
              "name": "sender",
              "type": "bytes"
            },
            {
              "internalType": "bytes",
              "name": "data",
              "type": "bytes"
            },
            {
              "components": [
                {
                  "internalType": "address",
                  "name": "token",
                  "type": "address"
                },
                {
                  "internalType": "uint256",
                  "name": "amount",
                  "type": "uint256"
                }
              ],
              "internalType": "struct Client.EVMTokenAmount[]",
              "name": "destTokenAmounts",
              "type": "tuple[]"
            }
          ],
          "internalType": "struct Client.Any2EVMMessage",
          "name": "message",
          "type": "tuple"
        }
      ],
      "name": "ccipReceive",
      "outputs": [],
      "stateMutability": "nonpayable",
      "type": "function"
    },
    {
      "inputs": [
        {
          "internalType": "address",
          "name": "newMaster",
          "type": "address"
        }
      ],
      "name": "changeMaster",
      "outputs": [],
      "stateMutability": "nonpayable",
      "type": "function"
    },
    {
      "inputs": [
        {
          "internalType": "address",
          "name": "user",
          "type": "address"
        },
        {
          "internalType": "address",
          "name": "token",
          "type": "address"
        },
        {
          "internalType": "uint256",
          "name": "amount",
          "type": "uint256"
        }
      ],
      "name": "depositToken",
      "outputs": [],
      "stateMutability": "nonpayable",
      "type": "function"
    },
    {
      "inputs": [
        {
          "internalType": "address",
          "name": "user",
          "type": "address"
        }
      ],
      "name": "getLength",
      "outputs": [
        {
          "internalType": "uint256",
          "name": "",
          "type": "uint256"
        }
      ],
      "stateMutability": "view",
      "type": "function"
    },
    {
      "inputs": [],
      "name": "getRouter",
      "outputs": [
        {
          "internalType": "address",
          "name": "",
          "type": "address"
        }
      ],
      "stateMutability": "view",
      "type": "function"
    },
    {
      "inputs": [
        {
          "internalType": "address",
          "name": "",
          "type": "address"
        },
        {
          "internalType": "uint256",
          "name": "",
          "type": "uint256"
        }
      ],
      "name": "myCrossChainTokens",
      "outputs": [
        {
          "internalType": "address",
          "name": "",
          "type": "address"
        }
      ],
      "stateMutability": "view",
      "type": "function"
    },
    {
      "inputs": [],
      "name": "owner",
      "outputs": [
        {
          "internalType": "address",
          "name": "",
          "type": "address"
        }
      ],
      "stateMutability": "view",
      "type": "function"
    },
    {
      "inputs": [],
      "name": "renounceOwnership",
      "outputs": [],
      "stateMutability": "nonpayable",
      "type": "function"
    },
    {
      "inputs": [
        {
          "internalType": "bytes4",
          "name": "interfaceId",
          "type": "bytes4"
        }
      ],
      "name": "supportsInterface",
      "outputs": [
        {
          "internalType": "bool",
          "name": "",
          "type": "bool"
        }
      ],
      "stateMutability": "pure",
      "type": "function"
    },
    {
      "inputs": [
        {
          "internalType": "address",
          "name": "",
          "type": "address"
        },
        {
          "internalType": "address",
          "name": "",
          "type": "address"
        }
      ],
      "name": "tokenExist",
      "outputs": [
        {
          "internalType": "bool",
          "name": "",
          "type": "bool"
        }
      ],
      "stateMutability": "view",
      "type": "function"
    },
    {
      "inputs": [
        {
          "internalType": "address",
          "name": "newOwner",
          "type": "address"
        }
      ],
      "name": "transferOwnership",
      "outputs": [],
      "stateMutability": "nonpayable",
      "type": "function"
    },
    {
      "inputs": [
        {
          "internalType": "address",
          "name": "beneficiary",
          "type": "address"
        }
      ],
      "name": "withdrawNative",
      "outputs": [],
      "stateMutability": "nonpayable",
      "type": "function"
    },
    {
      "inputs": [
        {
          "internalType": "address",
          "name": "beneficiary",
          "type": "address"
        },
        {
          "internalType": "address",
          "name": "token",
          "type": "address"
        }
      ],
      "name": "withdrawToken",
      "outputs": [],
      "stateMutability": "nonpayable",
      "type": "function"
    },
    {
      "inputs": [
        {
          "internalType": "address",
          "name": "token",
          "type": "address"
        },
        {
          "internalType": "uint256",
          "name": "amount",
          "type": "uint256"
        }
      ],
      "name": "withdrawTokens",
      "outputs": [],
      "stateMutability": "nonpayable",
      "type": "function"
    },
    {
      "stateMutability": "payable",
      "type": "receive"
    }
  ],
  "bytecode": "0x60c060405267de41ba4fc9d91ad960a052600280546001600160a01b03191673e1053ae1857476f36a3c62580ff9b016e8ee8f6f17905534801561004257600080fd5b5060025433906001600160a01b031680610077576040516335fdcccd60e21b8152600060048201526024015b60405180910390fd5b6001600160a01b0390811660805281166100a757604051631e4fbdf760e01b81526000600482015260240161006e565b6100b0816100b6565b50610106565b600080546001600160a01b038381166001600160a01b0319831681178455604051919092169283917f8be0079c531659141344cd1fd0a4f28419497f9722a3daafe3b4186f6b6457e09190a35050565b60805160a0516118d6610147600039600081816104b50152818161057b0152818161099d0152610a63015260008181610264015261077d01526118d66000f3fe6080604052600436106100ec5760003560e01c80638cc23ed71161008a578063f2fde38b11610059578063f2fde38b146102ce578063f4ff78bf146102ee578063fb0f97a81461030e578063fe611a071461032e57600080fd5b80638cc23ed7146101fc5780638da5cb5b14610237578063b0f479a114610255578063b203bb991461028857600080fd5b80632f622e6b116100c65780632f622e6b146101875780633aeac4e1146101a7578063715018a6146101c757806385572ffb146101dc57600080fd5b806301ffc9a7146100f857806306b091f91461012d5780630b18a0601461014f57600080fd5b366100f357005b600080fd5b34801561010457600080fd5b50610118610113366004611260565b610364565b60405190151581526020015b60405180910390f35b34801561013957600080fd5b5061014d61014836600461129f565b61039b565b005b34801561015b57600080fd5b5061016f61016a36600461129f565b610604565b6040516001600160a01b039091168152602001610124565b34801561019357600080fd5b5061014d6101a23660046112cb565b61063c565b3480156101b357600080fd5b5061014d6101c23660046112e8565b6106d5565b3480156101d357600080fd5b5061014d61075e565b3480156101e857600080fd5b5061014d6101f7366004611321565b610772565b34801561020857600080fd5b506101186102173660046112e8565b600560209081526000928352604080842090915290825290205460ff1681565b34801561024357600080fd5b506000546001600160a01b031661016f565b34801561026157600080fd5b507f000000000000000000000000000000000000000000000000000000000000000061016f565b34801561029457600080fd5b506102c06102a33660046112e8565b600460209081526000928352604080842090915290825290205481565b604051908152602001610124565b3480156102da57600080fd5b5061014d6102e93660046112cb565b6107d1565b3480156102fa57600080fd5b5061014d6103093660046112cb565b61080c565b34801561031a57600080fd5b5061014d61032936600461135c565b610836565b34801561033a57600080fd5b506102c06103493660046112cb565b6001600160a01b031660009081526003602052604090205490565b60006001600160e01b031982166385572ffb60e01b148061039557506001600160e01b031982166301ffc9a760e01b145b92915050565b3360009081526004602090815260408083206001600160a01b03861684529091529020548111156103e75760405162461bcd60e51b81526004016103de9061139d565b60405180910390fd5b3360009081526004602090815260408083206001600160a01b03861684529091528120805483929061041a9084906113e0565b9091555061042a90503383610ad9565b600061043a338484600080610c87565b90506000306001600160a01b031663b0f479a16040518163ffffffff1660e01b8152600401602060405180830381865afa15801561047c573d6000803e3d6000fd5b505050506040513d601f19601f820116820180604052508101906104a091906113f3565b90506000816001600160a01b03166320487ded7f0000000000000000000000000000000000000000000000000000000000000000856040518363ffffffff1660e01b81526004016104f2929190611460565b602060405180830381865afa15801561050f573d6000803e3d6000fd5b505050506040513d601f19601f82011682018060405250810190610533919061153d565b9050478111156105555760405162461bcd60e51b81526004016103de9061139d565b6040516396f4e9f960e01b81526001600160a01b038316906396f4e9f99083906105a5907f0000000000000000000000000000000000000000000000000000000000000000908890600401611460565b60206040518083038185885af11580156105c3573d6000803e3d6000fd5b50505050506040513d601f19601f820116820180604052508101906105e8919061153d565b506105fd6001600160a01b0386163386610e01565b5050505050565b6003602052816000526040600020818154811061062057600080fd5b6000918252602090912001546001600160a01b03169150829050565b610644610e60565b60405147906000906001600160a01b0384169083908381818185875af1925050503d8060008114610691576040519150601f19603f3d011682016040523d82523d6000602084013e610696565b606091505b50509050806106d057604051639d11f56360e01b81523360048201526001600160a01b0384166024820152604481018390526064016103de565b505050565b6106dd610e60565b6040516370a0823160e01b81523060048201526000906001600160a01b038316906370a0823190602401602060405180830381865afa158015610724573d6000803e3d6000fd5b505050506040513d601f19601f82011682018060405250810190610748919061153d565b90506106d06001600160a01b0383168483610e01565b610766610e60565b6107706000610e8d565b565b336001600160a01b037f000000000000000000000000000000000000000000000000000000000000000016146107bd576040516335fdcccd60e21b81523360048201526024016103de565b6107ce6107c982611723565b610edd565b50565b6107d9610e60565b6001600160a01b03811661080357604051631e4fbdf760e01b8152600060048201526024016103de565b6107ce81610e8d565b610814610e60565b600180546001600160a01b0319166001600160a01b0392909216919091179055565b61084b6001600160a01b038316843084610f7f565b6001600160a01b038084166000908152600460209081526040808320938616835292905290812080548392906108829084906117d0565b90915550506001600160a01b0380841660009081526005602090815260408083209386168352929052205460ff16610911576001600160a01b038084166000818152600560209081526040808320948716808452948252808320805460ff1916600190811790915593835260038252822080549384018155825290200180546001600160a01b03191690911790555b600061092284848460016000610c87565b90506000306001600160a01b031663b0f479a16040518163ffffffff1660e01b8152600401602060405180830381865afa158015610964573d6000803e3d6000fd5b505050506040513d601f19601f8201168201806040525081019061098891906113f3565b90506000816001600160a01b03166320487ded7f0000000000000000000000000000000000000000000000000000000000000000856040518363ffffffff1660e01b81526004016109da929190611460565b602060405180830381865afa1580156109f7573d6000803e3d6000fd5b505050506040513d601f19601f82011682018060405250810190610a1b919061153d565b905047811115610a3d5760405162461bcd60e51b81526004016103de9061139d565b6040516396f4e9f960e01b81526001600160a01b038316906396f4e9f9908390610a8d907f0000000000000000000000000000000000000000000000000000000000000000908890600401611460565b60206040518083038185885af1158015610aab573d6000803e3d6000fd5b50505050506040513d601f19601f82011682018060405250810190610ad0919061153d565b50505050505050565b6001600160a01b0380831660009081526004602090815260408083209385168352929052908120549003610c83576001600160a01b0380831660009081526005602090815260408083209385168352929052908120805460ff191690555b6001600160a01b0383166000908152600360205260409020548110156106d0576001600160a01b03838116600090815260036020526040902080549184169183908110610b8657610b866117e3565b6000918252602090912001546001600160a01b031603610c7b576001600160a01b03831660009081526003602052604090208054610bc6906001906113e0565b81548110610bd657610bd66117e3565b60009182526020808320909101546001600160a01b03868116845260039092526040909220805491909216919083908110610c1357610c136117e3565b600091825260208083209190910180546001600160a01b0319166001600160a01b039485161790559185168152600390915260409020805480610c5857610c586117f9565b600082815260209020810160001990810180546001600160a01b03191690550190555b600101610b37565b5050565b610cc26040518060a0016040528060608152602001606081526020016060815260200160006001600160a01b03168152602001606081525090565b6040805160a081019091526001546001600160a01b031660c08201528060e08101604051602081830303815290604052815260200187878787604051602001610d3294939291906001600160a01b0394851681529290931660208301526040820152901515606082015260800190565b60408051601f1981840301815291905281526020016000604051908082528060200260200182016040528015610d8e57816020015b6040805180820190915260008082526020820152815260200190600190039081610d675790505b508152602001836001600160a01b03168152602001610df5604051806020016040528062030d4081525060408051915160248084019190915281518084039091018152604490920190526020810180516001600160e01b03166397a657c960e01b17905290565b90529695505050505050565b6040516001600160a01b038381166024830152604482018390526106d091859182169063a9059cbb906064015b604051602081830303815290604052915060e01b6020820180516001600160e01b038381831617835250505050610fbe565b6000546001600160a01b031633146107705760405163118cdaa760e01b81523360048201526024016103de565b600080546001600160a01b038381166001600160a01b0319831681178455604051919092169283917f8be0079c531659141344cd1fd0a4f28419497f9722a3daafe3b4186f6b6457e09190a35050565b600154604082015180516001600160a01b0390921691610f05916020918101820191016113f3565b6001600160a01b031614610f4d5760405162461bcd60e51b815260206004820152600f60248201526e496e76616c69642073656e6465722160881b60448201526064016103de565b6000806000808460600151806020019051810190610f6b919061180f565b93509350935093506105fd84848484611021565b6040516001600160a01b038481166024830152838116604483015260648201839052610fb89186918216906323b872dd90608401610e2e565b50505050565b6000610fd36001600160a01b03841683611129565b90508051600014158015610ff8575080806020019051810190610ff69190611862565b155b156106d057604051635274afe760e01b81526001600160a01b03841660048201526024016103de565b6001600160a01b0380851660009081526005602090815260408083209386168352929052205460ff1661108b5760405162461bcd60e51b8152602060048201526012602482015271546f6b656e20646f6e27742065786973742160701b60448201526064016103de565b3360009081526004602090815260408083206001600160a01b03861684529091529020548111156110ce5760405162461bcd60e51b81526004016103de9061139d565b6001600160a01b038085166000908152600460209081526040808320938616835292905290812080548392906111059084906113e0565b9091555061111590508483610ad9565b610fb86001600160a01b0383168483610e01565b60606111378383600061113e565b9392505050565b6060814710156111635760405163cd78605960e01b81523060048201526024016103de565b600080856001600160a01b0316848660405161117f9190611884565b60006040518083038185875af1925050503d80600081146111bc576040519150601f19603f3d011682016040523d82523d6000602084013e6111c1565b606091505b50915091506111d18683836111db565b9695505050505050565b6060826111f0576111eb82611237565b611137565b815115801561120757506001600160a01b0384163b155b1561123057604051639996b31560e01b81526001600160a01b03851660048201526024016103de565b5080611137565b8051156112475780518082602001fd5b604051630a12f52160e11b815260040160405180910390fd5b60006020828403121561127257600080fd5b81356001600160e01b03198116811461113757600080fd5b6001600160a01b03811681146107ce57600080fd5b600080604083850312156112b257600080fd5b82356112bd8161128a565b946020939093013593505050565b6000602082840312156112dd57600080fd5b81356111378161128a565b600080604083850312156112fb57600080fd5b82356113068161128a565b915060208301356113168161128a565b809150509250929050565b60006020828403121561133357600080fd5b813567ffffffffffffffff81111561134a57600080fd5b820160a0818503121561113757600080fd5b60008060006060848603121561137157600080fd5b833561137c8161128a565b9250602084013561138c8161128a565b929592945050506040919091013590565b6020808252601390820152724e6f7420656e6f7567682062616c616e63652160681b604082015260600190565b634e487b7160e01b600052601160045260246000fd5b81810381811115610395576103956113ca565b60006020828403121561140557600080fd5b81516111378161128a565b60005b8381101561142b578181015183820152602001611413565b50506000910152565b6000815180845261144c816020860160208601611410565b601f01601f19169290920160200192915050565b6000604067ffffffffffffffff851683526020604081850152845160a0604086015261148f60e0860182611434565b905081860151603f19808784030160608801526114ac8383611434565b6040890151888203830160808a01528051808352908601945060009350908501905b8084101561150057845180516001600160a01b03168352860151868301529385019360019390930192908601906114ce565b5060608901516001600160a01b031660a08901526080890151888203830160c08a0152955061152f8187611434565b9a9950505050505050505050565b60006020828403121561154f57600080fd5b5051919050565b634e487b7160e01b600052604160045260246000fd5b6040805190810167ffffffffffffffff8111828210171561158f5761158f611556565b60405290565b60405160a0810167ffffffffffffffff8111828210171561158f5761158f611556565b604051601f8201601f1916810167ffffffffffffffff811182821017156115e1576115e1611556565b604052919050565b803567ffffffffffffffff8116811461160157600080fd5b919050565b600082601f83011261161757600080fd5b813567ffffffffffffffff81111561163157611631611556565b611644601f8201601f19166020016115b8565b81815284602083860101111561165957600080fd5b816020850160208301376000918101602001919091529392505050565b600082601f83011261168757600080fd5b8135602067ffffffffffffffff8211156116a3576116a3611556565b6116b1818360051b016115b8565b82815260069290921b840181019181810190868411156116d057600080fd5b8286015b8481101561171857604081890312156116ed5760008081fd5b6116f561156c565b81356117008161128a565b815281850135858201528352918301916040016116d4565b509695505050505050565b600060a0823603121561173557600080fd5b61173d611595565b8235815261174d602084016115e9565b6020820152604083013567ffffffffffffffff8082111561176d57600080fd5b61177936838701611606565b6040840152606085013591508082111561179257600080fd5b61179e36838701611606565b606084015260808501359150808211156117b757600080fd5b506117c436828601611676565b60808301525092915050565b80820180821115610395576103956113ca565b634e487b7160e01b600052603260045260246000fd5b634e487b7160e01b600052603160045260246000fd5b6000806000806080858703121561182557600080fd5b84516118308161128a565b60208601519094506118418161128a565b60408601519093506118528161128a565b6060959095015193969295505050565b60006020828403121561187457600080fd5b8151801515811461113757600080fd5b60008251611896818460208701611410565b919091019291505056fea2646970667358221220a4af268298419fbc0ad84e6e5068934e9e4e8ede9ee5b9468fd8f04ab888b85364736f6c63430008180033",
  "linkReferences": {},
  "deployedLinkReferences": {}
}