{"contracts/NFTLauncher.sol":{"NftLauncher":{"abi":[{"inputs":[],"stateMutability":"nonpayable","type":"constructor"},{"inputs":[{"internalType":"address","name":"owner","type":"address"}],"name":"OwnableInvalidOwner","type":"error"},{"inputs":[{"internalType":"address","name":"account","type":"address"}],"name":"OwnableUnauthorizedAccount","type":"error"},{"anonymous":false,"inputs":[{"indexed":true,"internalType":"address","name":"previousOwner","type":"address"},{"indexed":true,"internalType":"address","name":"newOwner","type":"address"}],"name":"OwnershipTransferred","type":"event"},{"inputs":[{"internalType":"address","name":"_who","type":"address"}],"name":"blacklist","outputs":[],"stateMutability":"nonpayable","type":"function"},{"inputs":[{"internalType":"address","name":"_who","type":"address"}],"name":"checkWhitelisted","outputs":[{"internalType":"bool","name":"","type":"bool"}],"stateMutability":"view","type":"function"},{"inputs":[],"name":"collectionFee","outputs":[{"internalType":"uint256","name":"","type":"uint256"}],"stateMutability":"view","type":"function"},{"inputs":[{"internalType":"uint256","name":"","type":"uint256"}],"name":"collections","outputs":[{"internalType":"address","name":"","type":"address"}],"stateMutability":"view","type":"function"},{"inputs":[{"internalType":"string","name":"name","type":"string"},{"internalType":"string","name":"symbol","type":"string"},{"internalType":"string","name":"generalUri","type":"string"},{"internalType":"address","name":"initialOwner","type":"address"},{"internalType":"address","name":"royaltyReceiver","type":"address"},{"internalType":"uint96","name":"royaltyFraction","type":"uint96"},{"internalType":"uint256","name":"maxSupply","type":"uint256"}],"name":"createCollection","outputs":[],"stateMutability":"payable","type":"function"},{"inputs":[{"internalType":"string","name":"name","type":"string"},{"internalType":"string","name":"symbol","type":"string"},{"internalType":"string","name":"generalUri","type":"string"},{"internalType":"address","name":"initialOwner","type":"address"},{"internalType":"address","name":"royaltyReceiver","type":"address"},{"internalType":"uint96","name":"royaltyFraction","type":"uint96"}],"name":"createSingleNft","outputs":[],"stateMutability":"payable","type":"function"},{"inputs":[{"internalType":"address","name":"","type":"address"}],"name":"isWhitelisted","outputs":[{"internalType":"bool","name":"","type":"bool"}],"stateMutability":"view","type":"function"},{"inputs":[{"internalType":"address","name":"","type":"address"},{"internalType":"uint256","name":"","type":"uint256"}],"name":"myCollections","outputs":[{"internalType":"address","name":"","type":"address"}],"stateMutability":"view","type":"function"},{"inputs":[{"internalType":"address","name":"","type":"address"},{"internalType":"uint256","name":"","type":"uint256"}],"name":"myNfts","outputs":[{"internalType":"address","name":"","type":"address"}],"stateMutability":"view","type":"function"},{"inputs":[],"name":"owner","outputs":[{"internalType":"address","name":"","type":"address"}],"stateMutability":"view","type":"function"},{"inputs":[],"name":"renounceOwnership","outputs":[],"stateMutability":"nonpayable","type":"function"},{"inputs":[],"name":"singleNftFee","outputs":[{"internalType":"uint256","name":"","type":"uint256"}],"stateMutability":"view","type":"function"},{"inputs":[{"internalType":"uint256","name":"","type":"uint256"}],"name":"singleNfts","outputs":[{"internalType":"address","name":"","type":"address"}],"stateMutability":"view","type":"function"},{"inputs":[{"internalType":"address","name":"newOwner","type":"address"}],"name":"transferOwnership","outputs":[],"stateMutability":"nonpayable","type":"function"},{"inputs":[{"internalType":"address","name":"_who","type":"address"}],"name":"whitelist","outputs":[],"stateMutability":"nonpayable","type":"function"},{"inputs":[],"name":"withdrawFees","outputs":[],"stateMutability":"nonpayable","type":"function"},{"stateMutability":"payable","type":"receive"}],"evm":{"bytecode":{"linkReferences":{},"object":"608060405234801561001057600080fd5b50338061003757604051631e4fbdf760e01b81526000600482015260240160405180910390fd5b61004081610050565b50600060018190556002556100a0565b600080546001600160a01b038381166001600160a01b0319831681178455604051919092169283917f8be0079c531659141344cd1fd0a4f28419497f9722a3daafe3b4186f6b6457e09190a35050565b614062806100af6000396000f3fe6080604052600436106200010b5760003560e01c8063715018a61162000095578063f2fde38b1162000060578063f2fde38b14620002cd578063f6890b0d14620002f2578063f9f92be41462000317578063fdbda0ec146200033c57600080fd5b8063715018a614620002595780638da5cb5b146200027157806399af7dad14620002915780639b19251a14620002a857600080fd5b80633cf5f7dc11620000d65780633cf5f7dc14620001dd578063476343ee1462000202578063535f8d01146200021a5780636ada44c7146200024157600080fd5b80630ac9299c146200011857806320d8dad014620001315780633af32abf146200016b5780633b8c9325146200019f57600080fd5b366200011357005b600080fd5b6200012f6200012936600462000a16565b62000361565b005b3480156200013e57600080fd5b50620001566200015036600462000aea565b6200049c565b60405190151581526020015b60405180910390f35b3480156200017857600080fd5b50620001566200018a36600462000aea565b60076020526000908152604090205460ff1681565b348015620001ac57600080fd5b50620001c4620001be36600462000b0f565b620004ce565b6040516001600160a01b03909116815260200162000162565b348015620001ea57600080fd5b50620001c4620001fc36600462000b3c565b62000507565b3480156200020f57600080fd5b506200012f62000532565b3480156200022757600080fd5b506200023260015481565b60405190815260200162000162565b3480156200024e57600080fd5b506200023260025481565b3480156200026657600080fd5b506200012f620005ce565b3480156200027e57600080fd5b506000546001600160a01b0316620001c4565b6200012f620002a236600462000b56565b620005e6565b348015620002b557600080fd5b506200012f620002c736600462000aea565b6200071a565b348015620002da57600080fd5b506200012f620002ec36600462000aea565b620007a5565b348015620002ff57600080fd5b50620001c46200031136600462000b0f565b620007e6565b3480156200032457600080fd5b506200012f6200033636600462000aea565b62000803565b3480156200034957600080fd5b50620001c46200035b36600462000b3c565b6200088a565b60025415620003b7576002543414620003b75760405162461bcd60e51b8152602060048201526013602482015272506c656173652070617920746865206665652160681b60448201526064015b60405180910390fd5b600087878787878787604051620003ce906200091a565b620003e0979695949392919062000c67565b604051809103906000f080158015620003fd573d6000803e3d6000fd5b506001600160a01b039081166000818152600760209081526040808320805460ff19166001908117909155999094168252600581529281208054808a01825590825292812090920180546001600160a01b031990811683179091556003805498890181559092527fc2575a0e9e593c00f959f8c92f12db2869c3395a3b0502d05e2516446f71f85b909601805490911690951790945550505050505050565b6001600160a01b03811660009081526007602052604081205460ff1615620004c657506001919050565b506000919050565b60066020528160005260406000208181548110620004eb57600080fd5b6000918252602090912001546001600160a01b03169150829050565b600481815481106200051857600080fd5b6000918252602090912001546001600160a01b0316905081565b6200053c6200089b565b604051600090339047908381818185875af1925050503d806000811462000580576040519150601f19603f3d011682016040523d82523d6000602084013e62000585565b606091505b5050905080620005cb5760405162461bcd60e51b815260206004820152601060248201526f2a3930b739b332b9103330b4b632b21760811b6044820152606401620003ae565b50565b620005d86200089b565b620005e46000620008ca565b565b6001541562000638576001543414620006385760405162461bcd60e51b8152602060048201526013602482015272506c656173652070617920746865206665652160681b6044820152606401620003ae565b60008686868686866040516200064e9062000928565b6200065f9695949392919062000cdf565b604051809103906000f0801580156200067c573d6000803e3d6000fd5b506001600160a01b039081166000818152600760209081526040808320805460ff19166001908117909155989094168252600681529281208054808901825590825292812090920180546001600160a01b031990811683179091556004805497880181559092527f8a35acfbc15ff81a39ae7d344fd709f28e8600b4aa8c65c6b64bfe7fe36bd19b9095018054909116909417909355505050505050565b620007246200089b565b6001600160a01b03811660009081526007602052604090205460ff1615620007815760405162461bcd60e51b815260206004820152600f60248201526e496e76616c696420416374696f6e2160881b6044820152606401620003ae565b6001600160a01b03166000908152600760205260409020805460ff19166001179055565b620007af6200089b565b6001600160a01b038116620007db57604051631e4fbdf760e01b815260006004820152602401620003ae565b620005cb81620008ca565b60056020528160005260406000208181548110620004eb57600080fd5b6200080d6200089b565b6001600160a01b03811660009081526007602052604090205460ff16620008695760405162461bcd60e51b815260206004820152600f60248201526e496e76616c696420416374696f6e2160881b6044820152606401620003ae565b6001600160a01b03166000908152600760205260409020805460ff19169055565b600381815481106200051857600080fd5b6000546001600160a01b03163314620005e45760405163118cdaa760e01b8152336004820152602401620003ae565b600080546001600160a01b038381166001600160a01b0319831681178455604051919092169283917f8be0079c531659141344cd1fd0a4f28419497f9722a3daafe3b4186f6b6457e09190a35050565b611a0e8062000d5383390190565b6118cc806200276183390190565b634e487b7160e01b600052604160045260246000fd5b600082601f8301126200095e57600080fd5b813567ffffffffffffffff808211156200097c576200097c62000936565b604051601f8301601f19908116603f01168101908282118183101715620009a757620009a762000936565b81604052838152866020858801011115620009c157600080fd5b836020870160208301376000602085830101528094505050505092915050565b80356001600160a01b0381168114620009f957600080fd5b919050565b80356001600160601b0381168114620009f957600080fd5b600080600080600080600060e0888a03121562000a3257600080fd5b873567ffffffffffffffff8082111562000a4b57600080fd5b62000a598b838c016200094c565b985060208a013591508082111562000a7057600080fd5b62000a7e8b838c016200094c565b975060408a013591508082111562000a9557600080fd5b5062000aa48a828b016200094c565b95505062000ab560608901620009e1565b935062000ac560808901620009e1565b925062000ad560a08901620009fe565b915060c0880135905092959891949750929550565b60006020828403121562000afd57600080fd5b62000b0882620009e1565b9392505050565b6000806040838503121562000b2357600080fd5b62000b2e83620009e1565b946020939093013593505050565b60006020828403121562000b4f57600080fd5b5035919050565b60008060008060008060c0878903121562000b7057600080fd5b863567ffffffffffffffff8082111562000b8957600080fd5b62000b978a838b016200094c565b9750602089013591508082111562000bae57600080fd5b62000bbc8a838b016200094c565b9650604089013591508082111562000bd357600080fd5b5062000be289828a016200094c565b94505062000bf360608801620009e1565b925062000c0360808801620009e1565b915062000c1360a08801620009fe565b90509295509295509295565b6000815180845260005b8181101562000c475760208185018101518683018201520162000c29565b506000602082860101526020601f19601f83011685010191505092915050565b60e08152600062000c7c60e083018a62000c1f565b828103602084015262000c90818a62000c1f565b9050828103604084015262000ca6818962000c1f565b6001600160a01b039788166060850152959096166080830152506001600160601b039290921660a083015260c090910152949350505050565b60c08152600062000cf460c083018962000c1f565b828103602084015262000d08818962000c1f565b9050828103604084015262000d1e818862000c1f565b6001600160a01b039687166060850152949095166080830152506001600160601b039190911660a09091015294935050505056fe60806040523480156200001157600080fd5b5060405162001a0e38038062001a0e8339810160408190526200003491620002c6565b83878760026200004583826200043a565b5060036200005482826200043a565b5050506001600160a01b0381166200008757604051631e4fbdf760e01b8152600060048201526024015b60405180910390fd5b6200009281620000e8565b50600c620000a186826200043a565b50600a8190556001600160a01b03831615801590620000c957506000826001600160601b0316115b15620000db57620000db83836200013a565b5050505050505062000506565b600980546001600160a01b038381166001600160a01b0319831681179093556040519116919082907f8be0079c531659141344cd1fd0a4f28419497f9722a3daafe3b4186f6b6457e090600090a35050565b6127106001600160601b0382168110156200017b57604051636f483d0960e01b81526001600160601b0383166004820152602481018290526044016200007e565b6001600160a01b038316620001a757604051635b6cc80560e11b8152600060048201526024016200007e565b50604080518082019091526001600160a01b039092168083526001600160601b039091166020909201829052600160a01b90910217600055565b634e487b7160e01b600052604160045260246000fd5b600082601f8301126200020957600080fd5b81516001600160401b0380821115620002265762000226620001e1565b604051601f8301601f19908116603f01168101908282118183101715620002515762000251620001e1565b81604052838152602092508660208588010111156200026f57600080fd5b600091505b8382101562000293578582018301518183018401529082019062000274565b6000602085830101528094505050505092915050565b80516001600160a01b0381168114620002c157600080fd5b919050565b600080600080600080600060e0888a031215620002e257600080fd5b87516001600160401b0380821115620002fa57600080fd5b620003088b838c01620001f7565b985060208a01519150808211156200031f57600080fd5b6200032d8b838c01620001f7565b975060408a01519150808211156200034457600080fd5b50620003538a828b01620001f7565b9550506200036460608901620002a9565b93506200037460808901620002a9565b60a08901519093506001600160601b03811681146200039257600080fd5b8092505060c0880151905092959891949750929550565b600181811c90821680620003be57607f821691505b602082108103620003df57634e487b7160e01b600052602260045260246000fd5b50919050565b601f82111562000435576000816000526020600020601f850160051c81016020861015620004105750805b601f850160051c820191505b8181101562000431578281556001016200041c565b5050505b505050565b81516001600160401b03811115620004565762000456620001e1565b6200046e81620004678454620003a9565b84620003e5565b602080601f831160018114620004a657600084156200048d5750858301515b600019600386901b1c1916600185901b17855562000431565b600085815260208120601f198616915b82811015620004d757888601518255948401946001909101908401620004b6565b5085821015620004f65787850151600019600388901b60f8161c191681555b5050505050600190811b01905550565b6114f880620005166000396000f3fe608060405234801561001057600080fd5b506004361061012c5760003560e01c806370a08231116100ad578063a22cb46511610071578063a22cb46514610280578063b88d4fde14610293578063c87b56dd146102a6578063e985e9c5146102b9578063f2fde38b146102cc57600080fd5b806370a0823114610243578063715018a614610256578063736bf5911461025e5780638da5cb5b1461026757806395d89b411461027857600080fd5b806323b872dd116100f457806323b872dd146101c55780632a55205a146101d857806342842e0e1461020a578063428f3a501461021d5780636352211e1461023057600080fd5b806301ffc9a71461013157806306fdde0314610159578063081812fc1461016e578063095ea7b31461019957806322f4596f146101ae575b600080fd5b61014461013f366004610fa8565b6102df565b60405190151581526020015b60405180910390f35b6101616102f0565b604051610150919061101c565b61018161017c36600461102f565b610382565b6040516001600160a01b039091168152602001610150565b6101ac6101a7366004611064565b6103ab565b005b6101b7600a5481565b604051908152602001610150565b6101ac6101d336600461108e565b6103ba565b6101eb6101e63660046110ca565b61044a565b604080516001600160a01b039093168352602083019190915201610150565b6101ac61021836600461108e565b6104f6565b6101ac61022b3660046110ec565b610516565b61018161023e36600461102f565b61065f565b6101b7610251366004611172565b61066a565b6101ac6106b2565b6101b7600b5481565b6009546001600160a01b0316610181565b6101616106c6565b6101ac61028e36600461118d565b6106d5565b6101ac6102a13660046111df565b6106e0565b6101616102b436600461102f565b6106f7565b6101446102c73660046112bb565b61075b565b6101ac6102da366004611172565b610789565b60006102ea826107c7565b92915050565b6060600280546102ff906112ee565b80601f016020809104026020016040519081016040528092919081815260200182805461032b906112ee565b80156103785780601f1061034d57610100808354040283529160200191610378565b820191906000526020600020905b81548152906001019060200180831161035b57829003601f168201915b5050505050905090565b600061038d826107d2565b506000828152600660205260409020546001600160a01b03166102ea565b6103b682823361080b565b5050565b6001600160a01b0382166103e957604051633250574960e11b8152600060048201526024015b60405180910390fd5b60006103f6838333610818565b9050836001600160a01b0316816001600160a01b031614610444576040516364283d7b60e01b81526001600160a01b03808616600483015260248201849052821660448201526064016103e0565b50505050565b60008281526001602090815260408083208151808301909252546001600160a01b038116808352600160a01b9091046001600160601b03169282019290925282916104bf5750604080518082019091526000546001600160a01b0381168252600160a01b90046001600160601b031660208201525b6020810151600090612710906104de906001600160601b03168761133e565b6104e89190611355565b915196919550909350505050565b610511838383604051806020016040528060008152506106e0565b505050565b61051e610911565b6001600160a01b0383166105665760405162461bcd60e51b815260206004820152600f60248201526e496e76616c696420706172616d732160881b60448201526064016103e0565b600b548190600090610579908390611377565b9050600a548111156105c35760405162461bcd60e51b815260206004820152601360248201527243616e2774206d696e7420616e796d6f72652160681b60448201526064016103e0565b60005b8281101561065757600a548585838181106105e3576105e361138a565b905060200201351061062d5760405162461bcd60e51b815260206004820152601360248201527243616e2774206d696e7420616e796d6f72652160681b60448201526064016103e0565b61064f868686848181106106435761064361138a565b9050602002013561093e565b6001016105c6565b505050505050565b60006102ea826107d2565b60006001600160a01b038216610696576040516322718ad960e21b8152600060048201526024016103e0565b506001600160a01b031660009081526005602052604090205490565b6106ba610911565b6106c460006109a3565b565b6060600380546102ff906112ee565b6103b63383836109f5565b6106eb8484846103ba565b61044484848484610a94565b6060600b54821061072957505060408051808201909152600b81526a496e76616c69642049642160a81b602082015290565b600c61073483610bbd565b6040516020016107459291906113bc565b6040516020818303038152906040529050919050565b6001600160a01b03918216600090815260076020908152604080832093909416825291909152205460ff1690565b610791610911565b6001600160a01b0381166107bb57604051631e4fbdf760e01b8152600060048201526024016103e0565b6107c4816109a3565b50565b60006102ea82610c50565b6000818152600460205260408120546001600160a01b0316806102ea57604051637e27328960e01b8152600481018490526024016103e0565b6105118383836001610c75565b6000828152600460205260408120546001600160a01b039081169083161561084557610845818486610d7b565b6001600160a01b0381161561088357610862600085600080610c75565b6001600160a01b038116600090815260056020526040902080546000190190555b6001600160a01b038516156108b2576001600160a01b0385166000908152600560205260409020805460010190555b60008481526004602052604080822080546001600160a01b0319166001600160a01b0389811691821790925591518793918516917fddf252ad1be2c89b69c2b068fc378daa952ba7f163c4a11628f55a4df523b3ef91a4949350505050565b6009546001600160a01b031633146106c45760405163118cdaa760e01b81523360048201526024016103e0565b6001600160a01b03821661096857604051633250574960e11b8152600060048201526024016103e0565b600061097683836000610818565b90506001600160a01b03811615610511576040516339e3563760e11b8152600060048201526024016103e0565b600980546001600160a01b038381166001600160a01b0319831681179093556040519116919082907f8be0079c531659141344cd1fd0a4f28419497f9722a3daafe3b4186f6b6457e090600090a35050565b6001600160a01b038216610a2757604051630b61174360e31b81526001600160a01b03831660048201526024016103e0565b6001600160a01b03838116600081815260076020908152604080832094871680845294825291829020805460ff191686151590811790915591519182527f17307eab39ab6107e8899845ad3d59bd9653f200f220920489ca2b5937696c31910160405180910390a3505050565b6001600160a01b0383163b1561044457604051630a85bd0160e11b81526001600160a01b0384169063150b7a0290610ad6903390889087908790600401611468565b6020604051808303816000875af1925050508015610b11575060408051601f3d908101601f19168201909252610b0e918101906114a5565b60015b610b7a573d808015610b3f576040519150601f19603f3d011682016040523d82523d6000602084013e610b44565b606091505b508051600003610b7257604051633250574960e11b81526001600160a01b03851660048201526024016103e0565b805181602001fd5b6001600160e01b03198116630a85bd0160e11b14610bb657604051633250574960e11b81526001600160a01b03851660048201526024016103e0565b5050505050565b60606000610bca83610ddf565b600101905060008167ffffffffffffffff811115610bea57610bea6111c9565b6040519080825280601f01601f191660200182016040528015610c14576020820181803683370190505b5090508181016020015b600019016f181899199a1a9b1b9c1cb0b131b232b360811b600a86061a8153600a8504945084610c1e57509392505050565b60006001600160e01b03198216632483248360e11b14806102ea57506102ea82610eb7565b8080610c8957506001600160a01b03821615155b15610d4b576000610c99846107d2565b90506001600160a01b03831615801590610cc55750826001600160a01b0316816001600160a01b031614155b8015610cd85750610cd6818461075b565b155b15610d015760405163a9fbf51f60e01b81526001600160a01b03841660048201526024016103e0565b8115610d495783856001600160a01b0316826001600160a01b03167f8c5be1e5ebec7d5bd14f71427d1e84f3dd0314c0f7b2291e5b200ac8c7c3b92560405160405180910390a45b505b5050600090815260066020526040902080546001600160a01b0319166001600160a01b0392909216919091179055565b610d86838383610ef7565b610511576001600160a01b038316610db457604051637e27328960e01b8152600481018290526024016103e0565b60405163177e802f60e01b81526001600160a01b0383166004820152602481018290526044016103e0565b60008072184f03e93ff9f4daa797ed6e38ed64bf6a1f0160401b8310610e1e5772184f03e93ff9f4daa797ed6e38ed64bf6a1f0160401b830492506040015b6d04ee2d6d415b85acef81000000008310610e4a576d04ee2d6d415b85acef8100000000830492506020015b662386f26fc100008310610e6857662386f26fc10000830492506010015b6305f5e1008310610e80576305f5e100830492506008015b6127108310610e9457612710830492506004015b60648310610ea6576064830492506002015b600a83106102ea5760010192915050565b60006001600160e01b031982166380ac58cd60e01b1480610ee857506001600160e01b03198216635b5e139f60e01b145b806102ea57506102ea82610f5d565b60006001600160a01b03831615801590610f555750826001600160a01b0316846001600160a01b03161480610f315750610f31848461075b565b80610f5557506000828152600660205260409020546001600160a01b038481169116145b949350505050565b60006001600160e01b0319821663152a902d60e11b14806102ea57506301ffc9a760e01b6001600160e01b03198316146102ea565b6001600160e01b0319811681146107c457600080fd5b600060208284031215610fba57600080fd5b8135610fc581610f92565b9392505050565b60005b83811015610fe7578181015183820152602001610fcf565b50506000910152565b60008151808452611008816020860160208601610fcc565b601f01601f19169290920160200192915050565b602081526000610fc56020830184610ff0565b60006020828403121561104157600080fd5b5035919050565b80356001600160a01b038116811461105f57600080fd5b919050565b6000806040838503121561107757600080fd5b61108083611048565b946020939093013593505050565b6000806000606084860312156110a357600080fd5b6110ac84611048565b92506110ba60208501611048565b9150604084013590509250925092565b600080604083850312156110dd57600080fd5b50508035926020909101359150565b60008060006040848603121561110157600080fd5b61110a84611048565b9250602084013567ffffffffffffffff8082111561112757600080fd5b818601915086601f83011261113b57600080fd5b81358181111561114a57600080fd5b8760208260051b850101111561115f57600080fd5b6020830194508093505050509250925092565b60006020828403121561118457600080fd5b610fc582611048565b600080604083850312156111a057600080fd5b6111a983611048565b9150602083013580151581146111be57600080fd5b809150509250929050565b634e487b7160e01b600052604160045260246000fd5b600080600080608085870312156111f557600080fd5b6111fe85611048565b935061120c60208601611048565b925060408501359150606085013567ffffffffffffffff8082111561123057600080fd5b818701915087601f83011261124457600080fd5b813581811115611256576112566111c9565b604051601f8201601f19908116603f0116810190838211818310171561127e5761127e6111c9565b816040528281528a602084870101111561129757600080fd5b82602086016020830137600060208483010152809550505050505092959194509250565b600080604083850312156112ce57600080fd5b6112d783611048565b91506112e560208401611048565b90509250929050565b600181811c9082168061130257607f821691505b60208210810361132257634e487b7160e01b600052602260045260246000fd5b50919050565b634e487b7160e01b600052601160045260246000fd5b80820281158282048414176102ea576102ea611328565b60008261137257634e487b7160e01b600052601260045260246000fd5b500490565b808201808211156102ea576102ea611328565b634e487b7160e01b600052603260045260246000fd5b600081516113b2818560208601610fcc565b9290920192915050565b60008084548160018260011c915060018316806113da57607f831692505b602080841082036113f957634e487b7160e01b86526022600452602486fd5b81801561140d57600181146114225761144f565b60ff198616895284151585028901965061144f565b60008b81526020902060005b868110156114475781548b82015290850190830161142e565b505084890196505b50505050505061145f81856113a0565b95945050505050565b6001600160a01b038581168252841660208201526040810183905260806060820181905260009061149b90830184610ff0565b9695505050505050565b6000602082840312156114b757600080fd5b8151610fc581610f9256fea2646970667358221220e375f98c19213b0d8bb5cf86455bca6b412167ba34808a0fa8810588bf718b6c64736f6c6343000818003360806040523480156200001157600080fd5b50604051620018cc380380620018cc83398101604081905262000034916200069d565b828686600262000045838262000805565b50600362000054828262000805565b5050506001600160a01b0381166200008757604051631e4fbdf760e01b8152600060048201526024015b60405180910390fd5b6200009281620000ef565b50600a620000a1858262000805565b50620000af83600062000141565b6001600160a01b03821615801590620000d157506000816001600160601b0316115b15620000e357620000e38282620001b0565b505050505050620008d1565b600980546001600160a01b038381166001600160a01b0319831681179093556040519116919082907f8be0079c531659141344cd1fd0a4f28419497f9722a3daafe3b4186f6b6457e090600090a35050565b6001600160a01b0382166200016d57604051633250574960e11b8152600060048201526024016200007e565b60006200017c83838362000257565b90506001600160a01b03811615620001ab576040516339e3563760e11b8152600060048201526024016200007e565b505050565b6127106001600160601b038216811015620001f157604051636f483d0960e01b81526001600160601b0383166004820152602481018290526044016200007e565b6001600160a01b0383166200021d57604051635b6cc80560e11b8152600060048201526024016200007e565b50604080518082019091526001600160a01b039092168083526001600160601b039091166020909201829052600160a01b90910217600055565b6000828152600460205260408120546001600160a01b039081169083161562000287576200028781848662000356565b6001600160a01b03811615620002c757620002a66000858180620003c0565b6001600160a01b038116600090815260056020526040902080546000190190555b6001600160a01b03851615620002f7576001600160a01b0385166000908152600560205260409020805460010190555b60008481526004602052604080822080546001600160a01b0319166001600160a01b0389811691821790925591518793918516917fddf252ad1be2c89b69c2b068fc378daa952ba7f163c4a11628f55a4df523b3ef91a4949350505050565b62000363838383620004ee565b620001ab576001600160a01b0383166200039457604051637e27328960e01b8152600481018290526024016200007e565b60405163177e802f60e01b81526001600160a01b0383166004820152602481018290526044016200007e565b8080620003d557506001600160a01b03821615155b15620004be576000620003e88462000577565b90506001600160a01b03831615801590620004155750826001600160a01b0316816001600160a01b031614155b80156200044857506001600160a01b0380821660009081526007602090815260408083209387168352929052205460ff16155b15620004735760405163a9fbf51f60e01b81526001600160a01b03841660048201526024016200007e565b8115620004bc5783856001600160a01b0316826001600160a01b03167f8c5be1e5ebec7d5bd14f71427d1e84f3dd0314c0f7b2291e5b200ac8c7c3b92560405160405180910390a45b505b5050600090815260066020526040902080546001600160a01b0319166001600160a01b0392909216919091179055565b60006001600160a01b038316158015906200056f5750826001600160a01b0316846001600160a01b031614806200054a57506001600160a01b0380851660009081526007602090815260408083209387168352929052205460ff165b806200056f57506000828152600660205260409020546001600160a01b038481169116145b949350505050565b6000818152600460205260408120546001600160a01b031680620005b257604051637e27328960e01b8152600481018490526024016200007e565b92915050565b634e487b7160e01b600052604160045260246000fd5b600082601f830112620005e057600080fd5b81516001600160401b0380821115620005fd57620005fd620005b8565b604051601f8301601f19908116603f01168101908282118183101715620006285762000628620005b8565b81604052838152602092508660208588010111156200064657600080fd5b600091505b838210156200066a57858201830151818301840152908201906200064b565b6000602085830101528094505050505092915050565b80516001600160a01b03811681146200069857600080fd5b919050565b60008060008060008060c08789031215620006b757600080fd5b86516001600160401b0380821115620006cf57600080fd5b620006dd8a838b01620005ce565b97506020890151915080821115620006f457600080fd5b620007028a838b01620005ce565b965060408901519150808211156200071957600080fd5b506200072889828a01620005ce565b945050620007396060880162000680565b9250620007496080880162000680565b60a08801519092506001600160601b03811681146200076757600080fd5b809150509295509295509295565b600181811c908216806200078a57607f821691505b602082108103620007ab57634e487b7160e01b600052602260045260246000fd5b50919050565b601f821115620001ab576000816000526020600020601f850160051c81016020861015620007dc5750805b601f850160051c820191505b81811015620007fd57828155600101620007e8565b505050505050565b81516001600160401b03811115620008215762000821620005b8565b620008398162000832845462000775565b84620007b1565b602080601f831160018114620008715760008415620008585750858301515b600019600386901b1c1916600185901b178555620007fd565b600085815260208120601f198616915b82811015620008a25788860151825594840194600190910190840162000881565b5085821015620008c15787850151600019600388901b60f8161c191681555b5050505050600190811b01905550565b610feb80620008e16000396000f3fe608060405234801561001057600080fd5b506004361061010b5760003560e01c806370a08231116100a2578063a22cb46511610071578063a22cb4651461023a578063b88d4fde1461024d578063c87b56dd14610260578063e985e9c514610273578063f2fde38b1461028657600080fd5b806370a08231146101f8578063715018a6146102195780638da5cb5b1461022157806395d89b411461023257600080fd5b806323b872dd116100de57806323b872dd1461018d5780632a55205a146101a057806342842e0e146101d25780636352211e146101e557600080fd5b806301ffc9a71461011057806306fdde0314610138578063081812fc1461014d578063095ea7b314610178575b600080fd5b61012361011e366004610c24565b610299565b60405190151581526020015b60405180910390f35b6101406102aa565b60405161012f9190610c8e565b61016061015b366004610ca1565b61033c565b6040516001600160a01b03909116815260200161012f565b61018b610186366004610cd6565b610365565b005b61018b61019b366004610d00565b610374565b6101b36101ae366004610d3c565b610404565b604080516001600160a01b03909316835260208301919091520161012f565b61018b6101e0366004610d00565b6104b0565b6101606101f3366004610ca1565b6104d0565b61020b610206366004610d5e565b6104db565b60405190815260200161012f565b61018b610523565b6009546001600160a01b0316610160565b610140610537565b61018b610248366004610d79565b610546565b61018b61025b366004610dcb565b610551565b61014061026e366004610ca1565b610568565b610123610281366004610ea7565b6105a7565b61018b610294366004610d5e565b6105d5565b60006102a482610613565b92915050565b6060600280546102b990610eda565b80601f01602080910402602001604051908101604052809291908181526020018280546102e590610eda565b80156103325780601f1061030757610100808354040283529160200191610332565b820191906000526020600020905b81548152906001019060200180831161031557829003601f168201915b5050505050905090565b60006103478261061e565b506000828152600660205260409020546001600160a01b03166102a4565b610370828233610657565b5050565b6001600160a01b0382166103a357604051633250574960e11b8152600060048201526024015b60405180910390fd5b60006103b0838333610664565b9050836001600160a01b0316816001600160a01b0316146103fe576040516364283d7b60e01b81526001600160a01b038086166004830152602482018490528216604482015260640161039a565b50505050565b60008281526001602090815260408083208151808301909252546001600160a01b038116808352600160a01b9091046001600160601b03169282019290925282916104795750604080518082019091526000546001600160a01b0381168252600160a01b90046001600160601b031660208201525b602081015160009061271090610498906001600160601b031687610f14565b6104a29190610f39565b915196919550909350505050565b6104cb83838360405180602001604052806000815250610551565b505050565b60006102a48261061e565b60006001600160a01b038216610507576040516322718ad960e21b81526000600482015260240161039a565b506001600160a01b031660009081526005602052604090205490565b61052b61075d565b610535600061078a565b565b6060600380546102b990610eda565b6103703383836107dc565b61055c848484610374565b6103fe8484848461087b565b606081156105935750506040805180820190915260078152664e6f205552492160c81b602082015290565b6040805160208101909152600081526102a4565b6001600160a01b03918216600090815260076020908152604080832093909416825291909152205460ff1690565b6105dd61075d565b6001600160a01b03811661060757604051631e4fbdf760e01b81526000600482015260240161039a565b6106108161078a565b50565b60006102a4826109a4565b6000818152600460205260408120546001600160a01b0316806102a457604051637e27328960e01b81526004810184905260240161039a565b6104cb83838360016109c9565b6000828152600460205260408120546001600160a01b039081169083161561069157610691818486610acf565b6001600160a01b038116156106cf576106ae6000856000806109c9565b6001600160a01b038116600090815260056020526040902080546000190190555b6001600160a01b038516156106fe576001600160a01b0385166000908152600560205260409020805460010190555b60008481526004602052604080822080546001600160a01b0319166001600160a01b0389811691821790925591518793918516917fddf252ad1be2c89b69c2b068fc378daa952ba7f163c4a11628f55a4df523b3ef91a4949350505050565b6009546001600160a01b031633146105355760405163118cdaa760e01b815233600482015260240161039a565b600980546001600160a01b038381166001600160a01b0319831681179093556040519116919082907f8be0079c531659141344cd1fd0a4f28419497f9722a3daafe3b4186f6b6457e090600090a35050565b6001600160a01b03821661080e57604051630b61174360e31b81526001600160a01b038316600482015260240161039a565b6001600160a01b03838116600081815260076020908152604080832094871680845294825291829020805460ff191686151590811790915591519182527f17307eab39ab6107e8899845ad3d59bd9653f200f220920489ca2b5937696c31910160405180910390a3505050565b6001600160a01b0383163b156103fe57604051630a85bd0160e11b81526001600160a01b0384169063150b7a02906108bd903390889087908790600401610f5b565b6020604051808303816000875af19250505080156108f8575060408051601f3d908101601f191682019092526108f591810190610f98565b60015b610961573d808015610926576040519150601f19603f3d011682016040523d82523d6000602084013e61092b565b606091505b50805160000361095957604051633250574960e11b81526001600160a01b038516600482015260240161039a565b805181602001fd5b6001600160e01b03198116630a85bd0160e11b1461099d57604051633250574960e11b81526001600160a01b038516600482015260240161039a565b5050505050565b60006001600160e01b03198216632483248360e11b14806102a457506102a482610b33565b80806109dd57506001600160a01b03821615155b15610a9f5760006109ed8461061e565b90506001600160a01b03831615801590610a195750826001600160a01b0316816001600160a01b031614155b8015610a2c5750610a2a81846105a7565b155b15610a555760405163a9fbf51f60e01b81526001600160a01b038416600482015260240161039a565b8115610a9d5783856001600160a01b0316826001600160a01b03167f8c5be1e5ebec7d5bd14f71427d1e84f3dd0314c0f7b2291e5b200ac8c7c3b92560405160405180910390a45b505b5050600090815260066020526040902080546001600160a01b0319166001600160a01b0392909216919091179055565b610ada838383610b73565b6104cb576001600160a01b038316610b0857604051637e27328960e01b81526004810182905260240161039a565b60405163177e802f60e01b81526001600160a01b03831660048201526024810182905260440161039a565b60006001600160e01b031982166380ac58cd60e01b1480610b6457506001600160e01b03198216635b5e139f60e01b145b806102a457506102a482610bd9565b60006001600160a01b03831615801590610bd15750826001600160a01b0316846001600160a01b03161480610bad5750610bad84846105a7565b80610bd157506000828152600660205260409020546001600160a01b038481169116145b949350505050565b60006001600160e01b0319821663152a902d60e11b14806102a457506301ffc9a760e01b6001600160e01b03198316146102a4565b6001600160e01b03198116811461061057600080fd5b600060208284031215610c3657600080fd5b8135610c4181610c0e565b9392505050565b6000815180845260005b81811015610c6e57602081850181015186830182015201610c52565b506000602082860101526020601f19601f83011685010191505092915050565b602081526000610c416020830184610c48565b600060208284031215610cb357600080fd5b5035919050565b80356001600160a01b0381168114610cd157600080fd5b919050565b60008060408385031215610ce957600080fd5b610cf283610cba565b946020939093013593505050565b600080600060608486031215610d1557600080fd5b610d1e84610cba565b9250610d2c60208501610cba565b9150604084013590509250925092565b60008060408385031215610d4f57600080fd5b50508035926020909101359150565b600060208284031215610d7057600080fd5b610c4182610cba565b60008060408385031215610d8c57600080fd5b610d9583610cba565b915060208301358015158114610daa57600080fd5b809150509250929050565b634e487b7160e01b600052604160045260246000fd5b60008060008060808587031215610de157600080fd5b610dea85610cba565b9350610df860208601610cba565b925060408501359150606085013567ffffffffffffffff80821115610e1c57600080fd5b818701915087601f830112610e3057600080fd5b813581811115610e4257610e42610db5565b604051601f8201601f19908116603f01168101908382118183101715610e6a57610e6a610db5565b816040528281528a6020848701011115610e8357600080fd5b82602086016020830137600060208483010152809550505050505092959194509250565b60008060408385031215610eba57600080fd5b610ec383610cba565b9150610ed160208401610cba565b90509250929050565b600181811c90821680610eee57607f821691505b602082108103610f0e57634e487b7160e01b600052602260045260246000fd5b50919050565b80820281158282048414176102a457634e487b7160e01b600052601160045260246000fd5b600082610f5657634e487b7160e01b600052601260045260246000fd5b500490565b6001600160a01b0385811682528416602082015260408101839052608060608201819052600090610f8e90830184610c48565b9695505050505050565b600060208284031215610faa57600080fd5b8151610c4181610c0e56fea2646970667358221220af91a799394c4bbb3421d0d1e8f3b1008c4d277d7847e086569f4bf21156933e64736f6c63430008180033a26469706673582212200c1b1ce0e0ab80935f29a2c00802b8c26c326d2440b29ee3db7d1c0af9060cde64736f6c63430008180033","opcodes":"PUSH1 0x80 PUSH1 0x40 MSTORE CALLVALUE DUP1 ISZERO PUSH2 0x10 JUMPI PUSH1 0x0 DUP1 REVERT JUMPDEST POP CALLER DUP1 PUSH2 0x37 JUMPI PUSH1 0x40 MLOAD PUSH4 0x1E4FBDF7 PUSH1 0xE0 SHL DUP2 MSTORE PUSH1 0x0 PUSH1 0x4 DUP3 ADD MSTORE PUSH1 0x24 ADD PUSH1 0x40 MLOAD DUP1 SWAP2 SUB SWAP1 REVERT JUMPDEST PUSH2 0x40 DUP2 PUSH2 0x50 JUMP JUMPDEST POP PUSH1 0x0 PUSH1 0x1 DUP2 SWAP1 SSTORE PUSH1 0x2 SSTORE PUSH2 0xA0 JUMP JUMPDEST PUSH1 0x0 DUP1 SLOAD PUSH1 0x1 PUSH1 0x1 PUSH1 0xA0 SHL SUB DUP4 DUP2 AND PUSH1 0x1 PUSH1 0x1 PUSH1 0xA0 SHL SUB NOT DUP4 AND DUP2 OR DUP5 SSTORE PUSH1 0x40 MLOAD SWAP2 SWAP1 SWAP3 AND SWAP3 DUP4 SWAP2 PUSH32 0x8BE0079C531659141344CD1FD0A4F28419497F9722A3DAAFE3B4186F6B6457E0 SWAP2 SWAP1 LOG3 POP POP JUMP JUMPDEST PUSH2 0x4062 DUP1 PUSH2 0xAF PUSH1 0x0 CODECOPY PUSH1 0x0 RETURN INVALID PUSH1 0x80 PUSH1 0x40 MSTORE PUSH1 0x4 CALLDATASIZE LT PUSH3 0x10B JUMPI PUSH1 0x0 CALLDATALOAD PUSH1 0xE0 SHR DUP1 PUSH4 0x715018A6 GT PUSH3 0x95 JUMPI DUP1 PUSH4 0xF2FDE38B GT PUSH3 0x60 JUMPI DUP1 PUSH4 0xF2FDE38B EQ PUSH3 0x2CD JUMPI DUP1 PUSH4 0xF6890B0D EQ PUSH3 0x2F2 JUMPI DUP1 PUSH4 0xF9F92BE4 EQ PUSH3 0x317 JUMPI DUP1 PUSH4 0xFDBDA0EC EQ PUSH3 0x33C JUMPI PUSH1 0x0 DUP1 REVERT JUMPDEST DUP1 PUSH4 0x715018A6 EQ PUSH3 0x259 JUMPI DUP1 PUSH4 0x8DA5CB5B EQ PUSH3 0x271 JUMPI DUP1 PUSH4 0x99AF7DAD EQ PUSH3 0x291 JUMPI DUP1 PUSH4 0x9B19251A EQ PUSH3 0x2A8 JUMPI PUSH1 0x0 DUP1 REVERT JUMPDEST DUP1 PUSH4 0x3CF5F7DC GT PUSH3 0xD6 JUMPI DUP1 PUSH4 0x3CF5F7DC EQ PUSH3 0x1DD JUMPI DUP1 PUSH4 0x476343EE EQ PUSH3 0x202 JUMPI DUP1 PUSH4 0x535F8D01 EQ PUSH3 0x21A JUMPI DUP1 PUSH4 0x6ADA44C7 EQ PUSH3 0x241 JUMPI PUSH1 0x0 DUP1 REVERT JUMPDEST DUP1 PUSH4 0xAC9299C EQ PUSH3 0x118 JUMPI DUP1 PUSH4 0x20D8DAD0 EQ PUSH3 0x131 JUMPI DUP1 PUSH4 0x3AF32ABF EQ PUSH3 0x16B JUMPI DUP1 PUSH4 0x3B8C9325 EQ PUSH3 0x19F JUMPI PUSH1 0x0 DUP1 REVERT JUMPDEST CALLDATASIZE PUSH3 0x113 JUMPI STOP JUMPDEST PUSH1 0x0 DUP1 REVERT JUMPDEST PUSH3 0x12F PUSH3 0x129 CALLDATASIZE PUSH1 0x4 PUSH3 0xA16 JUMP JUMPDEST PUSH3 0x361 JUMP JUMPDEST STOP JUMPDEST CALLVALUE DUP1 ISZERO PUSH3 0x13E JUMPI PUSH1 0x0 DUP1 REVERT JUMPDEST POP PUSH3 0x156 PUSH3 0x150 CALLDATASIZE PUSH1 0x4 PUSH3 0xAEA JUMP JUMPDEST PUSH3 0x49C JUMP JUMPDEST PUSH1 0x40 MLOAD SWAP1 ISZERO ISZERO DUP2 MSTORE PUSH1 0x20 ADD JUMPDEST PUSH1 0x40 MLOAD DUP1 SWAP2 SUB SWAP1 RETURN JUMPDEST CALLVALUE DUP1 ISZERO PUSH3 0x178 JUMPI PUSH1 0x0 DUP1 REVERT JUMPDEST POP PUSH3 0x156 PUSH3 0x18A CALLDATASIZE PUSH1 0x4 PUSH3 0xAEA JUMP JUMPDEST PUSH1 0x7 PUSH1 0x20 MSTORE PUSH1 0x0 SWAP1 DUP2 MSTORE PUSH1 0x40 SWAP1 KECCAK256 SLOAD PUSH1 0xFF AND DUP2 JUMP JUMPDEST CALLVALUE DUP1 ISZERO PUSH3 0x1AC JUMPI PUSH1 0x0 DUP1 REVERT JUMPDEST POP PUSH3 0x1C4 PUSH3 0x1BE CALLDATASIZE PUSH1 0x4 PUSH3 0xB0F JUMP JUMPDEST PUSH3 0x4CE JUMP JUMPDEST PUSH1 0x40 MLOAD PUSH1 0x1 PUSH1 0x1 PUSH1 0xA0 SHL SUB SWAP1 SWAP2 AND DUP2 MSTORE PUSH1 0x20 ADD PUSH3 0x162 JUMP JUMPDEST CALLVALUE DUP1 ISZERO PUSH3 0x1EA JUMPI PUSH1 0x0 DUP1 REVERT JUMPDEST POP PUSH3 0x1C4 PUSH3 0x1FC CALLDATASIZE PUSH1 0x4 PUSH3 0xB3C JUMP JUMPDEST PUSH3 0x507 JUMP JUMPDEST CALLVALUE DUP1 ISZERO PUSH3 0x20F JUMPI PUSH1 0x0 DUP1 REVERT JUMPDEST POP PUSH3 0x12F PUSH3 0x532 JUMP JUMPDEST CALLVALUE DUP1 ISZERO PUSH3 0x227 JUMPI PUSH1 0x0 DUP1 REVERT JUMPDEST POP PUSH3 0x232 PUSH1 0x1 SLOAD DUP2 JUMP JUMPDEST PUSH1 0x40 MLOAD SWAP1 DUP2 MSTORE PUSH1 0x20 ADD PUSH3 0x162 JUMP JUMPDEST CALLVALUE DUP1 ISZERO PUSH3 0x24E JUMPI PUSH1 0x0 DUP1 REVERT JUMPDEST POP PUSH3 0x232 PUSH1 0x2 SLOAD DUP2 JUMP JUMPDEST CALLVALUE DUP1 ISZERO PUSH3 0x266 JUMPI PUSH1 0x0 DUP1 REVERT JUMPDEST POP PUSH3 0x12F PUSH3 0x5CE JUMP JUMPDEST CALLVALUE DUP1 ISZERO PUSH3 0x27E JUMPI PUSH1 0x0 DUP1 REVERT JUMPDEST POP PUSH1 0x0 SLOAD PUSH1 0x1 PUSH1 0x1 PUSH1 0xA0 SHL SUB AND PUSH3 0x1C4 JUMP JUMPDEST PUSH3 0x12F PUSH3 0x2A2 CALLDATASIZE PUSH1 0x4 PUSH3 0xB56 JUMP JUMPDEST PUSH3 0x5E6 JUMP JUMPDEST CALLVALUE DUP1 ISZERO PUSH3 0x2B5 JUMPI PUSH1 0x0 DUP1 REVERT JUMPDEST POP PUSH3 0x12F PUSH3 0x2C7 CALLDATASIZE PUSH1 0x4 PUSH3 0xAEA JUMP JUMPDEST PUSH3 0x71A JUMP JUMPDEST CALLVALUE DUP1 ISZERO PUSH3 0x2DA JUMPI PUSH1 0x0 DUP1 REVERT JUMPDEST POP PUSH3 0x12F PUSH3 0x2EC CALLDATASIZE PUSH1 0x4 PUSH3 0xAEA JUMP JUMPDEST PUSH3 0x7A5 JUMP JUMPDEST CALLVALUE DUP1 ISZERO PUSH3 0x2FF JUMPI PUSH1 0x0 DUP1 REVERT JUMPDEST POP PUSH3 0x1C4 PUSH3 0x311 CALLDATASIZE PUSH1 0x4 PUSH3 0xB0F JUMP JUMPDEST PUSH3 0x7E6 JUMP JUMPDEST CALLVALUE DUP1 ISZERO PUSH3 0x324 JUMPI PUSH1 0x0 DUP1 REVERT JUMPDEST POP PUSH3 0x12F PUSH3 0x336 CALLDATASIZE PUSH1 0x4 PUSH3 0xAEA JUMP JUMPDEST PUSH3 0x803 JUMP JUMPDEST CALLVALUE DUP1 ISZERO PUSH3 0x349 JUMPI PUSH1 0x0 DUP1 REVERT JUMPDEST POP PUSH3 0x1C4 PUSH3 0x35B CALLDATASIZE PUSH1 0x4 PUSH3 0xB3C JUMP JUMPDEST PUSH3 0x88A JUMP JUMPDEST PUSH1 0x2 SLOAD ISZERO PUSH3 0x3B7 JUMPI PUSH1 0x2 SLOAD CALLVALUE EQ PUSH3 0x3B7 JUMPI PUSH1 0x40 MLOAD PUSH3 0x461BCD PUSH1 0xE5 SHL DUP2 MSTORE PUSH1 0x20 PUSH1 0x4 DUP3 ADD MSTORE PUSH1 0x13 PUSH1 0x24 DUP3 ADD MSTORE PUSH19 0x506C6561736520706179207468652066656521 PUSH1 0x68 SHL PUSH1 0x44 DUP3 ADD MSTORE PUSH1 0x64 ADD JUMPDEST PUSH1 0x40 MLOAD DUP1 SWAP2 SUB SWAP1 REVERT JUMPDEST PUSH1 0x0 DUP8 DUP8 DUP8 DUP8 DUP8 DUP8 DUP8 PUSH1 0x40 MLOAD PUSH3 0x3CE SWAP1 PUSH3 0x91A JUMP JUMPDEST PUSH3 0x3E0 SWAP8 SWAP7 SWAP6 SWAP5 SWAP4 SWAP3 SWAP2 SWAP1 PUSH3 0xC67 JUMP JUMPDEST PUSH1 0x40 MLOAD DUP1 SWAP2 SUB SWAP1 PUSH1 0x0 CREATE DUP1 ISZERO DUP1 ISZERO PUSH3 0x3FD JUMPI RETURNDATASIZE PUSH1 0x0 DUP1 RETURNDATACOPY RETURNDATASIZE PUSH1 0x0 REVERT JUMPDEST POP PUSH1 0x1 PUSH1 0x1 PUSH1 0xA0 SHL SUB SWAP1 DUP2 AND PUSH1 0x0 DUP2 DUP2 MSTORE PUSH1 0x7 PUSH1 0x20 SWAP1 DUP2 MSTORE PUSH1 0x40 DUP1 DUP4 KECCAK256 DUP1 SLOAD PUSH1 0xFF NOT AND PUSH1 0x1 SWAP1 DUP2 OR SWAP1 SWAP2 SSTORE SWAP10 SWAP1 SWAP5 AND DUP3 MSTORE PUSH1 0x5 DUP2 MSTORE SWAP3 DUP2 KECCAK256 DUP1 SLOAD DUP1 DUP11 ADD DUP3 SSTORE SWAP1 DUP3 MSTORE SWAP3 DUP2 KECCAK256 SWAP1 SWAP3 ADD DUP1 SLOAD PUSH1 0x1 PUSH1 0x1 PUSH1 0xA0 SHL SUB NOT SWAP1 DUP2 AND DUP4 OR SWAP1 SWAP2 SSTORE PUSH1 0x3 DUP1 SLOAD SWAP9 DUP10 ADD DUP2 SSTORE SWAP1 SWAP3 MSTORE PUSH32 0xC2575A0E9E593C00F959F8C92F12DB2869C3395A3B0502D05E2516446F71F85B SWAP1 SWAP7 ADD DUP1 SLOAD SWAP1 SWAP2 AND SWAP1 SWAP6 OR SWAP1 SWAP5 SSTORE POP POP POP POP POP POP POP JUMP JUMPDEST PUSH1 0x1 PUSH1 0x1 PUSH1 0xA0 SHL SUB DUP2 AND PUSH1 0x0 SWAP1 DUP2 MSTORE PUSH1 0x7 PUSH1 0x20 MSTORE PUSH1 0x40 DUP2 KECCAK256 SLOAD PUSH1 0xFF AND ISZERO PUSH3 0x4C6 JUMPI POP PUSH1 0x1 SWAP2 SWAP1 POP JUMP JUMPDEST POP PUSH1 0x0 SWAP2 SWAP1 POP JUMP JUMPDEST PUSH1 0x6 PUSH1 0x20 MSTORE DUP2 PUSH1 0x0 MSTORE PUSH1 0x40 PUSH1 0x0 KECCAK256 DUP2 DUP2 SLOAD DUP2 LT PUSH3 0x4EB JUMPI PUSH1 0x0 DUP1 REVERT JUMPDEST PUSH1 0x0 SWAP2 DUP3 MSTORE PUSH1 0x20 SWAP1 SWAP2 KECCAK256 ADD SLOAD PUSH1 0x1 PUSH1 0x1 PUSH1 0xA0 SHL SUB AND SWAP2 POP DUP3 SWAP1 POP JUMP JUMPDEST PUSH1 0x4 DUP2 DUP2 SLOAD DUP2 LT PUSH3 0x518 JUMPI PUSH1 0x0 DUP1 REVERT JUMPDEST PUSH1 0x0 SWAP2 DUP3 MSTORE PUSH1 0x20 SWAP1 SWAP2 KECCAK256 ADD SLOAD PUSH1 0x1 PUSH1 0x1 PUSH1 0xA0 SHL SUB AND SWAP1 POP DUP2 JUMP JUMPDEST PUSH3 0x53C PUSH3 0x89B JUMP JUMPDEST PUSH1 0x40 MLOAD PUSH1 0x0 SWAP1 CALLER SWAP1 SELFBALANCE SWAP1 DUP4 DUP2 DUP2 DUP2 DUP6 DUP8 GAS CALL SWAP3 POP POP POP RETURNDATASIZE DUP1 PUSH1 0x0 DUP2 EQ PUSH3 0x580 JUMPI PUSH1 0x40 MLOAD SWAP2 POP PUSH1 0x1F NOT PUSH1 0x3F RETURNDATASIZE ADD AND DUP3 ADD PUSH1 0x40 MSTORE RETURNDATASIZE DUP3 MSTORE RETURNDATASIZE PUSH1 0x0 PUSH1 0x20 DUP5 ADD RETURNDATACOPY PUSH3 0x585 JUMP JUMPDEST PUSH1 0x60 SWAP2 POP JUMPDEST POP POP SWAP1 POP DUP1 PUSH3 0x5CB JUMPI PUSH1 0x40 MLOAD PUSH3 0x461BCD PUSH1 0xE5 SHL DUP2 MSTORE PUSH1 0x20 PUSH1 0x4 DUP3 ADD MSTORE PUSH1 0x10 PUSH1 0x24 DUP3 ADD MSTORE PUSH16 0x2A3930B739B332B9103330B4B632B217 PUSH1 0x81 SHL PUSH1 0x44 DUP3 ADD MSTORE PUSH1 0x64 ADD PUSH3 0x3AE JUMP JUMPDEST POP JUMP JUMPDEST PUSH3 0x5D8 PUSH3 0x89B JUMP JUMPDEST PUSH3 0x5E4 PUSH1 0x0 PUSH3 0x8CA JUMP JUMPDEST JUMP JUMPDEST PUSH1 0x1 SLOAD ISZERO PUSH3 0x638 JUMPI PUSH1 0x1 SLOAD CALLVALUE EQ PUSH3 0x638 JUMPI PUSH1 0x40 MLOAD PUSH3 0x461BCD PUSH1 0xE5 SHL DUP2 MSTORE PUSH1 0x20 PUSH1 0x4 DUP3 ADD MSTORE PUSH1 0x13 PUSH1 0x24 DUP3 ADD MSTORE PUSH19 0x506C6561736520706179207468652066656521 PUSH1 0x68 SHL PUSH1 0x44 DUP3 ADD MSTORE PUSH1 0x64 ADD PUSH3 0x3AE JUMP JUMPDEST PUSH1 0x0 DUP7 DUP7 DUP7 DUP7 DUP7 DUP7 PUSH1 0x40 MLOAD PUSH3 0x64E SWAP1 PUSH3 0x928 JUMP JUMPDEST PUSH3 0x65F SWAP7 SWAP6 SWAP5 SWAP4 SWAP3 SWAP2 SWAP1 PUSH3 0xCDF JUMP JUMPDEST PUSH1 0x40 MLOAD DUP1 SWAP2 SUB SWAP1 PUSH1 0x0 CREATE DUP1 ISZERO DUP1 ISZERO PUSH3 0x67C JUMPI RETURNDATASIZE PUSH1 0x0 DUP1 RETURNDATACOPY RETURNDATASIZE PUSH1 0x0 REVERT JUMPDEST POP PUSH1 0x1 PUSH1 0x1 PUSH1 0xA0 SHL SUB SWAP1 DUP2 AND PUSH1 0x0 DUP2 DUP2 MSTORE PUSH1 0x7 PUSH1 0x20 SWAP1 DUP2 MSTORE PUSH1 0x40 DUP1 DUP4 KECCAK256 DUP1 SLOAD PUSH1 0xFF NOT AND PUSH1 0x1 SWAP1 DUP2 OR SWAP1 SWAP2 SSTORE SWAP9 SWAP1 SWAP5 AND DUP3 MSTORE PUSH1 0x6 DUP2 MSTORE SWAP3 DUP2 KECCAK256 DUP1 SLOAD DUP1 DUP10 ADD DUP3 SSTORE SWAP1 DUP3 MSTORE SWAP3 DUP2 KECCAK256 SWAP1 SWAP3 ADD DUP1 SLOAD PUSH1 0x1 PUSH1 0x1 PUSH1 0xA0 SHL SUB NOT SWAP1 DUP2 AND DUP4 OR SWAP1 SWAP2 SSTORE PUSH1 0x4 DUP1 SLOAD SWAP8 DUP9 ADD DUP2 SSTORE SWAP1 SWAP3 MSTORE PUSH32 0x8A35ACFBC15FF81A39AE7D344FD709F28E8600B4AA8C65C6B64BFE7FE36BD19B SWAP1 SWAP6 ADD DUP1 SLOAD SWAP1 SWAP2 AND SWAP1 SWAP5 OR SWAP1 SWAP4 SSTORE POP POP POP POP POP POP JUMP JUMPDEST PUSH3 0x724 PUSH3 0x89B JUMP JUMPDEST PUSH1 0x1 PUSH1 0x1 PUSH1 0xA0 SHL SUB DUP2 AND PUSH1 0x0 SWAP1 DUP2 MSTORE PUSH1 0x7 PUSH1 0x20 MSTORE PUSH1 0x40 SWAP1 KECCAK256 SLOAD PUSH1 0xFF AND ISZERO PUSH3 0x781 JUMPI PUSH1 0x40 MLOAD PUSH3 0x461BCD PUSH1 0xE5 SHL DUP2 MSTORE PUSH1 0x20 PUSH1 0x4 DUP3 ADD MSTORE PUSH1 0xF PUSH1 0x24 DUP3 ADD MSTORE PUSH15 0x496E76616C696420416374696F6E21 PUSH1 0x88 SHL PUSH1 0x44 DUP3 ADD MSTORE PUSH1 0x64 ADD PUSH3 0x3AE JUMP JUMPDEST PUSH1 0x1 PUSH1 0x1 PUSH1 0xA0 SHL SUB AND PUSH1 0x0 SWAP1 DUP2 MSTORE PUSH1 0x7 PUSH1 0x20 MSTORE PUSH1 0x40 SWAP1 KECCAK256 DUP1 SLOAD PUSH1 0xFF NOT AND PUSH1 0x1 OR SWAP1 SSTORE JUMP JUMPDEST PUSH3 0x7AF PUSH3 0x89B JUMP JUMPDEST PUSH1 0x1 PUSH1 0x1 PUSH1 0xA0 SHL SUB DUP2 AND PUSH3 0x7DB JUMPI PUSH1 0x40 MLOAD PUSH4 0x1E4FBDF7 PUSH1 0xE0 SHL DUP2 MSTORE PUSH1 0x0 PUSH1 0x4 DUP3 ADD MSTORE PUSH1 0x24 ADD PUSH3 0x3AE JUMP JUMPDEST PUSH3 0x5CB DUP2 PUSH3 0x8CA JUMP JUMPDEST PUSH1 0x5 PUSH1 0x20 MSTORE DUP2 PUSH1 0x0 MSTORE PUSH1 0x40 PUSH1 0x0 KECCAK256 DUP2 DUP2 SLOAD DUP2 LT PUSH3 0x4EB JUMPI PUSH1 0x0 DUP1 REVERT JUMPDEST PUSH3 0x80D PUSH3 0x89B JUMP JUMPDEST PUSH1 0x1 PUSH1 0x1 PUSH1 0xA0 SHL SUB DUP2 AND PUSH1 0x0 SWAP1 DUP2 MSTORE PUSH1 0x7 PUSH1 0x20 MSTORE PUSH1 0x40 SWAP1 KECCAK256 SLOAD PUSH1 0xFF AND PUSH3 0x869 JUMPI PUSH1 0x40 MLOAD PUSH3 0x461BCD PUSH1 0xE5 SHL DUP2 MSTORE PUSH1 0x20 PUSH1 0x4 DUP3 ADD MSTORE PUSH1 0xF PUSH1 0x24 DUP3 ADD MSTORE PUSH15 0x496E76616C696420416374696F6E21 PUSH1 0x88 SHL PUSH1 0x44 DUP3 ADD MSTORE PUSH1 0x64 ADD PUSH3 0x3AE JUMP JUMPDEST PUSH1 0x1 PUSH1 0x1 PUSH1 0xA0 SHL SUB AND PUSH1 0x0 SWAP1 DUP2 MSTORE PUSH1 0x7 PUSH1 0x20 MSTORE PUSH1 0x40 SWAP1 KECCAK256 DUP1 SLOAD PUSH1 0xFF NOT AND SWAP1 SSTORE JUMP JUMPDEST PUSH1 0x3 DUP2 DUP2 SLOAD DUP2 LT PUSH3 0x518 JUMPI PUSH1 0x0 DUP1 REVERT JUMPDEST PUSH1 0x0 SLOAD PUSH1 0x1 PUSH1 0x1 PUSH1 0xA0 SHL SUB AND CALLER EQ PUSH3 0x5E4 JUMPI PUSH1 0x40 MLOAD PUSH4 0x118CDAA7 PUSH1 0xE0 SHL DUP2 MSTORE CALLER PUSH1 0x4 DUP3 ADD MSTORE PUSH1 0x24 ADD PUSH3 0x3AE JUMP JUMPDEST PUSH1 0x0 DUP1 SLOAD PUSH1 0x1 PUSH1 0x1 PUSH1 0xA0 SHL SUB DUP4 DUP2 AND PUSH1 0x1 PUSH1 0x1 PUSH1 0xA0 SHL SUB NOT DUP4 AND DUP2 OR DUP5 SSTORE PUSH1 0x40 MLOAD SWAP2 SWAP1 SWAP3 AND SWAP3 DUP4 SWAP2 PUSH32 0x8BE0079C531659141344CD1FD0A4F28419497F9722A3DAAFE3B4186F6B6457E0 SWAP2 SWAP1 LOG3 POP POP JUMP JUMPDEST PUSH2 0x1A0E DUP1 PUSH3 0xD53 DUP4 CODECOPY ADD SWAP1 JUMP JUMPDEST PUSH2 0x18CC DUP1 PUSH3 0x2761 DUP4 CODECOPY ADD SWAP1 JUMP JUMPDEST PUSH4 0x4E487B71 PUSH1 0xE0 SHL PUSH1 0x0 MSTORE PUSH1 0x41 PUSH1 0x4 MSTORE PUSH1 0x24 PUSH1 0x0 REVERT JUMPDEST PUSH1 0x0 DUP3 PUSH1 0x1F DUP4 ADD SLT PUSH3 0x95E JUMPI PUSH1 0x0 DUP1 REVERT JUMPDEST DUP2 CALLDATALOAD PUSH8 0xFFFFFFFFFFFFFFFF DUP1 DUP3 GT ISZERO PUSH3 0x97C JUMPI PUSH3 0x97C PUSH3 0x936 JUMP JUMPDEST PUSH1 0x40 MLOAD PUSH1 0x1F DUP4 ADD PUSH1 0x1F NOT SWAP1 DUP2 AND PUSH1 0x3F ADD AND DUP2 ADD SWAP1 DUP3 DUP3 GT DUP2 DUP4 LT OR ISZERO PUSH3 0x9A7 JUMPI PUSH3 0x9A7 PUSH3 0x936 JUMP JUMPDEST DUP2 PUSH1 0x40 MSTORE DUP4 DUP2 MSTORE DUP7 PUSH1 0x20 DUP6 DUP9 ADD ADD GT ISZERO PUSH3 0x9C1 JUMPI PUSH1 0x0 DUP1 REVERT JUMPDEST DUP4 PUSH1 0x20 DUP8 ADD PUSH1 0x20 DUP4 ADD CALLDATACOPY PUSH1 0x0 PUSH1 0x20 DUP6 DUP4 ADD ADD MSTORE DUP1 SWAP5 POP POP POP POP POP SWAP3 SWAP2 POP POP JUMP JUMPDEST DUP1 CALLDATALOAD PUSH1 0x1 PUSH1 0x1 PUSH1 0xA0 SHL SUB DUP2 AND DUP2 EQ PUSH3 0x9F9 JUMPI PUSH1 0x0 DUP1 REVERT JUMPDEST SWAP2 SWAP1 POP JUMP JUMPDEST DUP1 CALLDATALOAD PUSH1 0x1 PUSH1 0x1 PUSH1 0x60 SHL SUB DUP2 AND DUP2 EQ PUSH3 0x9F9 JUMPI PUSH1 0x0 DUP1 REVERT JUMPDEST PUSH1 0x0 DUP1 PUSH1 0x0 DUP1 PUSH1 0x0 DUP1 PUSH1 0x0 PUSH1 0xE0 DUP9 DUP11 SUB SLT ISZERO PUSH3 0xA32 JUMPI PUSH1 0x0 DUP1 REVERT JUMPDEST DUP8 CALLDATALOAD PUSH8 0xFFFFFFFFFFFFFFFF DUP1 DUP3 GT ISZERO PUSH3 0xA4B JUMPI PUSH1 0x0 DUP1 REVERT JUMPDEST PUSH3 0xA59 DUP12 DUP4 DUP13 ADD PUSH3 0x94C JUMP JUMPDEST SWAP9 POP PUSH1 0x20 DUP11 ADD CALLDATALOAD SWAP2 POP DUP1 DUP3 GT ISZERO PUSH3 0xA70 JUMPI PUSH1 0x0 DUP1 REVERT JUMPDEST PUSH3 0xA7E DUP12 DUP4 DUP13 ADD PUSH3 0x94C JUMP JUMPDEST SWAP8 POP PUSH1 0x40 DUP11 ADD CALLDATALOAD SWAP2 POP DUP1 DUP3 GT ISZERO PUSH3 0xA95 JUMPI PUSH1 0x0 DUP1 REVERT JUMPDEST POP PUSH3 0xAA4 DUP11 DUP3 DUP12 ADD PUSH3 0x94C JUMP JUMPDEST SWAP6 POP POP PUSH3 0xAB5 PUSH1 0x60 DUP10 ADD PUSH3 0x9E1 JUMP JUMPDEST SWAP4 POP PUSH3 0xAC5 PUSH1 0x80 DUP10 ADD PUSH3 0x9E1 JUMP JUMPDEST SWAP3 POP PUSH3 0xAD5 PUSH1 0xA0 DUP10 ADD PUSH3 0x9FE JUMP JUMPDEST SWAP2 POP PUSH1 0xC0 DUP9 ADD CALLDATALOAD SWAP1 POP SWAP3 SWAP6 SWAP9 SWAP2 SWAP5 SWAP8 POP SWAP3 SWAP6 POP JUMP JUMPDEST PUSH1 0x0 PUSH1 0x20 DUP3 DUP5 SUB SLT ISZERO PUSH3 0xAFD JUMPI PUSH1 0x0 DUP1 REVERT JUMPDEST PUSH3 0xB08 DUP3 PUSH3 0x9E1 JUMP JUMPDEST SWAP4 SWAP3 POP POP POP JUMP JUMPDEST PUSH1 0x0 DUP1 PUSH1 0x40 DUP4 DUP6 SUB SLT ISZERO PUSH3 0xB23 JUMPI PUSH1 0x0 DUP1 REVERT JUMPDEST PUSH3 0xB2E DUP4 PUSH3 0x9E1 JUMP JUMPDEST SWAP5 PUSH1 0x20 SWAP4 SWAP1 SWAP4 ADD CALLDATALOAD SWAP4 POP POP POP JUMP JUMPDEST PUSH1 0x0 PUSH1 0x20 DUP3 DUP5 SUB SLT ISZERO PUSH3 0xB4F JUMPI PUSH1 0x0 DUP1 REVERT JUMPDEST POP CALLDATALOAD SWAP2 SWAP1 POP JUMP JUMPDEST PUSH1 0x0 DUP1 PUSH1 0x0 DUP1 PUSH1 0x0 DUP1 PUSH1 0xC0 DUP8 DUP10 SUB SLT ISZERO PUSH3 0xB70 JUMPI PUSH1 0x0 DUP1 REVERT JUMPDEST DUP7 CALLDATALOAD PUSH8 0xFFFFFFFFFFFFFFFF DUP1 DUP3 GT ISZERO PUSH3 0xB89 JUMPI PUSH1 0x0 DUP1 REVERT JUMPDEST PUSH3 0xB97 DUP11 DUP4 DUP12 ADD PUSH3 0x94C JUMP JUMPDEST SWAP8 POP PUSH1 0x20 DUP10 ADD CALLDATALOAD SWAP2 POP DUP1 DUP3 GT ISZERO PUSH3 0xBAE JUMPI PUSH1 0x0 DUP1 REVERT JUMPDEST PUSH3 0xBBC DUP11 DUP4 DUP12 ADD PUSH3 0x94C JUMP JUMPDEST SWAP7 POP PUSH1 0x40 DUP10 ADD CALLDATALOAD SWAP2 POP DUP1 DUP3 GT ISZERO PUSH3 0xBD3 JUMPI PUSH1 0x0 DUP1 REVERT JUMPDEST POP PUSH3 0xBE2 DUP10 DUP3 DUP11 ADD PUSH3 0x94C JUMP JUMPDEST SWAP5 POP POP PUSH3 0xBF3 PUSH1 0x60 DUP9 ADD PUSH3 0x9E1 JUMP JUMPDEST SWAP3 POP PUSH3 0xC03 PUSH1 0x80 DUP9 ADD PUSH3 0x9E1 JUMP JUMPDEST SWAP2 POP PUSH3 0xC13 PUSH1 0xA0 DUP9 ADD PUSH3 0x9FE JUMP JUMPDEST SWAP1 POP SWAP3 SWAP6 POP SWAP3 SWAP6 POP SWAP3 SWAP6 JUMP JUMPDEST PUSH1 0x0 DUP2 MLOAD DUP1 DUP5 MSTORE PUSH1 0x0 JUMPDEST DUP2 DUP2 LT ISZERO PUSH3 0xC47 JUMPI PUSH1 0x20 DUP2 DUP6 ADD DUP2 ADD MLOAD DUP7 DUP4 ADD DUP3 ADD MSTORE ADD PUSH3 0xC29 JUMP JUMPDEST POP PUSH1 0x0 PUSH1 0x20 DUP3 DUP7 ADD ADD MSTORE PUSH1 0x20 PUSH1 0x1F NOT PUSH1 0x1F DUP4 ADD AND DUP6 ADD ADD SWAP2 POP POP SWAP3 SWAP2 POP POP JUMP JUMPDEST PUSH1 0xE0 DUP2 MSTORE PUSH1 0x0 PUSH3 0xC7C PUSH1 0xE0 DUP4 ADD DUP11 PUSH3 0xC1F JUMP JUMPDEST DUP3 DUP2 SUB PUSH1 0x20 DUP5 ADD MSTORE PUSH3 0xC90 DUP2 DUP11 PUSH3 0xC1F JUMP JUMPDEST SWAP1 POP DUP3 DUP2 SUB PUSH1 0x40 DUP5 ADD MSTORE PUSH3 0xCA6 DUP2 DUP10 PUSH3 0xC1F JUMP JUMPDEST PUSH1 0x1 PUSH1 0x1 PUSH1 0xA0 SHL SUB SWAP8 DUP9 AND PUSH1 0x60 DUP6 ADD MSTORE SWAP6 SWAP1 SWAP7 AND PUSH1 0x80 DUP4 ADD MSTORE POP PUSH1 0x1 PUSH1 0x1 PUSH1 0x60 SHL SUB SWAP3 SWAP1 SWAP3 AND PUSH1 0xA0 DUP4 ADD MSTORE PUSH1 0xC0 SWAP1 SWAP2 ADD MSTORE SWAP5 SWAP4 POP POP POP POP JUMP JUMPDEST PUSH1 0xC0 DUP2 MSTORE PUSH1 0x0 PUSH3 0xCF4 PUSH1 0xC0 DUP4 ADD DUP10 PUSH3 0xC1F JUMP JUMPDEST DUP3 DUP2 SUB PUSH1 0x20 DUP5 ADD MSTORE PUSH3 0xD08 DUP2 DUP10 PUSH3 0xC1F JUMP JUMPDEST SWAP1 POP DUP3 DUP2 SUB PUSH1 0x40 DUP5 ADD MSTORE PUSH3 0xD1E DUP2 DUP9 PUSH3 0xC1F JUMP JUMPDEST PUSH1 0x1 PUSH1 0x1 PUSH1 0xA0 SHL SUB SWAP7 DUP8 AND PUSH1 0x60 DUP6 ADD MSTORE SWAP5 SWAP1 SWAP6 AND PUSH1 0x80 DUP4 ADD MSTORE POP PUSH1 0x1 PUSH1 0x1 PUSH1 0x60 SHL SUB SWAP2 SWAP1 SWAP2 AND PUSH1 0xA0 SWAP1 SWAP2 ADD MSTORE SWAP5 SWAP4 POP POP POP POP JUMP INVALID PUSH1 0x80 PUSH1 0x40 MSTORE CALLVALUE DUP1 ISZERO PUSH3 0x11 JUMPI PUSH1 0x0 DUP1 REVERT JUMPDEST POP PUSH1 0x40 MLOAD PUSH3 0x1A0E CODESIZE SUB DUP1 PUSH3 0x1A0E DUP4 CODECOPY DUP2 ADD PUSH1 0x40 DUP2 SWAP1 MSTORE PUSH3 0x34 SWAP2 PUSH3 0x2C6 JUMP JUMPDEST DUP4 DUP8 DUP8 PUSH1 0x2 PUSH3 0x45 DUP4 DUP3 PUSH3 0x43A JUMP JUMPDEST POP PUSH1 0x3 PUSH3 0x54 DUP3 DUP3 PUSH3 0x43A JUMP JUMPDEST POP POP POP PUSH1 0x1 PUSH1 0x1 PUSH1 0xA0 SHL SUB DUP2 AND PUSH3 0x87 JUMPI PUSH1 0x40 MLOAD PUSH4 0x1E4FBDF7 PUSH1 0xE0 SHL DUP2 MSTORE PUSH1 0x0 PUSH1 0x4 DUP3 ADD MSTORE PUSH1 0x24 ADD JUMPDEST PUSH1 0x40 MLOAD DUP1 SWAP2 SUB SWAP1 REVERT JUMPDEST PUSH3 0x92 DUP2 PUSH3 0xE8 JUMP JUMPDEST POP PUSH1 0xC PUSH3 0xA1 DUP7 DUP3 PUSH3 0x43A JUMP JUMPDEST POP PUSH1 0xA DUP2 SWAP1 SSTORE PUSH1 0x1 PUSH1 0x1 PUSH1 0xA0 SHL SUB DUP4 AND ISZERO DUP1 ISZERO SWAP1 PUSH3 0xC9 JUMPI POP PUSH1 0x0 DUP3 PUSH1 0x1 PUSH1 0x1 PUSH1 0x60 SHL SUB AND GT JUMPDEST ISZERO PUSH3 0xDB JUMPI PUSH3 0xDB DUP4 DUP4 PUSH3 0x13A JUMP JUMPDEST POP POP POP POP POP POP POP PUSH3 0x506 JUMP JUMPDEST PUSH1 0x9 DUP1 SLOAD PUSH1 0x1 PUSH1 0x1 PUSH1 0xA0 SHL SUB DUP4 DUP2 AND PUSH1 0x1 PUSH1 0x1 PUSH1 0xA0 SHL SUB NOT DUP4 AND DUP2 OR SWAP1 SWAP4 SSTORE PUSH1 0x40 MLOAD SWAP2 AND SWAP2 SWAP1 DUP3 SWAP1 PUSH32 0x8BE0079C531659141344CD1FD0A4F28419497F9722A3DAAFE3B4186F6B6457E0 SWAP1 PUSH1 0x0 SWAP1 LOG3 POP POP JUMP JUMPDEST PUSH2 0x2710 PUSH1 0x1 PUSH1 0x1 PUSH1 0x60 SHL SUB DUP3 AND DUP2 LT ISZERO PUSH3 0x17B JUMPI PUSH1 0x40 MLOAD PUSH4 0x6F483D09 PUSH1 0xE0 SHL DUP2 MSTORE PUSH1 0x1 PUSH1 0x1 PUSH1 0x60 SHL SUB DUP4 AND PUSH1 0x4 DUP3 ADD MSTORE PUSH1 0x24 DUP2 ADD DUP3 SWAP1 MSTORE PUSH1 0x44 ADD PUSH3 0x7E JUMP JUMPDEST PUSH1 0x1 PUSH1 0x1 PUSH1 0xA0 SHL SUB DUP4 AND PUSH3 0x1A7 JUMPI PUSH1 0x40 MLOAD PUSH4 0x5B6CC805 PUSH1 0xE1 SHL DUP2 MSTORE PUSH1 0x0 PUSH1 0x4 DUP3 ADD MSTORE PUSH1 0x24 ADD PUSH3 0x7E JUMP JUMPDEST POP PUSH1 0x40 DUP1 MLOAD DUP1 DUP3 ADD SWAP1 SWAP2 MSTORE PUSH1 0x1 PUSH1 0x1 PUSH1 0xA0 SHL SUB SWAP1 SWAP3 AND DUP1 DUP4 MSTORE PUSH1 0x1 PUSH1 0x1 PUSH1 0x60 SHL SUB SWAP1 SWAP2 AND PUSH1 0x20 SWAP1 SWAP3 ADD DUP3 SWAP1 MSTORE PUSH1 0x1 PUSH1 0xA0 SHL SWAP1 SWAP2 MUL OR PUSH1 0x0 SSTORE JUMP JUMPDEST PUSH4 0x4E487B71 PUSH1 0xE0 SHL PUSH1 0x0 MSTORE PUSH1 0x41 PUSH1 0x4 MSTORE PUSH1 0x24 PUSH1 0x0 REVERT JUMPDEST PUSH1 0x0 DUP3 PUSH1 0x1F DUP4 ADD SLT PUSH3 0x209 JUMPI PUSH1 0x0 DUP1 REVERT JUMPDEST DUP2 MLOAD PUSH1 0x1 PUSH1 0x1 PUSH1 0x40 SHL SUB DUP1 DUP3 GT ISZERO PUSH3 0x226 JUMPI PUSH3 0x226 PUSH3 0x1E1 JUMP JUMPDEST PUSH1 0x40 MLOAD PUSH1 0x1F DUP4 ADD PUSH1 0x1F NOT SWAP1 DUP2 AND PUSH1 0x3F ADD AND DUP2 ADD SWAP1 DUP3 DUP3 GT DUP2 DUP4 LT OR ISZERO PUSH3 0x251 JUMPI PUSH3 0x251 PUSH3 0x1E1 JUMP JUMPDEST DUP2 PUSH1 0x40 MSTORE DUP4 DUP2 MSTORE PUSH1 0x20 SWAP3 POP DUP7 PUSH1 0x20 DUP6 DUP9 ADD ADD GT ISZERO PUSH3 0x26F JUMPI PUSH1 0x0 DUP1 REVERT JUMPDEST PUSH1 0x0 SWAP2 POP JUMPDEST DUP4 DUP3 LT ISZERO PUSH3 0x293 JUMPI DUP6 DUP3 ADD DUP4 ADD MLOAD DUP2 DUP4 ADD DUP5 ADD MSTORE SWAP1 DUP3 ADD SWAP1 PUSH3 0x274 JUMP JUMPDEST PUSH1 0x0 PUSH1 0x20 DUP6 DUP4 ADD ADD MSTORE DUP1 SWAP5 POP POP POP POP POP SWAP3 SWAP2 POP POP JUMP JUMPDEST DUP1 MLOAD PUSH1 0x1 PUSH1 0x1 PUSH1 0xA0 SHL SUB DUP2 AND DUP2 EQ PUSH3 0x2C1 JUMPI PUSH1 0x0 DUP1 REVERT JUMPDEST SWAP2 SWAP1 POP JUMP JUMPDEST PUSH1 0x0 DUP1 PUSH1 0x0 DUP1 PUSH1 0x0 DUP1 PUSH1 0x0 PUSH1 0xE0 DUP9 DUP11 SUB SLT ISZERO PUSH3 0x2E2 JUMPI PUSH1 0x0 DUP1 REVERT JUMPDEST DUP8 MLOAD PUSH1 0x1 PUSH1 0x1 PUSH1 0x40 SHL SUB DUP1 DUP3 GT ISZERO PUSH3 0x2FA JUMPI PUSH1 0x0 DUP1 REVERT JUMPDEST PUSH3 0x308 DUP12 DUP4 DUP13 ADD PUSH3 0x1F7 JUMP JUMPDEST SWAP9 POP PUSH1 0x20 DUP11 ADD MLOAD SWAP2 POP DUP1 DUP3 GT ISZERO PUSH3 0x31F JUMPI PUSH1 0x0 DUP1 REVERT JUMPDEST PUSH3 0x32D DUP12 DUP4 DUP13 ADD PUSH3 0x1F7 JUMP JUMPDEST SWAP8 POP PUSH1 0x40 DUP11 ADD MLOAD SWAP2 POP DUP1 DUP3 GT ISZERO PUSH3 0x344 JUMPI PUSH1 0x0 DUP1 REVERT JUMPDEST POP PUSH3 0x353 DUP11 DUP3 DUP12 ADD PUSH3 0x1F7 JUMP JUMPDEST SWAP6 POP POP PUSH3 0x364 PUSH1 0x60 DUP10 ADD PUSH3 0x2A9 JUMP JUMPDEST SWAP4 POP PUSH3 0x374 PUSH1 0x80 DUP10 ADD PUSH3 0x2A9 JUMP JUMPDEST PUSH1 0xA0 DUP10 ADD MLOAD SWAP1 SWAP4 POP PUSH1 0x1 PUSH1 0x1 PUSH1 0x60 SHL SUB DUP2 AND DUP2 EQ PUSH3 0x392 JUMPI PUSH1 0x0 DUP1 REVERT JUMPDEST DUP1 SWAP3 POP POP PUSH1 0xC0 DUP9 ADD MLOAD SWAP1 POP SWAP3 SWAP6 SWAP9 SWAP2 SWAP5 SWAP8 POP SWAP3 SWAP6 POP JUMP JUMPDEST PUSH1 0x1 DUP2 DUP2 SHR SWAP1 DUP3 AND DUP1 PUSH3 0x3BE JUMPI PUSH1 0x7F DUP3 AND SWAP2 POP JUMPDEST PUSH1 0x20 DUP3 LT DUP2 SUB PUSH3 0x3DF JUMPI PUSH4 0x4E487B71 PUSH1 0xE0 SHL PUSH1 0x0 MSTORE PUSH1 0x22 PUSH1 0x4 MSTORE PUSH1 0x24 PUSH1 0x0 REVERT JUMPDEST POP SWAP2 SWAP1 POP JUMP JUMPDEST PUSH1 0x1F DUP3 GT ISZERO PUSH3 0x435 JUMPI PUSH1 0x0 DUP2 PUSH1 0x0 MSTORE PUSH1 0x20 PUSH1 0x0 KECCAK256 PUSH1 0x1F DUP6 ADD PUSH1 0x5 SHR DUP2 ADD PUSH1 0x20 DUP7 LT ISZERO PUSH3 0x410 JUMPI POP DUP1 JUMPDEST PUSH1 0x1F DUP6 ADD PUSH1 0x5 SHR DUP3 ADD SWAP2 POP JUMPDEST DUP2 DUP2 LT ISZERO PUSH3 0x431 JUMPI DUP3 DUP2 SSTORE PUSH1 0x1 ADD PUSH3 0x41C JUMP JUMPDEST POP POP POP JUMPDEST POP POP POP JUMP JUMPDEST DUP2 MLOAD PUSH1 0x1 PUSH1 0x1 PUSH1 0x40 SHL SUB DUP2 GT ISZERO PUSH3 0x456 JUMPI PUSH3 0x456 PUSH3 0x1E1 JUMP JUMPDEST PUSH3 0x46E DUP2 PUSH3 0x467 DUP5 SLOAD PUSH3 0x3A9 JUMP JUMPDEST DUP5 PUSH3 0x3E5 JUMP JUMPDEST PUSH1 0x20 DUP1 PUSH1 0x1F DUP4 GT PUSH1 0x1 DUP2 EQ PUSH3 0x4A6 JUMPI PUSH1 0x0 DUP5 ISZERO PUSH3 0x48D JUMPI POP DUP6 DUP4 ADD MLOAD JUMPDEST PUSH1 0x0 NOT PUSH1 0x3 DUP7 SWAP1 SHL SHR NOT AND PUSH1 0x1 DUP6 SWAP1 SHL OR DUP6 SSTORE PUSH3 0x431 JUMP JUMPDEST PUSH1 0x0 DUP6 DUP2 MSTORE PUSH1 0x20 DUP2 KECCAK256 PUSH1 0x1F NOT DUP7 AND SWAP2 JUMPDEST DUP3 DUP2 LT ISZERO PUSH3 0x4D7 JUMPI DUP9 DUP7 ADD MLOAD DUP3 SSTORE SWAP5 DUP5 ADD SWAP5 PUSH1 0x1 SWAP1 SWAP2 ADD SWAP1 DUP5 ADD PUSH3 0x4B6 JUMP JUMPDEST POP DUP6 DUP3 LT ISZERO PUSH3 0x4F6 JUMPI DUP8 DUP6 ADD MLOAD PUSH1 0x0 NOT PUSH1 0x3 DUP9 SWAP1 SHL PUSH1 0xF8 AND SHR NOT AND DUP2 SSTORE JUMPDEST POP POP POP POP POP PUSH1 0x1 SWAP1 DUP2 SHL ADD SWAP1 SSTORE POP JUMP JUMPDEST PUSH2 0x14F8 DUP1 PUSH3 0x516 PUSH1 0x0 CODECOPY PUSH1 0x0 RETURN INVALID PUSH1 0x80 PUSH1 0x40 MSTORE CALLVALUE DUP1 ISZERO PUSH2 0x10 JUMPI PUSH1 0x0 DUP1 REVERT JUMPDEST POP PUSH1 0x4 CALLDATASIZE LT PUSH2 0x12C JUMPI PUSH1 0x0 CALLDATALOAD PUSH1 0xE0 SHR DUP1 PUSH4 0x70A08231 GT PUSH2 0xAD JUMPI DUP1 PUSH4 0xA22CB465 GT PUSH2 0x71 JUMPI DUP1 PUSH4 0xA22CB465 EQ PUSH2 0x280 JUMPI DUP1 PUSH4 0xB88D4FDE EQ PUSH2 0x293 JUMPI DUP1 PUSH4 0xC87B56DD EQ PUSH2 0x2A6 JUMPI DUP1 PUSH4 0xE985E9C5 EQ PUSH2 0x2B9 JUMPI DUP1 PUSH4 0xF2FDE38B EQ PUSH2 0x2CC JUMPI PUSH1 0x0 DUP1 REVERT JUMPDEST DUP1 PUSH4 0x70A08231 EQ PUSH2 0x243 JUMPI DUP1 PUSH4 0x715018A6 EQ PUSH2 0x256 JUMPI DUP1 PUSH4 0x736BF591 EQ PUSH2 0x25E JUMPI DUP1 PUSH4 0x8DA5CB5B EQ PUSH2 0x267 JUMPI DUP1 PUSH4 0x95D89B41 EQ PUSH2 0x278 JUMPI PUSH1 0x0 DUP1 REVERT JUMPDEST DUP1 PUSH4 0x23B872DD GT PUSH2 0xF4 JUMPI DUP1 PUSH4 0x23B872DD EQ PUSH2 0x1C5 JUMPI DUP1 PUSH4 0x2A55205A EQ PUSH2 0x1D8 JUMPI DUP1 PUSH4 0x42842E0E EQ PUSH2 0x20A JUMPI DUP1 PUSH4 0x428F3A50 EQ PUSH2 0x21D JUMPI DUP1 PUSH4 0x6352211E EQ PUSH2 0x230 JUMPI PUSH1 0x0 DUP1 REVERT JUMPDEST DUP1 PUSH4 0x1FFC9A7 EQ PUSH2 0x131 JUMPI DUP1 PUSH4 0x6FDDE03 EQ PUSH2 0x159 JUMPI DUP1 PUSH4 0x81812FC EQ PUSH2 0x16E JUMPI DUP1 PUSH4 0x95EA7B3 EQ PUSH2 0x199 JUMPI DUP1 PUSH4 0x22F4596F EQ PUSH2 0x1AE JUMPI JUMPDEST PUSH1 0x0 DUP1 REVERT JUMPDEST PUSH2 0x144 PUSH2 0x13F CALLDATASIZE PUSH1 0x4 PUSH2 0xFA8 JUMP JUMPDEST PUSH2 0x2DF JUMP JUMPDEST PUSH1 0x40 MLOAD SWAP1 ISZERO ISZERO DUP2 MSTORE PUSH1 0x20 ADD JUMPDEST PUSH1 0x40 MLOAD DUP1 SWAP2 SUB SWAP1 RETURN JUMPDEST PUSH2 0x161 PUSH2 0x2F0 JUMP JUMPDEST PUSH1 0x40 MLOAD PUSH2 0x150 SWAP2 SWAP1 PUSH2 0x101C JUMP JUMPDEST PUSH2 0x181 PUSH2 0x17C CALLDATASIZE PUSH1 0x4 PUSH2 0x102F JUMP JUMPDEST PUSH2 0x382 JUMP JUMPDEST PUSH1 0x40 MLOAD PUSH1 0x1 PUSH1 0x1 PUSH1 0xA0 SHL SUB SWAP1 SWAP2 AND DUP2 MSTORE PUSH1 0x20 ADD PUSH2 0x150 JUMP JUMPDEST PUSH2 0x1AC PUSH2 0x1A7 CALLDATASIZE PUSH1 0x4 PUSH2 0x1064 JUMP JUMPDEST PUSH2 0x3AB JUMP JUMPDEST STOP JUMPDEST PUSH2 0x1B7 PUSH1 0xA SLOAD DUP2 JUMP JUMPDEST PUSH1 0x40 MLOAD SWAP1 DUP2 MSTORE PUSH1 0x20 ADD PUSH2 0x150 JUMP JUMPDEST PUSH2 0x1AC PUSH2 0x1D3 CALLDATASIZE PUSH1 0x4 PUSH2 0x108E JUMP JUMPDEST PUSH2 0x3BA JUMP JUMPDEST PUSH2 0x1EB PUSH2 0x1E6 CALLDATASIZE PUSH1 0x4 PUSH2 0x10CA JUMP JUMPDEST PUSH2 0x44A JUMP JUMPDEST PUSH1 0x40 DUP1 MLOAD PUSH1 0x1 PUSH1 0x1 PUSH1 0xA0 SHL SUB SWAP1 SWAP4 AND DUP4 MSTORE PUSH1 0x20 DUP4 ADD SWAP2 SWAP1 SWAP2 MSTORE ADD PUSH2 0x150 JUMP JUMPDEST PUSH2 0x1AC PUSH2 0x218 CALLDATASIZE PUSH1 0x4 PUSH2 0x108E JUMP JUMPDEST PUSH2 0x4F6 JUMP JUMPDEST PUSH2 0x1AC PUSH2 0x22B CALLDATASIZE PUSH1 0x4 PUSH2 0x10EC JUMP JUMPDEST PUSH2 0x516 JUMP JUMPDEST PUSH2 0x181 PUSH2 0x23E CALLDATASIZE PUSH1 0x4 PUSH2 0x102F JUMP JUMPDEST PUSH2 0x65F JUMP JUMPDEST PUSH2 0x1B7 PUSH2 0x251 CALLDATASIZE PUSH1 0x4 PUSH2 0x1172 JUMP JUMPDEST PUSH2 0x66A JUMP JUMPDEST PUSH2 0x1AC PUSH2 0x6B2 JUMP JUMPDEST PUSH2 0x1B7 PUSH1 0xB SLOAD DUP2 JUMP JUMPDEST PUSH1 0x9 SLOAD PUSH1 0x1 PUSH1 0x1 PUSH1 0xA0 SHL SUB AND PUSH2 0x181 JUMP JUMPDEST PUSH2 0x161 PUSH2 0x6C6 JUMP JUMPDEST PUSH2 0x1AC PUSH2 0x28E CALLDATASIZE PUSH1 0x4 PUSH2 0x118D JUMP JUMPDEST PUSH2 0x6D5 JUMP JUMPDEST PUSH2 0x1AC PUSH2 0x2A1 CALLDATASIZE PUSH1 0x4 PUSH2 0x11DF JUMP JUMPDEST PUSH2 0x6E0 JUMP JUMPDEST PUSH2 0x161 PUSH2 0x2B4 CALLDATASIZE PUSH1 0x4 PUSH2 0x102F JUMP JUMPDEST PUSH2 0x6F7 JUMP JUMPDEST PUSH2 0x144 PUSH2 0x2C7 CALLDATASIZE PUSH1 0x4 PUSH2 0x12BB JUMP JUMPDEST PUSH2 0x75B JUMP JUMPDEST PUSH2 0x1AC PUSH2 0x2DA CALLDATASIZE PUSH1 0x4 PUSH2 0x1172 JUMP JUMPDEST PUSH2 0x789 JUMP JUMPDEST PUSH1 0x0 PUSH2 0x2EA DUP3 PUSH2 0x7C7 JUMP JUMPDEST SWAP3 SWAP2 POP POP JUMP JUMPDEST PUSH1 0x60 PUSH1 0x2 DUP1 SLOAD PUSH2 0x2FF SWAP1 PUSH2 0x12EE JUMP JUMPDEST DUP1 PUSH1 0x1F ADD PUSH1 0x20 DUP1 SWAP2 DIV MUL PUSH1 0x20 ADD PUSH1 0x40 MLOAD SWAP1 DUP2 ADD PUSH1 0x40 MSTORE DUP1 SWAP3 SWAP2 SWAP1 DUP2 DUP2 MSTORE PUSH1 0x20 ADD DUP3 DUP1 SLOAD PUSH2 0x32B SWAP1 PUSH2 0x12EE JUMP JUMPDEST DUP1 ISZERO PUSH2 0x378 JUMPI DUP1 PUSH1 0x1F LT PUSH2 0x34D JUMPI PUSH2 0x100 DUP1 DUP4 SLOAD DIV MUL DUP4 MSTORE SWAP2 PUSH1 0x20 ADD SWAP2 PUSH2 0x378 JUMP JUMPDEST DUP3 ADD SWAP2 SWAP1 PUSH1 0x0 MSTORE PUSH1 0x20 PUSH1 0x0 KECCAK256 SWAP1 JUMPDEST DUP2 SLOAD DUP2 MSTORE SWAP1 PUSH1 0x1 ADD SWAP1 PUSH1 0x20 ADD DUP1 DUP4 GT PUSH2 0x35B JUMPI DUP3 SWAP1 SUB PUSH1 0x1F AND DUP3 ADD SWAP2 JUMPDEST POP POP POP POP POP SWAP1 POP SWAP1 JUMP JUMPDEST PUSH1 0x0 PUSH2 0x38D DUP3 PUSH2 0x7D2 JUMP JUMPDEST POP PUSH1 0x0 DUP3 DUP2 MSTORE PUSH1 0x6 PUSH1 0x20 MSTORE PUSH1 0x40 SWAP1 KECCAK256 SLOAD PUSH1 0x1 PUSH1 0x1 PUSH1 0xA0 SHL SUB AND PUSH2 0x2EA JUMP JUMPDEST PUSH2 0x3B6 DUP3 DUP3 CALLER PUSH2 0x80B JUMP JUMPDEST POP POP JUMP JUMPDEST PUSH1 0x1 PUSH1 0x1 PUSH1 0xA0 SHL SUB DUP3 AND PUSH2 0x3E9 JUMPI PUSH1 0x40 MLOAD PUSH4 0x32505749 PUSH1 0xE1 SHL DUP2 MSTORE PUSH1 0x0 PUSH1 0x4 DUP3 ADD MSTORE PUSH1 0x24 ADD JUMPDEST PUSH1 0x40 MLOAD DUP1 SWAP2 SUB SWAP1 REVERT JUMPDEST PUSH1 0x0 PUSH2 0x3F6 DUP4 DUP4 CALLER PUSH2 0x818 JUMP JUMPDEST SWAP1 POP DUP4 PUSH1 0x1 PUSH1 0x1 PUSH1 0xA0 SHL SUB AND DUP2 PUSH1 0x1 PUSH1 0x1 PUSH1 0xA0 SHL SUB AND EQ PUSH2 0x444 JUMPI PUSH1 0x40 MLOAD PUSH4 0x64283D7B PUSH1 0xE0 SHL DUP2 MSTORE PUSH1 0x1 PUSH1 0x1 PUSH1 0xA0 SHL SUB DUP1 DUP7 AND PUSH1 0x4 DUP4 ADD MSTORE PUSH1 0x24 DUP3 ADD DUP5 SWAP1 MSTORE DUP3 AND PUSH1 0x44 DUP3 ADD MSTORE PUSH1 0x64 ADD PUSH2 0x3E0 JUMP JUMPDEST POP POP POP POP JUMP JUMPDEST PUSH1 0x0 DUP3 DUP2 MSTORE PUSH1 0x1 PUSH1 0x20 SWAP1 DUP2 MSTORE PUSH1 0x40 DUP1 DUP4 KECCAK256 DUP2 MLOAD DUP1 DUP4 ADD SWAP1 SWAP3 MSTORE SLOAD PUSH1 0x1 PUSH1 0x1 PUSH1 0xA0 SHL SUB DUP2 AND DUP1 DUP4 MSTORE PUSH1 0x1 PUSH1 0xA0 SHL SWAP1 SWAP2 DIV PUSH1 0x1 PUSH1 0x1 PUSH1 0x60 SHL SUB AND SWAP3 DUP3 ADD SWAP3 SWAP1 SWAP3 MSTORE DUP3 SWAP2 PUSH2 0x4BF JUMPI POP PUSH1 0x40 DUP1 MLOAD DUP1 DUP3 ADD SWAP1 SWAP2 MSTORE PUSH1 0x0 SLOAD PUSH1 0x1 PUSH1 0x1 PUSH1 0xA0 SHL SUB DUP2 AND DUP3 MSTORE PUSH1 0x1 PUSH1 0xA0 SHL SWAP1 DIV PUSH1 0x1 PUSH1 0x1 PUSH1 0x60 SHL SUB AND PUSH1 0x20 DUP3 ADD MSTORE JUMPDEST PUSH1 0x20 DUP2 ADD MLOAD PUSH1 0x0 SWAP1 PUSH2 0x2710 SWAP1 PUSH2 0x4DE SWAP1 PUSH1 0x1 PUSH1 0x1 PUSH1 0x60 SHL SUB AND DUP8 PUSH2 0x133E JUMP JUMPDEST PUSH2 0x4E8 SWAP2 SWAP1 PUSH2 0x1355 JUMP JUMPDEST SWAP2 MLOAD SWAP7 SWAP2 SWAP6 POP SWAP1 SWAP4 POP POP POP POP JUMP JUMPDEST PUSH2 0x511 DUP4 DUP4 DUP4 PUSH1 0x40 MLOAD DUP1 PUSH1 0x20 ADD PUSH1 0x40 MSTORE DUP1 PUSH1 0x0 DUP2 MSTORE POP PUSH2 0x6E0 JUMP JUMPDEST POP POP POP JUMP JUMPDEST PUSH2 0x51E PUSH2 0x911 JUMP JUMPDEST PUSH1 0x1 PUSH1 0x1 PUSH1 0xA0 SHL SUB DUP4 AND PUSH2 0x566 JUMPI PUSH1 0x40 MLOAD PUSH3 0x461BCD PUSH1 0xE5 SHL DUP2 MSTORE PUSH1 0x20 PUSH1 0x4 DUP3 ADD MSTORE PUSH1 0xF PUSH1 0x24 DUP3 ADD MSTORE PUSH15 0x496E76616C696420706172616D7321 PUSH1 0x88 SHL PUSH1 0x44 DUP3 ADD MSTORE PUSH1 0x64 ADD PUSH2 0x3E0 JUMP JUMPDEST PUSH1 0xB SLOAD DUP2 SWAP1 PUSH1 0x0 SWAP1 PUSH2 0x579 SWAP1 DUP4 SWAP1 PUSH2 0x1377 JUMP JUMPDEST SWAP1 POP PUSH1 0xA SLOAD DUP2 GT ISZERO PUSH2 0x5C3 JUMPI PUSH1 0x40 MLOAD PUSH3 0x461BCD PUSH1 0xE5 SHL DUP2 MSTORE PUSH1 0x20 PUSH1 0x4 DUP3 ADD MSTORE PUSH1 0x13 PUSH1 0x24 DUP3 ADD MSTORE PUSH19 0x43616E2774206D696E7420616E796D6F726521 PUSH1 0x68 SHL PUSH1 0x44 DUP3 ADD MSTORE PUSH1 0x64 ADD PUSH2 0x3E0 JUMP JUMPDEST PUSH1 0x0 JUMPDEST DUP3 DUP2 LT ISZERO PUSH2 0x657 JUMPI PUSH1 0xA SLOAD DUP6 DUP6 DUP4 DUP2 DUP2 LT PUSH2 0x5E3 JUMPI PUSH2 0x5E3 PUSH2 0x138A JUMP JUMPDEST SWAP1 POP PUSH1 0x20 MUL ADD CALLDATALOAD LT PUSH2 0x62D JUMPI PUSH1 0x40 MLOAD PUSH3 0x461BCD PUSH1 0xE5 SHL DUP2 MSTORE PUSH1 0x20 PUSH1 0x4 DUP3 ADD MSTORE PUSH1 0x13 PUSH1 0x24 DUP3 ADD MSTORE PUSH19 0x43616E2774206D696E7420616E796D6F726521 PUSH1 0x68 SHL PUSH1 0x44 DUP3 ADD MSTORE PUSH1 0x64 ADD PUSH2 0x3E0 JUMP JUMPDEST PUSH2 0x64F DUP7 DUP7 DUP7 DUP5 DUP2 DUP2 LT PUSH2 0x643 JUMPI PUSH2 0x643 PUSH2 0x138A JUMP JUMPDEST SWAP1 POP PUSH1 0x20 MUL ADD CALLDATALOAD PUSH2 0x93E JUMP JUMPDEST PUSH1 0x1 ADD PUSH2 0x5C6 JUMP JUMPDEST POP POP POP POP POP POP JUMP JUMPDEST PUSH1 0x0 PUSH2 0x2EA DUP3 PUSH2 0x7D2 JUMP JUMPDEST PUSH1 0x0 PUSH1 0x1 PUSH1 0x1 PUSH1 0xA0 SHL SUB DUP3 AND PUSH2 0x696 JUMPI PUSH1 0x40 MLOAD PUSH4 0x22718AD9 PUSH1 0xE2 SHL DUP2 MSTORE PUSH1 0x0 PUSH1 0x4 DUP3 ADD MSTORE PUSH1 0x24 ADD PUSH2 0x3E0 JUMP JUMPDEST POP PUSH1 0x1 PUSH1 0x1 PUSH1 0xA0 SHL SUB AND PUSH1 0x0 SWAP1 DUP2 MSTORE PUSH1 0x5 PUSH1 0x20 MSTORE PUSH1 0x40 SWAP1 KECCAK256 SLOAD SWAP1 JUMP JUMPDEST PUSH2 0x6BA PUSH2 0x911 JUMP JUMPDEST PUSH2 0x6C4 PUSH1 0x0 PUSH2 0x9A3 JUMP JUMPDEST JUMP JUMPDEST PUSH1 0x60 PUSH1 0x3 DUP1 SLOAD PUSH2 0x2FF SWAP1 PUSH2 0x12EE JUMP JUMPDEST PUSH2 0x3B6 CALLER DUP4 DUP4 PUSH2 0x9F5 JUMP JUMPDEST PUSH2 0x6EB DUP5 DUP5 DUP5 PUSH2 0x3BA JUMP JUMPDEST PUSH2 0x444 DUP5 DUP5 DUP5 DUP5 PUSH2 0xA94 JUMP JUMPDEST PUSH1 0x60 PUSH1 0xB SLOAD DUP3 LT PUSH2 0x729 JUMPI POP POP PUSH1 0x40 DUP1 MLOAD DUP1 DUP3 ADD SWAP1 SWAP2 MSTORE PUSH1 0xB DUP2 MSTORE PUSH11 0x496E76616C696420496421 PUSH1 0xA8 SHL PUSH1 0x20 DUP3 ADD MSTORE SWAP1 JUMP JUMPDEST PUSH1 0xC PUSH2 0x734 DUP4 PUSH2 0xBBD JUMP JUMPDEST PUSH1 0x40 MLOAD PUSH1 0x20 ADD PUSH2 0x745 SWAP3 SWAP2 SWAP1 PUSH2 0x13BC JUMP JUMPDEST PUSH1 0x40 MLOAD PUSH1 0x20 DUP2 DUP4 SUB SUB DUP2 MSTORE SWAP1 PUSH1 0x40 MSTORE SWAP1 POP SWAP2 SWAP1 POP JUMP JUMPDEST PUSH1 0x1 PUSH1 0x1 PUSH1 0xA0 SHL SUB SWAP2 DUP3 AND PUSH1 0x0 SWAP1 DUP2 MSTORE PUSH1 0x7 PUSH1 0x20 SWAP1 DUP2 MSTORE PUSH1 0x40 DUP1 DUP4 KECCAK256 SWAP4 SWAP1 SWAP5 AND DUP3 MSTORE SWAP2 SWAP1 SWAP2 MSTORE KECCAK256 SLOAD PUSH1 0xFF AND SWAP1 JUMP JUMPDEST PUSH2 0x791 PUSH2 0x911 JUMP JUMPDEST PUSH1 0x1 PUSH1 0x1 PUSH1 0xA0 SHL SUB DUP2 AND PUSH2 0x7BB JUMPI PUSH1 0x40 MLOAD PUSH4 0x1E4FBDF7 PUSH1 0xE0 SHL DUP2 MSTORE PUSH1 0x0 PUSH1 0x4 DUP3 ADD MSTORE PUSH1 0x24 ADD PUSH2 0x3E0 JUMP JUMPDEST PUSH2 0x7C4 DUP2 PUSH2 0x9A3 JUMP JUMPDEST POP JUMP JUMPDEST PUSH1 0x0 PUSH2 0x2EA DUP3 PUSH2 0xC50 JUMP JUMPDEST PUSH1 0x0 DUP2 DUP2 MSTORE PUSH1 0x4 PUSH1 0x20 MSTORE PUSH1 0x40 DUP2 KECCAK256 SLOAD PUSH1 0x1 PUSH1 0x1 PUSH1 0xA0 SHL SUB AND DUP1 PUSH2 0x2EA JUMPI PUSH1 0x40 MLOAD PUSH4 0x7E273289 PUSH1 0xE0 SHL DUP2 MSTORE PUSH1 0x4 DUP2 ADD DUP5 SWAP1 MSTORE PUSH1 0x24 ADD PUSH2 0x3E0 JUMP JUMPDEST PUSH2 0x511 DUP4 DUP4 DUP4 PUSH1 0x1 PUSH2 0xC75 JUMP JUMPDEST PUSH1 0x0 DUP3 DUP2 MSTORE PUSH1 0x4 PUSH1 0x20 MSTORE PUSH1 0x40 DUP2 KECCAK256 SLOAD PUSH1 0x1 PUSH1 0x1 PUSH1 0xA0 SHL SUB SWAP1 DUP2 AND SWAP1 DUP4 AND ISZERO PUSH2 0x845 JUMPI PUSH2 0x845 DUP2 DUP5 DUP7 PUSH2 0xD7B JUMP JUMPDEST PUSH1 0x1 PUSH1 0x1 PUSH1 0xA0 SHL SUB DUP2 AND ISZERO PUSH2 0x883 JUMPI PUSH2 0x862 PUSH1 0x0 DUP6 PUSH1 0x0 DUP1 PUSH2 0xC75 JUMP JUMPDEST PUSH1 0x1 PUSH1 0x1 PUSH1 0xA0 SHL SUB DUP2 AND PUSH1 0x0 SWAP1 DUP2 MSTORE PUSH1 0x5 PUSH1 0x20 MSTORE PUSH1 0x40 SWAP1 KECCAK256 DUP1 SLOAD PUSH1 0x0 NOT ADD SWAP1 SSTORE JUMPDEST PUSH1 0x1 PUSH1 0x1 PUSH1 0xA0 SHL SUB DUP6 AND ISZERO PUSH2 0x8B2 JUMPI PUSH1 0x1 PUSH1 0x1 PUSH1 0xA0 SHL SUB DUP6 AND PUSH1 0x0 SWAP1 DUP2 MSTORE PUSH1 0x5 PUSH1 0x20 MSTORE PUSH1 0x40 SWAP1 KECCAK256 DUP1 SLOAD PUSH1 0x1 ADD SWAP1 SSTORE JUMPDEST PUSH1 0x0 DUP5 DUP2 MSTORE PUSH1 0x4 PUSH1 0x20 MSTORE PUSH1 0x40 DUP1 DUP3 KECCAK256 DUP1 SLOAD PUSH1 0x1 PUSH1 0x1 PUSH1 0xA0 SHL SUB NOT AND PUSH1 0x1 PUSH1 0x1 PUSH1 0xA0 SHL SUB DUP10 DUP2 AND SWAP2 DUP3 OR SWAP1 SWAP3 SSTORE SWAP2 MLOAD DUP8 SWAP4 SWAP2 DUP6 AND SWAP2 PUSH32 0xDDF252AD1BE2C89B69C2B068FC378DAA952BA7F163C4A11628F55A4DF523B3EF SWAP2 LOG4 SWAP5 SWAP4 POP POP POP POP JUMP JUMPDEST PUSH1 0x9 SLOAD PUSH1 0x1 PUSH1 0x1 PUSH1 0xA0 SHL SUB AND CALLER EQ PUSH2 0x6C4 JUMPI PUSH1 0x40 MLOAD PUSH4 0x118CDAA7 PUSH1 0xE0 SHL DUP2 MSTORE CALLER PUSH1 0x4 DUP3 ADD MSTORE PUSH1 0x24 ADD PUSH2 0x3E0 JUMP JUMPDEST PUSH1 0x1 PUSH1 0x1 PUSH1 0xA0 SHL SUB DUP3 AND PUSH2 0x968 JUMPI PUSH1 0x40 MLOAD PUSH4 0x32505749 PUSH1 0xE1 SHL DUP2 MSTORE PUSH1 0x0 PUSH1 0x4 DUP3 ADD MSTORE PUSH1 0x24 ADD PUSH2 0x3E0 JUMP JUMPDEST PUSH1 0x0 PUSH2 0x976 DUP4 DUP4 PUSH1 0x0 PUSH2 0x818 JUMP JUMPDEST SWAP1 POP PUSH1 0x1 PUSH1 0x1 PUSH1 0xA0 SHL SUB DUP2 AND ISZERO PUSH2 0x511 JUMPI PUSH1 0x40 MLOAD PUSH4 0x39E35637 PUSH1 0xE1 SHL DUP2 MSTORE PUSH1 0x0 PUSH1 0x4 DUP3 ADD MSTORE PUSH1 0x24 ADD PUSH2 0x3E0 JUMP JUMPDEST PUSH1 0x9 DUP1 SLOAD PUSH1 0x1 PUSH1 0x1 PUSH1 0xA0 SHL SUB DUP4 DUP2 AND PUSH1 0x1 PUSH1 0x1 PUSH1 0xA0 SHL SUB NOT DUP4 AND DUP2 OR SWAP1 SWAP4 SSTORE PUSH1 0x40 MLOAD SWAP2 AND SWAP2 SWAP1 DUP3 SWAP1 PUSH32 0x8BE0079C531659141344CD1FD0A4F28419497F9722A3DAAFE3B4186F6B6457E0 SWAP1 PUSH1 0x0 SWAP1 LOG3 POP POP JUMP JUMPDEST PUSH1 0x1 PUSH1 0x1 PUSH1 0xA0 SHL SUB DUP3 AND PUSH2 0xA27 JUMPI PUSH1 0x40 MLOAD PUSH4 0xB611743 PUSH1 0xE3 SHL DUP2 MSTORE PUSH1 0x1 PUSH1 0x1 PUSH1 0xA0 SHL SUB DUP4 AND PUSH1 0x4 DUP3 ADD MSTORE PUSH1 0x24 ADD PUSH2 0x3E0 JUMP JUMPDEST PUSH1 0x1 PUSH1 0x1 PUSH1 0xA0 SHL SUB DUP4 DUP2 AND PUSH1 0x0 DUP2 DUP2 MSTORE PUSH1 0x7 PUSH1 0x20 SWAP1 DUP2 MSTORE PUSH1 0x40 DUP1 DUP4 KECCAK256 SWAP5 DUP8 AND DUP1 DUP5 MSTORE SWAP5 DUP3 MSTORE SWAP2 DUP3 SWAP1 KECCAK256 DUP1 SLOAD PUSH1 0xFF NOT AND DUP7 ISZERO ISZERO SWAP1 DUP2 OR SWAP1 SWAP2 SSTORE SWAP2 MLOAD SWAP2 DUP3 MSTORE PUSH32 0x17307EAB39AB6107E8899845AD3D59BD9653F200F220920489CA2B5937696C31 SWAP2 ADD PUSH1 0x40 MLOAD DUP1 SWAP2 SUB SWAP1 LOG3 POP POP POP JUMP JUMPDEST PUSH1 0x1 PUSH1 0x1 PUSH1 0xA0 SHL SUB DUP4 AND EXTCODESIZE ISZERO PUSH2 0x444 JUMPI PUSH1 0x40 MLOAD PUSH4 0xA85BD01 PUSH1 0xE1 SHL DUP2 MSTORE PUSH1 0x1 PUSH1 0x1 PUSH1 0xA0 SHL SUB DUP5 AND SWAP1 PUSH4 0x150B7A02 SWAP1 PUSH2 0xAD6 SWAP1 CALLER SWAP1 DUP9 SWAP1 DUP8 SWAP1 DUP8 SWAP1 PUSH1 0x4 ADD PUSH2 0x1468 JUMP JUMPDEST PUSH1 0x20 PUSH1 0x40 MLOAD DUP1 DUP4 SUB DUP2 PUSH1 0x0 DUP8 GAS CALL SWAP3 POP POP POP DUP1 ISZERO PUSH2 0xB11 JUMPI POP PUSH1 0x40 DUP1 MLOAD PUSH1 0x1F RETURNDATASIZE SWAP1 DUP2 ADD PUSH1 0x1F NOT AND DUP3 ADD SWAP1 SWAP3 MSTORE PUSH2 0xB0E SWAP2 DUP2 ADD SWAP1 PUSH2 0x14A5 JUMP JUMPDEST PUSH1 0x1 JUMPDEST PUSH2 0xB7A JUMPI RETURNDATASIZE DUP1 DUP1 ISZERO PUSH2 0xB3F JUMPI PUSH1 0x40 MLOAD SWAP2 POP PUSH1 0x1F NOT PUSH1 0x3F RETURNDATASIZE ADD AND DUP3 ADD PUSH1 0x40 MSTORE RETURNDATASIZE DUP3 MSTORE RETURNDATASIZE PUSH1 0x0 PUSH1 0x20 DUP5 ADD RETURNDATACOPY PUSH2 0xB44 JUMP JUMPDEST PUSH1 0x60 SWAP2 POP JUMPDEST POP DUP1 MLOAD PUSH1 0x0 SUB PUSH2 0xB72 JUMPI PUSH1 0x40 MLOAD PUSH4 0x32505749 PUSH1 0xE1 SHL DUP2 MSTORE PUSH1 0x1 PUSH1 0x1 PUSH1 0xA0 SHL SUB DUP6 AND PUSH1 0x4 DUP3 ADD MSTORE PUSH1 0x24 ADD PUSH2 0x3E0 JUMP JUMPDEST DUP1 MLOAD DUP2 PUSH1 0x20 ADD REVERT JUMPDEST PUSH1 0x1 PUSH1 0x1 PUSH1 0xE0 SHL SUB NOT DUP2 AND PUSH4 0xA85BD01 PUSH1 0xE1 SHL EQ PUSH2 0xBB6 JUMPI PUSH1 0x40 MLOAD PUSH4 0x32505749 PUSH1 0xE1 SHL DUP2 MSTORE PUSH1 0x1 PUSH1 0x1 PUSH1 0xA0 SHL SUB DUP6 AND PUSH1 0x4 DUP3 ADD MSTORE PUSH1 0x24 ADD PUSH2 0x3E0 JUMP JUMPDEST POP POP POP POP POP JUMP JUMPDEST PUSH1 0x60 PUSH1 0x0 PUSH2 0xBCA DUP4 PUSH2 0xDDF JUMP JUMPDEST PUSH1 0x1 ADD SWAP1 POP PUSH1 0x0 DUP2 PUSH8 0xFFFFFFFFFFFFFFFF DUP2 GT ISZERO PUSH2 0xBEA JUMPI PUSH2 0xBEA PUSH2 0x11C9 JUMP JUMPDEST PUSH1 0x40 MLOAD SWAP1 DUP1 DUP3 MSTORE DUP1 PUSH1 0x1F ADD PUSH1 0x1F NOT AND PUSH1 0x20 ADD DUP3 ADD PUSH1 0x40 MSTORE DUP1 ISZERO PUSH2 0xC14 JUMPI PUSH1 0x20 DUP3 ADD DUP2 DUP1 CALLDATASIZE DUP4 CALLDATACOPY ADD SWAP1 POP JUMPDEST POP SWAP1 POP DUP2 DUP2 ADD PUSH1 0x20 ADD JUMPDEST PUSH1 0x0 NOT ADD PUSH16 0x181899199A1A9B1B9C1CB0B131B232B3 PUSH1 0x81 SHL PUSH1 0xA DUP7 MOD BYTE DUP2 MSTORE8 PUSH1 0xA DUP6 DIV SWAP5 POP DUP5 PUSH2 0xC1E JUMPI POP SWAP4 SWAP3 POP POP POP JUMP JUMPDEST PUSH1 0x0 PUSH1 0x1 PUSH1 0x1 PUSH1 0xE0 SHL SUB NOT DUP3 AND PUSH4 0x24832483 PUSH1 0xE1 SHL EQ DUP1 PUSH2 0x2EA JUMPI POP PUSH2 0x2EA DUP3 PUSH2 0xEB7 JUMP JUMPDEST DUP1 DUP1 PUSH2 0xC89 JUMPI POP PUSH1 0x1 PUSH1 0x1 PUSH1 0xA0 SHL SUB DUP3 AND ISZERO ISZERO JUMPDEST ISZERO PUSH2 0xD4B JUMPI PUSH1 0x0 PUSH2 0xC99 DUP5 PUSH2 0x7D2 JUMP JUMPDEST SWAP1 POP PUSH1 0x1 PUSH1 0x1 PUSH1 0xA0 SHL SUB DUP4 AND ISZERO DUP1 ISZERO SWAP1 PUSH2 0xCC5 JUMPI POP DUP3 PUSH1 0x1 PUSH1 0x1 PUSH1 0xA0 SHL SUB AND DUP2 PUSH1 0x1 PUSH1 0x1 PUSH1 0xA0 SHL SUB AND EQ ISZERO JUMPDEST DUP1 ISZERO PUSH2 0xCD8 JUMPI POP PUSH2 0xCD6 DUP2 DUP5 PUSH2 0x75B JUMP JUMPDEST ISZERO JUMPDEST ISZERO PUSH2 0xD01 JUMPI PUSH1 0x40 MLOAD PUSH4 0xA9FBF51F PUSH1 0xE0 SHL DUP2 MSTORE PUSH1 0x1 PUSH1 0x1 PUSH1 0xA0 SHL SUB DUP5 AND PUSH1 0x4 DUP3 ADD MSTORE PUSH1 0x24 ADD PUSH2 0x3E0 JUMP JUMPDEST DUP2 ISZERO PUSH2 0xD49 JUMPI DUP4 DUP6 PUSH1 0x1 PUSH1 0x1 PUSH1 0xA0 SHL SUB AND DUP3 PUSH1 0x1 PUSH1 0x1 PUSH1 0xA0 SHL SUB AND PUSH32 0x8C5BE1E5EBEC7D5BD14F71427D1E84F3DD0314C0F7B2291E5B200AC8C7C3B925 PUSH1 0x40 MLOAD PUSH1 0x40 MLOAD DUP1 SWAP2 SUB SWAP1 LOG4 JUMPDEST POP JUMPDEST POP POP PUSH1 0x0 SWAP1 DUP2 MSTORE PUSH1 0x6 PUSH1 0x20 MSTORE PUSH1 0x40 SWAP1 KECCAK256 DUP1 SLOAD PUSH1 0x1 PUSH1 0x1 PUSH1 0xA0 SHL SUB NOT AND PUSH1 0x1 PUSH1 0x1 PUSH1 0xA0 SHL SUB SWAP3 SWAP1 SWAP3 AND SWAP2 SWAP1 SWAP2 OR SWAP1 SSTORE JUMP JUMPDEST PUSH2 0xD86 DUP4 DUP4 DUP4 PUSH2 0xEF7 JUMP JUMPDEST PUSH2 0x511 JUMPI PUSH1 0x1 PUSH1 0x1 PUSH1 0xA0 SHL SUB DUP4 AND PUSH2 0xDB4 JUMPI PUSH1 0x40 MLOAD PUSH4 0x7E273289 PUSH1 0xE0 SHL DUP2 MSTORE PUSH1 0x4 DUP2 ADD DUP3 SWAP1 MSTORE PUSH1 0x24 ADD PUSH2 0x3E0 JUMP JUMPDEST PUSH1 0x40 MLOAD PUSH4 0x177E802F PUSH1 0xE0 SHL DUP2 MSTORE PUSH1 0x1 PUSH1 0x1 PUSH1 0xA0 SHL SUB DUP4 AND PUSH1 0x4 DUP3 ADD MSTORE PUSH1 0x24 DUP2 ADD DUP3 SWAP1 MSTORE PUSH1 0x44 ADD PUSH2 0x3E0 JUMP JUMPDEST PUSH1 0x0 DUP1 PUSH19 0x184F03E93FF9F4DAA797ED6E38ED64BF6A1F01 PUSH1 0x40 SHL DUP4 LT PUSH2 0xE1E JUMPI PUSH19 0x184F03E93FF9F4DAA797ED6E38ED64BF6A1F01 PUSH1 0x40 SHL DUP4 DIV SWAP3 POP PUSH1 0x40 ADD JUMPDEST PUSH14 0x4EE2D6D415B85ACEF8100000000 DUP4 LT PUSH2 0xE4A JUMPI PUSH14 0x4EE2D6D415B85ACEF8100000000 DUP4 DIV SWAP3 POP PUSH1 0x20 ADD JUMPDEST PUSH7 0x2386F26FC10000 DUP4 LT PUSH2 0xE68 JUMPI PUSH7 0x2386F26FC10000 DUP4 DIV SWAP3 POP PUSH1 0x10 ADD JUMPDEST PUSH4 0x5F5E100 DUP4 LT PUSH2 0xE80 JUMPI PUSH4 0x5F5E100 DUP4 DIV SWAP3 POP PUSH1 0x8 ADD JUMPDEST PUSH2 0x2710 DUP4 LT PUSH2 0xE94 JUMPI PUSH2 0x2710 DUP4 DIV SWAP3 POP PUSH1 0x4 ADD JUMPDEST PUSH1 0x64 DUP4 LT PUSH2 0xEA6 JUMPI PUSH1 0x64 DUP4 DIV SWAP3 POP PUSH1 0x2 ADD JUMPDEST PUSH1 0xA DUP4 LT PUSH2 0x2EA JUMPI PUSH1 0x1 ADD SWAP3 SWAP2 POP POP JUMP JUMPDEST PUSH1 0x0 PUSH1 0x1 PUSH1 0x1 PUSH1 0xE0 SHL SUB NOT DUP3 AND PUSH4 0x80AC58CD PUSH1 0xE0 SHL EQ DUP1 PUSH2 0xEE8 JUMPI POP PUSH1 0x1 PUSH1 0x1 PUSH1 0xE0 SHL SUB NOT DUP3 AND PUSH4 0x5B5E139F PUSH1 0xE0 SHL EQ JUMPDEST DUP1 PUSH2 0x2EA JUMPI POP PUSH2 0x2EA DUP3 PUSH2 0xF5D JUMP JUMPDEST PUSH1 0x0 PUSH1 0x1 PUSH1 0x1 PUSH1 0xA0 SHL SUB DUP4 AND ISZERO DUP1 ISZERO SWAP1 PUSH2 0xF55 JUMPI POP DUP3 PUSH1 0x1 PUSH1 0x1 PUSH1 0xA0 SHL SUB AND DUP5 PUSH1 0x1 PUSH1 0x1 PUSH1 0xA0 SHL SUB AND EQ DUP1 PUSH2 0xF31 JUMPI POP PUSH2 0xF31 DUP5 DUP5 PUSH2 0x75B JUMP JUMPDEST DUP1 PUSH2 0xF55 JUMPI POP PUSH1 0x0 DUP3 DUP2 MSTORE PUSH1 0x6 PUSH1 0x20 MSTORE PUSH1 0x40 SWAP1 KECCAK256 SLOAD PUSH1 0x1 PUSH1 0x1 PUSH1 0xA0 SHL SUB DUP5 DUP2 AND SWAP2 AND EQ JUMPDEST SWAP5 SWAP4 POP POP POP POP JUMP JUMPDEST PUSH1 0x0 PUSH1 0x1 PUSH1 0x1 PUSH1 0xE0 SHL SUB NOT DUP3 AND PUSH4 0x152A902D PUSH1 0xE1 SHL EQ DUP1 PUSH2 0x2EA JUMPI POP PUSH4 0x1FFC9A7 PUSH1 0xE0 SHL PUSH1 0x1 PUSH1 0x1 PUSH1 0xE0 SHL SUB NOT DUP4 AND EQ PUSH2 0x2EA JUMP JUMPDEST PUSH1 0x1 PUSH1 0x1 PUSH1 0xE0 SHL SUB NOT DUP2 AND DUP2 EQ PUSH2 0x7C4 JUMPI PUSH1 0x0 DUP1 REVERT JUMPDEST PUSH1 0x0 PUSH1 0x20 DUP3 DUP5 SUB SLT ISZERO PUSH2 0xFBA JUMPI PUSH1 0x0 DUP1 REVERT JUMPDEST DUP2 CALLDATALOAD PUSH2 0xFC5 DUP2 PUSH2 0xF92 JUMP JUMPDEST SWAP4 SWAP3 POP POP POP JUMP JUMPDEST PUSH1 0x0 JUMPDEST DUP4 DUP2 LT ISZERO PUSH2 0xFE7 JUMPI DUP2 DUP2 ADD MLOAD DUP4 DUP3 ADD MSTORE PUSH1 0x20 ADD PUSH2 0xFCF JUMP JUMPDEST POP POP PUSH1 0x0 SWAP2 ADD MSTORE JUMP JUMPDEST PUSH1 0x0 DUP2 MLOAD DUP1 DUP5 MSTORE PUSH2 0x1008 DUP2 PUSH1 0x20 DUP7 ADD PUSH1 0x20 DUP7 ADD PUSH2 0xFCC JUMP JUMPDEST PUSH1 0x1F ADD PUSH1 0x1F NOT AND SWAP3 SWAP1 SWAP3 ADD PUSH1 0x20 ADD SWAP3 SWAP2 POP POP JUMP JUMPDEST PUSH1 0x20 DUP2 MSTORE PUSH1 0x0 PUSH2 0xFC5 PUSH1 0x20 DUP4 ADD DUP5 PUSH2 0xFF0 JUMP JUMPDEST PUSH1 0x0 PUSH1 0x20 DUP3 DUP5 SUB SLT ISZERO PUSH2 0x1041 JUMPI PUSH1 0x0 DUP1 REVERT JUMPDEST POP CALLDATALOAD SWAP2 SWAP1 POP JUMP JUMPDEST DUP1 CALLDATALOAD PUSH1 0x1 PUSH1 0x1 PUSH1 0xA0 SHL SUB DUP2 AND DUP2 EQ PUSH2 0x105F JUMPI PUSH1 0x0 DUP1 REVERT JUMPDEST SWAP2 SWAP1 POP JUMP JUMPDEST PUSH1 0x0 DUP1 PUSH1 0x40 DUP4 DUP6 SUB SLT ISZERO PUSH2 0x1077 JUMPI PUSH1 0x0 DUP1 REVERT JUMPDEST PUSH2 0x1080 DUP4 PUSH2 0x1048 JUMP JUMPDEST SWAP5 PUSH1 0x20 SWAP4 SWAP1 SWAP4 ADD CALLDATALOAD SWAP4 POP POP POP JUMP JUMPDEST PUSH1 0x0 DUP1 PUSH1 0x0 PUSH1 0x60 DUP5 DUP7 SUB SLT ISZERO PUSH2 0x10A3 JUMPI PUSH1 0x0 DUP1 REVERT JUMPDEST PUSH2 0x10AC DUP5 PUSH2 0x1048 JUMP JUMPDEST SWAP3 POP PUSH2 0x10BA PUSH1 0x20 DUP6 ADD PUSH2 0x1048 JUMP JUMPDEST SWAP2 POP PUSH1 0x40 DUP5 ADD CALLDATALOAD SWAP1 POP SWAP3 POP SWAP3 POP SWAP3 JUMP JUMPDEST PUSH1 0x0 DUP1 PUSH1 0x40 DUP4 DUP6 SUB SLT ISZERO PUSH2 0x10DD JUMPI PUSH1 0x0 DUP1 REVERT JUMPDEST POP POP DUP1 CALLDATALOAD SWAP3 PUSH1 0x20 SWAP1 SWAP2 ADD CALLDATALOAD SWAP2 POP JUMP JUMPDEST PUSH1 0x0 DUP1 PUSH1 0x0 PUSH1 0x40 DUP5 DUP7 SUB SLT ISZERO PUSH2 0x1101 JUMPI PUSH1 0x0 DUP1 REVERT JUMPDEST PUSH2 0x110A DUP5 PUSH2 0x1048 JUMP JUMPDEST SWAP3 POP PUSH1 0x20 DUP5 ADD CALLDATALOAD PUSH8 0xFFFFFFFFFFFFFFFF DUP1 DUP3 GT ISZERO PUSH2 0x1127 JUMPI PUSH1 0x0 DUP1 REVERT JUMPDEST DUP2 DUP7 ADD SWAP2 POP DUP7 PUSH1 0x1F DUP4 ADD SLT PUSH2 0x113B JUMPI PUSH1 0x0 DUP1 REVERT JUMPDEST DUP2 CALLDATALOAD DUP2 DUP2 GT ISZERO PUSH2 0x114A JUMPI PUSH1 0x0 DUP1 REVERT JUMPDEST DUP8 PUSH1 0x20 DUP3 PUSH1 0x5 SHL DUP6 ADD ADD GT ISZERO PUSH2 0x115F JUMPI PUSH1 0x0 DUP1 REVERT JUMPDEST PUSH1 0x20 DUP4 ADD SWAP5 POP DUP1 SWAP4 POP POP POP POP SWAP3 POP SWAP3 POP SWAP3 JUMP JUMPDEST PUSH1 0x0 PUSH1 0x20 DUP3 DUP5 SUB SLT ISZERO PUSH2 0x1184 JUMPI PUSH1 0x0 DUP1 REVERT JUMPDEST PUSH2 0xFC5 DUP3 PUSH2 0x1048 JUMP JUMPDEST PUSH1 0x0 DUP1 PUSH1 0x40 DUP4 DUP6 SUB SLT ISZERO PUSH2 0x11A0 JUMPI PUSH1 0x0 DUP1 REVERT JUMPDEST PUSH2 0x11A9 DUP4 PUSH2 0x1048 JUMP JUMPDEST SWAP2 POP PUSH1 0x20 DUP4 ADD CALLDATALOAD DUP1 ISZERO ISZERO DUP2 EQ PUSH2 0x11BE JUMPI PUSH1 0x0 DUP1 REVERT JUMPDEST DUP1 SWAP2 POP POP SWAP3 POP SWAP3 SWAP1 POP JUMP JUMPDEST PUSH4 0x4E487B71 PUSH1 0xE0 SHL PUSH1 0x0 MSTORE PUSH1 0x41 PUSH1 0x4 MSTORE PUSH1 0x24 PUSH1 0x0 REVERT JUMPDEST PUSH1 0x0 DUP1 PUSH1 0x0 DUP1 PUSH1 0x80 DUP6 DUP8 SUB SLT ISZERO PUSH2 0x11F5 JUMPI PUSH1 0x0 DUP1 REVERT JUMPDEST PUSH2 0x11FE DUP6 PUSH2 0x1048 JUMP JUMPDEST SWAP4 POP PUSH2 0x120C PUSH1 0x20 DUP7 ADD PUSH2 0x1048 JUMP JUMPDEST SWAP3 POP PUSH1 0x40 DUP6 ADD CALLDATALOAD SWAP2 POP PUSH1 0x60 DUP6 ADD CALLDATALOAD PUSH8 0xFFFFFFFFFFFFFFFF DUP1 DUP3 GT ISZERO PUSH2 0x1230 JUMPI PUSH1 0x0 DUP1 REVERT JUMPDEST DUP2 DUP8 ADD SWAP2 POP DUP8 PUSH1 0x1F DUP4 ADD SLT PUSH2 0x1244 JUMPI PUSH1 0x0 DUP1 REVERT JUMPDEST DUP2 CALLDATALOAD DUP2 DUP2 GT ISZERO PUSH2 0x1256 JUMPI PUSH2 0x1256 PUSH2 0x11C9 JUMP JUMPDEST PUSH1 0x40 MLOAD PUSH1 0x1F DUP3 ADD PUSH1 0x1F NOT SWAP1 DUP2 AND PUSH1 0x3F ADD AND DUP2 ADD SWAP1 DUP4 DUP3 GT DUP2 DUP4 LT OR ISZERO PUSH2 0x127E JUMPI PUSH2 0x127E PUSH2 0x11C9 JUMP JUMPDEST DUP2 PUSH1 0x40 MSTORE DUP3 DUP2 MSTORE DUP11 PUSH1 0x20 DUP5 DUP8 ADD ADD GT ISZERO PUSH2 0x1297 JUMPI PUSH1 0x0 DUP1 REVERT JUMPDEST DUP3 PUSH1 0x20 DUP7 ADD PUSH1 0x20 DUP4 ADD CALLDATACOPY PUSH1 0x0 PUSH1 0x20 DUP5 DUP4 ADD ADD MSTORE DUP1 SWAP6 POP POP POP POP POP POP SWAP3 SWAP6 SWAP2 SWAP5 POP SWAP3 POP JUMP JUMPDEST PUSH1 0x0 DUP1 PUSH1 0x40 DUP4 DUP6 SUB SLT ISZERO PUSH2 0x12CE JUMPI PUSH1 0x0 DUP1 REVERT JUMPDEST PUSH2 0x12D7 DUP4 PUSH2 0x1048 JUMP JUMPDEST SWAP2 POP PUSH2 0x12E5 PUSH1 0x20 DUP5 ADD PUSH2 0x1048 JUMP JUMPDEST SWAP1 POP SWAP3 POP SWAP3 SWAP1 POP JUMP JUMPDEST PUSH1 0x1 DUP2 DUP2 SHR SWAP1 DUP3 AND DUP1 PUSH2 0x1302 JUMPI PUSH1 0x7F DUP3 AND SWAP2 POP JUMPDEST PUSH1 0x20 DUP3 LT DUP2 SUB PUSH2 0x1322 JUMPI PUSH4 0x4E487B71 PUSH1 0xE0 SHL PUSH1 0x0 MSTORE PUSH1 0x22 PUSH1 0x4 MSTORE PUSH1 0x24 PUSH1 0x0 REVERT JUMPDEST POP SWAP2 SWAP1 POP JUMP JUMPDEST PUSH4 0x4E487B71 PUSH1 0xE0 SHL PUSH1 0x0 MSTORE PUSH1 0x11 PUSH1 0x4 MSTORE PUSH1 0x24 PUSH1 0x0 REVERT JUMPDEST DUP1 DUP3 MUL DUP2 ISZERO DUP3 DUP3 DIV DUP5 EQ OR PUSH2 0x2EA JUMPI PUSH2 0x2EA PUSH2 0x1328 JUMP JUMPDEST PUSH1 0x0 DUP3 PUSH2 0x1372 JUMPI PUSH4 0x4E487B71 PUSH1 0xE0 SHL PUSH1 0x0 MSTORE PUSH1 0x12 PUSH1 0x4 MSTORE PUSH1 0x24 PUSH1 0x0 REVERT JUMPDEST POP DIV SWAP1 JUMP JUMPDEST DUP1 DUP3 ADD DUP1 DUP3 GT ISZERO PUSH2 0x2EA JUMPI PUSH2 0x2EA PUSH2 0x1328 JUMP JUMPDEST PUSH4 0x4E487B71 PUSH1 0xE0 SHL PUSH1 0x0 MSTORE PUSH1 0x32 PUSH1 0x4 MSTORE PUSH1 0x24 PUSH1 0x0 REVERT JUMPDEST PUSH1 0x0 DUP2 MLOAD PUSH2 0x13B2 DUP2 DUP6 PUSH1 0x20 DUP7 ADD PUSH2 0xFCC JUMP JUMPDEST SWAP3 SWAP1 SWAP3 ADD SWAP3 SWAP2 POP POP JUMP JUMPDEST PUSH1 0x0 DUP1 DUP5 SLOAD DUP2 PUSH1 0x1 DUP3 PUSH1 0x1 SHR SWAP2 POP PUSH1 0x1 DUP4 AND DUP1 PUSH2 0x13DA JUMPI PUSH1 0x7F DUP4 AND SWAP3 POP JUMPDEST PUSH1 0x20 DUP1 DUP5 LT DUP3 SUB PUSH2 0x13F9 JUMPI PUSH4 0x4E487B71 PUSH1 0xE0 SHL DUP7 MSTORE PUSH1 0x22 PUSH1 0x4 MSTORE PUSH1 0x24 DUP7 REVERT JUMPDEST DUP2 DUP1 ISZERO PUSH2 0x140D JUMPI PUSH1 0x1 DUP2 EQ PUSH2 0x1422 JUMPI PUSH2 0x144F JUMP JUMPDEST PUSH1 0xFF NOT DUP7 AND DUP10 MSTORE DUP5 ISZERO ISZERO DUP6 MUL DUP10 ADD SWAP7 POP PUSH2 0x144F JUMP JUMPDEST PUSH1 0x0 DUP12 DUP2 MSTORE PUSH1 0x20 SWAP1 KECCAK256 PUSH1 0x0 JUMPDEST DUP7 DUP2 LT ISZERO PUSH2 0x1447 JUMPI DUP2 SLOAD DUP12 DUP3 ADD MSTORE SWAP1 DUP6 ADD SWAP1 DUP4 ADD PUSH2 0x142E JUMP JUMPDEST POP POP DUP5 DUP10 ADD SWAP7 POP JUMPDEST POP POP POP POP POP POP PUSH2 0x145F DUP2 DUP6 PUSH2 0x13A0 JUMP JUMPDEST SWAP6 SWAP5 POP POP POP POP POP JUMP JUMPDEST PUSH1 0x1 PUSH1 0x1 PUSH1 0xA0 SHL SUB DUP6 DUP2 AND DUP3 MSTORE DUP5 AND PUSH1 0x20 DUP3 ADD MSTORE PUSH1 0x40 DUP2 ADD DUP4 SWAP1 MSTORE PUSH1 0x80 PUSH1 0x60 DUP3 ADD DUP2 SWAP1 MSTORE PUSH1 0x0 SWAP1 PUSH2 0x149B SWAP1 DUP4 ADD DUP5 PUSH2 0xFF0 JUMP JUMPDEST SWAP7 SWAP6 POP POP POP POP POP POP JUMP JUMPDEST PUSH1 0x0 PUSH1 0x20 DUP3 DUP5 SUB SLT ISZERO PUSH2 0x14B7 JUMPI PUSH1 0x0 DUP1 REVERT JUMPDEST DUP2 MLOAD PUSH2 0xFC5 DUP2 PUSH2 0xF92 JUMP INVALID LOG2 PUSH5 0x6970667358 0x22 SLT KECCAK256 0xE3 PUSH22 0xF98C19213B0D8BB5CF86455BCA6B412167BA34808A0F 0xA8 DUP2 SDIV DUP9 0xBF PUSH18 0x8B6C64736F6C634300081800336080604052 CALLVALUE DUP1 ISZERO PUSH3 0x11 JUMPI PUSH1 0x0 DUP1 REVERT JUMPDEST POP PUSH1 0x40 MLOAD PUSH3 0x18CC CODESIZE SUB DUP1 PUSH3 0x18CC DUP4 CODECOPY DUP2 ADD PUSH1 0x40 DUP2 SWAP1 MSTORE PUSH3 0x34 SWAP2 PUSH3 0x69D JUMP JUMPDEST DUP3 DUP7 DUP7 PUSH1 0x2 PUSH3 0x45 DUP4 DUP3 PUSH3 0x805 JUMP JUMPDEST POP PUSH1 0x3 PUSH3 0x54 DUP3 DUP3 PUSH3 0x805 JUMP JUMPDEST POP POP POP PUSH1 0x1 PUSH1 0x1 PUSH1 0xA0 SHL SUB DUP2 AND PUSH3 0x87 JUMPI PUSH1 0x40 MLOAD PUSH4 0x1E4FBDF7 PUSH1 0xE0 SHL DUP2 MSTORE PUSH1 0x0 PUSH1 0x4 DUP3 ADD MSTORE PUSH1 0x24 ADD JUMPDEST PUSH1 0x40 MLOAD DUP1 SWAP2 SUB SWAP1 REVERT JUMPDEST PUSH3 0x92 DUP2 PUSH3 0xEF JUMP JUMPDEST POP PUSH1 0xA PUSH3 0xA1 DUP6 DUP3 PUSH3 0x805 JUMP JUMPDEST POP PUSH3 0xAF DUP4 PUSH1 0x0 PUSH3 0x141 JUMP JUMPDEST PUSH1 0x1 PUSH1 0x1 PUSH1 0xA0 SHL SUB DUP3 AND ISZERO DUP1 ISZERO SWAP1 PUSH3 0xD1 JUMPI POP PUSH1 0x0 DUP2 PUSH1 0x1 PUSH1 0x1 PUSH1 0x60 SHL SUB AND GT JUMPDEST ISZERO PUSH3 0xE3 JUMPI PUSH3 0xE3 DUP3 DUP3 PUSH3 0x1B0 JUMP JUMPDEST POP POP POP POP POP POP PUSH3 0x8D1 JUMP JUMPDEST PUSH1 0x9 DUP1 SLOAD PUSH1 0x1 PUSH1 0x1 PUSH1 0xA0 SHL SUB DUP4 DUP2 AND PUSH1 0x1 PUSH1 0x1 PUSH1 0xA0 SHL SUB NOT DUP4 AND DUP2 OR SWAP1 SWAP4 SSTORE PUSH1 0x40 MLOAD SWAP2 AND SWAP2 SWAP1 DUP3 SWAP1 PUSH32 0x8BE0079C531659141344CD1FD0A4F28419497F9722A3DAAFE3B4186F6B6457E0 SWAP1 PUSH1 0x0 SWAP1 LOG3 POP POP JUMP JUMPDEST PUSH1 0x1 PUSH1 0x1 PUSH1 0xA0 SHL SUB DUP3 AND PUSH3 0x16D JUMPI PUSH1 0x40 MLOAD PUSH4 0x32505749 PUSH1 0xE1 SHL DUP2 MSTORE PUSH1 0x0 PUSH1 0x4 DUP3 ADD MSTORE PUSH1 0x24 ADD PUSH3 0x7E JUMP JUMPDEST PUSH1 0x0 PUSH3 0x17C DUP4 DUP4 DUP4 PUSH3 0x257 JUMP JUMPDEST SWAP1 POP PUSH1 0x1 PUSH1 0x1 PUSH1 0xA0 SHL SUB DUP2 AND ISZERO PUSH3 0x1AB JUMPI PUSH1 0x40 MLOAD PUSH4 0x39E35637 PUSH1 0xE1 SHL DUP2 MSTORE PUSH1 0x0 PUSH1 0x4 DUP3 ADD MSTORE PUSH1 0x24 ADD PUSH3 0x7E JUMP JUMPDEST POP POP POP JUMP JUMPDEST PUSH2 0x2710 PUSH1 0x1 PUSH1 0x1 PUSH1 0x60 SHL SUB DUP3 AND DUP2 LT ISZERO PUSH3 0x1F1 JUMPI PUSH1 0x40 MLOAD PUSH4 0x6F483D09 PUSH1 0xE0 SHL DUP2 MSTORE PUSH1 0x1 PUSH1 0x1 PUSH1 0x60 SHL SUB DUP4 AND PUSH1 0x4 DUP3 ADD MSTORE PUSH1 0x24 DUP2 ADD DUP3 SWAP1 MSTORE PUSH1 0x44 ADD PUSH3 0x7E JUMP JUMPDEST PUSH1 0x1 PUSH1 0x1 PUSH1 0xA0 SHL SUB DUP4 AND PUSH3 0x21D JUMPI PUSH1 0x40 MLOAD PUSH4 0x5B6CC805 PUSH1 0xE1 SHL DUP2 MSTORE PUSH1 0x0 PUSH1 0x4 DUP3 ADD MSTORE PUSH1 0x24 ADD PUSH3 0x7E JUMP JUMPDEST POP PUSH1 0x40 DUP1 MLOAD DUP1 DUP3 ADD SWAP1 SWAP2 MSTORE PUSH1 0x1 PUSH1 0x1 PUSH1 0xA0 SHL SUB SWAP1 SWAP3 AND DUP1 DUP4 MSTORE PUSH1 0x1 PUSH1 0x1 PUSH1 0x60 SHL SUB SWAP1 SWAP2 AND PUSH1 0x20 SWAP1 SWAP3 ADD DUP3 SWAP1 MSTORE PUSH1 0x1 PUSH1 0xA0 SHL SWAP1 SWAP2 MUL OR PUSH1 0x0 SSTORE JUMP JUMPDEST PUSH1 0x0 DUP3 DUP2 MSTORE PUSH1 0x4 PUSH1 0x20 MSTORE PUSH1 0x40 DUP2 KECCAK256 SLOAD PUSH1 0x1 PUSH1 0x1 PUSH1 0xA0 SHL SUB SWAP1 DUP2 AND SWAP1 DUP4 AND ISZERO PUSH3 0x287 JUMPI PUSH3 0x287 DUP2 DUP5 DUP7 PUSH3 0x356 JUMP JUMPDEST PUSH1 0x1 PUSH1 0x1 PUSH1 0xA0 SHL SUB DUP2 AND ISZERO PUSH3 0x2C7 JUMPI PUSH3 0x2A6 PUSH1 0x0 DUP6 DUP2 DUP1 PUSH3 0x3C0 JUMP JUMPDEST PUSH1 0x1 PUSH1 0x1 PUSH1 0xA0 SHL SUB DUP2 AND PUSH1 0x0 SWAP1 DUP2 MSTORE PUSH1 0x5 PUSH1 0x20 MSTORE PUSH1 0x40 SWAP1 KECCAK256 DUP1 SLOAD PUSH1 0x0 NOT ADD SWAP1 SSTORE JUMPDEST PUSH1 0x1 PUSH1 0x1 PUSH1 0xA0 SHL SUB DUP6 AND ISZERO PUSH3 0x2F7 JUMPI PUSH1 0x1 PUSH1 0x1 PUSH1 0xA0 SHL SUB DUP6 AND PUSH1 0x0 SWAP1 DUP2 MSTORE PUSH1 0x5 PUSH1 0x20 MSTORE PUSH1 0x40 SWAP1 KECCAK256 DUP1 SLOAD PUSH1 0x1 ADD SWAP1 SSTORE JUMPDEST PUSH1 0x0 DUP5 DUP2 MSTORE PUSH1 0x4 PUSH1 0x20 MSTORE PUSH1 0x40 DUP1 DUP3 KECCAK256 DUP1 SLOAD PUSH1 0x1 PUSH1 0x1 PUSH1 0xA0 SHL SUB NOT AND PUSH1 0x1 PUSH1 0x1 PUSH1 0xA0 SHL SUB DUP10 DUP2 AND SWAP2 DUP3 OR SWAP1 SWAP3 SSTORE SWAP2 MLOAD DUP8 SWAP4 SWAP2 DUP6 AND SWAP2 PUSH32 0xDDF252AD1BE2C89B69C2B068FC378DAA952BA7F163C4A11628F55A4DF523B3EF SWAP2 LOG4 SWAP5 SWAP4 POP POP POP POP JUMP JUMPDEST PUSH3 0x363 DUP4 DUP4 DUP4 PUSH3 0x4EE JUMP JUMPDEST PUSH3 0x1AB JUMPI PUSH1 0x1 PUSH1 0x1 PUSH1 0xA0 SHL SUB DUP4 AND PUSH3 0x394 JUMPI PUSH1 0x40 MLOAD PUSH4 0x7E273289 PUSH1 0xE0 SHL DUP2 MSTORE PUSH1 0x4 DUP2 ADD DUP3 SWAP1 MSTORE PUSH1 0x24 ADD PUSH3 0x7E JUMP JUMPDEST PUSH1 0x40 MLOAD PUSH4 0x177E802F PUSH1 0xE0 SHL DUP2 MSTORE PUSH1 0x1 PUSH1 0x1 PUSH1 0xA0 SHL SUB DUP4 AND PUSH1 0x4 DUP3 ADD MSTORE PUSH1 0x24 DUP2 ADD DUP3 SWAP1 MSTORE PUSH1 0x44 ADD PUSH3 0x7E JUMP JUMPDEST DUP1 DUP1 PUSH3 0x3D5 JUMPI POP PUSH1 0x1 PUSH1 0x1 PUSH1 0xA0 SHL SUB DUP3 AND ISZERO ISZERO JUMPDEST ISZERO PUSH3 0x4BE JUMPI PUSH1 0x0 PUSH3 0x3E8 DUP5 PUSH3 0x577 JUMP JUMPDEST SWAP1 POP PUSH1 0x1 PUSH1 0x1 PUSH1 0xA0 SHL SUB DUP4 AND ISZERO DUP1 ISZERO SWAP1 PUSH3 0x415 JUMPI POP DUP3 PUSH1 0x1 PUSH1 0x1 PUSH1 0xA0 SHL SUB AND DUP2 PUSH1 0x1 PUSH1 0x1 PUSH1 0xA0 SHL SUB AND EQ ISZERO JUMPDEST DUP1 ISZERO PUSH3 0x448 JUMPI POP PUSH1 0x1 PUSH1 0x1 PUSH1 0xA0 SHL SUB DUP1 DUP3 AND PUSH1 0x0 SWAP1 DUP2 MSTORE PUSH1 0x7 PUSH1 0x20 SWAP1 DUP2 MSTORE PUSH1 0x40 DUP1 DUP4 KECCAK256 SWAP4 DUP8 AND DUP4 MSTORE SWAP3 SWAP1 MSTORE KECCAK256 SLOAD PUSH1 0xFF AND ISZERO JUMPDEST ISZERO PUSH3 0x473 JUMPI PUSH1 0x40 MLOAD PUSH4 0xA9FBF51F PUSH1 0xE0 SHL DUP2 MSTORE PUSH1 0x1 PUSH1 0x1 PUSH1 0xA0 SHL SUB DUP5 AND PUSH1 0x4 DUP3 ADD MSTORE PUSH1 0x24 ADD PUSH3 0x7E JUMP JUMPDEST DUP2 ISZERO PUSH3 0x4BC JUMPI DUP4 DUP6 PUSH1 0x1 PUSH1 0x1 PUSH1 0xA0 SHL SUB AND DUP3 PUSH1 0x1 PUSH1 0x1 PUSH1 0xA0 SHL SUB AND PUSH32 0x8C5BE1E5EBEC7D5BD14F71427D1E84F3DD0314C0F7B2291E5B200AC8C7C3B925 PUSH1 0x40 MLOAD PUSH1 0x40 MLOAD DUP1 SWAP2 SUB SWAP1 LOG4 JUMPDEST POP JUMPDEST POP POP PUSH1 0x0 SWAP1 DUP2 MSTORE PUSH1 0x6 PUSH1 0x20 MSTORE PUSH1 0x40 SWAP1 KECCAK256 DUP1 SLOAD PUSH1 0x1 PUSH1 0x1 PUSH1 0xA0 SHL SUB NOT AND PUSH1 0x1 PUSH1 0x1 PUSH1 0xA0 SHL SUB SWAP3 SWAP1 SWAP3 AND SWAP2 SWAP1 SWAP2 OR SWAP1 SSTORE JUMP JUMPDEST PUSH1 0x0 PUSH1 0x1 PUSH1 0x1 PUSH1 0xA0 SHL SUB DUP4 AND ISZERO DUP1 ISZERO SWAP1 PUSH3 0x56F JUMPI POP DUP3 PUSH1 0x1 PUSH1 0x1 PUSH1 0xA0 SHL SUB AND DUP5 PUSH1 0x1 PUSH1 0x1 PUSH1 0xA0 SHL SUB AND EQ DUP1 PUSH3 0x54A JUMPI POP PUSH1 0x1 PUSH1 0x1 PUSH1 0xA0 SHL SUB DUP1 DUP6 AND PUSH1 0x0 SWAP1 DUP2 MSTORE PUSH1 0x7 PUSH1 0x20 SWAP1 DUP2 MSTORE PUSH1 0x40 DUP1 DUP4 KECCAK256 SWAP4 DUP8 AND DUP4 MSTORE SWAP3 SWAP1 MSTORE KECCAK256 SLOAD PUSH1 0xFF AND JUMPDEST DUP1 PUSH3 0x56F JUMPI POP PUSH1 0x0 DUP3 DUP2 MSTORE PUSH1 0x6 PUSH1 0x20 MSTORE PUSH1 0x40 SWAP1 KECCAK256 SLOAD PUSH1 0x1 PUSH1 0x1 PUSH1 0xA0 SHL SUB DUP5 DUP2 AND SWAP2 AND EQ JUMPDEST SWAP5 SWAP4 POP POP POP POP JUMP JUMPDEST PUSH1 0x0 DUP2 DUP2 MSTORE PUSH1 0x4 PUSH1 0x20 MSTORE PUSH1 0x40 DUP2 KECCAK256 SLOAD PUSH1 0x1 PUSH1 0x1 PUSH1 0xA0 SHL SUB AND DUP1 PUSH3 0x5B2 JUMPI PUSH1 0x40 MLOAD PUSH4 0x7E273289 PUSH1 0xE0 SHL DUP2 MSTORE PUSH1 0x4 DUP2 ADD DUP5 SWAP1 MSTORE PUSH1 0x24 ADD PUSH3 0x7E JUMP JUMPDEST SWAP3 SWAP2 POP POP JUMP JUMPDEST PUSH4 0x4E487B71 PUSH1 0xE0 SHL PUSH1 0x0 MSTORE PUSH1 0x41 PUSH1 0x4 MSTORE PUSH1 0x24 PUSH1 0x0 REVERT JUMPDEST PUSH1 0x0 DUP3 PUSH1 0x1F DUP4 ADD SLT PUSH3 0x5E0 JUMPI PUSH1 0x0 DUP1 REVERT JUMPDEST DUP2 MLOAD PUSH1 0x1 PUSH1 0x1 PUSH1 0x40 SHL SUB DUP1 DUP3 GT ISZERO PUSH3 0x5FD JUMPI PUSH3 0x5FD PUSH3 0x5B8 JUMP JUMPDEST PUSH1 0x40 MLOAD PUSH1 0x1F DUP4 ADD PUSH1 0x1F NOT SWAP1 DUP2 AND PUSH1 0x3F ADD AND DUP2 ADD SWAP1 DUP3 DUP3 GT DUP2 DUP4 LT OR ISZERO PUSH3 0x628 JUMPI PUSH3 0x628 PUSH3 0x5B8 JUMP JUMPDEST DUP2 PUSH1 0x40 MSTORE DUP4 DUP2 MSTORE PUSH1 0x20 SWAP3 POP DUP7 PUSH1 0x20 DUP6 DUP9 ADD ADD GT ISZERO PUSH3 0x646 JUMPI PUSH1 0x0 DUP1 REVERT JUMPDEST PUSH1 0x0 SWAP2 POP JUMPDEST DUP4 DUP3 LT ISZERO PUSH3 0x66A JUMPI DUP6 DUP3 ADD DUP4 ADD MLOAD DUP2 DUP4 ADD DUP5 ADD MSTORE SWAP1 DUP3 ADD SWAP1 PUSH3 0x64B JUMP JUMPDEST PUSH1 0x0 PUSH1 0x20 DUP6 DUP4 ADD ADD MSTORE DUP1 SWAP5 POP POP POP POP POP SWAP3 SWAP2 POP POP JUMP JUMPDEST DUP1 MLOAD PUSH1 0x1 PUSH1 0x1 PUSH1 0xA0 SHL SUB DUP2 AND DUP2 EQ PUSH3 0x698 JUMPI PUSH1 0x0 DUP1 REVERT JUMPDEST SWAP2 SWAP1 POP JUMP JUMPDEST PUSH1 0x0 DUP1 PUSH1 0x0 DUP1 PUSH1 0x0 DUP1 PUSH1 0xC0 DUP8 DUP10 SUB SLT ISZERO PUSH3 0x6B7 JUMPI PUSH1 0x0 DUP1 REVERT JUMPDEST DUP7 MLOAD PUSH1 0x1 PUSH1 0x1 PUSH1 0x40 SHL SUB DUP1 DUP3 GT ISZERO PUSH3 0x6CF JUMPI PUSH1 0x0 DUP1 REVERT JUMPDEST PUSH3 0x6DD DUP11 DUP4 DUP12 ADD PUSH3 0x5CE JUMP JUMPDEST SWAP8 POP PUSH1 0x20 DUP10 ADD MLOAD SWAP2 POP DUP1 DUP3 GT ISZERO PUSH3 0x6F4 JUMPI PUSH1 0x0 DUP1 REVERT JUMPDEST PUSH3 0x702 DUP11 DUP4 DUP12 ADD PUSH3 0x5CE JUMP JUMPDEST SWAP7 POP PUSH1 0x40 DUP10 ADD MLOAD SWAP2 POP DUP1 DUP3 GT ISZERO PUSH3 0x719 JUMPI PUSH1 0x0 DUP1 REVERT JUMPDEST POP PUSH3 0x728 DUP10 DUP3 DUP11 ADD PUSH3 0x5CE JUMP JUMPDEST SWAP5 POP POP PUSH3 0x739 PUSH1 0x60 DUP9 ADD PUSH3 0x680 JUMP JUMPDEST SWAP3 POP PUSH3 0x749 PUSH1 0x80 DUP9 ADD PUSH3 0x680 JUMP JUMPDEST PUSH1 0xA0 DUP9 ADD MLOAD SWAP1 SWAP3 POP PUSH1 0x1 PUSH1 0x1 PUSH1 0x60 SHL SUB DUP2 AND DUP2 EQ PUSH3 0x767 JUMPI PUSH1 0x0 DUP1 REVERT JUMPDEST DUP1 SWAP2 POP POP SWAP3 SWAP6 POP SWAP3 SWAP6 POP SWAP3 SWAP6 JUMP JUMPDEST PUSH1 0x1 DUP2 DUP2 SHR SWAP1 DUP3 AND DUP1 PUSH3 0x78A JUMPI PUSH1 0x7F DUP3 AND SWAP2 POP JUMPDEST PUSH1 0x20 DUP3 LT DUP2 SUB PUSH3 0x7AB JUMPI PUSH4 0x4E487B71 PUSH1 0xE0 SHL PUSH1 0x0 MSTORE PUSH1 0x22 PUSH1 0x4 MSTORE PUSH1 0x24 PUSH1 0x0 REVERT JUMPDEST POP SWAP2 SWAP1 POP JUMP JUMPDEST PUSH1 0x1F DUP3 GT ISZERO PUSH3 0x1AB JUMPI PUSH1 0x0 DUP2 PUSH1 0x0 MSTORE PUSH1 0x20 PUSH1 0x0 KECCAK256 PUSH1 0x1F DUP6 ADD PUSH1 0x5 SHR DUP2 ADD PUSH1 0x20 DUP7 LT ISZERO PUSH3 0x7DC JUMPI POP DUP1 JUMPDEST PUSH1 0x1F DUP6 ADD PUSH1 0x5 SHR DUP3 ADD SWAP2 POP JUMPDEST DUP2 DUP2 LT ISZERO PUSH3 0x7FD JUMPI DUP3 DUP2 SSTORE PUSH1 0x1 ADD PUSH3 0x7E8 JUMP JUMPDEST POP POP POP POP POP POP JUMP JUMPDEST DUP2 MLOAD PUSH1 0x1 PUSH1 0x1 PUSH1 0x40 SHL SUB DUP2 GT ISZERO PUSH3 0x821 JUMPI PUSH3 0x821 PUSH3 0x5B8 JUMP JUMPDEST PUSH3 0x839 DUP2 PUSH3 0x832 DUP5 SLOAD PUSH3 0x775 JUMP JUMPDEST DUP5 PUSH3 0x7B1 JUMP JUMPDEST PUSH1 0x20 DUP1 PUSH1 0x1F DUP4 GT PUSH1 0x1 DUP2 EQ PUSH3 0x871 JUMPI PUSH1 0x0 DUP5 ISZERO PUSH3 0x858 JUMPI POP DUP6 DUP4 ADD MLOAD JUMPDEST PUSH1 0x0 NOT PUSH1 0x3 DUP7 SWAP1 SHL SHR NOT AND PUSH1 0x1 DUP6 SWAP1 SHL OR DUP6 SSTORE PUSH3 0x7FD JUMP JUMPDEST PUSH1 0x0 DUP6 DUP2 MSTORE PUSH1 0x20 DUP2 KECCAK256 PUSH1 0x1F NOT DUP7 AND SWAP2 JUMPDEST DUP3 DUP2 LT ISZERO PUSH3 0x8A2 JUMPI DUP9 DUP7 ADD MLOAD DUP3 SSTORE SWAP5 DUP5 ADD SWAP5 PUSH1 0x1 SWAP1 SWAP2 ADD SWAP1 DUP5 ADD PUSH3 0x881 JUMP JUMPDEST POP DUP6 DUP3 LT ISZERO PUSH3 0x8C1 JUMPI DUP8 DUP6 ADD MLOAD PUSH1 0x0 NOT PUSH1 0x3 DUP9 SWAP1 SHL PUSH1 0xF8 AND SHR NOT AND DUP2 SSTORE JUMPDEST POP POP POP POP POP PUSH1 0x1 SWAP1 DUP2 SHL ADD SWAP1 SSTORE POP JUMP JUMPDEST PUSH2 0xFEB DUP1 PUSH3 0x8E1 PUSH1 0x0 CODECOPY PUSH1 0x0 RETURN INVALID PUSH1 0x80 PUSH1 0x40 MSTORE CALLVALUE DUP1 ISZERO PUSH2 0x10 JUMPI PUSH1 0x0 DUP1 REVERT JUMPDEST POP PUSH1 0x4 CALLDATASIZE LT PUSH2 0x10B JUMPI PUSH1 0x0 CALLDATALOAD PUSH1 0xE0 SHR DUP1 PUSH4 0x70A08231 GT PUSH2 0xA2 JUMPI DUP1 PUSH4 0xA22CB465 GT PUSH2 0x71 JUMPI DUP1 PUSH4 0xA22CB465 EQ PUSH2 0x23A JUMPI DUP1 PUSH4 0xB88D4FDE EQ PUSH2 0x24D JUMPI DUP1 PUSH4 0xC87B56DD EQ PUSH2 0x260 JUMPI DUP1 PUSH4 0xE985E9C5 EQ PUSH2 0x273 JUMPI DUP1 PUSH4 0xF2FDE38B EQ PUSH2 0x286 JUMPI PUSH1 0x0 DUP1 REVERT JUMPDEST DUP1 PUSH4 0x70A08231 EQ PUSH2 0x1F8 JUMPI DUP1 PUSH4 0x715018A6 EQ PUSH2 0x219 JUMPI DUP1 PUSH4 0x8DA5CB5B EQ PUSH2 0x221 JUMPI DUP1 PUSH4 0x95D89B41 EQ PUSH2 0x232 JUMPI PUSH1 0x0 DUP1 REVERT JUMPDEST DUP1 PUSH4 0x23B872DD GT PUSH2 0xDE JUMPI DUP1 PUSH4 0x23B872DD EQ PUSH2 0x18D JUMPI DUP1 PUSH4 0x2A55205A EQ PUSH2 0x1A0 JUMPI DUP1 PUSH4 0x42842E0E EQ PUSH2 0x1D2 JUMPI DUP1 PUSH4 0x6352211E EQ PUSH2 0x1E5 JUMPI PUSH1 0x0 DUP1 REVERT JUMPDEST DUP1 PUSH4 0x1FFC9A7 EQ PUSH2 0x110 JUMPI DUP1 PUSH4 0x6FDDE03 EQ PUSH2 0x138 JUMPI DUP1 PUSH4 0x81812FC EQ PUSH2 0x14D JUMPI DUP1 PUSH4 0x95EA7B3 EQ PUSH2 0x178 JUMPI JUMPDEST PUSH1 0x0 DUP1 REVERT JUMPDEST PUSH2 0x123 PUSH2 0x11E CALLDATASIZE PUSH1 0x4 PUSH2 0xC24 JUMP JUMPDEST PUSH2 0x299 JUMP JUMPDEST PUSH1 0x40 MLOAD SWAP1 ISZERO ISZERO DUP2 MSTORE PUSH1 0x20 ADD JUMPDEST PUSH1 0x40 MLOAD DUP1 SWAP2 SUB SWAP1 RETURN JUMPDEST PUSH2 0x140 PUSH2 0x2AA JUMP JUMPDEST PUSH1 0x40 MLOAD PUSH2 0x12F SWAP2 SWAP1 PUSH2 0xC8E JUMP JUMPDEST PUSH2 0x160 PUSH2 0x15B CALLDATASIZE PUSH1 0x4 PUSH2 0xCA1 JUMP JUMPDEST PUSH2 0x33C JUMP JUMPDEST PUSH1 0x40 MLOAD PUSH1 0x1 PUSH1 0x1 PUSH1 0xA0 SHL SUB SWAP1 SWAP2 AND DUP2 MSTORE PUSH1 0x20 ADD PUSH2 0x12F JUMP JUMPDEST PUSH2 0x18B PUSH2 0x186 CALLDATASIZE PUSH1 0x4 PUSH2 0xCD6 JUMP JUMPDEST PUSH2 0x365 JUMP JUMPDEST STOP JUMPDEST PUSH2 0x18B PUSH2 0x19B CALLDATASIZE PUSH1 0x4 PUSH2 0xD00 JUMP JUMPDEST PUSH2 0x374 JUMP JUMPDEST PUSH2 0x1B3 PUSH2 0x1AE CALLDATASIZE PUSH1 0x4 PUSH2 0xD3C JUMP JUMPDEST PUSH2 0x404 JUMP JUMPDEST PUSH1 0x40 DUP1 MLOAD PUSH1 0x1 PUSH1 0x1 PUSH1 0xA0 SHL SUB SWAP1 SWAP4 AND DUP4 MSTORE PUSH1 0x20 DUP4 ADD SWAP2 SWAP1 SWAP2 MSTORE ADD PUSH2 0x12F JUMP JUMPDEST PUSH2 0x18B PUSH2 0x1E0 CALLDATASIZE PUSH1 0x4 PUSH2 0xD00 JUMP JUMPDEST PUSH2 0x4B0 JUMP JUMPDEST PUSH2 0x160 PUSH2 0x1F3 CALLDATASIZE PUSH1 0x4 PUSH2 0xCA1 JUMP JUMPDEST PUSH2 0x4D0 JUMP JUMPDEST PUSH2 0x20B PUSH2 0x206 CALLDATASIZE PUSH1 0x4 PUSH2 0xD5E JUMP JUMPDEST PUSH2 0x4DB JUMP JUMPDEST PUSH1 0x40 MLOAD SWAP1 DUP2 MSTORE PUSH1 0x20 ADD PUSH2 0x12F JUMP JUMPDEST PUSH2 0x18B PUSH2 0x523 JUMP JUMPDEST PUSH1 0x9 SLOAD PUSH1 0x1 PUSH1 0x1 PUSH1 0xA0 SHL SUB AND PUSH2 0x160 JUMP JUMPDEST PUSH2 0x140 PUSH2 0x537 JUMP JUMPDEST PUSH2 0x18B PUSH2 0x248 CALLDATASIZE PUSH1 0x4 PUSH2 0xD79 JUMP JUMPDEST PUSH2 0x546 JUMP JUMPDEST PUSH2 0x18B PUSH2 0x25B CALLDATASIZE PUSH1 0x4 PUSH2 0xDCB JUMP JUMPDEST PUSH2 0x551 JUMP JUMPDEST PUSH2 0x140 PUSH2 0x26E CALLDATASIZE PUSH1 0x4 PUSH2 0xCA1 JUMP JUMPDEST PUSH2 0x568 JUMP JUMPDEST PUSH2 0x123 PUSH2 0x281 CALLDATASIZE PUSH1 0x4 PUSH2 0xEA7 JUMP JUMPDEST PUSH2 0x5A7 JUMP JUMPDEST PUSH2 0x18B PUSH2 0x294 CALLDATASIZE PUSH1 0x4 PUSH2 0xD5E JUMP JUMPDEST PUSH2 0x5D5 JUMP JUMPDEST PUSH1 0x0 PUSH2 0x2A4 DUP3 PUSH2 0x613 JUMP JUMPDEST SWAP3 SWAP2 POP POP JUMP JUMPDEST PUSH1 0x60 PUSH1 0x2 DUP1 SLOAD PUSH2 0x2B9 SWAP1 PUSH2 0xEDA JUMP JUMPDEST DUP1 PUSH1 0x1F ADD PUSH1 0x20 DUP1 SWAP2 DIV MUL PUSH1 0x20 ADD PUSH1 0x40 MLOAD SWAP1 DUP2 ADD PUSH1 0x40 MSTORE DUP1 SWAP3 SWAP2 SWAP1 DUP2 DUP2 MSTORE PUSH1 0x20 ADD DUP3 DUP1 SLOAD PUSH2 0x2E5 SWAP1 PUSH2 0xEDA JUMP JUMPDEST DUP1 ISZERO PUSH2 0x332 JUMPI DUP1 PUSH1 0x1F LT PUSH2 0x307 JUMPI PUSH2 0x100 DUP1 DUP4 SLOAD DIV MUL DUP4 MSTORE SWAP2 PUSH1 0x20 ADD SWAP2 PUSH2 0x332 JUMP JUMPDEST DUP3 ADD SWAP2 SWAP1 PUSH1 0x0 MSTORE PUSH1 0x20 PUSH1 0x0 KECCAK256 SWAP1 JUMPDEST DUP2 SLOAD DUP2 MSTORE SWAP1 PUSH1 0x1 ADD SWAP1 PUSH1 0x20 ADD DUP1 DUP4 GT PUSH2 0x315 JUMPI DUP3 SWAP1 SUB PUSH1 0x1F AND DUP3 ADD SWAP2 JUMPDEST POP POP POP POP POP SWAP1 POP SWAP1 JUMP JUMPDEST PUSH1 0x0 PUSH2 0x347 DUP3 PUSH2 0x61E JUMP JUMPDEST POP PUSH1 0x0 DUP3 DUP2 MSTORE PUSH1 0x6 PUSH1 0x20 MSTORE PUSH1 0x40 SWAP1 KECCAK256 SLOAD PUSH1 0x1 PUSH1 0x1 PUSH1 0xA0 SHL SUB AND PUSH2 0x2A4 JUMP JUMPDEST PUSH2 0x370 DUP3 DUP3 CALLER PUSH2 0x657 JUMP JUMPDEST POP POP JUMP JUMPDEST PUSH1 0x1 PUSH1 0x1 PUSH1 0xA0 SHL SUB DUP3 AND PUSH2 0x3A3 JUMPI PUSH1 0x40 MLOAD PUSH4 0x32505749 PUSH1 0xE1 SHL DUP2 MSTORE PUSH1 0x0 PUSH1 0x4 DUP3 ADD MSTORE PUSH1 0x24 ADD JUMPDEST PUSH1 0x40 MLOAD DUP1 SWAP2 SUB SWAP1 REVERT JUMPDEST PUSH1 0x0 PUSH2 0x3B0 DUP4 DUP4 CALLER PUSH2 0x664 JUMP JUMPDEST SWAP1 POP DUP4 PUSH1 0x1 PUSH1 0x1 PUSH1 0xA0 SHL SUB AND DUP2 PUSH1 0x1 PUSH1 0x1 PUSH1 0xA0 SHL SUB AND EQ PUSH2 0x3FE JUMPI PUSH1 0x40 MLOAD PUSH4 0x64283D7B PUSH1 0xE0 SHL DUP2 MSTORE PUSH1 0x1 PUSH1 0x1 PUSH1 0xA0 SHL SUB DUP1 DUP7 AND PUSH1 0x4 DUP4 ADD MSTORE PUSH1 0x24 DUP3 ADD DUP5 SWAP1 MSTORE DUP3 AND PUSH1 0x44 DUP3 ADD MSTORE PUSH1 0x64 ADD PUSH2 0x39A JUMP JUMPDEST POP POP POP POP JUMP JUMPDEST PUSH1 0x0 DUP3 DUP2 MSTORE PUSH1 0x1 PUSH1 0x20 SWAP1 DUP2 MSTORE PUSH1 0x40 DUP1 DUP4 KECCAK256 DUP2 MLOAD DUP1 DUP4 ADD SWAP1 SWAP3 MSTORE SLOAD PUSH1 0x1 PUSH1 0x1 PUSH1 0xA0 SHL SUB DUP2 AND DUP1 DUP4 MSTORE PUSH1 0x1 PUSH1 0xA0 SHL SWAP1 SWAP2 DIV PUSH1 0x1 PUSH1 0x1 PUSH1 0x60 SHL SUB AND SWAP3 DUP3 ADD SWAP3 SWAP1 SWAP3 MSTORE DUP3 SWAP2 PUSH2 0x479 JUMPI POP PUSH1 0x40 DUP1 MLOAD DUP1 DUP3 ADD SWAP1 SWAP2 MSTORE PUSH1 0x0 SLOAD PUSH1 0x1 PUSH1 0x1 PUSH1 0xA0 SHL SUB DUP2 AND DUP3 MSTORE PUSH1 0x1 PUSH1 0xA0 SHL SWAP1 DIV PUSH1 0x1 PUSH1 0x1 PUSH1 0x60 SHL SUB AND PUSH1 0x20 DUP3 ADD MSTORE JUMPDEST PUSH1 0x20 DUP2 ADD MLOAD PUSH1 0x0 SWAP1 PUSH2 0x2710 SWAP1 PUSH2 0x498 SWAP1 PUSH1 0x1 PUSH1 0x1 PUSH1 0x60 SHL SUB AND DUP8 PUSH2 0xF14 JUMP JUMPDEST PUSH2 0x4A2 SWAP2 SWAP1 PUSH2 0xF39 JUMP JUMPDEST SWAP2 MLOAD SWAP7 SWAP2 SWAP6 POP SWAP1 SWAP4 POP POP POP POP JUMP JUMPDEST PUSH2 0x4CB DUP4 DUP4 DUP4 PUSH1 0x40 MLOAD DUP1 PUSH1 0x20 ADD PUSH1 0x40 MSTORE DUP1 PUSH1 0x0 DUP2 MSTORE POP PUSH2 0x551 JUMP JUMPDEST POP POP POP JUMP JUMPDEST PUSH1 0x0 PUSH2 0x2A4 DUP3 PUSH2 0x61E JUMP JUMPDEST PUSH1 0x0 PUSH1 0x1 PUSH1 0x1 PUSH1 0xA0 SHL SUB DUP3 AND PUSH2 0x507 JUMPI PUSH1 0x40 MLOAD PUSH4 0x22718AD9 PUSH1 0xE2 SHL DUP2 MSTORE PUSH1 0x0 PUSH1 0x4 DUP3 ADD MSTORE PUSH1 0x24 ADD PUSH2 0x39A JUMP JUMPDEST POP PUSH1 0x1 PUSH1 0x1 PUSH1 0xA0 SHL SUB AND PUSH1 0x0 SWAP1 DUP2 MSTORE PUSH1 0x5 PUSH1 0x20 MSTORE PUSH1 0x40 SWAP1 KECCAK256 SLOAD SWAP1 JUMP JUMPDEST PUSH2 0x52B PUSH2 0x75D JUMP JUMPDEST PUSH2 0x535 PUSH1 0x0 PUSH2 0x78A JUMP JUMPDEST JUMP JUMPDEST PUSH1 0x60 PUSH1 0x3 DUP1 SLOAD PUSH2 0x2B9 SWAP1 PUSH2 0xEDA JUMP JUMPDEST PUSH2 0x370 CALLER DUP4 DUP4 PUSH2 0x7DC JUMP JUMPDEST PUSH2 0x55C DUP5 DUP5 DUP5 PUSH2 0x374 JUMP JUMPDEST PUSH2 0x3FE DUP5 DUP5 DUP5 DUP5 PUSH2 0x87B JUMP JUMPDEST PUSH1 0x60 DUP2 ISZERO PUSH2 0x593 JUMPI POP POP PUSH1 0x40 DUP1 MLOAD DUP1 DUP3 ADD SWAP1 SWAP2 MSTORE PUSH1 0x7 DUP2 MSTORE PUSH7 0x4E6F2055524921 PUSH1 0xC8 SHL PUSH1 0x20 DUP3 ADD MSTORE SWAP1 JUMP JUMPDEST PUSH1 0x40 DUP1 MLOAD PUSH1 0x20 DUP2 ADD SWAP1 SWAP2 MSTORE PUSH1 0x0 DUP2 MSTORE PUSH2 0x2A4 JUMP JUMPDEST PUSH1 0x1 PUSH1 0x1 PUSH1 0xA0 SHL SUB SWAP2 DUP3 AND PUSH1 0x0 SWAP1 DUP2 MSTORE PUSH1 0x7 PUSH1 0x20 SWAP1 DUP2 MSTORE PUSH1 0x40 DUP1 DUP4 KECCAK256 SWAP4 SWAP1 SWAP5 AND DUP3 MSTORE SWAP2 SWAP1 SWAP2 MSTORE KECCAK256 SLOAD PUSH1 0xFF AND SWAP1 JUMP JUMPDEST PUSH2 0x5DD PUSH2 0x75D JUMP JUMPDEST PUSH1 0x1 PUSH1 0x1 PUSH1 0xA0 SHL SUB DUP2 AND PUSH2 0x607 JUMPI PUSH1 0x40 MLOAD PUSH4 0x1E4FBDF7 PUSH1 0xE0 SHL DUP2 MSTORE PUSH1 0x0 PUSH1 0x4 DUP3 ADD MSTORE PUSH1 0x24 ADD PUSH2 0x39A JUMP JUMPDEST PUSH2 0x610 DUP2 PUSH2 0x78A JUMP JUMPDEST POP JUMP JUMPDEST PUSH1 0x0 PUSH2 0x2A4 DUP3 PUSH2 0x9A4 JUMP JUMPDEST PUSH1 0x0 DUP2 DUP2 MSTORE PUSH1 0x4 PUSH1 0x20 MSTORE PUSH1 0x40 DUP2 KECCAK256 SLOAD PUSH1 0x1 PUSH1 0x1 PUSH1 0xA0 SHL SUB AND DUP1 PUSH2 0x2A4 JUMPI PUSH1 0x40 MLOAD PUSH4 0x7E273289 PUSH1 0xE0 SHL DUP2 MSTORE PUSH1 0x4 DUP2 ADD DUP5 SWAP1 MSTORE PUSH1 0x24 ADD PUSH2 0x39A JUMP JUMPDEST PUSH2 0x4CB DUP4 DUP4 DUP4 PUSH1 0x1 PUSH2 0x9C9 JUMP JUMPDEST PUSH1 0x0 DUP3 DUP2 MSTORE PUSH1 0x4 PUSH1 0x20 MSTORE PUSH1 0x40 DUP2 KECCAK256 SLOAD PUSH1 0x1 PUSH1 0x1 PUSH1 0xA0 SHL SUB SWAP1 DUP2 AND SWAP1 DUP4 AND ISZERO PUSH2 0x691 JUMPI PUSH2 0x691 DUP2 DUP5 DUP7 PUSH2 0xACF JUMP JUMPDEST PUSH1 0x1 PUSH1 0x1 PUSH1 0xA0 SHL SUB DUP2 AND ISZERO PUSH2 0x6CF JUMPI PUSH2 0x6AE PUSH1 0x0 DUP6 PUSH1 0x0 DUP1 PUSH2 0x9C9 JUMP JUMPDEST PUSH1 0x1 PUSH1 0x1 PUSH1 0xA0 SHL SUB DUP2 AND PUSH1 0x0 SWAP1 DUP2 MSTORE PUSH1 0x5 PUSH1 0x20 MSTORE PUSH1 0x40 SWAP1 KECCAK256 DUP1 SLOAD PUSH1 0x0 NOT ADD SWAP1 SSTORE JUMPDEST PUSH1 0x1 PUSH1 0x1 PUSH1 0xA0 SHL SUB DUP6 AND ISZERO PUSH2 0x6FE JUMPI PUSH1 0x1 PUSH1 0x1 PUSH1 0xA0 SHL SUB DUP6 AND PUSH1 0x0 SWAP1 DUP2 MSTORE PUSH1 0x5 PUSH1 0x20 MSTORE PUSH1 0x40 SWAP1 KECCAK256 DUP1 SLOAD PUSH1 0x1 ADD SWAP1 SSTORE JUMPDEST PUSH1 0x0 DUP5 DUP2 MSTORE PUSH1 0x4 PUSH1 0x20 MSTORE PUSH1 0x40 DUP1 DUP3 KECCAK256 DUP1 SLOAD PUSH1 0x1 PUSH1 0x1 PUSH1 0xA0 SHL SUB NOT AND PUSH1 0x1 PUSH1 0x1 PUSH1 0xA0 SHL SUB DUP10 DUP2 AND SWAP2 DUP3 OR SWAP1 SWAP3 SSTORE SWAP2 MLOAD DUP8 SWAP4 SWAP2 DUP6 AND SWAP2 PUSH32 0xDDF252AD1BE2C89B69C2B068FC378DAA952BA7F163C4A11628F55A4DF523B3EF SWAP2 LOG4 SWAP5 SWAP4 POP POP POP POP JUMP JUMPDEST PUSH1 0x9 SLOAD PUSH1 0x1 PUSH1 0x1 PUSH1 0xA0 SHL SUB AND CALLER EQ PUSH2 0x535 JUMPI PUSH1 0x40 MLOAD PUSH4 0x118CDAA7 PUSH1 0xE0 SHL DUP2 MSTORE CALLER PUSH1 0x4 DUP3 ADD MSTORE PUSH1 0x24 ADD PUSH2 0x39A JUMP JUMPDEST PUSH1 0x9 DUP1 SLOAD PUSH1 0x1 PUSH1 0x1 PUSH1 0xA0 SHL SUB DUP4 DUP2 AND PUSH1 0x1 PUSH1 0x1 PUSH1 0xA0 SHL SUB NOT DUP4 AND DUP2 OR SWAP1 SWAP4 SSTORE PUSH1 0x40 MLOAD SWAP2 AND SWAP2 SWAP1 DUP3 SWAP1 PUSH32 0x8BE0079C531659141344CD1FD0A4F28419497F9722A3DAAFE3B4186F6B6457E0 SWAP1 PUSH1 0x0 SWAP1 LOG3 POP POP JUMP JUMPDEST PUSH1 0x1 PUSH1 0x1 PUSH1 0xA0 SHL SUB DUP3 AND PUSH2 0x80E JUMPI PUSH1 0x40 MLOAD PUSH4 0xB611743 PUSH1 0xE3 SHL DUP2 MSTORE PUSH1 0x1 PUSH1 0x1 PUSH1 0xA0 SHL SUB DUP4 AND PUSH1 0x4 DUP3 ADD MSTORE PUSH1 0x24 ADD PUSH2 0x39A JUMP JUMPDEST PUSH1 0x1 PUSH1 0x1 PUSH1 0xA0 SHL SUB DUP4 DUP2 AND PUSH1 0x0 DUP2 DUP2 MSTORE PUSH1 0x7 PUSH1 0x20 SWAP1 DUP2 MSTORE PUSH1 0x40 DUP1 DUP4 KECCAK256 SWAP5 DUP8 AND DUP1 DUP5 MSTORE SWAP5 DUP3 MSTORE SWAP2 DUP3 SWAP1 KECCAK256 DUP1 SLOAD PUSH1 0xFF NOT AND DUP7 ISZERO ISZERO SWAP1 DUP2 OR SWAP1 SWAP2 SSTORE SWAP2 MLOAD SWAP2 DUP3 MSTORE PUSH32 0x17307EAB39AB6107E8899845AD3D59BD9653F200F220920489CA2B5937696C31 SWAP2 ADD PUSH1 0x40 MLOAD DUP1 SWAP2 SUB SWAP1 LOG3 POP POP POP JUMP JUMPDEST PUSH1 0x1 PUSH1 0x1 PUSH1 0xA0 SHL SUB DUP4 AND EXTCODESIZE ISZERO PUSH2 0x3FE JUMPI PUSH1 0x40 MLOAD PUSH4 0xA85BD01 PUSH1 0xE1 SHL DUP2 MSTORE PUSH1 0x1 PUSH1 0x1 PUSH1 0xA0 SHL SUB DUP5 AND SWAP1 PUSH4 0x150B7A02 SWAP1 PUSH2 0x8BD SWAP1 CALLER SWAP1 DUP9 SWAP1 DUP8 SWAP1 DUP8 SWAP1 PUSH1 0x4 ADD PUSH2 0xF5B JUMP JUMPDEST PUSH1 0x20 PUSH1 0x40 MLOAD DUP1 DUP4 SUB DUP2 PUSH1 0x0 DUP8 GAS CALL SWAP3 POP POP POP DUP1 ISZERO PUSH2 0x8F8 JUMPI POP PUSH1 0x40 DUP1 MLOAD PUSH1 0x1F RETURNDATASIZE SWAP1 DUP2 ADD PUSH1 0x1F NOT AND DUP3 ADD SWAP1 SWAP3 MSTORE PUSH2 0x8F5 SWAP2 DUP2 ADD SWAP1 PUSH2 0xF98 JUMP JUMPDEST PUSH1 0x1 JUMPDEST PUSH2 0x961 JUMPI RETURNDATASIZE DUP1 DUP1 ISZERO PUSH2 0x926 JUMPI PUSH1 0x40 MLOAD SWAP2 POP PUSH1 0x1F NOT PUSH1 0x3F RETURNDATASIZE ADD AND DUP3 ADD PUSH1 0x40 MSTORE RETURNDATASIZE DUP3 MSTORE RETURNDATASIZE PUSH1 0x0 PUSH1 0x20 DUP5 ADD RETURNDATACOPY PUSH2 0x92B JUMP JUMPDEST PUSH1 0x60 SWAP2 POP JUMPDEST POP DUP1 MLOAD PUSH1 0x0 SUB PUSH2 0x959 JUMPI PUSH1 0x40 MLOAD PUSH4 0x32505749 PUSH1 0xE1 SHL DUP2 MSTORE PUSH1 0x1 PUSH1 0x1 PUSH1 0xA0 SHL SUB DUP6 AND PUSH1 0x4 DUP3 ADD MSTORE PUSH1 0x24 ADD PUSH2 0x39A JUMP JUMPDEST DUP1 MLOAD DUP2 PUSH1 0x20 ADD REVERT JUMPDEST PUSH1 0x1 PUSH1 0x1 PUSH1 0xE0 SHL SUB NOT DUP2 AND PUSH4 0xA85BD01 PUSH1 0xE1 SHL EQ PUSH2 0x99D JUMPI PUSH1 0x40 MLOAD PUSH4 0x32505749 PUSH1 0xE1 SHL DUP2 MSTORE PUSH1 0x1 PUSH1 0x1 PUSH1 0xA0 SHL SUB DUP6 AND PUSH1 0x4 DUP3 ADD MSTORE PUSH1 0x24 ADD PUSH2 0x39A JUMP JUMPDEST POP POP POP POP POP JUMP JUMPDEST PUSH1 0x0 PUSH1 0x1 PUSH1 0x1 PUSH1 0xE0 SHL SUB NOT DUP3 AND PUSH4 0x24832483 PUSH1 0xE1 SHL EQ DUP1 PUSH2 0x2A4 JUMPI POP PUSH2 0x2A4 DUP3 PUSH2 0xB33 JUMP JUMPDEST DUP1 DUP1 PUSH2 0x9DD JUMPI POP PUSH1 0x1 PUSH1 0x1 PUSH1 0xA0 SHL SUB DUP3 AND ISZERO ISZERO JUMPDEST ISZERO PUSH2 0xA9F JUMPI PUSH1 0x0 PUSH2 0x9ED DUP5 PUSH2 0x61E JUMP JUMPDEST SWAP1 POP PUSH1 0x1 PUSH1 0x1 PUSH1 0xA0 SHL SUB DUP4 AND ISZERO DUP1 ISZERO SWAP1 PUSH2 0xA19 JUMPI POP DUP3 PUSH1 0x1 PUSH1 0x1 PUSH1 0xA0 SHL SUB AND DUP2 PUSH1 0x1 PUSH1 0x1 PUSH1 0xA0 SHL SUB AND EQ ISZERO JUMPDEST DUP1 ISZERO PUSH2 0xA2C JUMPI POP PUSH2 0xA2A DUP2 DUP5 PUSH2 0x5A7 JUMP JUMPDEST ISZERO JUMPDEST ISZERO PUSH2 0xA55 JUMPI PUSH1 0x40 MLOAD PUSH4 0xA9FBF51F PUSH1 0xE0 SHL DUP2 MSTORE PUSH1 0x1 PUSH1 0x1 PUSH1 0xA0 SHL SUB DUP5 AND PUSH1 0x4 DUP3 ADD MSTORE PUSH1 0x24 ADD PUSH2 0x39A JUMP JUMPDEST DUP2 ISZERO PUSH2 0xA9D JUMPI DUP4 DUP6 PUSH1 0x1 PUSH1 0x1 PUSH1 0xA0 SHL SUB AND DUP3 PUSH1 0x1 PUSH1 0x1 PUSH1 0xA0 SHL SUB AND PUSH32 0x8C5BE1E5EBEC7D5BD14F71427D1E84F3DD0314C0F7B2291E5B200AC8C7C3B925 PUSH1 0x40 MLOAD PUSH1 0x40 MLOAD DUP1 SWAP2 SUB SWAP1 LOG4 JUMPDEST POP JUMPDEST POP POP PUSH1 0x0 SWAP1 DUP2 MSTORE PUSH1 0x6 PUSH1 0x20 MSTORE PUSH1 0x40 SWAP1 KECCAK256 DUP1 SLOAD PUSH1 0x1 PUSH1 0x1 PUSH1 0xA0 SHL SUB NOT AND PUSH1 0x1 PUSH1 0x1 PUSH1 0xA0 SHL SUB SWAP3 SWAP1 SWAP3 AND SWAP2 SWAP1 SWAP2 OR SWAP1 SSTORE JUMP JUMPDEST PUSH2 0xADA DUP4 DUP4 DUP4 PUSH2 0xB73 JUMP JUMPDEST PUSH2 0x4CB JUMPI PUSH1 0x1 PUSH1 0x1 PUSH1 0xA0 SHL SUB DUP4 AND PUSH2 0xB08 JUMPI PUSH1 0x40 MLOAD PUSH4 0x7E273289 PUSH1 0xE0 SHL DUP2 MSTORE PUSH1 0x4 DUP2 ADD DUP3 SWAP1 MSTORE PUSH1 0x24 ADD PUSH2 0x39A JUMP JUMPDEST PUSH1 0x40 MLOAD PUSH4 0x177E802F PUSH1 0xE0 SHL DUP2 MSTORE PUSH1 0x1 PUSH1 0x1 PUSH1 0xA0 SHL SUB DUP4 AND PUSH1 0x4 DUP3 ADD MSTORE PUSH1 0x24 DUP2 ADD DUP3 SWAP1 MSTORE PUSH1 0x44 ADD PUSH2 0x39A JUMP JUMPDEST PUSH1 0x0 PUSH1 0x1 PUSH1 0x1 PUSH1 0xE0 SHL SUB NOT DUP3 AND PUSH4 0x80AC58CD PUSH1 0xE0 SHL EQ DUP1 PUSH2 0xB64 JUMPI POP PUSH1 0x1 PUSH1 0x1 PUSH1 0xE0 SHL SUB NOT DUP3 AND PUSH4 0x5B5E139F PUSH1 0xE0 SHL EQ JUMPDEST DUP1 PUSH2 0x2A4 JUMPI POP PUSH2 0x2A4 DUP3 PUSH2 0xBD9 JUMP JUMPDEST PUSH1 0x0 PUSH1 0x1 PUSH1 0x1 PUSH1 0xA0 SHL SUB DUP4 AND ISZERO DUP1 ISZERO SWAP1 PUSH2 0xBD1 JUMPI POP DUP3 PUSH1 0x1 PUSH1 0x1 PUSH1 0xA0 SHL SUB AND DUP5 PUSH1 0x1 PUSH1 0x1 PUSH1 0xA0 SHL SUB AND EQ DUP1 PUSH2 0xBAD JUMPI POP PUSH2 0xBAD DUP5 DUP5 PUSH2 0x5A7 JUMP JUMPDEST DUP1 PUSH2 0xBD1 JUMPI POP PUSH1 0x0 DUP3 DUP2 MSTORE PUSH1 0x6 PUSH1 0x20 MSTORE PUSH1 0x40 SWAP1 KECCAK256 SLOAD PUSH1 0x1 PUSH1 0x1 PUSH1 0xA0 SHL SUB DUP5 DUP2 AND SWAP2 AND EQ JUMPDEST SWAP5 SWAP4 POP POP POP POP JUMP JUMPDEST PUSH1 0x0 PUSH1 0x1 PUSH1 0x1 PUSH1 0xE0 SHL SUB NOT DUP3 AND PUSH4 0x152A902D PUSH1 0xE1 SHL EQ DUP1 PUSH2 0x2A4 JUMPI POP PUSH4 0x1FFC9A7 PUSH1 0xE0 SHL PUSH1 0x1 PUSH1 0x1 PUSH1 0xE0 SHL SUB NOT DUP4 AND EQ PUSH2 0x2A4 JUMP JUMPDEST PUSH1 0x1 PUSH1 0x1 PUSH1 0xE0 SHL SUB NOT DUP2 AND DUP2 EQ PUSH2 0x610 JUMPI PUSH1 0x0 DUP1 REVERT JUMPDEST PUSH1 0x0 PUSH1 0x20 DUP3 DUP5 SUB SLT ISZERO PUSH2 0xC36 JUMPI PUSH1 0x0 DUP1 REVERT JUMPDEST DUP2 CALLDATALOAD PUSH2 0xC41 DUP2 PUSH2 0xC0E JUMP JUMPDEST SWAP4 SWAP3 POP POP POP JUMP JUMPDEST PUSH1 0x0 DUP2 MLOAD DUP1 DUP5 MSTORE PUSH1 0x0 JUMPDEST DUP2 DUP2 LT ISZERO PUSH2 0xC6E JUMPI PUSH1 0x20 DUP2 DUP6 ADD DUP2 ADD MLOAD DUP7 DUP4 ADD DUP3 ADD MSTORE ADD PUSH2 0xC52 JUMP JUMPDEST POP PUSH1 0x0 PUSH1 0x20 DUP3 DUP7 ADD ADD MSTORE PUSH1 0x20 PUSH1 0x1F NOT PUSH1 0x1F DUP4 ADD AND DUP6 ADD ADD SWAP2 POP POP SWAP3 SWAP2 POP POP JUMP JUMPDEST PUSH1 0x20 DUP2 MSTORE PUSH1 0x0 PUSH2 0xC41 PUSH1 0x20 DUP4 ADD DUP5 PUSH2 0xC48 JUMP JUMPDEST PUSH1 0x0 PUSH1 0x20 DUP3 DUP5 SUB SLT ISZERO PUSH2 0xCB3 JUMPI PUSH1 0x0 DUP1 REVERT JUMPDEST POP CALLDATALOAD SWAP2 SWAP1 POP JUMP JUMPDEST DUP1 CALLDATALOAD PUSH1 0x1 PUSH1 0x1 PUSH1 0xA0 SHL SUB DUP2 AND DUP2 EQ PUSH2 0xCD1 JUMPI PUSH1 0x0 DUP1 REVERT JUMPDEST SWAP2 SWAP1 POP JUMP JUMPDEST PUSH1 0x0 DUP1 PUSH1 0x40 DUP4 DUP6 SUB SLT ISZERO PUSH2 0xCE9 JUMPI PUSH1 0x0 DUP1 REVERT JUMPDEST PUSH2 0xCF2 DUP4 PUSH2 0xCBA JUMP JUMPDEST SWAP5 PUSH1 0x20 SWAP4 SWAP1 SWAP4 ADD CALLDATALOAD SWAP4 POP POP POP JUMP JUMPDEST PUSH1 0x0 DUP1 PUSH1 0x0 PUSH1 0x60 DUP5 DUP7 SUB SLT ISZERO PUSH2 0xD15 JUMPI PUSH1 0x0 DUP1 REVERT JUMPDEST PUSH2 0xD1E DUP5 PUSH2 0xCBA JUMP JUMPDEST SWAP3 POP PUSH2 0xD2C PUSH1 0x20 DUP6 ADD PUSH2 0xCBA JUMP JUMPDEST SWAP2 POP PUSH1 0x40 DUP5 ADD CALLDATALOAD SWAP1 POP SWAP3 POP SWAP3 POP SWAP3 JUMP JUMPDEST PUSH1 0x0 DUP1 PUSH1 0x40 DUP4 DUP6 SUB SLT ISZERO PUSH2 0xD4F JUMPI PUSH1 0x0 DUP1 REVERT JUMPDEST POP POP DUP1 CALLDATALOAD SWAP3 PUSH1 0x20 SWAP1 SWAP2 ADD CALLDATALOAD SWAP2 POP JUMP JUMPDEST PUSH1 0x0 PUSH1 0x20 DUP3 DUP5 SUB SLT ISZERO PUSH2 0xD70 JUMPI PUSH1 0x0 DUP1 REVERT JUMPDEST PUSH2 0xC41 DUP3 PUSH2 0xCBA JUMP JUMPDEST PUSH1 0x0 DUP1 PUSH1 0x40 DUP4 DUP6 SUB SLT ISZERO PUSH2 0xD8C JUMPI PUSH1 0x0 DUP1 REVERT JUMPDEST PUSH2 0xD95 DUP4 PUSH2 0xCBA JUMP JUMPDEST SWAP2 POP PUSH1 0x20 DUP4 ADD CALLDATALOAD DUP1 ISZERO ISZERO DUP2 EQ PUSH2 0xDAA JUMPI PUSH1 0x0 DUP1 REVERT JUMPDEST DUP1 SWAP2 POP POP SWAP3 POP SWAP3 SWAP1 POP JUMP JUMPDEST PUSH4 0x4E487B71 PUSH1 0xE0 SHL PUSH1 0x0 MSTORE PUSH1 0x41 PUSH1 0x4 MSTORE PUSH1 0x24 PUSH1 0x0 REVERT JUMPDEST PUSH1 0x0 DUP1 PUSH1 0x0 DUP1 PUSH1 0x80 DUP6 DUP8 SUB SLT ISZERO PUSH2 0xDE1 JUMPI PUSH1 0x0 DUP1 REVERT JUMPDEST PUSH2 0xDEA DUP6 PUSH2 0xCBA JUMP JUMPDEST SWAP4 POP PUSH2 0xDF8 PUSH1 0x20 DUP7 ADD PUSH2 0xCBA JUMP JUMPDEST SWAP3 POP PUSH1 0x40 DUP6 ADD CALLDATALOAD SWAP2 POP PUSH1 0x60 DUP6 ADD CALLDATALOAD PUSH8 0xFFFFFFFFFFFFFFFF DUP1 DUP3 GT ISZERO PUSH2 0xE1C JUMPI PUSH1 0x0 DUP1 REVERT JUMPDEST DUP2 DUP8 ADD SWAP2 POP DUP8 PUSH1 0x1F DUP4 ADD SLT PUSH2 0xE30 JUMPI PUSH1 0x0 DUP1 REVERT JUMPDEST DUP2 CALLDATALOAD DUP2 DUP2 GT ISZERO PUSH2 0xE42 JUMPI PUSH2 0xE42 PUSH2 0xDB5 JUMP JUMPDEST PUSH1 0x40 MLOAD PUSH1 0x1F DUP3 ADD PUSH1 0x1F NOT SWAP1 DUP2 AND PUSH1 0x3F ADD AND DUP2 ADD SWAP1 DUP4 DUP3 GT DUP2 DUP4 LT OR ISZERO PUSH2 0xE6A JUMPI PUSH2 0xE6A PUSH2 0xDB5 JUMP JUMPDEST DUP2 PUSH1 0x40 MSTORE DUP3 DUP2 MSTORE DUP11 PUSH1 0x20 DUP5 DUP8 ADD ADD GT ISZERO PUSH2 0xE83 JUMPI PUSH1 0x0 DUP1 REVERT JUMPDEST DUP3 PUSH1 0x20 DUP7 ADD PUSH1 0x20 DUP4 ADD CALLDATACOPY PUSH1 0x0 PUSH1 0x20 DUP5 DUP4 ADD ADD MSTORE DUP1 SWAP6 POP POP POP POP POP POP SWAP3 SWAP6 SWAP2 SWAP5 POP SWAP3 POP JUMP JUMPDEST PUSH1 0x0 DUP1 PUSH1 0x40 DUP4 DUP6 SUB SLT ISZERO PUSH2 0xEBA JUMPI PUSH1 0x0 DUP1 REVERT JUMPDEST PUSH2 0xEC3 DUP4 PUSH2 0xCBA JUMP JUMPDEST SWAP2 POP PUSH2 0xED1 PUSH1 0x20 DUP5 ADD PUSH2 0xCBA JUMP JUMPDEST SWAP1 POP SWAP3 POP SWAP3 SWAP1 POP JUMP JUMPDEST PUSH1 0x1 DUP2 DUP2 SHR SWAP1 DUP3 AND DUP1 PUSH2 0xEEE JUMPI PUSH1 0x7F DUP3 AND SWAP2 POP JUMPDEST PUSH1 0x20 DUP3 LT DUP2 SUB PUSH2 0xF0E JUMPI PUSH4 0x4E487B71 PUSH1 0xE0 SHL PUSH1 0x0 MSTORE PUSH1 0x22 PUSH1 0x4 MSTORE PUSH1 0x24 PUSH1 0x0 REVERT JUMPDEST POP SWAP2 SWAP1 POP JUMP JUMPDEST DUP1 DUP3 MUL DUP2 ISZERO DUP3 DUP3 DIV DUP5 EQ OR PUSH2 0x2A4 JUMPI PUSH4 0x4E487B71 PUSH1 0xE0 SHL PUSH1 0x0 MSTORE PUSH1 0x11 PUSH1 0x4 MSTORE PUSH1 0x24 PUSH1 0x0 REVERT JUMPDEST PUSH1 0x0 DUP3 PUSH2 0xF56 JUMPI PUSH4 0x4E487B71 PUSH1 0xE0 SHL PUSH1 0x0 MSTORE PUSH1 0x12 PUSH1 0x4 MSTORE PUSH1 0x24 PUSH1 0x0 REVERT JUMPDEST POP DIV SWAP1 JUMP JUMPDEST PUSH1 0x1 PUSH1 0x1 PUSH1 0xA0 SHL SUB DUP6 DUP2 AND DUP3 MSTORE DUP5 AND PUSH1 0x20 DUP3 ADD MSTORE PUSH1 0x40 DUP2 ADD DUP4 SWAP1 MSTORE PUSH1 0x80 PUSH1 0x60 DUP3 ADD DUP2 SWAP1 MSTORE PUSH1 0x0 SWAP1 PUSH2 0xF8E SWAP1 DUP4 ADD DUP5 PUSH2 0xC48 JUMP JUMPDEST SWAP7 SWAP6 POP POP POP POP POP POP JUMP JUMPDEST PUSH1 0x0 PUSH1 0x20 DUP3 DUP5 SUB SLT ISZERO PUSH2 0xFAA JUMPI PUSH1 0x0 DUP1 REVERT JUMPDEST DUP2 MLOAD PUSH2 0xC41 DUP2 PUSH2 0xC0E JUMP INVALID LOG2 PUSH5 0x6970667358 0x22 SLT KECCAK256 0xAF SWAP2 0xA7 SWAP10 CODECOPY 0x4C 0x4B 0xBB CALLVALUE 0x21 0xD0 0xD1 0xE8 RETURN 0xB1 STOP DUP13 0x4D 0x27 PUSH30 0x7847E086569F4BF21156933E64736F6C63430008180033A2646970667358 0x22 SLT KECCAK256 0xC SHL SHR 0xE0 0xE0 0xAB DUP1 SWAP4 PUSH0 0x29 LOG2 0xC0 ADDMOD MUL 0xB8 0xC2 PUSH13 0x326D2440B29EE3DB7D1C0AF906 0xC 0xDE PUSH5 0x736F6C6343 STOP ADDMOD XOR STOP CALLER "},"methodIdentifiers":{"blacklist(address)":"f9f92be4","checkWhitelisted(address)":"20d8dad0","collectionFee()":"6ada44c7","collections(uint256)":"fdbda0ec","createCollection(string,string,string,address,address,uint96,uint256)":"0ac9299c","createSingleNft(string,string,string,address,address,uint96)":"99af7dad","isWhitelisted(address)":"3af32abf","myCollections(address,uint256)":"f6890b0d","myNfts(address,uint256)":"3b8c9325","owner()":"8da5cb5b","renounceOwnership()":"715018a6","singleNftFee()":"535f8d01","singleNfts(uint256)":"3cf5f7dc","transferOwnership(address)":"f2fde38b","whitelist(address)":"9b19251a","withdrawFees()":"476343ee"}},"storageLayout":{"storage":[{"astId":261,"contract":"contracts/NFTLauncher.sol:NftLauncher","label":"_owner","offset":0,"slot":"0","type":"t_address"},{"astId":5448,"contract":"contracts/NFTLauncher.sol:NftLauncher","label":"singleNftFee","offset":0,"slot":"1","type":"t_uint256"},{"astId":5450,"contract":"contracts/NFTLauncher.sol:NftLauncher","label":"collectionFee","offset":0,"slot":"2","type":"t_uint256"},{"astId":5453,"contract":"contracts/NFTLauncher.sol:NftLauncher","label":"collections","offset":0,"slot":"3","type":"t_array(t_address)dyn_storage"},{"astId":5456,"contract":"contracts/NFTLauncher.sol:NftLauncher","label":"singleNfts","offset":0,"slot":"4","type":"t_array(t_address)dyn_storage"},{"astId":5461,"contract":"contracts/NFTLauncher.sol:NftLauncher","label":"myCollections","offset":0,"slot":"5","type":"t_mapping(t_address,t_array(t_address)dyn_storage)"},{"astId":5466,"contract":"contracts/NFTLauncher.sol:NftLauncher","label":"myNfts","offset":0,"slot":"6","type":"t_mapping(t_address,t_array(t_address)dyn_storage)"},{"astId":5470,"contract":"contracts/NFTLauncher.sol:NftLauncher","label":"isWhitelisted","offset":0,"slot":"7","type":"t_mapping(t_address,t_bool)"}],"types":{"t_address":{"encoding":"inplace","label":"address","numberOfBytes":"20"},"t_array(t_address)dyn_storage":{"base":"t_address","encoding":"dynamic_array","label":"address[]","numberOfBytes":"32"},"t_bool":{"encoding":"inplace","label":"bool","numberOfBytes":"1"},"t_mapping(t_address,t_array(t_address)dyn_storage)":{"encoding":"mapping","key":"t_address","label":"mapping(address => address[])","numberOfBytes":"32","value":"t_array(t_address)dyn_storage"},"t_mapping(t_address,t_bool)":{"encoding":"mapping","key":"t_address","label":"mapping(address => bool)","numberOfBytes":"32","value":"t_bool"},"t_uint256":{"encoding":"inplace","label":"uint256","numberOfBytes":"32"}}}}}}