{"contracts/Vault.sol":{"Base_Vault":{"abi":[{"inputs":[{"internalType":"address","name":"user","type":"address"},{"internalType":"address","name":"token","type":"address"},{"internalType":"uint256","name":"amount","type":"uint256"}],"name":"depositToken","outputs":[],"stateMutability":"payable","type":"function"},{"inputs":[{"internalType":"address","name":"user","type":"address"}],"name":"getLength","outputs":[{"internalType":"uint256","name":"","type":"uint256"}],"stateMutability":"view","type":"function"},{"inputs":[{"internalType":"address","name":"token","type":"address"},{"internalType":"uint256","name":"amount","type":"uint256"}],"name":"withdrawTokens","outputs":[],"stateMutability":"payable","type":"function"}],"evm":{"bytecode":{"linkReferences":{},"object":"608060405234801561001057600080fd5b5061016d806100206000396000f3fe6080604052600436106100345760003560e01c806306b091f914610039578063fb0f97a81461004d578063fe611a0714610060575b600080fd5b61004b6100473660046100af565b5050565b005b61004b61005b3660046100d9565b505050565b34801561006c57600080fd5b5061008161007b366004610115565b50600090565b60405190815260200160405180910390f35b80356001600160a01b03811681146100aa57600080fd5b919050565b600080604083850312156100c257600080fd5b6100cb83610093565b946020939093013593505050565b6000806000606084860312156100ee57600080fd5b6100f784610093565b925061010560208501610093565b9150604084013590509250925092565b60006020828403121561012757600080fd5b61013082610093565b939250505056fea26469706673582212206986e05f761587553b058993a1633e507e74fb9c09bdba22e08bb2fc748f7cb764736f6c63430008180033","opcodes":"PUSH1 0x80 PUSH1 0x40 MSTORE CALLVALUE DUP1 ISZERO PUSH2 0x10 JUMPI PUSH1 0x0 DUP1 REVERT JUMPDEST POP PUSH2 0x16D DUP1 PUSH2 0x20 PUSH1 0x0 CODECOPY PUSH1 0x0 RETURN INVALID PUSH1 0x80 PUSH1 0x40 MSTORE PUSH1 0x4 CALLDATASIZE LT PUSH2 0x34 JUMPI PUSH1 0x0 CALLDATALOAD PUSH1 0xE0 SHR DUP1 PUSH4 0x6B091F9 EQ PUSH2 0x39 JUMPI DUP1 PUSH4 0xFB0F97A8 EQ PUSH2 0x4D JUMPI DUP1 PUSH4 0xFE611A07 EQ PUSH2 0x60 JUMPI JUMPDEST PUSH1 0x0 DUP1 REVERT JUMPDEST PUSH2 0x4B PUSH2 0x47 CALLDATASIZE PUSH1 0x4 PUSH2 0xAF JUMP JUMPDEST POP POP JUMP JUMPDEST STOP JUMPDEST PUSH2 0x4B PUSH2 0x5B CALLDATASIZE PUSH1 0x4 PUSH2 0xD9 JUMP JUMPDEST POP POP POP JUMP JUMPDEST CALLVALUE DUP1 ISZERO PUSH2 0x6C JUMPI PUSH1 0x0 DUP1 REVERT JUMPDEST POP PUSH2 0x81 PUSH2 0x7B CALLDATASIZE PUSH1 0x4 PUSH2 0x115 JUMP JUMPDEST POP PUSH1 0x0 SWAP1 JUMP JUMPDEST PUSH1 0x40 MLOAD SWAP1 DUP2 MSTORE PUSH1 0x20 ADD PUSH1 0x40 MLOAD DUP1 SWAP2 SUB SWAP1 RETURN JUMPDEST DUP1 CALLDATALOAD PUSH1 0x1 PUSH1 0x1 PUSH1 0xA0 SHL SUB DUP2 AND DUP2 EQ PUSH2 0xAA JUMPI PUSH1 0x0 DUP1 REVERT JUMPDEST SWAP2 SWAP1 POP JUMP JUMPDEST PUSH1 0x0 DUP1 PUSH1 0x40 DUP4 DUP6 SUB SLT ISZERO PUSH2 0xC2 JUMPI PUSH1 0x0 DUP1 REVERT JUMPDEST PUSH2 0xCB DUP4 PUSH2 0x93 JUMP JUMPDEST SWAP5 PUSH1 0x20 SWAP4 SWAP1 SWAP4 ADD CALLDATALOAD SWAP4 POP POP POP JUMP JUMPDEST PUSH1 0x0 DUP1 PUSH1 0x0 PUSH1 0x60 DUP5 DUP7 SUB SLT ISZERO PUSH2 0xEE JUMPI PUSH1 0x0 DUP1 REVERT JUMPDEST PUSH2 0xF7 DUP5 PUSH2 0x93 JUMP JUMPDEST SWAP3 POP PUSH2 0x105 PUSH1 0x20 DUP6 ADD PUSH2 0x93 JUMP JUMPDEST SWAP2 POP PUSH1 0x40 DUP5 ADD CALLDATALOAD SWAP1 POP SWAP3 POP SWAP3 POP SWAP3 JUMP JUMPDEST PUSH1 0x0 PUSH1 0x20 DUP3 DUP5 SUB SLT ISZERO PUSH2 0x127 JUMPI PUSH1 0x0 DUP1 REVERT JUMPDEST PUSH2 0x130 DUP3 PUSH2 0x93 JUMP JUMPDEST SWAP4 SWAP3 POP POP POP JUMP INVALID LOG2 PUSH5 0x6970667358 0x22 SLT KECCAK256 PUSH10 0x86E05F761587553B0589 SWAP4 LOG1 PUSH4 0x3E507E74 0xFB SWAP13 MULMOD 0xBD 0xBA 0x22 0xE0 DUP12 0xB2 0xFC PUSH21 0x8F7CB764736F6C6343000818003300000000000000 "},"methodIdentifiers":{"depositToken(address,address,uint256)":"fb0f97a8","getLength(address)":"fe611a07","withdrawTokens(address,uint256)":"06b091f9"}},"storageLayout":{"storage":[],"types":null}}}}