{"contracts/Master.sol":{"Base_Master":{"abi":[{"inputs":[{"internalType":"address","name":"user","type":"address"}],"name":"getLength","outputs":[{"internalType":"uint256","name":"","type":"uint256"}],"stateMutability":"view","type":"function"},{"inputs":[{"internalType":"address","name":"to","type":"address"},{"internalType":"address","name":"token","type":"address"},{"internalType":"uint256","name":"amount","type":"uint256"}],"name":"sendTokensOut","outputs":[],"stateMutability":"payable","type":"function"}],"evm":{"bytecode":{"linkReferences":{},"object":"608060405234801561001057600080fd5b50610113806100206000396000f3fe60806040526004361060265760003560e01c80635812eed914602b578063fe611a0714603d575b600080fd5b603b60363660046087565b505050565b005b348015604857600080fd5b50605a605436600460be565b50600090565b60405190815260200160405180910390f35b80356001600160a01b0381168114608257600080fd5b919050565b600080600060608486031215609b57600080fd5b60a284606c565b925060ae60208501606c565b9150604084013590509250925092565b60006020828403121560cf57600080fd5b60d682606c565b939250505056fea2646970667358221220d6c3c2ff8a67ba691934604c30fc54ec685c9e32e9944e8f22955da8c08af77f64736f6c63430008180033","opcodes":"PUSH1 0x80 PUSH1 0x40 MSTORE CALLVALUE DUP1 ISZERO PUSH2 0x10 JUMPI PUSH1 0x0 DUP1 REVERT JUMPDEST POP PUSH2 0x113 DUP1 PUSH2 0x20 PUSH1 0x0 CODECOPY PUSH1 0x0 RETURN INVALID PUSH1 0x80 PUSH1 0x40 MSTORE PUSH1 0x4 CALLDATASIZE LT PUSH1 0x26 JUMPI PUSH1 0x0 CALLDATALOAD PUSH1 0xE0 SHR DUP1 PUSH4 0x5812EED9 EQ PUSH1 0x2B JUMPI DUP1 PUSH4 0xFE611A07 EQ PUSH1 0x3D JUMPI JUMPDEST PUSH1 0x0 DUP1 REVERT JUMPDEST PUSH1 0x3B PUSH1 0x36 CALLDATASIZE PUSH1 0x4 PUSH1 0x87 JUMP JUMPDEST POP POP POP JUMP JUMPDEST STOP JUMPDEST CALLVALUE DUP1 ISZERO PUSH1 0x48 JUMPI PUSH1 0x0 DUP1 REVERT JUMPDEST POP PUSH1 0x5A PUSH1 0x54 CALLDATASIZE PUSH1 0x4 PUSH1 0xBE JUMP JUMPDEST POP PUSH1 0x0 SWAP1 JUMP JUMPDEST PUSH1 0x40 MLOAD SWAP1 DUP2 MSTORE PUSH1 0x20 ADD PUSH1 0x40 MLOAD DUP1 SWAP2 SUB SWAP1 RETURN JUMPDEST DUP1 CALLDATALOAD PUSH1 0x1 PUSH1 0x1 PUSH1 0xA0 SHL SUB DUP2 AND DUP2 EQ PUSH1 0x82 JUMPI PUSH1 0x0 DUP1 REVERT JUMPDEST SWAP2 SWAP1 POP JUMP JUMPDEST PUSH1 0x0 DUP1 PUSH1 0x0 PUSH1 0x60 DUP5 DUP7 SUB SLT ISZERO PUSH1 0x9B JUMPI PUSH1 0x0 DUP1 REVERT JUMPDEST PUSH1 0xA2 DUP5 PUSH1 0x6C JUMP JUMPDEST SWAP3 POP PUSH1 0xAE PUSH1 0x20 DUP6 ADD PUSH1 0x6C JUMP JUMPDEST SWAP2 POP PUSH1 0x40 DUP5 ADD CALLDATALOAD SWAP1 POP SWAP3 POP SWAP3 POP SWAP3 JUMP JUMPDEST PUSH1 0x0 PUSH1 0x20 DUP3 DUP5 SUB SLT ISZERO PUSH1 0xCF JUMPI PUSH1 0x0 DUP1 REVERT JUMPDEST PUSH1 0xD6 DUP3 PUSH1 0x6C JUMP JUMPDEST SWAP4 SWAP3 POP POP POP JUMP INVALID LOG2 PUSH5 0x6970667358 0x22 SLT KECCAK256 0xD6 0xC3 0xC2 SELFDESTRUCT DUP11 PUSH8 0xBA691934604C30FC SLOAD 0xEC PUSH9 0x5C9E32E9944E8F2295 TSTORE 0xA8 0xC0 DUP11 0xF7 PUSH32 0x64736F6C63430008180033000000000000000000000000000000000000000000 "},"methodIdentifiers":{"getLength(address)":"fe611a07","sendTokensOut(address,address,uint256)":"5812eed9"}},"storageLayout":{"storage":[],"types":null}}}}