{"contracts/Master.sol":{"Master":{"abi":[{"inputs":[],"stateMutability":"nonpayable","type":"constructor"},{"inputs":[{"internalType":"address","name":"target","type":"address"}],"name":"AddressEmptyCode","type":"error"},{"inputs":[{"internalType":"address","name":"account","type":"address"}],"name":"AddressInsufficientBalance","type":"error"},{"inputs":[],"name":"FailedInnerCall","type":"error"},{"inputs":[{"internalType":"address","name":"owner","type":"address"},{"internalType":"address","name":"target","type":"address"},{"internalType":"uint256","name":"value","type":"uint256"}],"name":"FailedToWithdrawEth","type":"error"},{"inputs":[{"internalType":"address","name":"router","type":"address"}],"name":"InvalidRouter","type":"error"},{"inputs":[{"internalType":"address","name":"owner","type":"address"}],"name":"OwnableInvalidOwner","type":"error"},{"inputs":[{"internalType":"address","name":"account","type":"address"}],"name":"OwnableUnauthorizedAccount","type":"error"},{"inputs":[{"internalType":"address","name":"token","type":"address"}],"name":"SafeERC20FailedOperation","type":"error"},{"anonymous":false,"inputs":[{"indexed":true,"internalType":"address","name":"previousOwner","type":"address"},{"indexed":true,"internalType":"address","name":"newOwner","type":"address"}],"name":"OwnershipTransferred","type":"event"},{"inputs":[{"internalType":"address","name":"","type":"address"},{"internalType":"address","name":"","type":"address"}],"name":"balance","outputs":[{"internalType":"uint256","name":"","type":"uint256"}],"stateMutability":"view","type":"function"},{"inputs":[{"components":[{"internalType":"bytes32","name":"messageId","type":"bytes32"},{"internalType":"uint64","name":"sourceChainSelector","type":"uint64"},{"internalType":"bytes","name":"sender","type":"bytes"},{"internalType":"bytes","name":"data","type":"bytes"},{"components":[{"internalType":"address","name":"token","type":"address"},{"internalType":"uint256","name":"amount","type":"uint256"}],"internalType":"struct Client.EVMTokenAmount[]","name":"destTokenAmounts","type":"tuple[]"}],"internalType":"struct Client.Any2EVMMessage","name":"message","type":"tuple"}],"name":"ccipReceive","outputs":[],"stateMutability":"nonpayable","type":"function"},{"inputs":[{"internalType":"address","name":"user","type":"address"}],"name":"getLength","outputs":[{"internalType":"uint256","name":"","type":"uint256"}],"stateMutability":"view","type":"function"},{"inputs":[],"name":"getRouter","outputs":[{"internalType":"address","name":"","type":"address"}],"stateMutability":"view","type":"function"},{"inputs":[{"internalType":"address","name":"","type":"address"},{"internalType":"uint256","name":"","type":"uint256"}],"name":"myCrossChainTokens","outputs":[{"internalType":"address","name":"","type":"address"}],"stateMutability":"view","type":"function"},{"inputs":[],"name":"owner","outputs":[{"internalType":"address","name":"","type":"address"}],"stateMutability":"view","type":"function"},{"inputs":[],"name":"renounceOwnership","outputs":[],"stateMutability":"nonpayable","type":"function"},{"inputs":[{"internalType":"address","name":"to","type":"address"},{"internalType":"address","name":"token","type":"address"},{"internalType":"uint256","name":"amount","type":"uint256"}],"name":"sendTokensOut","outputs":[],"stateMutability":"payable","type":"function"},{"inputs":[{"internalType":"uint256","name":"newFee","type":"uint256"}],"name":"setFee","outputs":[],"stateMutability":"nonpayable","type":"function"},{"inputs":[{"internalType":"address","name":"newVault","type":"address"}],"name":"setVault","outputs":[],"stateMutability":"nonpayable","type":"function"},{"inputs":[{"internalType":"bytes4","name":"interfaceId","type":"bytes4"}],"name":"supportsInterface","outputs":[{"internalType":"bool","name":"","type":"bool"}],"stateMutability":"pure","type":"function"},{"inputs":[{"internalType":"address","name":"","type":"address"},{"internalType":"address","name":"","type":"address"}],"name":"tokenExist","outputs":[{"internalType":"bool","name":"","type":"bool"}],"stateMutability":"view","type":"function"},{"inputs":[{"internalType":"address","name":"newOwner","type":"address"}],"name":"transferOwnership","outputs":[],"stateMutability":"nonpayable","type":"function"},{"inputs":[{"internalType":"address","name":"beneficiary","type":"address"}],"name":"withdrawNative","outputs":[],"stateMutability":"nonpayable","type":"function"},{"inputs":[{"internalType":"address","name":"beneficiary","type":"address"},{"internalType":"address","name":"token","type":"address"}],"name":"withdrawToken","outputs":[],"stateMutability":"nonpayable","type":"function"},{"stateMutability":"payable","type":"receive"}],"evm":{"bytecode":{"linkReferences":{},"object":"60c0604052679d70576d8e253bcf60a052600380546001600160a01b03191673881e3a65b4d4a04dd529061dd0071cf975f58bcd17905534801561004257600080fd5b5060035433906001600160a01b031680610077576040516335fdcccd60e21b8152600060048201526024015b60405180910390fd5b6001600160a01b0390811660805281166100a757604051631e4fbdf760e01b81526000600482015260240161006e565b6100b0816100b6565b50610106565b600080546001600160a01b038381166001600160a01b0319831681178455604051919092169283917f8be0079c531659141344cd1fd0a4f28419497f9722a3daafe3b4186f6b6457e09190a35050565b60805160a05161168961013960003960008181610647015261070d01526000818161029701526107d901526116896000f3fe6080604052600436106100ec5760003560e01c8063715018a61161008a578063b0f479a111610059578063b0f479a114610288578063b203bb99146102bb578063f2fde38b14610301578063fe611a071461032157600080fd5b8063715018a6146101fa57806385572ffb1461020f5780638cc23ed71461022f5780638da5cb5b1461026a57600080fd5b80633aeac4e1116100c65780633aeac4e1146101875780635812eed9146101a75780636817031b146101ba57806369fe0e2d146101da57600080fd5b806301ffc9a7146100f85780630b18a0601461012d5780632f622e6b1461016557600080fd5b366100f357005b600080fd5b34801561010457600080fd5b50610118610113366004610ff1565b610357565b60405190151581526020015b60405180910390f35b34801561013957600080fd5b5061014d610148366004611030565b61038e565b6040516001600160a01b039091168152602001610124565b34801561017157600080fd5b5061018561018036600461105c565b6103c6565b005b34801561019357600080fd5b506101856101a2366004611079565b610464565b6101856101b53660046110b2565b6104ed565b3480156101c657600080fd5b506101856101d536600461105c565b610783565b3480156101e657600080fd5b506101856101f53660046110f3565b6107ad565b34801561020657600080fd5b506101856107ba565b34801561021b57600080fd5b5061018561022a36600461110c565b6107ce565b34801561023b57600080fd5b5061011861024a366004611079565b600660209081526000928352604080842090915290825290205460ff1681565b34801561027657600080fd5b506000546001600160a01b031661014d565b34801561029457600080fd5b507f000000000000000000000000000000000000000000000000000000000000000061014d565b3480156102c757600080fd5b506102f36102d6366004611079565b600560209081526000928352604080842090915290825290205481565b604051908152602001610124565b34801561030d57600080fd5b5061018561031c36600461105c565b61082d565b34801561032d57600080fd5b506102f361033c36600461105c565b6001600160a01b031660009081526004602052604090205490565b60006001600160e01b031982166385572ffb60e01b148061038857506001600160e01b031982166301ffc9a760e01b145b92915050565b600460205281600052604060002081815481106103aa57600080fd5b6000918252602090912001546001600160a01b03169150829050565b6103ce610868565b60405147906000906001600160a01b0384169083908381818185875af1925050503d806000811461041b576040519150601f19603f3d011682016040523d82523d6000602084013e610420565b606091505b505090508061045f57604051639d11f56360e01b81523360048201526001600160a01b0384166024820152604481018390526064015b60405180910390fd5b505050565b61046c610868565b6040516370a0823160e01b81523060048201526000906001600160a01b038316906370a0823190602401602060405180830381865afa1580156104b3573d6000803e3d6000fd5b505050506040513d601f19601f820116820180604052508101906104d79190611147565b905061045f6001600160a01b0383168483610895565b3360009081526005602090815260408083206001600160a01b03861684529091529020548111156105305760405162461bcd60e51b815260040161045690611160565b60015415610579576001543410156105795760405162461bcd60e51b815260206004820152600c60248201526b50617920746865206665652160a01b6044820152606401610456565b3360009081526005602090815260408083206001600160a01b0386168452909152812080548392906105ac9084906111a3565b909155506105bc905033836108e7565b60006105cc338585856000610a95565b90506000306001600160a01b031663b0f479a16040518163ffffffff1660e01b8152600401602060405180830381865afa15801561060e573d6000803e3d6000fd5b505050506040513d601f19601f8201168201806040525081019061063291906111b6565b90506000816001600160a01b03166320487ded7f0000000000000000000000000000000000000000000000000000000000000000856040518363ffffffff1660e01b8152600401610684929190611223565b602060405180830381865afa1580156106a1573d6000803e3d6000fd5b505050506040513d601f19601f820116820180604052508101906106c59190611147565b9050478111156106e75760405162461bcd60e51b815260040161045690611160565b6040516396f4e9f960e01b81526001600160a01b038316906396f4e9f9908390610737907f0000000000000000000000000000000000000000000000000000000000000000908890600401611223565b60206040518083038185885af1158015610755573d6000803e3d6000fd5b50505050506040513d601f19601f8201168201806040525081019061077a9190611147565b50505050505050565b61078b610868565b600280546001600160a01b0319166001600160a01b0392909216919091179055565b6107b5610868565b600155565b6107c2610868565b6107cc6000610bef565b565b336001600160a01b037f00000000000000000000000000000000000000000000000000000000000000001614610819576040516335fdcccd60e21b8152336004820152602401610456565b61082a610825826114cd565b610c3f565b50565b610835610868565b6001600160a01b03811661085f57604051631e4fbdf760e01b815260006004820152602401610456565b61082a81610bef565b6000546001600160a01b031633146107cc5760405163118cdaa760e01b8152336004820152602401610456565b604080516001600160a01b038416602482015260448082018490528251808303909101815260649091019091526020810180516001600160e01b031663a9059cbb60e01b17905261045f908490610cfd565b6001600160a01b0380831660009081526005602090815260408083209385168352929052908120549003610a91576001600160a01b0380831660009081526006602090815260408083209385168352929052908120805460ff191690555b6001600160a01b03831660009081526004602052604090205481101561045f576001600160a01b038381166000908152600460205260409020805491841691839081106109945761099461157a565b6000918252602090912001546001600160a01b031603610a89576001600160a01b038316600090815260046020526040902080546109d4906001906111a3565b815481106109e4576109e461157a565b60009182526020808320909101546001600160a01b03868116845260049092526040909220805491909216919083908110610a2157610a2161157a565b600091825260208083209190910180546001600160a01b0319166001600160a01b039485161790559185168152600490915260409020805480610a6657610a66611590565b600082815260209020810160001990810180546001600160a01b03191690550190555b600101610945565b5050565b610ad06040518060a0016040528060608152602001606081526020016060815260200160006001600160a01b03168152602001606081525090565b6040805160a080820183526002546001600160a01b0390811660c0808501919091528451808503909101815260e084018552835283518a82166020808301919091528a83168287015291891660608201526080808201899052855180830390910181529201845280830191909152825160008082529181018452919283019190610b7c565b6040805180820190915260008082526020820152815260200190600190039081610b555790505b508152602001836001600160a01b03168152602001610be3604051806020016040528062030d4081525060408051915160248084019190915281518084039091018152604490920190526020810180516001600160e01b03166397a657c960e01b17905290565b90529695505050505050565b600080546001600160a01b038381166001600160a01b0319831681178455604051919092169283917f8be0079c531659141344cd1fd0a4f28419497f9722a3daafe3b4186f6b6457e09190a35050565b600254604082015180516001600160a01b0390921691610c67916020918101820191016111b6565b6001600160a01b031614610caf5760405162461bcd60e51b815260206004820152600f60248201526e496e76616c69642073656e6465722160881b6044820152606401610456565b6000806000808460600151806020019051810190610ccd91906115b6565b93509350935093508015610ceb57610ce6848484610d60565b610cf6565b610cf6848484610e2e565b5050505050565b6000610d126001600160a01b03841683610eba565b90508051600014158015610d37575080806020019051810190610d359190611609565b155b1561045f57604051635274afe760e01b81526001600160a01b0384166004820152602401610456565b6001600160a01b0380841660009081526006602090815260408083209386168352929052205460ff16610ded576001600160a01b0383811660008181526004602090815260408083208054600180820183559185528385200180546001600160a01b03191696891696871790559383526006825280832094835293905291909120805460ff191690911790555b6001600160a01b03808416600090815260056020908152604080832093861683529290529081208054839290610e24908490611624565b9091555050505050565b6001600160a01b03808416600090815260056020908152604080832093861683529290522054811115610e735760405162461bcd60e51b815260040161045690611160565b6001600160a01b03808416600090815260056020908152604080832093861683529290529081208054839290610eaa9084906111a3565b9091555061045f905083836108e7565b6060610ec883836000610ecf565b9392505050565b606081471015610ef45760405163cd78605960e01b8152306004820152602401610456565b600080856001600160a01b03168486604051610f109190611637565b60006040518083038185875af1925050503d8060008114610f4d576040519150601f19603f3d011682016040523d82523d6000602084013e610f52565b606091505b5091509150610f62868383610f6c565b9695505050505050565b606082610f8157610f7c82610fc8565b610ec8565b8151158015610f9857506001600160a01b0384163b155b15610fc157604051639996b31560e01b81526001600160a01b0385166004820152602401610456565b5080610ec8565b805115610fd85780518082602001fd5b604051630a12f52160e11b815260040160405180910390fd5b60006020828403121561100357600080fd5b81356001600160e01b031981168114610ec857600080fd5b6001600160a01b038116811461082a57600080fd5b6000806040838503121561104357600080fd5b823561104e8161101b565b946020939093013593505050565b60006020828403121561106e57600080fd5b8135610ec88161101b565b6000806040838503121561108c57600080fd5b82356110978161101b565b915060208301356110a78161101b565b809150509250929050565b6000806000606084860312156110c757600080fd5b83356110d28161101b565b925060208401356110e28161101b565b929592945050506040919091013590565b60006020828403121561110557600080fd5b5035919050565b60006020828403121561111e57600080fd5b813567ffffffffffffffff81111561113557600080fd5b820160a08185031215610ec857600080fd5b60006020828403121561115957600080fd5b5051919050565b6020808252601390820152724e6f7420656e6f7567682062616c616e63652160681b604082015260600190565b634e487b7160e01b600052601160045260246000fd5b818103818111156103885761038861118d565b6000602082840312156111c857600080fd5b8151610ec88161101b565b60005b838110156111ee5781810151838201526020016111d6565b50506000910152565b6000815180845261120f8160208601602086016111d3565b601f01601f19169290920160200192915050565b6000604067ffffffffffffffff851683526020604081850152845160a0604086015261125260e08601826111f7565b905081860151603f198087840301606088015261126f83836111f7565b6040890151888203830160808a01528051808352908601945060009350908501905b808410156112c357845180516001600160a01b0316835286015186830152938501936001939093019290860190611291565b5060608901516001600160a01b031660a08901526080890151888203830160c08a015295506112f281876111f7565b9a9950505050505050505050565b634e487b7160e01b600052604160045260246000fd5b6040805190810167ffffffffffffffff8111828210171561133957611339611300565b60405290565b60405160a0810167ffffffffffffffff8111828210171561133957611339611300565b604051601f8201601f1916810167ffffffffffffffff8111828210171561138b5761138b611300565b604052919050565b803567ffffffffffffffff811681146113ab57600080fd5b919050565b600082601f8301126113c157600080fd5b813567ffffffffffffffff8111156113db576113db611300565b6113ee601f8201601f1916602001611362565b81815284602083860101111561140357600080fd5b816020850160208301376000918101602001919091529392505050565b600082601f83011261143157600080fd5b8135602067ffffffffffffffff82111561144d5761144d611300565b61145b818360051b01611362565b82815260069290921b8401810191818101908684111561147a57600080fd5b8286015b848110156114c257604081890312156114975760008081fd5b61149f611316565b81356114aa8161101b565b8152818501358582015283529183019160400161147e565b509695505050505050565b600060a082360312156114df57600080fd5b6114e761133f565b823581526114f760208401611393565b6020820152604083013567ffffffffffffffff8082111561151757600080fd5b611523368387016113b0565b6040840152606085013591508082111561153c57600080fd5b611548368387016113b0565b6060840152608085013591508082111561156157600080fd5b5061156e36828601611420565b60808301525092915050565b634e487b7160e01b600052603260045260246000fd5b634e487b7160e01b600052603160045260246000fd5b805180151581146113ab57600080fd5b600080600080608085870312156115cc57600080fd5b84516115d78161101b565b60208601519094506115e88161101b565b604086015190935091506115fe606086016115a6565b905092959194509250565b60006020828403121561161b57600080fd5b610ec8826115a6565b808201808211156103885761038861118d565b600082516116498184602087016111d3565b919091019291505056fea264697066735822122074681d08a9625c00042225aae8dff121c7de479df7a6096fe0a0db9af75b3f7964736f6c63430008180033","opcodes":"PUSH1 0xC0 PUSH1 0x40 MSTORE PUSH8 0x9D70576D8E253BCF PUSH1 0xA0 MSTORE PUSH1 0x3 DUP1 SLOAD PUSH1 0x1 PUSH1 0x1 PUSH1 0xA0 SHL SUB NOT AND PUSH20 0x881E3A65B4D4A04DD529061DD0071CF975F58BCD OR SWAP1 SSTORE CALLVALUE DUP1 ISZERO PUSH2 0x42 JUMPI PUSH1 0x0 DUP1 REVERT JUMPDEST POP PUSH1 0x3 SLOAD CALLER SWAP1 PUSH1 0x1 PUSH1 0x1 PUSH1 0xA0 SHL SUB AND DUP1 PUSH2 0x77 JUMPI PUSH1 0x40 MLOAD PUSH4 0x35FDCCCD PUSH1 0xE2 SHL DUP2 MSTORE PUSH1 0x0 PUSH1 0x4 DUP3 ADD MSTORE PUSH1 0x24 ADD JUMPDEST PUSH1 0x40 MLOAD DUP1 SWAP2 SUB SWAP1 REVERT JUMPDEST PUSH1 0x1 PUSH1 0x1 PUSH1 0xA0 SHL SUB SWAP1 DUP2 AND PUSH1 0x80 MSTORE DUP2 AND PUSH2 0xA7 JUMPI PUSH1 0x40 MLOAD PUSH4 0x1E4FBDF7 PUSH1 0xE0 SHL DUP2 MSTORE PUSH1 0x0 PUSH1 0x4 DUP3 ADD MSTORE PUSH1 0x24 ADD PUSH2 0x6E JUMP JUMPDEST PUSH2 0xB0 DUP2 PUSH2 0xB6 JUMP JUMPDEST POP PUSH2 0x106 JUMP JUMPDEST PUSH1 0x0 DUP1 SLOAD PUSH1 0x1 PUSH1 0x1 PUSH1 0xA0 SHL SUB DUP4 DUP2 AND PUSH1 0x1 PUSH1 0x1 PUSH1 0xA0 SHL SUB NOT DUP4 AND DUP2 OR DUP5 SSTORE PUSH1 0x40 MLOAD SWAP2 SWAP1 SWAP3 AND SWAP3 DUP4 SWAP2 PUSH32 0x8BE0079C531659141344CD1FD0A4F28419497F9722A3DAAFE3B4186F6B6457E0 SWAP2 SWAP1 LOG3 POP POP JUMP JUMPDEST PUSH1 0x80 MLOAD PUSH1 0xA0 MLOAD PUSH2 0x1689 PUSH2 0x139 PUSH1 0x0 CODECOPY PUSH1 0x0 DUP2 DUP2 PUSH2 0x647 ADD MSTORE PUSH2 0x70D ADD MSTORE PUSH1 0x0 DUP2 DUP2 PUSH2 0x297 ADD MSTORE PUSH2 0x7D9 ADD MSTORE PUSH2 0x1689 PUSH1 0x0 RETURN INVALID PUSH1 0x80 PUSH1 0x40 MSTORE PUSH1 0x4 CALLDATASIZE LT PUSH2 0xEC JUMPI PUSH1 0x0 CALLDATALOAD PUSH1 0xE0 SHR DUP1 PUSH4 0x715018A6 GT PUSH2 0x8A JUMPI DUP1 PUSH4 0xB0F479A1 GT PUSH2 0x59 JUMPI DUP1 PUSH4 0xB0F479A1 EQ PUSH2 0x288 JUMPI DUP1 PUSH4 0xB203BB99 EQ PUSH2 0x2BB JUMPI DUP1 PUSH4 0xF2FDE38B EQ PUSH2 0x301 JUMPI DUP1 PUSH4 0xFE611A07 EQ PUSH2 0x321 JUMPI PUSH1 0x0 DUP1 REVERT JUMPDEST DUP1 PUSH4 0x715018A6 EQ PUSH2 0x1FA JUMPI DUP1 PUSH4 0x85572FFB EQ PUSH2 0x20F JUMPI DUP1 PUSH4 0x8CC23ED7 EQ PUSH2 0x22F JUMPI DUP1 PUSH4 0x8DA5CB5B EQ PUSH2 0x26A JUMPI PUSH1 0x0 DUP1 REVERT JUMPDEST DUP1 PUSH4 0x3AEAC4E1 GT PUSH2 0xC6 JUMPI DUP1 PUSH4 0x3AEAC4E1 EQ PUSH2 0x187 JUMPI DUP1 PUSH4 0x5812EED9 EQ PUSH2 0x1A7 JUMPI DUP1 PUSH4 0x6817031B EQ PUSH2 0x1BA JUMPI DUP1 PUSH4 0x69FE0E2D EQ PUSH2 0x1DA JUMPI PUSH1 0x0 DUP1 REVERT JUMPDEST DUP1 PUSH4 0x1FFC9A7 EQ PUSH2 0xF8 JUMPI DUP1 PUSH4 0xB18A060 EQ PUSH2 0x12D JUMPI DUP1 PUSH4 0x2F622E6B EQ PUSH2 0x165 JUMPI PUSH1 0x0 DUP1 REVERT JUMPDEST CALLDATASIZE PUSH2 0xF3 JUMPI STOP JUMPDEST PUSH1 0x0 DUP1 REVERT JUMPDEST CALLVALUE DUP1 ISZERO PUSH2 0x104 JUMPI PUSH1 0x0 DUP1 REVERT JUMPDEST POP PUSH2 0x118 PUSH2 0x113 CALLDATASIZE PUSH1 0x4 PUSH2 0xFF1 JUMP JUMPDEST PUSH2 0x357 JUMP JUMPDEST PUSH1 0x40 MLOAD SWAP1 ISZERO ISZERO DUP2 MSTORE PUSH1 0x20 ADD JUMPDEST PUSH1 0x40 MLOAD DUP1 SWAP2 SUB SWAP1 RETURN JUMPDEST CALLVALUE DUP1 ISZERO PUSH2 0x139 JUMPI PUSH1 0x0 DUP1 REVERT JUMPDEST POP PUSH2 0x14D PUSH2 0x148 CALLDATASIZE PUSH1 0x4 PUSH2 0x1030 JUMP JUMPDEST PUSH2 0x38E JUMP JUMPDEST PUSH1 0x40 MLOAD PUSH1 0x1 PUSH1 0x1 PUSH1 0xA0 SHL SUB SWAP1 SWAP2 AND DUP2 MSTORE PUSH1 0x20 ADD PUSH2 0x124 JUMP JUMPDEST CALLVALUE DUP1 ISZERO PUSH2 0x171 JUMPI PUSH1 0x0 DUP1 REVERT JUMPDEST POP PUSH2 0x185 PUSH2 0x180 CALLDATASIZE PUSH1 0x4 PUSH2 0x105C JUMP JUMPDEST PUSH2 0x3C6 JUMP JUMPDEST STOP JUMPDEST CALLVALUE DUP1 ISZERO PUSH2 0x193 JUMPI PUSH1 0x0 DUP1 REVERT JUMPDEST POP PUSH2 0x185 PUSH2 0x1A2 CALLDATASIZE PUSH1 0x4 PUSH2 0x1079 JUMP JUMPDEST PUSH2 0x464 JUMP JUMPDEST PUSH2 0x185 PUSH2 0x1B5 CALLDATASIZE PUSH1 0x4 PUSH2 0x10B2 JUMP JUMPDEST PUSH2 0x4ED JUMP JUMPDEST CALLVALUE DUP1 ISZERO PUSH2 0x1C6 JUMPI PUSH1 0x0 DUP1 REVERT JUMPDEST POP PUSH2 0x185 PUSH2 0x1D5 CALLDATASIZE PUSH1 0x4 PUSH2 0x105C JUMP JUMPDEST PUSH2 0x783 JUMP JUMPDEST CALLVALUE DUP1 ISZERO PUSH2 0x1E6 JUMPI PUSH1 0x0 DUP1 REVERT JUMPDEST POP PUSH2 0x185 PUSH2 0x1F5 CALLDATASIZE PUSH1 0x4 PUSH2 0x10F3 JUMP JUMPDEST PUSH2 0x7AD JUMP JUMPDEST CALLVALUE DUP1 ISZERO PUSH2 0x206 JUMPI PUSH1 0x0 DUP1 REVERT JUMPDEST POP PUSH2 0x185 PUSH2 0x7BA JUMP JUMPDEST CALLVALUE DUP1 ISZERO PUSH2 0x21B JUMPI PUSH1 0x0 DUP1 REVERT JUMPDEST POP PUSH2 0x185 PUSH2 0x22A CALLDATASIZE PUSH1 0x4 PUSH2 0x110C JUMP JUMPDEST PUSH2 0x7CE JUMP JUMPDEST CALLVALUE DUP1 ISZERO PUSH2 0x23B JUMPI PUSH1 0x0 DUP1 REVERT JUMPDEST POP PUSH2 0x118 PUSH2 0x24A CALLDATASIZE PUSH1 0x4 PUSH2 0x1079 JUMP JUMPDEST PUSH1 0x6 PUSH1 0x20 SWAP1 DUP2 MSTORE PUSH1 0x0 SWAP3 DUP4 MSTORE PUSH1 0x40 DUP1 DUP5 KECCAK256 SWAP1 SWAP2 MSTORE SWAP1 DUP3 MSTORE SWAP1 KECCAK256 SLOAD PUSH1 0xFF AND DUP2 JUMP JUMPDEST CALLVALUE DUP1 ISZERO PUSH2 0x276 JUMPI PUSH1 0x0 DUP1 REVERT JUMPDEST POP PUSH1 0x0 SLOAD PUSH1 0x1 PUSH1 0x1 PUSH1 0xA0 SHL SUB AND PUSH2 0x14D JUMP JUMPDEST CALLVALUE DUP1 ISZERO PUSH2 0x294 JUMPI PUSH1 0x0 DUP1 REVERT JUMPDEST POP PUSH32 0x0 PUSH2 0x14D JUMP JUMPDEST CALLVALUE DUP1 ISZERO PUSH2 0x2C7 JUMPI PUSH1 0x0 DUP1 REVERT JUMPDEST POP PUSH2 0x2F3 PUSH2 0x2D6 CALLDATASIZE PUSH1 0x4 PUSH2 0x1079 JUMP JUMPDEST PUSH1 0x5 PUSH1 0x20 SWAP1 DUP2 MSTORE PUSH1 0x0 SWAP3 DUP4 MSTORE PUSH1 0x40 DUP1 DUP5 KECCAK256 SWAP1 SWAP2 MSTORE SWAP1 DUP3 MSTORE SWAP1 KECCAK256 SLOAD DUP2 JUMP JUMPDEST PUSH1 0x40 MLOAD SWAP1 DUP2 MSTORE PUSH1 0x20 ADD PUSH2 0x124 JUMP JUMPDEST CALLVALUE DUP1 ISZERO PUSH2 0x30D JUMPI PUSH1 0x0 DUP1 REVERT JUMPDEST POP PUSH2 0x185 PUSH2 0x31C CALLDATASIZE PUSH1 0x4 PUSH2 0x105C JUMP JUMPDEST PUSH2 0x82D JUMP JUMPDEST CALLVALUE DUP1 ISZERO PUSH2 0x32D JUMPI PUSH1 0x0 DUP1 REVERT JUMPDEST POP PUSH2 0x2F3 PUSH2 0x33C CALLDATASIZE PUSH1 0x4 PUSH2 0x105C JUMP JUMPDEST PUSH1 0x1 PUSH1 0x1 PUSH1 0xA0 SHL SUB AND PUSH1 0x0 SWAP1 DUP2 MSTORE PUSH1 0x4 PUSH1 0x20 MSTORE PUSH1 0x40 SWAP1 KECCAK256 SLOAD SWAP1 JUMP JUMPDEST PUSH1 0x0 PUSH1 0x1 PUSH1 0x1 PUSH1 0xE0 SHL SUB NOT DUP3 AND PUSH4 0x85572FFB PUSH1 0xE0 SHL EQ DUP1 PUSH2 0x388 JUMPI POP PUSH1 0x1 PUSH1 0x1 PUSH1 0xE0 SHL SUB NOT DUP3 AND PUSH4 0x1FFC9A7 PUSH1 0xE0 SHL EQ JUMPDEST SWAP3 SWAP2 POP POP JUMP JUMPDEST PUSH1 0x4 PUSH1 0x20 MSTORE DUP2 PUSH1 0x0 MSTORE PUSH1 0x40 PUSH1 0x0 KECCAK256 DUP2 DUP2 SLOAD DUP2 LT PUSH2 0x3AA JUMPI PUSH1 0x0 DUP1 REVERT JUMPDEST PUSH1 0x0 SWAP2 DUP3 MSTORE PUSH1 0x20 SWAP1 SWAP2 KECCAK256 ADD SLOAD PUSH1 0x1 PUSH1 0x1 PUSH1 0xA0 SHL SUB AND SWAP2 POP DUP3 SWAP1 POP JUMP JUMPDEST PUSH2 0x3CE PUSH2 0x868 JUMP JUMPDEST PUSH1 0x40 MLOAD SELFBALANCE SWAP1 PUSH1 0x0 SWAP1 PUSH1 0x1 PUSH1 0x1 PUSH1 0xA0 SHL SUB DUP5 AND SWAP1 DUP4 SWAP1 DUP4 DUP2 DUP2 DUP2 DUP6 DUP8 GAS CALL SWAP3 POP POP POP RETURNDATASIZE DUP1 PUSH1 0x0 DUP2 EQ PUSH2 0x41B JUMPI PUSH1 0x40 MLOAD SWAP2 POP PUSH1 0x1F NOT PUSH1 0x3F RETURNDATASIZE ADD AND DUP3 ADD PUSH1 0x40 MSTORE RETURNDATASIZE DUP3 MSTORE RETURNDATASIZE PUSH1 0x0 PUSH1 0x20 DUP5 ADD RETURNDATACOPY PUSH2 0x420 JUMP JUMPDEST PUSH1 0x60 SWAP2 POP JUMPDEST POP POP SWAP1 POP DUP1 PUSH2 0x45F JUMPI PUSH1 0x40 MLOAD PUSH4 0x9D11F563 PUSH1 0xE0 SHL DUP2 MSTORE CALLER PUSH1 0x4 DUP3 ADD MSTORE PUSH1 0x1 PUSH1 0x1 PUSH1 0xA0 SHL SUB DUP5 AND PUSH1 0x24 DUP3 ADD MSTORE PUSH1 0x44 DUP2 ADD DUP4 SWAP1 MSTORE PUSH1 0x64 ADD JUMPDEST PUSH1 0x40 MLOAD DUP1 SWAP2 SUB SWAP1 REVERT JUMPDEST POP POP POP JUMP JUMPDEST PUSH2 0x46C PUSH2 0x868 JUMP JUMPDEST PUSH1 0x40 MLOAD PUSH4 0x70A08231 PUSH1 0xE0 SHL DUP2 MSTORE ADDRESS PUSH1 0x4 DUP3 ADD MSTORE PUSH1 0x0 SWAP1 PUSH1 0x1 PUSH1 0x1 PUSH1 0xA0 SHL SUB DUP4 AND SWAP1 PUSH4 0x70A08231 SWAP1 PUSH1 0x24 ADD PUSH1 0x20 PUSH1 0x40 MLOAD DUP1 DUP4 SUB DUP2 DUP7 GAS STATICCALL ISZERO DUP1 ISZERO PUSH2 0x4B3 JUMPI RETURNDATASIZE PUSH1 0x0 DUP1 RETURNDATACOPY RETURNDATASIZE PUSH1 0x0 REVERT JUMPDEST POP POP POP POP PUSH1 0x40 MLOAD RETURNDATASIZE PUSH1 0x1F NOT PUSH1 0x1F DUP3 ADD AND DUP3 ADD DUP1 PUSH1 0x40 MSTORE POP DUP2 ADD SWAP1 PUSH2 0x4D7 SWAP2 SWAP1 PUSH2 0x1147 JUMP JUMPDEST SWAP1 POP PUSH2 0x45F PUSH1 0x1 PUSH1 0x1 PUSH1 0xA0 SHL SUB DUP4 AND DUP5 DUP4 PUSH2 0x895 JUMP JUMPDEST CALLER PUSH1 0x0 SWAP1 DUP2 MSTORE PUSH1 0x5 PUSH1 0x20 SWAP1 DUP2 MSTORE PUSH1 0x40 DUP1 DUP4 KECCAK256 PUSH1 0x1 PUSH1 0x1 PUSH1 0xA0 SHL SUB DUP7 AND DUP5 MSTORE SWAP1 SWAP2 MSTORE SWAP1 KECCAK256 SLOAD DUP2 GT ISZERO PUSH2 0x530 JUMPI PUSH1 0x40 MLOAD PUSH3 0x461BCD PUSH1 0xE5 SHL DUP2 MSTORE PUSH1 0x4 ADD PUSH2 0x456 SWAP1 PUSH2 0x1160 JUMP JUMPDEST PUSH1 0x1 SLOAD ISZERO PUSH2 0x579 JUMPI PUSH1 0x1 SLOAD CALLVALUE LT ISZERO PUSH2 0x579 JUMPI PUSH1 0x40 MLOAD PUSH3 0x461BCD PUSH1 0xE5 SHL DUP2 MSTORE PUSH1 0x20 PUSH1 0x4 DUP3 ADD MSTORE PUSH1 0xC PUSH1 0x24 DUP3 ADD MSTORE PUSH12 0x506179207468652066656521 PUSH1 0xA0 SHL PUSH1 0x44 DUP3 ADD MSTORE PUSH1 0x64 ADD PUSH2 0x456 JUMP JUMPDEST CALLER PUSH1 0x0 SWAP1 DUP2 MSTORE PUSH1 0x5 PUSH1 0x20 SWAP1 DUP2 MSTORE PUSH1 0x40 DUP1 DUP4 KECCAK256 PUSH1 0x1 PUSH1 0x1 PUSH1 0xA0 SHL SUB DUP7 AND DUP5 MSTORE SWAP1 SWAP2 MSTORE DUP2 KECCAK256 DUP1 SLOAD DUP4 SWAP3 SWAP1 PUSH2 0x5AC SWAP1 DUP5 SWAP1 PUSH2 0x11A3 JUMP JUMPDEST SWAP1 SWAP2 SSTORE POP PUSH2 0x5BC SWAP1 POP CALLER DUP4 PUSH2 0x8E7 JUMP JUMPDEST PUSH1 0x0 PUSH2 0x5CC CALLER DUP6 DUP6 DUP6 PUSH1 0x0 PUSH2 0xA95 JUMP JUMPDEST SWAP1 POP PUSH1 0x0 ADDRESS PUSH1 0x1 PUSH1 0x1 PUSH1 0xA0 SHL SUB AND PUSH4 0xB0F479A1 PUSH1 0x40 MLOAD DUP2 PUSH4 0xFFFFFFFF AND PUSH1 0xE0 SHL DUP2 MSTORE PUSH1 0x4 ADD PUSH1 0x20 PUSH1 0x40 MLOAD DUP1 DUP4 SUB DUP2 DUP7 GAS STATICCALL ISZERO DUP1 ISZERO PUSH2 0x60E JUMPI RETURNDATASIZE PUSH1 0x0 DUP1 RETURNDATACOPY RETURNDATASIZE PUSH1 0x0 REVERT JUMPDEST POP POP POP POP PUSH1 0x40 MLOAD RETURNDATASIZE PUSH1 0x1F NOT PUSH1 0x1F DUP3 ADD AND DUP3 ADD DUP1 PUSH1 0x40 MSTORE POP DUP2 ADD SWAP1 PUSH2 0x632 SWAP2 SWAP1 PUSH2 0x11B6 JUMP JUMPDEST SWAP1 POP PUSH1 0x0 DUP2 PUSH1 0x1 PUSH1 0x1 PUSH1 0xA0 SHL SUB AND PUSH4 0x20487DED PUSH32 0x0 DUP6 PUSH1 0x40 MLOAD DUP4 PUSH4 0xFFFFFFFF AND PUSH1 0xE0 SHL DUP2 MSTORE PUSH1 0x4 ADD PUSH2 0x684 SWAP3 SWAP2 SWAP1 PUSH2 0x1223 JUMP JUMPDEST PUSH1 0x20 PUSH1 0x40 MLOAD DUP1 DUP4 SUB DUP2 DUP7 GAS STATICCALL ISZERO DUP1 ISZERO PUSH2 0x6A1 JUMPI RETURNDATASIZE PUSH1 0x0 DUP1 RETURNDATACOPY RETURNDATASIZE PUSH1 0x0 REVERT JUMPDEST POP POP POP POP PUSH1 0x40 MLOAD RETURNDATASIZE PUSH1 0x1F NOT PUSH1 0x1F DUP3 ADD AND DUP3 ADD DUP1 PUSH1 0x40 MSTORE POP DUP2 ADD SWAP1 PUSH2 0x6C5 SWAP2 SWAP1 PUSH2 0x1147 JUMP JUMPDEST SWAP1 POP SELFBALANCE DUP2 GT ISZERO PUSH2 0x6E7 JUMPI PUSH1 0x40 MLOAD PUSH3 0x461BCD PUSH1 0xE5 SHL DUP2 MSTORE PUSH1 0x4 ADD PUSH2 0x456 SWAP1 PUSH2 0x1160 JUMP JUMPDEST PUSH1 0x40 MLOAD PUSH4 0x96F4E9F9 PUSH1 0xE0 SHL DUP2 MSTORE PUSH1 0x1 PUSH1 0x1 PUSH1 0xA0 SHL SUB DUP4 AND SWAP1 PUSH4 0x96F4E9F9 SWAP1 DUP4 SWAP1 PUSH2 0x737 SWAP1 PUSH32 0x0 SWAP1 DUP9 SWAP1 PUSH1 0x4 ADD PUSH2 0x1223 JUMP JUMPDEST PUSH1 0x20 PUSH1 0x40 MLOAD DUP1 DUP4 SUB DUP2 DUP6 DUP9 GAS CALL ISZERO DUP1 ISZERO PUSH2 0x755 JUMPI RETURNDATASIZE PUSH1 0x0 DUP1 RETURNDATACOPY RETURNDATASIZE PUSH1 0x0 REVERT JUMPDEST POP POP POP POP POP PUSH1 0x40 MLOAD RETURNDATASIZE PUSH1 0x1F NOT PUSH1 0x1F DUP3 ADD AND DUP3 ADD DUP1 PUSH1 0x40 MSTORE POP DUP2 ADD SWAP1 PUSH2 0x77A SWAP2 SWAP1 PUSH2 0x1147 JUMP JUMPDEST POP POP POP POP POP POP POP JUMP JUMPDEST PUSH2 0x78B PUSH2 0x868 JUMP JUMPDEST PUSH1 0x2 DUP1 SLOAD PUSH1 0x1 PUSH1 0x1 PUSH1 0xA0 SHL SUB NOT AND PUSH1 0x1 PUSH1 0x1 PUSH1 0xA0 SHL SUB SWAP3 SWAP1 SWAP3 AND SWAP2 SWAP1 SWAP2 OR SWAP1 SSTORE JUMP JUMPDEST PUSH2 0x7B5 PUSH2 0x868 JUMP JUMPDEST PUSH1 0x1 SSTORE JUMP JUMPDEST PUSH2 0x7C2 PUSH2 0x868 JUMP JUMPDEST PUSH2 0x7CC PUSH1 0x0 PUSH2 0xBEF JUMP JUMPDEST JUMP JUMPDEST CALLER PUSH1 0x1 PUSH1 0x1 PUSH1 0xA0 SHL SUB PUSH32 0x0 AND EQ PUSH2 0x819 JUMPI PUSH1 0x40 MLOAD PUSH4 0x35FDCCCD PUSH1 0xE2 SHL DUP2 MSTORE CALLER PUSH1 0x4 DUP3 ADD MSTORE PUSH1 0x24 ADD PUSH2 0x456 JUMP JUMPDEST PUSH2 0x82A PUSH2 0x825 DUP3 PUSH2 0x14CD JUMP JUMPDEST PUSH2 0xC3F JUMP JUMPDEST POP JUMP JUMPDEST PUSH2 0x835 PUSH2 0x868 JUMP JUMPDEST PUSH1 0x1 PUSH1 0x1 PUSH1 0xA0 SHL SUB DUP2 AND PUSH2 0x85F JUMPI PUSH1 0x40 MLOAD PUSH4 0x1E4FBDF7 PUSH1 0xE0 SHL DUP2 MSTORE PUSH1 0x0 PUSH1 0x4 DUP3 ADD MSTORE PUSH1 0x24 ADD PUSH2 0x456 JUMP JUMPDEST PUSH2 0x82A DUP2 PUSH2 0xBEF JUMP JUMPDEST PUSH1 0x0 SLOAD PUSH1 0x1 PUSH1 0x1 PUSH1 0xA0 SHL SUB AND CALLER EQ PUSH2 0x7CC JUMPI PUSH1 0x40 MLOAD PUSH4 0x118CDAA7 PUSH1 0xE0 SHL DUP2 MSTORE CALLER PUSH1 0x4 DUP3 ADD MSTORE PUSH1 0x24 ADD PUSH2 0x456 JUMP JUMPDEST PUSH1 0x40 DUP1 MLOAD PUSH1 0x1 PUSH1 0x1 PUSH1 0xA0 SHL SUB DUP5 AND PUSH1 0x24 DUP3 ADD MSTORE PUSH1 0x44 DUP1 DUP3 ADD DUP5 SWAP1 MSTORE DUP3 MLOAD DUP1 DUP4 SUB SWAP1 SWAP2 ADD DUP2 MSTORE PUSH1 0x64 SWAP1 SWAP2 ADD SWAP1 SWAP2 MSTORE PUSH1 0x20 DUP2 ADD DUP1 MLOAD PUSH1 0x1 PUSH1 0x1 PUSH1 0xE0 SHL SUB AND PUSH4 0xA9059CBB PUSH1 0xE0 SHL OR SWAP1 MSTORE PUSH2 0x45F SWAP1 DUP5 SWAP1 PUSH2 0xCFD JUMP JUMPDEST PUSH1 0x1 PUSH1 0x1 PUSH1 0xA0 SHL SUB DUP1 DUP4 AND PUSH1 0x0 SWAP1 DUP2 MSTORE PUSH1 0x5 PUSH1 0x20 SWAP1 DUP2 MSTORE PUSH1 0x40 DUP1 DUP4 KECCAK256 SWAP4 DUP6 AND DUP4 MSTORE SWAP3 SWAP1 MSTORE SWAP1 DUP2 KECCAK256 SLOAD SWAP1 SUB PUSH2 0xA91 JUMPI PUSH1 0x1 PUSH1 0x1 PUSH1 0xA0 SHL SUB DUP1 DUP4 AND PUSH1 0x0 SWAP1 DUP2 MSTORE PUSH1 0x6 PUSH1 0x20 SWAP1 DUP2 MSTORE PUSH1 0x40 DUP1 DUP4 KECCAK256 SWAP4 DUP6 AND DUP4 MSTORE SWAP3 SWAP1 MSTORE SWAP1 DUP2 KECCAK256 DUP1 SLOAD PUSH1 0xFF NOT AND SWAP1 SSTORE JUMPDEST PUSH1 0x1 PUSH1 0x1 PUSH1 0xA0 SHL SUB DUP4 AND PUSH1 0x0 SWAP1 DUP2 MSTORE PUSH1 0x4 PUSH1 0x20 MSTORE PUSH1 0x40 SWAP1 KECCAK256 SLOAD DUP2 LT ISZERO PUSH2 0x45F JUMPI PUSH1 0x1 PUSH1 0x1 PUSH1 0xA0 SHL SUB DUP4 DUP2 AND PUSH1 0x0 SWAP1 DUP2 MSTORE PUSH1 0x4 PUSH1 0x20 MSTORE PUSH1 0x40 SWAP1 KECCAK256 DUP1 SLOAD SWAP2 DUP5 AND SWAP2 DUP4 SWAP1 DUP2 LT PUSH2 0x994 JUMPI PUSH2 0x994 PUSH2 0x157A JUMP JUMPDEST PUSH1 0x0 SWAP2 DUP3 MSTORE PUSH1 0x20 SWAP1 SWAP2 KECCAK256 ADD SLOAD PUSH1 0x1 PUSH1 0x1 PUSH1 0xA0 SHL SUB AND SUB PUSH2 0xA89 JUMPI PUSH1 0x1 PUSH1 0x1 PUSH1 0xA0 SHL SUB DUP4 AND PUSH1 0x0 SWAP1 DUP2 MSTORE PUSH1 0x4 PUSH1 0x20 MSTORE PUSH1 0x40 SWAP1 KECCAK256 DUP1 SLOAD PUSH2 0x9D4 SWAP1 PUSH1 0x1 SWAP1 PUSH2 0x11A3 JUMP JUMPDEST DUP2 SLOAD DUP2 LT PUSH2 0x9E4 JUMPI PUSH2 0x9E4 PUSH2 0x157A JUMP JUMPDEST PUSH1 0x0 SWAP2 DUP3 MSTORE PUSH1 0x20 DUP1 DUP4 KECCAK256 SWAP1 SWAP2 ADD SLOAD PUSH1 0x1 PUSH1 0x1 PUSH1 0xA0 SHL SUB DUP7 DUP2 AND DUP5 MSTORE PUSH1 0x4 SWAP1 SWAP3 MSTORE PUSH1 0x40 SWAP1 SWAP3 KECCAK256 DUP1 SLOAD SWAP2 SWAP1 SWAP3 AND SWAP2 SWAP1 DUP4 SWAP1 DUP2 LT PUSH2 0xA21 JUMPI PUSH2 0xA21 PUSH2 0x157A JUMP JUMPDEST PUSH1 0x0 SWAP2 DUP3 MSTORE PUSH1 0x20 DUP1 DUP4 KECCAK256 SWAP2 SWAP1 SWAP2 ADD DUP1 SLOAD PUSH1 0x1 PUSH1 0x1 PUSH1 0xA0 SHL SUB NOT AND PUSH1 0x1 PUSH1 0x1 PUSH1 0xA0 SHL SUB SWAP5 DUP6 AND OR SWAP1 SSTORE SWAP2 DUP6 AND DUP2 MSTORE PUSH1 0x4 SWAP1 SWAP2 MSTORE PUSH1 0x40 SWAP1 KECCAK256 DUP1 SLOAD DUP1 PUSH2 0xA66 JUMPI PUSH2 0xA66 PUSH2 0x1590 JUMP JUMPDEST PUSH1 0x0 DUP3 DUP2 MSTORE PUSH1 0x20 SWAP1 KECCAK256 DUP2 ADD PUSH1 0x0 NOT SWAP1 DUP2 ADD DUP1 SLOAD PUSH1 0x1 PUSH1 0x1 PUSH1 0xA0 SHL SUB NOT AND SWAP1 SSTORE ADD SWAP1 SSTORE JUMPDEST PUSH1 0x1 ADD PUSH2 0x945 JUMP JUMPDEST POP POP JUMP JUMPDEST PUSH2 0xAD0 PUSH1 0x40 MLOAD DUP1 PUSH1 0xA0 ADD PUSH1 0x40 MSTORE DUP1 PUSH1 0x60 DUP2 MSTORE PUSH1 0x20 ADD PUSH1 0x60 DUP2 MSTORE PUSH1 0x20 ADD PUSH1 0x60 DUP2 MSTORE PUSH1 0x20 ADD PUSH1 0x0 PUSH1 0x1 PUSH1 0x1 PUSH1 0xA0 SHL SUB AND DUP2 MSTORE PUSH1 0x20 ADD PUSH1 0x60 DUP2 MSTORE POP SWAP1 JUMP JUMPDEST PUSH1 0x40 DUP1 MLOAD PUSH1 0xA0 DUP1 DUP3 ADD DUP4 MSTORE PUSH1 0x2 SLOAD PUSH1 0x1 PUSH1 0x1 PUSH1 0xA0 SHL SUB SWAP1 DUP2 AND PUSH1 0xC0 DUP1 DUP6 ADD SWAP2 SWAP1 SWAP2 MSTORE DUP5 MLOAD DUP1 DUP6 SUB SWAP1 SWAP2 ADD DUP2 MSTORE PUSH1 0xE0 DUP5 ADD DUP6 MSTORE DUP4 MSTORE DUP4 MLOAD DUP11 DUP3 AND PUSH1 0x20 DUP1 DUP4 ADD SWAP2 SWAP1 SWAP2 MSTORE DUP11 DUP4 AND DUP3 DUP8 ADD MSTORE SWAP2 DUP10 AND PUSH1 0x60 DUP3 ADD MSTORE PUSH1 0x80 DUP1 DUP3 ADD DUP10 SWAP1 MSTORE DUP6 MLOAD DUP1 DUP4 SUB SWAP1 SWAP2 ADD DUP2 MSTORE SWAP3 ADD DUP5 MSTORE DUP1 DUP4 ADD SWAP2 SWAP1 SWAP2 MSTORE DUP3 MLOAD PUSH1 0x0 DUP1 DUP3 MSTORE SWAP2 DUP2 ADD DUP5 MSTORE SWAP2 SWAP3 DUP4 ADD SWAP2 SWAP1 PUSH2 0xB7C JUMP JUMPDEST PUSH1 0x40 DUP1 MLOAD DUP1 DUP3 ADD SWAP1 SWAP2 MSTORE PUSH1 0x0 DUP1 DUP3 MSTORE PUSH1 0x20 DUP3 ADD MSTORE DUP2 MSTORE PUSH1 0x20 ADD SWAP1 PUSH1 0x1 SWAP1 SUB SWAP1 DUP2 PUSH2 0xB55 JUMPI SWAP1 POP JUMPDEST POP DUP2 MSTORE PUSH1 0x20 ADD DUP4 PUSH1 0x1 PUSH1 0x1 PUSH1 0xA0 SHL SUB AND DUP2 MSTORE PUSH1 0x20 ADD PUSH2 0xBE3 PUSH1 0x40 MLOAD DUP1 PUSH1 0x20 ADD PUSH1 0x40 MSTORE DUP1 PUSH3 0x30D40 DUP2 MSTORE POP PUSH1 0x40 DUP1 MLOAD SWAP2 MLOAD PUSH1 0x24 DUP1 DUP5 ADD SWAP2 SWAP1 SWAP2 MSTORE DUP2 MLOAD DUP1 DUP5 SUB SWAP1 SWAP2 ADD DUP2 MSTORE PUSH1 0x44 SWAP1 SWAP3 ADD SWAP1 MSTORE PUSH1 0x20 DUP2 ADD DUP1 MLOAD PUSH1 0x1 PUSH1 0x1 PUSH1 0xE0 SHL SUB AND PUSH4 0x97A657C9 PUSH1 0xE0 SHL OR SWAP1 MSTORE SWAP1 JUMP JUMPDEST SWAP1 MSTORE SWAP7 SWAP6 POP POP POP POP POP POP JUMP JUMPDEST PUSH1 0x0 DUP1 SLOAD PUSH1 0x1 PUSH1 0x1 PUSH1 0xA0 SHL SUB DUP4 DUP2 AND PUSH1 0x1 PUSH1 0x1 PUSH1 0xA0 SHL SUB NOT DUP4 AND DUP2 OR DUP5 SSTORE PUSH1 0x40 MLOAD SWAP2 SWAP1 SWAP3 AND SWAP3 DUP4 SWAP2 PUSH32 0x8BE0079C531659141344CD1FD0A4F28419497F9722A3DAAFE3B4186F6B6457E0 SWAP2 SWAP1 LOG3 POP POP JUMP JUMPDEST PUSH1 0x2 SLOAD PUSH1 0x40 DUP3 ADD MLOAD DUP1 MLOAD PUSH1 0x1 PUSH1 0x1 PUSH1 0xA0 SHL SUB SWAP1 SWAP3 AND SWAP2 PUSH2 0xC67 SWAP2 PUSH1 0x20 SWAP2 DUP2 ADD DUP3 ADD SWAP2 ADD PUSH2 0x11B6 JUMP JUMPDEST PUSH1 0x1 PUSH1 0x1 PUSH1 0xA0 SHL SUB AND EQ PUSH2 0xCAF JUMPI PUSH1 0x40 MLOAD PUSH3 0x461BCD PUSH1 0xE5 SHL DUP2 MSTORE PUSH1 0x20 PUSH1 0x4 DUP3 ADD MSTORE PUSH1 0xF PUSH1 0x24 DUP3 ADD MSTORE PUSH15 0x496E76616C69642073656E64657221 PUSH1 0x88 SHL PUSH1 0x44 DUP3 ADD MSTORE PUSH1 0x64 ADD PUSH2 0x456 JUMP JUMPDEST PUSH1 0x0 DUP1 PUSH1 0x0 DUP1 DUP5 PUSH1 0x60 ADD MLOAD DUP1 PUSH1 0x20 ADD SWAP1 MLOAD DUP2 ADD SWAP1 PUSH2 0xCCD SWAP2 SWAP1 PUSH2 0x15B6 JUMP JUMPDEST SWAP4 POP SWAP4 POP SWAP4 POP SWAP4 POP DUP1 ISZERO PUSH2 0xCEB JUMPI PUSH2 0xCE6 DUP5 DUP5 DUP5 PUSH2 0xD60 JUMP JUMPDEST PUSH2 0xCF6 JUMP JUMPDEST PUSH2 0xCF6 DUP5 DUP5 DUP5 PUSH2 0xE2E JUMP JUMPDEST POP POP POP POP POP JUMP JUMPDEST PUSH1 0x0 PUSH2 0xD12 PUSH1 0x1 PUSH1 0x1 PUSH1 0xA0 SHL SUB DUP5 AND DUP4 PUSH2 0xEBA JUMP JUMPDEST SWAP1 POP DUP1 MLOAD PUSH1 0x0 EQ ISZERO DUP1 ISZERO PUSH2 0xD37 JUMPI POP DUP1 DUP1 PUSH1 0x20 ADD SWAP1 MLOAD DUP2 ADD SWAP1 PUSH2 0xD35 SWAP2 SWAP1 PUSH2 0x1609 JUMP JUMPDEST ISZERO JUMPDEST ISZERO PUSH2 0x45F JUMPI PUSH1 0x40 MLOAD PUSH4 0x5274AFE7 PUSH1 0xE0 SHL DUP2 MSTORE PUSH1 0x1 PUSH1 0x1 PUSH1 0xA0 SHL SUB DUP5 AND PUSH1 0x4 DUP3 ADD MSTORE PUSH1 0x24 ADD PUSH2 0x456 JUMP JUMPDEST PUSH1 0x1 PUSH1 0x1 PUSH1 0xA0 SHL SUB DUP1 DUP5 AND PUSH1 0x0 SWAP1 DUP2 MSTORE PUSH1 0x6 PUSH1 0x20 SWAP1 DUP2 MSTORE PUSH1 0x40 DUP1 DUP4 KECCAK256 SWAP4 DUP7 AND DUP4 MSTORE SWAP3 SWAP1 MSTORE KECCAK256 SLOAD PUSH1 0xFF AND PUSH2 0xDED JUMPI PUSH1 0x1 PUSH1 0x1 PUSH1 0xA0 SHL SUB DUP4 DUP2 AND PUSH1 0x0 DUP2 DUP2 MSTORE PUSH1 0x4 PUSH1 0x20 SWAP1 DUP2 MSTORE PUSH1 0x40 DUP1 DUP4 KECCAK256 DUP1 SLOAD PUSH1 0x1 DUP1 DUP3 ADD DUP4 SSTORE SWAP2 DUP6 MSTORE DUP4 DUP6 KECCAK256 ADD DUP1 SLOAD PUSH1 0x1 PUSH1 0x1 PUSH1 0xA0 SHL SUB NOT AND SWAP7 DUP10 AND SWAP7 DUP8 OR SWAP1 SSTORE SWAP4 DUP4 MSTORE PUSH1 0x6 DUP3 MSTORE DUP1 DUP4 KECCAK256 SWAP5 DUP4 MSTORE SWAP4 SWAP1 MSTORE SWAP2 SWAP1 SWAP2 KECCAK256 DUP1 SLOAD PUSH1 0xFF NOT AND SWAP1 SWAP2 OR SWAP1 SSTORE JUMPDEST PUSH1 0x1 PUSH1 0x1 PUSH1 0xA0 SHL SUB DUP1 DUP5 AND PUSH1 0x0 SWAP1 DUP2 MSTORE PUSH1 0x5 PUSH1 0x20 SWAP1 DUP2 MSTORE PUSH1 0x40 DUP1 DUP4 KECCAK256 SWAP4 DUP7 AND DUP4 MSTORE SWAP3 SWAP1 MSTORE SWAP1 DUP2 KECCAK256 DUP1 SLOAD DUP4 SWAP3 SWAP1 PUSH2 0xE24 SWAP1 DUP5 SWAP1 PUSH2 0x1624 JUMP JUMPDEST SWAP1 SWAP2 SSTORE POP POP POP POP POP JUMP JUMPDEST PUSH1 0x1 PUSH1 0x1 PUSH1 0xA0 SHL SUB DUP1 DUP5 AND PUSH1 0x0 SWAP1 DUP2 MSTORE PUSH1 0x5 PUSH1 0x20 SWAP1 DUP2 MSTORE PUSH1 0x40 DUP1 DUP4 KECCAK256 SWAP4 DUP7 AND DUP4 MSTORE SWAP3 SWAP1 MSTORE KECCAK256 SLOAD DUP2 GT ISZERO PUSH2 0xE73 JUMPI PUSH1 0x40 MLOAD PUSH3 0x461BCD PUSH1 0xE5 SHL DUP2 MSTORE PUSH1 0x4 ADD PUSH2 0x456 SWAP1 PUSH2 0x1160 JUMP JUMPDEST PUSH1 0x1 PUSH1 0x1 PUSH1 0xA0 SHL SUB DUP1 DUP5 AND PUSH1 0x0 SWAP1 DUP2 MSTORE PUSH1 0x5 PUSH1 0x20 SWAP1 DUP2 MSTORE PUSH1 0x40 DUP1 DUP4 KECCAK256 SWAP4 DUP7 AND DUP4 MSTORE SWAP3 SWAP1 MSTORE SWAP1 DUP2 KECCAK256 DUP1 SLOAD DUP4 SWAP3 SWAP1 PUSH2 0xEAA SWAP1 DUP5 SWAP1 PUSH2 0x11A3 JUMP JUMPDEST SWAP1 SWAP2 SSTORE POP PUSH2 0x45F SWAP1 POP DUP4 DUP4 PUSH2 0x8E7 JUMP JUMPDEST PUSH1 0x60 PUSH2 0xEC8 DUP4 DUP4 PUSH1 0x0 PUSH2 0xECF JUMP JUMPDEST SWAP4 SWAP3 POP POP POP JUMP JUMPDEST PUSH1 0x60 DUP2 SELFBALANCE LT ISZERO PUSH2 0xEF4 JUMPI PUSH1 0x40 MLOAD PUSH4 0xCD786059 PUSH1 0xE0 SHL DUP2 MSTORE ADDRESS PUSH1 0x4 DUP3 ADD MSTORE PUSH1 0x24 ADD PUSH2 0x456 JUMP JUMPDEST PUSH1 0x0 DUP1 DUP6 PUSH1 0x1 PUSH1 0x1 PUSH1 0xA0 SHL SUB AND DUP5 DUP7 PUSH1 0x40 MLOAD PUSH2 0xF10 SWAP2 SWAP1 PUSH2 0x1637 JUMP JUMPDEST PUSH1 0x0 PUSH1 0x40 MLOAD DUP1 DUP4 SUB DUP2 DUP6 DUP8 GAS CALL SWAP3 POP POP POP RETURNDATASIZE DUP1 PUSH1 0x0 DUP2 EQ PUSH2 0xF4D JUMPI PUSH1 0x40 MLOAD SWAP2 POP PUSH1 0x1F NOT PUSH1 0x3F RETURNDATASIZE ADD AND DUP3 ADD PUSH1 0x40 MSTORE RETURNDATASIZE DUP3 MSTORE RETURNDATASIZE PUSH1 0x0 PUSH1 0x20 DUP5 ADD RETURNDATACOPY PUSH2 0xF52 JUMP JUMPDEST PUSH1 0x60 SWAP2 POP JUMPDEST POP SWAP2 POP SWAP2 POP PUSH2 0xF62 DUP7 DUP4 DUP4 PUSH2 0xF6C JUMP JUMPDEST SWAP7 SWAP6 POP POP POP POP POP POP JUMP JUMPDEST PUSH1 0x60 DUP3 PUSH2 0xF81 JUMPI PUSH2 0xF7C DUP3 PUSH2 0xFC8 JUMP JUMPDEST PUSH2 0xEC8 JUMP JUMPDEST DUP2 MLOAD ISZERO DUP1 ISZERO PUSH2 0xF98 JUMPI POP PUSH1 0x1 PUSH1 0x1 PUSH1 0xA0 SHL SUB DUP5 AND EXTCODESIZE ISZERO JUMPDEST ISZERO PUSH2 0xFC1 JUMPI PUSH1 0x40 MLOAD PUSH4 0x9996B315 PUSH1 0xE0 SHL DUP2 MSTORE PUSH1 0x1 PUSH1 0x1 PUSH1 0xA0 SHL SUB DUP6 AND PUSH1 0x4 DUP3 ADD MSTORE PUSH1 0x24 ADD PUSH2 0x456 JUMP JUMPDEST POP DUP1 PUSH2 0xEC8 JUMP JUMPDEST DUP1 MLOAD ISZERO PUSH2 0xFD8 JUMPI DUP1 MLOAD DUP1 DUP3 PUSH1 0x20 ADD REVERT JUMPDEST PUSH1 0x40 MLOAD PUSH4 0xA12F521 PUSH1 0xE1 SHL DUP2 MSTORE PUSH1 0x4 ADD PUSH1 0x40 MLOAD DUP1 SWAP2 SUB SWAP1 REVERT JUMPDEST PUSH1 0x0 PUSH1 0x20 DUP3 DUP5 SUB SLT ISZERO PUSH2 0x1003 JUMPI PUSH1 0x0 DUP1 REVERT JUMPDEST DUP2 CALLDATALOAD PUSH1 0x1 PUSH1 0x1 PUSH1 0xE0 SHL SUB NOT DUP2 AND DUP2 EQ PUSH2 0xEC8 JUMPI PUSH1 0x0 DUP1 REVERT JUMPDEST PUSH1 0x1 PUSH1 0x1 PUSH1 0xA0 SHL SUB DUP2 AND DUP2 EQ PUSH2 0x82A JUMPI PUSH1 0x0 DUP1 REVERT JUMPDEST PUSH1 0x0 DUP1 PUSH1 0x40 DUP4 DUP6 SUB SLT ISZERO PUSH2 0x1043 JUMPI PUSH1 0x0 DUP1 REVERT JUMPDEST DUP3 CALLDATALOAD PUSH2 0x104E DUP2 PUSH2 0x101B JUMP JUMPDEST SWAP5 PUSH1 0x20 SWAP4 SWAP1 SWAP4 ADD CALLDATALOAD SWAP4 POP POP POP JUMP JUMPDEST PUSH1 0x0 PUSH1 0x20 DUP3 DUP5 SUB SLT ISZERO PUSH2 0x106E JUMPI PUSH1 0x0 DUP1 REVERT JUMPDEST DUP2 CALLDATALOAD PUSH2 0xEC8 DUP2 PUSH2 0x101B JUMP JUMPDEST PUSH1 0x0 DUP1 PUSH1 0x40 DUP4 DUP6 SUB SLT ISZERO PUSH2 0x108C JUMPI PUSH1 0x0 DUP1 REVERT JUMPDEST DUP3 CALLDATALOAD PUSH2 0x1097 DUP2 PUSH2 0x101B JUMP JUMPDEST SWAP2 POP PUSH1 0x20 DUP4 ADD CALLDATALOAD PUSH2 0x10A7 DUP2 PUSH2 0x101B JUMP JUMPDEST DUP1 SWAP2 POP POP SWAP3 POP SWAP3 SWAP1 POP JUMP JUMPDEST PUSH1 0x0 DUP1 PUSH1 0x0 PUSH1 0x60 DUP5 DUP7 SUB SLT ISZERO PUSH2 0x10C7 JUMPI PUSH1 0x0 DUP1 REVERT JUMPDEST DUP4 CALLDATALOAD PUSH2 0x10D2 DUP2 PUSH2 0x101B JUMP JUMPDEST SWAP3 POP PUSH1 0x20 DUP5 ADD CALLDATALOAD PUSH2 0x10E2 DUP2 PUSH2 0x101B JUMP JUMPDEST SWAP3 SWAP6 SWAP3 SWAP5 POP POP POP PUSH1 0x40 SWAP2 SWAP1 SWAP2 ADD CALLDATALOAD SWAP1 JUMP JUMPDEST PUSH1 0x0 PUSH1 0x20 DUP3 DUP5 SUB SLT ISZERO PUSH2 0x1105 JUMPI PUSH1 0x0 DUP1 REVERT JUMPDEST POP CALLDATALOAD SWAP2 SWAP1 POP JUMP JUMPDEST PUSH1 0x0 PUSH1 0x20 DUP3 DUP5 SUB SLT ISZERO PUSH2 0x111E JUMPI PUSH1 0x0 DUP1 REVERT JUMPDEST DUP2 CALLDATALOAD PUSH8 0xFFFFFFFFFFFFFFFF DUP2 GT ISZERO PUSH2 0x1135 JUMPI PUSH1 0x0 DUP1 REVERT JUMPDEST DUP3 ADD PUSH1 0xA0 DUP2 DUP6 SUB SLT ISZERO PUSH2 0xEC8 JUMPI PUSH1 0x0 DUP1 REVERT JUMPDEST PUSH1 0x0 PUSH1 0x20 DUP3 DUP5 SUB SLT ISZERO PUSH2 0x1159 JUMPI PUSH1 0x0 DUP1 REVERT JUMPDEST POP MLOAD SWAP2 SWAP1 POP JUMP JUMPDEST PUSH1 0x20 DUP1 DUP3 MSTORE PUSH1 0x13 SWAP1 DUP3 ADD MSTORE PUSH19 0x4E6F7420656E6F7567682062616C616E636521 PUSH1 0x68 SHL PUSH1 0x40 DUP3 ADD MSTORE PUSH1 0x60 ADD SWAP1 JUMP JUMPDEST PUSH4 0x4E487B71 PUSH1 0xE0 SHL PUSH1 0x0 MSTORE PUSH1 0x11 PUSH1 0x4 MSTORE PUSH1 0x24 PUSH1 0x0 REVERT JUMPDEST DUP2 DUP2 SUB DUP2 DUP2 GT ISZERO PUSH2 0x388 JUMPI PUSH2 0x388 PUSH2 0x118D JUMP JUMPDEST PUSH1 0x0 PUSH1 0x20 DUP3 DUP5 SUB SLT ISZERO PUSH2 0x11C8 JUMPI PUSH1 0x0 DUP1 REVERT JUMPDEST DUP2 MLOAD PUSH2 0xEC8 DUP2 PUSH2 0x101B JUMP JUMPDEST PUSH1 0x0 JUMPDEST DUP4 DUP2 LT ISZERO PUSH2 0x11EE JUMPI DUP2 DUP2 ADD MLOAD DUP4 DUP3 ADD MSTORE PUSH1 0x20 ADD PUSH2 0x11D6 JUMP JUMPDEST POP POP PUSH1 0x0 SWAP2 ADD MSTORE JUMP JUMPDEST PUSH1 0x0 DUP2 MLOAD DUP1 DUP5 MSTORE PUSH2 0x120F DUP2 PUSH1 0x20 DUP7 ADD PUSH1 0x20 DUP7 ADD PUSH2 0x11D3 JUMP JUMPDEST PUSH1 0x1F ADD PUSH1 0x1F NOT AND SWAP3 SWAP1 SWAP3 ADD PUSH1 0x20 ADD SWAP3 SWAP2 POP POP JUMP JUMPDEST PUSH1 0x0 PUSH1 0x40 PUSH8 0xFFFFFFFFFFFFFFFF DUP6 AND DUP4 MSTORE PUSH1 0x20 PUSH1 0x40 DUP2 DUP6 ADD MSTORE DUP5 MLOAD PUSH1 0xA0 PUSH1 0x40 DUP7 ADD MSTORE PUSH2 0x1252 PUSH1 0xE0 DUP7 ADD DUP3 PUSH2 0x11F7 JUMP JUMPDEST SWAP1 POP DUP2 DUP7 ADD MLOAD PUSH1 0x3F NOT DUP1 DUP8 DUP5 SUB ADD PUSH1 0x60 DUP9 ADD MSTORE PUSH2 0x126F DUP4 DUP4 PUSH2 0x11F7 JUMP JUMPDEST PUSH1 0x40 DUP10 ADD MLOAD DUP9 DUP3 SUB DUP4 ADD PUSH1 0x80 DUP11 ADD MSTORE DUP1 MLOAD DUP1 DUP4 MSTORE SWAP1 DUP7 ADD SWAP5 POP PUSH1 0x0 SWAP4 POP SWAP1 DUP6 ADD SWAP1 JUMPDEST DUP1 DUP5 LT ISZERO PUSH2 0x12C3 JUMPI DUP5 MLOAD DUP1 MLOAD PUSH1 0x1 PUSH1 0x1 PUSH1 0xA0 SHL SUB AND DUP4 MSTORE DUP7 ADD MLOAD DUP7 DUP4 ADD MSTORE SWAP4 DUP6 ADD SWAP4 PUSH1 0x1 SWAP4 SWAP1 SWAP4 ADD SWAP3 SWAP1 DUP7 ADD SWAP1 PUSH2 0x1291 JUMP JUMPDEST POP PUSH1 0x60 DUP10 ADD MLOAD PUSH1 0x1 PUSH1 0x1 PUSH1 0xA0 SHL SUB AND PUSH1 0xA0 DUP10 ADD MSTORE PUSH1 0x80 DUP10 ADD MLOAD DUP9 DUP3 SUB DUP4 ADD PUSH1 0xC0 DUP11 ADD MSTORE SWAP6 POP PUSH2 0x12F2 DUP2 DUP8 PUSH2 0x11F7 JUMP JUMPDEST SWAP11 SWAP10 POP POP POP POP POP POP POP POP POP POP JUMP JUMPDEST PUSH4 0x4E487B71 PUSH1 0xE0 SHL PUSH1 0x0 MSTORE PUSH1 0x41 PUSH1 0x4 MSTORE PUSH1 0x24 PUSH1 0x0 REVERT JUMPDEST PUSH1 0x40 DUP1 MLOAD SWAP1 DUP2 ADD PUSH8 0xFFFFFFFFFFFFFFFF DUP2 GT DUP3 DUP3 LT OR ISZERO PUSH2 0x1339 JUMPI PUSH2 0x1339 PUSH2 0x1300 JUMP JUMPDEST PUSH1 0x40 MSTORE SWAP1 JUMP JUMPDEST PUSH1 0x40 MLOAD PUSH1 0xA0 DUP2 ADD PUSH8 0xFFFFFFFFFFFFFFFF DUP2 GT DUP3 DUP3 LT OR ISZERO PUSH2 0x1339 JUMPI PUSH2 0x1339 PUSH2 0x1300 JUMP JUMPDEST PUSH1 0x40 MLOAD PUSH1 0x1F DUP3 ADD PUSH1 0x1F NOT AND DUP2 ADD PUSH8 0xFFFFFFFFFFFFFFFF DUP2 GT DUP3 DUP3 LT OR ISZERO PUSH2 0x138B JUMPI PUSH2 0x138B PUSH2 0x1300 JUMP JUMPDEST PUSH1 0x40 MSTORE SWAP2 SWAP1 POP JUMP JUMPDEST DUP1 CALLDATALOAD PUSH8 0xFFFFFFFFFFFFFFFF DUP2 AND DUP2 EQ PUSH2 0x13AB JUMPI PUSH1 0x0 DUP1 REVERT JUMPDEST SWAP2 SWAP1 POP JUMP JUMPDEST PUSH1 0x0 DUP3 PUSH1 0x1F DUP4 ADD SLT PUSH2 0x13C1 JUMPI PUSH1 0x0 DUP1 REVERT JUMPDEST DUP2 CALLDATALOAD PUSH8 0xFFFFFFFFFFFFFFFF DUP2 GT ISZERO PUSH2 0x13DB JUMPI PUSH2 0x13DB PUSH2 0x1300 JUMP JUMPDEST PUSH2 0x13EE PUSH1 0x1F DUP3 ADD PUSH1 0x1F NOT AND PUSH1 0x20 ADD PUSH2 0x1362 JUMP JUMPDEST DUP2 DUP2 MSTORE DUP5 PUSH1 0x20 DUP4 DUP7 ADD ADD GT ISZERO PUSH2 0x1403 JUMPI PUSH1 0x0 DUP1 REVERT JUMPDEST DUP2 PUSH1 0x20 DUP6 ADD PUSH1 0x20 DUP4 ADD CALLDATACOPY PUSH1 0x0 SWAP2 DUP2 ADD PUSH1 0x20 ADD SWAP2 SWAP1 SWAP2 MSTORE SWAP4 SWAP3 POP POP POP JUMP JUMPDEST PUSH1 0x0 DUP3 PUSH1 0x1F DUP4 ADD SLT PUSH2 0x1431 JUMPI PUSH1 0x0 DUP1 REVERT JUMPDEST DUP2 CALLDATALOAD PUSH1 0x20 PUSH8 0xFFFFFFFFFFFFFFFF DUP3 GT ISZERO PUSH2 0x144D JUMPI PUSH2 0x144D PUSH2 0x1300 JUMP JUMPDEST PUSH2 0x145B DUP2 DUP4 PUSH1 0x5 SHL ADD PUSH2 0x1362 JUMP JUMPDEST DUP3 DUP2 MSTORE PUSH1 0x6 SWAP3 SWAP1 SWAP3 SHL DUP5 ADD DUP2 ADD SWAP2 DUP2 DUP2 ADD SWAP1 DUP7 DUP5 GT ISZERO PUSH2 0x147A JUMPI PUSH1 0x0 DUP1 REVERT JUMPDEST DUP3 DUP7 ADD JUMPDEST DUP5 DUP2 LT ISZERO PUSH2 0x14C2 JUMPI PUSH1 0x40 DUP2 DUP10 SUB SLT ISZERO PUSH2 0x1497 JUMPI PUSH1 0x0 DUP1 DUP2 REVERT JUMPDEST PUSH2 0x149F PUSH2 0x1316 JUMP JUMPDEST DUP2 CALLDATALOAD PUSH2 0x14AA DUP2 PUSH2 0x101B JUMP JUMPDEST DUP2 MSTORE DUP2 DUP6 ADD CALLDATALOAD DUP6 DUP3 ADD MSTORE DUP4 MSTORE SWAP2 DUP4 ADD SWAP2 PUSH1 0x40 ADD PUSH2 0x147E JUMP JUMPDEST POP SWAP7 SWAP6 POP POP POP POP POP POP JUMP JUMPDEST PUSH1 0x0 PUSH1 0xA0 DUP3 CALLDATASIZE SUB SLT ISZERO PUSH2 0x14DF JUMPI PUSH1 0x0 DUP1 REVERT JUMPDEST PUSH2 0x14E7 PUSH2 0x133F JUMP JUMPDEST DUP3 CALLDATALOAD DUP2 MSTORE PUSH2 0x14F7 PUSH1 0x20 DUP5 ADD PUSH2 0x1393 JUMP JUMPDEST PUSH1 0x20 DUP3 ADD MSTORE PUSH1 0x40 DUP4 ADD CALLDATALOAD PUSH8 0xFFFFFFFFFFFFFFFF DUP1 DUP3 GT ISZERO PUSH2 0x1517 JUMPI PUSH1 0x0 DUP1 REVERT JUMPDEST PUSH2 0x1523 CALLDATASIZE DUP4 DUP8 ADD PUSH2 0x13B0 JUMP JUMPDEST PUSH1 0x40 DUP5 ADD MSTORE PUSH1 0x60 DUP6 ADD CALLDATALOAD SWAP2 POP DUP1 DUP3 GT ISZERO PUSH2 0x153C JUMPI PUSH1 0x0 DUP1 REVERT JUMPDEST PUSH2 0x1548 CALLDATASIZE DUP4 DUP8 ADD PUSH2 0x13B0 JUMP JUMPDEST PUSH1 0x60 DUP5 ADD MSTORE PUSH1 0x80 DUP6 ADD CALLDATALOAD SWAP2 POP DUP1 DUP3 GT ISZERO PUSH2 0x1561 JUMPI PUSH1 0x0 DUP1 REVERT JUMPDEST POP PUSH2 0x156E CALLDATASIZE DUP3 DUP7 ADD PUSH2 0x1420 JUMP JUMPDEST PUSH1 0x80 DUP4 ADD MSTORE POP SWAP3 SWAP2 POP POP JUMP JUMPDEST PUSH4 0x4E487B71 PUSH1 0xE0 SHL PUSH1 0x0 MSTORE PUSH1 0x32 PUSH1 0x4 MSTORE PUSH1 0x24 PUSH1 0x0 REVERT JUMPDEST PUSH4 0x4E487B71 PUSH1 0xE0 SHL PUSH1 0x0 MSTORE PUSH1 0x31 PUSH1 0x4 MSTORE PUSH1 0x24 PUSH1 0x0 REVERT JUMPDEST DUP1 MLOAD DUP1 ISZERO ISZERO DUP2 EQ PUSH2 0x13AB JUMPI PUSH1 0x0 DUP1 REVERT JUMPDEST PUSH1 0x0 DUP1 PUSH1 0x0 DUP1 PUSH1 0x80 DUP6 DUP8 SUB SLT ISZERO PUSH2 0x15CC JUMPI PUSH1 0x0 DUP1 REVERT JUMPDEST DUP5 MLOAD PUSH2 0x15D7 DUP2 PUSH2 0x101B JUMP JUMPDEST PUSH1 0x20 DUP7 ADD MLOAD SWAP1 SWAP5 POP PUSH2 0x15E8 DUP2 PUSH2 0x101B JUMP JUMPDEST PUSH1 0x40 DUP7 ADD MLOAD SWAP1 SWAP4 POP SWAP2 POP PUSH2 0x15FE PUSH1 0x60 DUP7 ADD PUSH2 0x15A6 JUMP JUMPDEST SWAP1 POP SWAP3 SWAP6 SWAP2 SWAP5 POP SWAP3 POP JUMP JUMPDEST PUSH1 0x0 PUSH1 0x20 DUP3 DUP5 SUB SLT ISZERO PUSH2 0x161B JUMPI PUSH1 0x0 DUP1 REVERT JUMPDEST PUSH2 0xEC8 DUP3 PUSH2 0x15A6 JUMP JUMPDEST DUP1 DUP3 ADD DUP1 DUP3 GT ISZERO PUSH2 0x388 JUMPI PUSH2 0x388 PUSH2 0x118D JUMP JUMPDEST PUSH1 0x0 DUP3 MLOAD PUSH2 0x1649 DUP2 DUP5 PUSH1 0x20 DUP8 ADD PUSH2 0x11D3 JUMP JUMPDEST SWAP2 SWAP1 SWAP2 ADD SWAP3 SWAP2 POP POP JUMP INVALID LOG2 PUSH5 0x6970667358 0x22 SLT KECCAK256 PUSH21 0x681D08A9625C00042225AAE8DFF121C7DE479DF7A6 MULMOD PUSH16 0xE0A0DB9AF75B3F7964736F6C63430008 XOR STOP CALLER "},"methodIdentifiers":{"balance(address,address)":"b203bb99","ccipReceive((bytes32,uint64,bytes,bytes,(address,uint256)[]))":"85572ffb","getLength(address)":"fe611a07","getRouter()":"b0f479a1","myCrossChainTokens(address,uint256)":"0b18a060","owner()":"8da5cb5b","renounceOwnership()":"715018a6","sendTokensOut(address,address,uint256)":"5812eed9","setFee(uint256)":"69fe0e2d","setVault(address)":"6817031b","supportsInterface(bytes4)":"01ffc9a7","tokenExist(address,address)":"8cc23ed7","transferOwnership(address)":"f2fde38b","withdrawNative(address)":"2f622e6b","withdrawToken(address,address)":"3aeac4e1"}},"storageLayout":{"storage":[{"astId":261,"contract":"contracts/Master.sol:Master","label":"_owner","offset":0,"slot":"0","type":"t_address"},{"astId":1152,"contract":"contracts/Master.sol:Master","label":"fee","offset":0,"slot":"1","type":"t_uint256"},{"astId":1157,"contract":"contracts/Master.sol:Master","label":"vault","offset":0,"slot":"2","type":"t_address"},{"astId":1160,"contract":"contracts/Master.sol:Master","label":"router_ccip","offset":0,"slot":"3","type":"t_address"},{"astId":1165,"contract":"contracts/Master.sol:Master","label":"myCrossChainTokens","offset":0,"slot":"4","type":"t_mapping(t_address,t_array(t_address)dyn_storage)"},{"astId":1171,"contract":"contracts/Master.sol:Master","label":"balance","offset":0,"slot":"5","type":"t_mapping(t_address,t_mapping(t_address,t_uint256))"},{"astId":1177,"contract":"contracts/Master.sol:Master","label":"tokenExist","offset":0,"slot":"6","type":"t_mapping(t_address,t_mapping(t_address,t_bool))"}],"types":{"t_address":{"encoding":"inplace","label":"address","numberOfBytes":"20"},"t_array(t_address)dyn_storage":{"base":"t_address","encoding":"dynamic_array","label":"address[]","numberOfBytes":"32"},"t_bool":{"encoding":"inplace","label":"bool","numberOfBytes":"1"},"t_mapping(t_address,t_array(t_address)dyn_storage)":{"encoding":"mapping","key":"t_address","label":"mapping(address => address[])","numberOfBytes":"32","value":"t_array(t_address)dyn_storage"},"t_mapping(t_address,t_bool)":{"encoding":"mapping","key":"t_address","label":"mapping(address => bool)","numberOfBytes":"32","value":"t_bool"},"t_mapping(t_address,t_mapping(t_address,t_bool))":{"encoding":"mapping","key":"t_address","label":"mapping(address => mapping(address => bool))","numberOfBytes":"32","value":"t_mapping(t_address,t_bool)"},"t_mapping(t_address,t_mapping(t_address,t_uint256))":{"encoding":"mapping","key":"t_address","label":"mapping(address => mapping(address => uint256))","numberOfBytes":"32","value":"t_mapping(t_address,t_uint256)"},"t_mapping(t_address,t_uint256)":{"encoding":"mapping","key":"t_address","label":"mapping(address => uint256)","numberOfBytes":"32","value":"t_uint256"},"t_uint256":{"encoding":"inplace","label":"uint256","numberOfBytes":"32"}}}}}}